{
	"contracts/Lending.sol": {
		"LendingPlatform": {
			"abi": [
				{
					"inputs": [
						{
							"internalType": "address",
							"name": "_tokenAddress",
							"type": "address"
						},
						{
							"internalType": "uint256",
							"name": "_baseInterestRate",
							"type": "uint256"
						},
						{
							"internalType": "uint256",
							"name": "_interestRatePerDuration",
							"type": "uint256"
						},
						{
							"internalType": "uint256",
							"name": "_minDuration",
							"type": "uint256"
						}
					],
					"stateMutability": "nonpayable",
					"type": "constructor"
				},
				{
					"inputs": [
						{
							"internalType": "address",
							"name": "target",
							"type": "address"
						}
					],
					"name": "AddressEmptyCode",
					"type": "error"
				},
				{
					"inputs": [
						{
							"internalType": "address",
							"name": "account",
							"type": "address"
						}
					],
					"name": "AddressInsufficientBalance",
					"type": "error"
				},
				{
					"inputs": [],
					"name": "FailedInnerCall",
					"type": "error"
				},
				{
					"inputs": [
						{
							"internalType": "address",
							"name": "owner",
							"type": "address"
						}
					],
					"name": "OwnableInvalidOwner",
					"type": "error"
				},
				{
					"inputs": [
						{
							"internalType": "address",
							"name": "account",
							"type": "address"
						}
					],
					"name": "OwnableUnauthorizedAccount",
					"type": "error"
				},
				{
					"inputs": [],
					"name": "ReentrancyGuardReentrantCall",
					"type": "error"
				},
				{
					"inputs": [
						{
							"internalType": "address",
							"name": "token",
							"type": "address"
						}
					],
					"name": "SafeERC20FailedOperation",
					"type": "error"
				},
				{
					"anonymous": false,
					"inputs": [
						{
							"indexed": true,
							"internalType": "address",
							"name": "borrower",
							"type": "address"
						},
						{
							"indexed": false,
							"internalType": "uint256",
							"name": "amount",
							"type": "uint256"
						},
						{
							"indexed": false,
							"internalType": "uint256",
							"name": "interest",
							"type": "uint256"
						},
						{
							"indexed": false,
							"internalType": "uint256",
							"name": "duration",
							"type": "uint256"
						}
					],
					"name": "Borrow",
					"type": "event"
				},
				{
					"anonymous": false,
					"inputs": [
						{
							"indexed": true,
							"internalType": "address",
							"name": "previousOwner",
							"type": "address"
						},
						{
							"indexed": true,
							"internalType": "address",
							"name": "newOwner",
							"type": "address"
						}
					],
					"name": "OwnershipTransferred",
					"type": "event"
				},
				{
					"anonymous": false,
					"inputs": [
						{
							"indexed": true,
							"internalType": "address",
							"name": "borrower",
							"type": "address"
						},
						{
							"indexed": false,
							"internalType": "uint256",
							"name": "amount",
							"type": "uint256"
						}
					],
					"name": "Repay",
					"type": "event"
				},
				{
					"inputs": [],
					"name": "baseInterestRate",
					"outputs": [
						{
							"internalType": "uint256",
							"name": "",
							"type": "uint256"
						}
					],
					"stateMutability": "view",
					"type": "function"
				},
				{
					"inputs": [
						{
							"internalType": "uint256",
							"name": "_amount",
							"type": "uint256"
						},
						{
							"internalType": "uint256",
							"name": "_duration",
							"type": "uint256"
						}
					],
					"name": "borrow",
					"outputs": [],
					"stateMutability": "nonpayable",
					"type": "function"
				},
				{
					"inputs": [
						{
							"internalType": "address",
							"name": "",
							"type": "address"
						}
					],
					"name": "borrowedAmounts",
					"outputs": [
						{
							"internalType": "uint256",
							"name": "",
							"type": "uint256"
						}
					],
					"stateMutability": "view",
					"type": "function"
				},
				{
					"inputs": [
						{
							"internalType": "uint256",
							"name": "_amount",
							"type": "uint256"
						},
						{
							"internalType": "uint256",
							"name": "_duration",
							"type": "uint256"
						}
					],
					"name": "calculateInterest",
					"outputs": [
						{
							"internalType": "uint256",
							"name": "",
							"type": "uint256"
						}
					],
					"stateMutability": "view",
					"type": "function"
				},
				{
					"inputs": [],
					"name": "interestRatePerDuration",
					"outputs": [
						{
							"internalType": "uint256",
							"name": "",
							"type": "uint256"
						}
					],
					"stateMutability": "view",
					"type": "function"
				},
				{
					"inputs": [],
					"name": "minDuration",
					"outputs": [
						{
							"internalType": "uint256",
							"name": "",
							"type": "uint256"
						}
					],
					"stateMutability": "view",
					"type": "function"
				},
				{
					"inputs": [],
					"name": "owner",
					"outputs": [
						{
							"internalType": "address",
							"name": "",
							"type": "address"
						}
					],
					"stateMutability": "view",
					"type": "function"
				},
				{
					"inputs": [],
					"name": "renounceOwnership",
					"outputs": [],
					"stateMutability": "nonpayable",
					"type": "function"
				},
				{
					"inputs": [
						{
							"internalType": "uint256",
							"name": "_amount",
							"type": "uint256"
						}
					],
					"name": "repay",
					"outputs": [],
					"stateMutability": "nonpayable",
					"type": "function"
				},
				{
					"inputs": [],
					"name": "token",
					"outputs": [
						{
							"internalType": "contract IERC20",
							"name": "",
							"type": "address"
						}
					],
					"stateMutability": "view",
					"type": "function"
				},
				{
					"inputs": [
						{
							"internalType": "address",
							"name": "newOwner",
							"type": "address"
						}
					],
					"name": "transferOwnership",
					"outputs": [],
					"stateMutability": "nonpayable",
					"type": "function"
				},
				{
					"inputs": [
						{
							"internalType": "uint256",
							"name": "_amount",
							"type": "uint256"
						}
					],
					"name": "withdrawFunds",
					"outputs": [],
					"stateMutability": "nonpayable",
					"type": "function"
				}
			],
			"devdoc": {
				"errors": {
					"AddressEmptyCode(address)": [
						{
							"details": "There's no code at `target` (it is not a contract)."
						}
					],
					"AddressInsufficientBalance(address)": [
						{
							"details": "The ETH balance of the account is not enough to perform the operation."
						}
					],
					"FailedInnerCall()": [
						{
							"details": "A call to an address target failed. The target may have reverted."
						}
					],
					"OwnableInvalidOwner(address)": [
						{
							"details": "The owner is not a valid owner account. (eg. `address(0)`)"
						}
					],
					"OwnableUnauthorizedAccount(address)": [
						{
							"details": "The caller account is not authorized to perform an operation."
						}
					],
					"ReentrancyGuardReentrantCall()": [
						{
							"details": "Unauthorized reentrant call."
						}
					],
					"SafeERC20FailedOperation(address)": [
						{
							"details": "An operation with an ERC20 token failed."
						}
					]
				},
				"kind": "dev",
				"methods": {
					"borrow(uint256,uint256)": {
						"details": "Function to borrow funds",
						"params": {
							"_amount": "The amount to borrow",
							"_duration": "The borrowing duration in seconds"
						}
					},
					"calculateInterest(uint256,uint256)": {
						"details": "Function to calculate interest based on the borrowing amount and duration",
						"params": {
							"_amount": "The borrowing amount",
							"_duration": "The borrowing duration in seconds"
						},
						"returns": {
							"_0": "The calculated interest amount"
						}
					},
					"constructor": {
						"details": "Constructor to initialize the lending platform",
						"params": {
							"_baseInterestRate": "Base interest rate in basis points (1% = 100)",
							"_interestRatePerDuration": "Interest rate per second",
							"_minDuration": "Minimum borrowing duration in seconds",
							"_tokenAddress": "Address of the ERC20 token used for lending"
						}
					},
					"owner()": {
						"details": "Returns the address of the current owner."
					},
					"renounceOwnership()": {
						"details": "Leaves the contract without owner. It will not be possible to call `onlyOwner` functions. Can only be called by the current owner. NOTE: Renouncing ownership will leave the contract without an owner, thereby disabling any functionality that is only available to the owner."
					},
					"repay(uint256)": {
						"details": "Function to repay borrowed funds",
						"params": {
							"_amount": "The amount to repay"
						}
					},
					"transferOwnership(address)": {
						"details": "Transfers ownership of the contract to a new account (`newOwner`). Can only be called by the current owner."
					},
					"withdrawFunds(uint256)": {
						"details": "Function to withdraw excess funds from the contract by the owner",
						"params": {
							"_amount": "The amount to withdraw"
						}
					}
				},
				"title": "Borrowing and Lending Smart Contract",
				"version": 1
			},
			"evm": {
				"assembly": "    /* \"contracts/Lending.sol\":415:4960  contract LendingPlatform is Ownable, ReentrancyGuard {... */\n  mstore(0x40, 0x80)\n    /* \"contracts/Lending.sol\":1484:2201  constructor(... */\n  callvalue\n  dup1\n  iszero\n  tag_1\n  jumpi\n  0x00\n  dup1\n  revert\ntag_1:\n  pop\n  mload(0x40)\n  sub(codesize, bytecodeSize)\n  dup1\n  bytecodeSize\n  dup4\n  codecopy\n  dup2\n  dup2\n  add\n  0x40\n  mstore\n  dup2\n  add\n  swap1\n  tag_2\n  swap2\n  swap1\n  tag_3\n  jump\t// in\ntag_2:\n    /* \"contracts/Lending.sol\":1650:1660  msg.sender */\n  caller\n    /* \"@openzeppelin/contracts/access/Ownable.sol\":1297:1298  0 */\n  0x00\n    /* \"@openzeppelin/contracts/access/Ownable.sol\":1273:1299  initialOwner == address(0) */\n  0xffffffffffffffffffffffffffffffffffffffff\n  and\n    /* \"@openzeppelin/contracts/access/Ownable.sol\":1273:1285  initialOwner */\n  dup2\n    /* \"@openzeppelin/contracts/access/Ownable.sol\":1273:1299  initialOwner == address(0) */\n  0xffffffffffffffffffffffffffffffffffffffff\n  and\n  sub\n    /* \"@openzeppelin/contracts/access/Ownable.sol\":1269:1364  if (initialOwner == address(0)) {... */\n  tag_8\n  jumpi\n    /* \"@openzeppelin/contracts/access/Ownable.sol\":1350:1351  0 */\n  0x00\n    /* \"@openzeppelin/contracts/access/Ownable.sol\":1322:1353  OwnableInvalidOwner(address(0)) */\n  mload(0x40)\n  0x1e4fbdf700000000000000000000000000000000000000000000000000000000\n  dup2\n  mstore\n  0x04\n  add\n  tag_9\n  swap2\n  swap1\n  tag_10\n  jump\t// in\ntag_9:\n  mload(0x40)\n  dup1\n  swap2\n  sub\n  swap1\n  revert\n    /* \"@openzeppelin/contracts/access/Ownable.sol\":1269:1364  if (initialOwner == address(0)) {... */\ntag_8:\n    /* \"@openzeppelin/contracts/access/Ownable.sol\":1373:1405  _transferOwnership(initialOwner) */\n  tag_11\n    /* \"@openzeppelin/contracts/access/Ownable.sol\":1392:1404  initialOwner */\n  dup2\n    /* \"@openzeppelin/contracts/access/Ownable.sol\":1373:1391  _transferOwnership */\n  shl(0x20, tag_12)\n    /* \"@openzeppelin/contracts/access/Ownable.sol\":1373:1405  _transferOwnership(initialOwner) */\n  0x20\n  shr\n  jump\t// in\ntag_11:\n    /* \"@openzeppelin/contracts/access/Ownable.sol\":1225:1412  constructor(address initialOwner) {... */\n  pop\n    /* \"@openzeppelin/contracts/utils/ReentrancyGuard.sol\":1713:1714  1 */\n  0x01\n    /* \"@openzeppelin/contracts/utils/ReentrancyGuard.sol\":1917:1924  _status */\n  dup1\n    /* \"@openzeppelin/contracts/utils/ReentrancyGuard.sol\":1917:1938  _status = NOT_ENTERED */\n  dup2\n  swap1\n  sstore\n  pop\n    /* \"contracts/Lending.sol\":1705:1706  0 */\n  0x00\n    /* \"contracts/Lending.sol\":1680:1707  _tokenAddress != address(0) */\n  0xffffffffffffffffffffffffffffffffffffffff\n  and\n    /* \"contracts/Lending.sol\":1680:1693  _tokenAddress */\n  dup5\n    /* \"contracts/Lending.sol\":1680:1707  _tokenAddress != address(0) */\n  0xffffffffffffffffffffffffffffffffffffffff\n  and\n  sub\n    /* \"contracts/Lending.sol\":1672:1740  require(_tokenAddress != address(0), \"Token address cannot be zero\") */\n  tag_15\n  jumpi\n  mload(0x40)\n  0x08c379a000000000000000000000000000000000000000000000000000000000\n  dup2\n  mstore\n  0x04\n  add\n  tag_16\n  swap1\n  tag_17\n  jump\t// in\ntag_16:\n  mload(0x40)\n  dup1\n  swap2\n  sub\n  swap1\n  revert\ntag_15:\n    /* \"contracts/Lending.sol\":1778:1779  0 */\n  0x00\n    /* \"contracts/Lending.sol\":1758:1775  _baseInterestRate */\n  dup4\n    /* \"contracts/Lending.sol\":1758:1779  _baseInterestRate > 0 */\n  gt\n    /* \"contracts/Lending.sol\":1750:1828  require(_baseInterestRate > 0, \"Base interest rate must be greater than zero\") */\n  tag_18\n  jumpi\n  mload(0x40)\n  0x08c379a000000000000000000000000000000000000000000000000000000000\n  dup2\n  mstore\n  0x04\n  add\n  tag_19\n  swap1\n  tag_20\n  jump\t// in\ntag_19:\n  mload(0x40)\n  dup1\n  swap2\n  sub\n  swap1\n  revert\ntag_18:\n    /* \"contracts/Lending.sol\":1873:1874  0 */\n  0x00\n    /* \"contracts/Lending.sol\":1846:1870  _interestRatePerDuration */\n  dup3\n    /* \"contracts/Lending.sol\":1846:1874  _interestRatePerDuration > 0 */\n  gt\n    /* \"contracts/Lending.sol\":1838:1931  require(_interestRatePerDuration > 0, \"Interest rate per duration must be greater than zero\") */\n  tag_21\n  jumpi\n  mload(0x40)\n  0x08c379a000000000000000000000000000000000000000000000000000000000\n  dup2\n  mstore\n  0x04\n  add\n  tag_22\n  swap1\n  tag_23\n  jump\t// in\ntag_22:\n  mload(0x40)\n  dup1\n  swap2\n  sub\n  swap1\n  revert\ntag_21:\n    /* \"contracts/Lending.sol\":1964:1965  0 */\n  0x00\n    /* \"contracts/Lending.sol\":1949:1961  _minDuration */\n  dup2\n    /* \"contracts/Lending.sol\":1949:1965  _minDuration > 0 */\n  gt\n    /* \"contracts/Lending.sol\":1941:2012  require(_minDuration > 0, \"Minimum duration must be greater than zero\") */\n  tag_24\n  jumpi\n  mload(0x40)\n  0x08c379a000000000000000000000000000000000000000000000000000000000\n  dup2\n  mstore\n  0x04\n  add\n  tag_25\n  swap1\n  tag_26\n  jump\t// in\ntag_25:\n  mload(0x40)\n  dup1\n  swap2\n  sub\n  swap1\n  revert\ntag_24:\n    /* \"contracts/Lending.sol\":2038:2051  _tokenAddress */\n  dup4\n    /* \"contracts/Lending.sol\":2023:2028  token */\n  0x02\n  0x00\n    /* \"contracts/Lending.sol\":2023:2052  token = IERC20(_tokenAddress) */\n  0x0100\n  exp\n  dup2\n  sload\n  dup2\n  0xffffffffffffffffffffffffffffffffffffffff\n  mul\n  not\n  and\n  swap1\n  dup4\n  0xffffffffffffffffffffffffffffffffffffffff\n  and\n  mul\n  or\n  swap1\n  sstore\n  pop\n    /* \"contracts/Lending.sol\":2081:2098  _baseInterestRate */\n  dup3\n    /* \"contracts/Lending.sol\":2062:2078  baseInterestRate */\n  0x04\n    /* \"contracts/Lending.sol\":2062:2098  baseInterestRate = _baseInterestRate */\n  dup2\n  swap1\n  sstore\n  pop\n    /* \"contracts/Lending.sol\":2134:2158  _interestRatePerDuration */\n  dup2\n    /* \"contracts/Lending.sol\":2108:2131  interestRatePerDuration */\n  0x05\n    /* \"contracts/Lending.sol\":2108:2158  interestRatePerDuration = _interestRatePerDuration */\n  dup2\n  swap1\n  sstore\n  pop\n    /* \"contracts/Lending.sol\":2182:2194  _minDuration */\n  dup1\n    /* \"contracts/Lending.sol\":2168:2179  minDuration */\n  0x06\n    /* \"contracts/Lending.sol\":2168:2194  minDuration = _minDuration */\n  dup2\n  swap1\n  sstore\n  pop\n    /* \"contracts/Lending.sol\":1484:2201  constructor(... */\n  pop\n  pop\n  pop\n  pop\n    /* \"contracts/Lending.sol\":415:4960  contract LendingPlatform is Ownable, ReentrancyGuard {... */\n  jump(tag_27)\n    /* \"@openzeppelin/contracts/access/Ownable.sol\":2912:3099  function _transferOwnership(address newOwner) internal virtual {... */\ntag_12:\n    /* \"@openzeppelin/contracts/access/Ownable.sol\":2985:3001  address oldOwner */\n  0x00\n    /* \"@openzeppelin/contracts/access/Ownable.sol\":3004:3010  _owner */\n  dup1\n  0x00\n  swap1\n  sload\n  swap1\n  0x0100\n  exp\n  swap1\n  div\n  0xffffffffffffffffffffffffffffffffffffffff\n  and\n    /* \"@openzeppelin/contracts/access/Ownable.sol\":2985:3010  address oldOwner = _owner */\n  swap1\n  pop\n    /* \"@openzeppelin/contracts/access/Ownable.sol\":3029:3037  newOwner */\n  dup2\n    /* \"@openzeppelin/contracts/access/Ownable.sol\":3020:3026  _owner */\n  0x00\n  dup1\n    /* \"@openzeppelin/contracts/access/Ownable.sol\":3020:3037  _owner = newOwner */\n  0x0100\n  exp\n  dup2\n  sload\n  dup2\n  0xffffffffffffffffffffffffffffffffffffffff\n  mul\n  not\n  and\n  swap1\n  dup4\n  0xffffffffffffffffffffffffffffffffffffffff\n  and\n  mul\n  or\n  swap1\n  sstore\n  pop\n    /* \"@openzeppelin/contracts/access/Ownable.sol\":3083:3091  newOwner */\n  dup2\n    /* \"@openzeppelin/contracts/access/Ownable.sol\":3052:3092  OwnershipTransferred(oldOwner, newOwner) */\n  0xffffffffffffffffffffffffffffffffffffffff\n  and\n    /* \"@openzeppelin/contracts/access/Ownable.sol\":3073:3081  oldOwner */\n  dup2\n    /* \"@openzeppelin/contracts/access/Ownable.sol\":3052:3092  OwnershipTransferred(oldOwner, newOwner) */\n  0xffffffffffffffffffffffffffffffffffffffff\n  and\n  0x8be0079c531659141344cd1fd0a4f28419497f9722a3daafe3b4186f6b6457e0\n  mload(0x40)\n  mload(0x40)\n  dup1\n  swap2\n  sub\n  swap1\n  log3\n    /* \"@openzeppelin/contracts/access/Ownable.sol\":2975:3099  {... */\n  pop\n    /* \"@openzeppelin/contracts/access/Ownable.sol\":2912:3099  function _transferOwnership(address newOwner) internal virtual {... */\n  pop\n  jump\t// out\n    /* \"#utility.yul\":88:205   */\ntag_30:\n    /* \"#utility.yul\":197:198   */\n  0x00\n    /* \"#utility.yul\":194:195   */\n  dup1\n    /* \"#utility.yul\":187:199   */\n  revert\n    /* \"#utility.yul\":334:460   */\ntag_32:\n    /* \"#utility.yul\":371:378   */\n  0x00\n    /* \"#utility.yul\":411:453   */\n  0xffffffffffffffffffffffffffffffffffffffff\n    /* \"#utility.yul\":404:409   */\n  dup3\n    /* \"#utility.yul\":400:454   */\n  and\n    /* \"#utility.yul\":389:454   */\n  swap1\n  pop\n    /* \"#utility.yul\":334:460   */\n  swap2\n  swap1\n  pop\n  jump\t// out\n    /* \"#utility.yul\":466:562   */\ntag_33:\n    /* \"#utility.yul\":503:510   */\n  0x00\n    /* \"#utility.yul\":532:556   */\n  tag_55\n    /* \"#utility.yul\":550:555   */\n  dup3\n    /* \"#utility.yul\":532:556   */\n  tag_32\n  jump\t// in\ntag_55:\n    /* \"#utility.yul\":521:556   */\n  swap1\n  pop\n    /* \"#utility.yul\":466:562   */\n  swap2\n  swap1\n  pop\n  jump\t// out\n    /* \"#utility.yul\":568:690   */\ntag_34:\n    /* \"#utility.yul\":641:665   */\n  tag_57\n    /* \"#utility.yul\":659:664   */\n  dup2\n    /* \"#utility.yul\":641:665   */\n  tag_33\n  jump\t// in\ntag_57:\n    /* \"#utility.yul\":634:639   */\n  dup2\n    /* \"#utility.yul\":631:666   */\n  eq\n    /* \"#utility.yul\":621:684   */\n  tag_58\n  jumpi\n    /* \"#utility.yul\":680:681   */\n  0x00\n    /* \"#utility.yul\":677:678   */\n  dup1\n    /* \"#utility.yul\":670:682   */\n  revert\n    /* \"#utility.yul\":621:684   */\ntag_58:\n    /* \"#utility.yul\":568:690   */\n  pop\n  jump\t// out\n    /* \"#utility.yul\":696:839   */\ntag_35:\n    /* \"#utility.yul\":753:758   */\n  0x00\n    /* \"#utility.yul\":784:790   */\n  dup2\n    /* \"#utility.yul\":778:791   */\n  mload\n    /* \"#utility.yul\":769:791   */\n  swap1\n  pop\n    /* \"#utility.yul\":800:833   */\n  tag_60\n    /* \"#utility.yul\":827:832   */\n  dup2\n    /* \"#utility.yul\":800:833   */\n  tag_34\n  jump\t// in\ntag_60:\n    /* \"#utility.yul\":696:839   */\n  swap3\n  swap2\n  pop\n  pop\n  jump\t// out\n    /* \"#utility.yul\":845:922   */\ntag_36:\n    /* \"#utility.yul\":882:889   */\n  0x00\n    /* \"#utility.yul\":911:916   */\n  dup2\n    /* \"#utility.yul\":900:916   */\n  swap1\n  pop\n    /* \"#utility.yul\":845:922   */\n  swap2\n  swap1\n  pop\n  jump\t// out\n    /* \"#utility.yul\":928:1050   */\ntag_37:\n    /* \"#utility.yul\":1001:1025   */\n  tag_63\n    /* \"#utility.yul\":1019:1024   */\n  dup2\n    /* \"#utility.yul\":1001:1025   */\n  tag_36\n  jump\t// in\ntag_63:\n    /* \"#utility.yul\":994:999   */\n  dup2\n    /* \"#utility.yul\":991:1026   */\n  eq\n    /* \"#utility.yul\":981:1044   */\n  tag_64\n  jumpi\n    /* \"#utility.yul\":1040:1041   */\n  0x00\n    /* \"#utility.yul\":1037:1038   */\n  dup1\n    /* \"#utility.yul\":1030:1042   */\n  revert\n    /* \"#utility.yul\":981:1044   */\ntag_64:\n    /* \"#utility.yul\":928:1050   */\n  pop\n  jump\t// out\n    /* \"#utility.yul\":1056:1199   */\ntag_38:\n    /* \"#utility.yul\":1113:1118   */\n  0x00\n    /* \"#utility.yul\":1144:1150   */\n  dup2\n    /* \"#utility.yul\":1138:1151   */\n  mload\n    /* \"#utility.yul\":1129:1151   */\n  swap1\n  pop\n    /* \"#utility.yul\":1160:1193   */\n  tag_66\n    /* \"#utility.yul\":1187:1192   */\n  dup2\n    /* \"#utility.yul\":1160:1193   */\n  tag_37\n  jump\t// in\ntag_66:\n    /* \"#utility.yul\":1056:1199   */\n  swap3\n  swap2\n  pop\n  pop\n  jump\t// out\n    /* \"#utility.yul\":1205:2025   */\ntag_3:\n    /* \"#utility.yul\":1302:1308   */\n  0x00\n    /* \"#utility.yul\":1310:1316   */\n  dup1\n    /* \"#utility.yul\":1318:1324   */\n  0x00\n    /* \"#utility.yul\":1326:1332   */\n  dup1\n    /* \"#utility.yul\":1375:1378   */\n  0x80\n    /* \"#utility.yul\":1363:1372   */\n  dup6\n    /* \"#utility.yul\":1354:1361   */\n  dup8\n    /* \"#utility.yul\":1350:1373   */\n  sub\n    /* \"#utility.yul\":1346:1379   */\n  slt\n    /* \"#utility.yul\":1343:1463   */\n  iszero\n  tag_68\n  jumpi\n    /* \"#utility.yul\":1382:1461   */\n  tag_69\n  tag_30\n  jump\t// in\ntag_69:\n    /* \"#utility.yul\":1343:1463   */\ntag_68:\n    /* \"#utility.yul\":1502:1503   */\n  0x00\n    /* \"#utility.yul\":1527:1591   */\n  tag_70\n    /* \"#utility.yul\":1583:1590   */\n  dup8\n    /* \"#utility.yul\":1574:1580   */\n  dup3\n    /* \"#utility.yul\":1563:1572   */\n  dup9\n    /* \"#utility.yul\":1559:1581   */\n  add\n    /* \"#utility.yul\":1527:1591   */\n  tag_35\n  jump\t// in\ntag_70:\n    /* \"#utility.yul\":1517:1591   */\n  swap5\n  pop\n    /* \"#utility.yul\":1473:1601   */\n  pop\n    /* \"#utility.yul\":1640:1642   */\n  0x20\n    /* \"#utility.yul\":1666:1730   */\n  tag_71\n    /* \"#utility.yul\":1722:1729   */\n  dup8\n    /* \"#utility.yul\":1713:1719   */\n  dup3\n    /* \"#utility.yul\":1702:1711   */\n  dup9\n    /* \"#utility.yul\":1698:1720   */\n  add\n    /* \"#utility.yul\":1666:1730   */\n  tag_38\n  jump\t// in\ntag_71:\n    /* \"#utility.yul\":1656:1730   */\n  swap4\n  pop\n    /* \"#utility.yul\":1611:1740   */\n  pop\n    /* \"#utility.yul\":1779:1781   */\n  0x40\n    /* \"#utility.yul\":1805:1869   */\n  tag_72\n    /* \"#utility.yul\":1861:1868   */\n  dup8\n    /* \"#utility.yul\":1852:1858   */\n  dup3\n    /* \"#utility.yul\":1841:1850   */\n  dup9\n    /* \"#utility.yul\":1837:1859   */\n  add\n    /* \"#utility.yul\":1805:1869   */\n  tag_38\n  jump\t// in\ntag_72:\n    /* \"#utility.yul\":1795:1869   */\n  swap3\n  pop\n    /* \"#utility.yul\":1750:1879   */\n  pop\n    /* \"#utility.yul\":1918:1920   */\n  0x60\n    /* \"#utility.yul\":1944:2008   */\n  tag_73\n    /* \"#utility.yul\":2000:2007   */\n  dup8\n    /* \"#utility.yul\":1991:1997   */\n  dup3\n    /* \"#utility.yul\":1980:1989   */\n  dup9\n    /* \"#utility.yul\":1976:1998   */\n  add\n    /* \"#utility.yul\":1944:2008   */\n  tag_38\n  jump\t// in\ntag_73:\n    /* \"#utility.yul\":1934:2008   */\n  swap2\n  pop\n    /* \"#utility.yul\":1889:2018   */\n  pop\n    /* \"#utility.yul\":1205:2025   */\n  swap3\n  swap6\n  swap2\n  swap5\n  pop\n  swap3\n  pop\n  jump\t// out\n    /* \"#utility.yul\":2031:2149   */\ntag_39:\n    /* \"#utility.yul\":2118:2142   */\n  tag_75\n    /* \"#utility.yul\":2136:2141   */\n  dup2\n    /* \"#utility.yul\":2118:2142   */\n  tag_33\n  jump\t// in\ntag_75:\n    /* \"#utility.yul\":2113:2116   */\n  dup3\n    /* \"#utility.yul\":2106:2143   */\n  mstore\n    /* \"#utility.yul\":2031:2149   */\n  pop\n  pop\n  jump\t// out\n    /* \"#utility.yul\":2155:2377   */\ntag_10:\n    /* \"#utility.yul\":2248:2252   */\n  0x00\n    /* \"#utility.yul\":2286:2288   */\n  0x20\n    /* \"#utility.yul\":2275:2284   */\n  dup3\n    /* \"#utility.yul\":2271:2289   */\n  add\n    /* \"#utility.yul\":2263:2289   */\n  swap1\n  pop\n    /* \"#utility.yul\":2299:2370   */\n  tag_77\n    /* \"#utility.yul\":2367:2368   */\n  0x00\n    /* \"#utility.yul\":2356:2365   */\n  dup4\n    /* \"#utility.yul\":2352:2369   */\n  add\n    /* \"#utility.yul\":2343:2349   */\n  dup5\n    /* \"#utility.yul\":2299:2370   */\n  tag_39\n  jump\t// in\ntag_77:\n    /* \"#utility.yul\":2155:2377   */\n  swap3\n  swap2\n  pop\n  pop\n  jump\t// out\n    /* \"#utility.yul\":2383:2552   */\ntag_40:\n    /* \"#utility.yul\":2467:2478   */\n  0x00\n    /* \"#utility.yul\":2501:2507   */\n  dup3\n    /* \"#utility.yul\":2496:2499   */\n  dup3\n    /* \"#utility.yul\":2489:2508   */\n  mstore\n    /* \"#utility.yul\":2541:2545   */\n  0x20\n    /* \"#utility.yul\":2536:2539   */\n  dup3\n    /* \"#utility.yul\":2532:2546   */\n  add\n    /* \"#utility.yul\":2517:2546   */\n  swap1\n  pop\n    /* \"#utility.yul\":2383:2552   */\n  swap3\n  swap2\n  pop\n  pop\n  jump\t// out\n    /* \"#utility.yul\":2558:2736   */\ntag_41:\n    /* \"#utility.yul\":2698:2728   */\n  0x546f6b656e20616464726573732063616e6e6f74206265207a65726f00000000\n    /* \"#utility.yul\":2694:2695   */\n  0x00\n    /* \"#utility.yul\":2686:2692   */\n  dup3\n    /* \"#utility.yul\":2682:2696   */\n  add\n    /* \"#utility.yul\":2675:2729   */\n  mstore\n    /* \"#utility.yul\":2558:2736   */\n  pop\n  jump\t// out\n    /* \"#utility.yul\":2742:3108   */\ntag_42:\n    /* \"#utility.yul\":2884:2887   */\n  0x00\n    /* \"#utility.yul\":2905:2972   */\n  tag_81\n    /* \"#utility.yul\":2969:2971   */\n  0x1c\n    /* \"#utility.yul\":2964:2967   */\n  dup4\n    /* \"#utility.yul\":2905:2972   */\n  tag_40\n  jump\t// in\ntag_81:\n    /* \"#utility.yul\":2898:2972   */\n  swap2\n  pop\n    /* \"#utility.yul\":2981:3074   */\n  tag_82\n    /* \"#utility.yul\":3070:3073   */\n  dup3\n    /* \"#utility.yul\":2981:3074   */\n  tag_41\n  jump\t// in\ntag_82:\n    /* \"#utility.yul\":3099:3101   */\n  0x20\n    /* \"#utility.yul\":3094:3097   */\n  dup3\n    /* \"#utility.yul\":3090:3102   */\n  add\n    /* \"#utility.yul\":3083:3102   */\n  swap1\n  pop\n    /* \"#utility.yul\":2742:3108   */\n  swap2\n  swap1\n  pop\n  jump\t// out\n    /* \"#utility.yul\":3114:3533   */\ntag_17:\n    /* \"#utility.yul\":3280:3284   */\n  0x00\n    /* \"#utility.yul\":3318:3320   */\n  0x20\n    /* \"#utility.yul\":3307:3316   */\n  dup3\n    /* \"#utility.yul\":3303:3321   */\n  add\n    /* \"#utility.yul\":3295:3321   */\n  swap1\n  pop\n    /* \"#utility.yul\":3367:3376   */\n  dup2\n    /* \"#utility.yul\":3361:3365   */\n  dup2\n    /* \"#utility.yul\":3357:3377   */\n  sub\n    /* \"#utility.yul\":3353:3354   */\n  0x00\n    /* \"#utility.yul\":3342:3351   */\n  dup4\n    /* \"#utility.yul\":3338:3355   */\n  add\n    /* \"#utility.yul\":3331:3378   */\n  mstore\n    /* \"#utility.yul\":3395:3526   */\n  tag_84\n    /* \"#utility.yul\":3521:3525   */\n  dup2\n    /* \"#utility.yul\":3395:3526   */\n  tag_42\n  jump\t// in\ntag_84:\n    /* \"#utility.yul\":3387:3526   */\n  swap1\n  pop\n    /* \"#utility.yul\":3114:3533   */\n  swap2\n  swap1\n  pop\n  jump\t// out\n    /* \"#utility.yul\":3539:3770   */\ntag_43:\n    /* \"#utility.yul\":3679:3713   */\n  0x4261736520696e7465726573742072617465206d757374206265206772656174\n    /* \"#utility.yul\":3675:3676   */\n  0x00\n    /* \"#utility.yul\":3667:3673   */\n  dup3\n    /* \"#utility.yul\":3663:3677   */\n  add\n    /* \"#utility.yul\":3656:3714   */\n  mstore\n    /* \"#utility.yul\":3748:3762   */\n  0x6572207468616e207a65726f0000000000000000000000000000000000000000\n    /* \"#utility.yul\":3743:3745   */\n  0x20\n    /* \"#utility.yul\":3735:3741   */\n  dup3\n    /* \"#utility.yul\":3731:3746   */\n  add\n    /* \"#utility.yul\":3724:3763   */\n  mstore\n    /* \"#utility.yul\":3539:3770   */\n  pop\n  jump\t// out\n    /* \"#utility.yul\":3776:4142   */\ntag_44:\n    /* \"#utility.yul\":3918:3921   */\n  0x00\n    /* \"#utility.yul\":3939:4006   */\n  tag_87\n    /* \"#utility.yul\":4003:4005   */\n  0x2c\n    /* \"#utility.yul\":3998:4001   */\n  dup4\n    /* \"#utility.yul\":3939:4006   */\n  tag_40\n  jump\t// in\ntag_87:\n    /* \"#utility.yul\":3932:4006   */\n  swap2\n  pop\n    /* \"#utility.yul\":4015:4108   */\n  tag_88\n    /* \"#utility.yul\":4104:4107   */\n  dup3\n    /* \"#utility.yul\":4015:4108   */\n  tag_43\n  jump\t// in\ntag_88:\n    /* \"#utility.yul\":4133:4135   */\n  0x40\n    /* \"#utility.yul\":4128:4131   */\n  dup3\n    /* \"#utility.yul\":4124:4136   */\n  add\n    /* \"#utility.yul\":4117:4136   */\n  swap1\n  pop\n    /* \"#utility.yul\":3776:4142   */\n  swap2\n  swap1\n  pop\n  jump\t// out\n    /* \"#utility.yul\":4148:4567   */\ntag_20:\n    /* \"#utility.yul\":4314:4318   */\n  0x00\n    /* \"#utility.yul\":4352:4354   */\n  0x20\n    /* \"#utility.yul\":4341:4350   */\n  dup3\n    /* \"#utility.yul\":4337:4355   */\n  add\n    /* \"#utility.yul\":4329:4355   */\n  swap1\n  pop\n    /* \"#utility.yul\":4401:4410   */\n  dup2\n    /* \"#utility.yul\":4395:4399   */\n  dup2\n    /* \"#utility.yul\":4391:4411   */\n  sub\n    /* \"#utility.yul\":4387:4388   */\n  0x00\n    /* \"#utility.yul\":4376:4385   */\n  dup4\n    /* \"#utility.yul\":4372:4389   */\n  add\n    /* \"#utility.yul\":4365:4412   */\n  mstore\n    /* \"#utility.yul\":4429:4560   */\n  tag_90\n    /* \"#utility.yul\":4555:4559   */\n  dup2\n    /* \"#utility.yul\":4429:4560   */\n  tag_44\n  jump\t// in\ntag_90:\n    /* \"#utility.yul\":4421:4560   */\n  swap1\n  pop\n    /* \"#utility.yul\":4148:4567   */\n  swap2\n  swap1\n  pop\n  jump\t// out\n    /* \"#utility.yul\":4573:4812   */\ntag_45:\n    /* \"#utility.yul\":4713:4747   */\n  0x496e746572657374207261746520706572206475726174696f6e206d75737420\n    /* \"#utility.yul\":4709:4710   */\n  0x00\n    /* \"#utility.yul\":4701:4707   */\n  dup3\n    /* \"#utility.yul\":4697:4711   */\n  add\n    /* \"#utility.yul\":4690:4748   */\n  mstore\n    /* \"#utility.yul\":4782:4804   */\n  0x62652067726561746572207468616e207a65726f000000000000000000000000\n    /* \"#utility.yul\":4777:4779   */\n  0x20\n    /* \"#utility.yul\":4769:4775   */\n  dup3\n    /* \"#utility.yul\":4765:4780   */\n  add\n    /* \"#utility.yul\":4758:4805   */\n  mstore\n    /* \"#utility.yul\":4573:4812   */\n  pop\n  jump\t// out\n    /* \"#utility.yul\":4818:5184   */\ntag_46:\n    /* \"#utility.yul\":4960:4963   */\n  0x00\n    /* \"#utility.yul\":4981:5048   */\n  tag_93\n    /* \"#utility.yul\":5045:5047   */\n  0x34\n    /* \"#utility.yul\":5040:5043   */\n  dup4\n    /* \"#utility.yul\":4981:5048   */\n  tag_40\n  jump\t// in\ntag_93:\n    /* \"#utility.yul\":4974:5048   */\n  swap2\n  pop\n    /* \"#utility.yul\":5057:5150   */\n  tag_94\n    /* \"#utility.yul\":5146:5149   */\n  dup3\n    /* \"#utility.yul\":5057:5150   */\n  tag_45\n  jump\t// in\ntag_94:\n    /* \"#utility.yul\":5175:5177   */\n  0x40\n    /* \"#utility.yul\":5170:5173   */\n  dup3\n    /* \"#utility.yul\":5166:5178   */\n  add\n    /* \"#utility.yul\":5159:5178   */\n  swap1\n  pop\n    /* \"#utility.yul\":4818:5184   */\n  swap2\n  swap1\n  pop\n  jump\t// out\n    /* \"#utility.yul\":5190:5609   */\ntag_23:\n    /* \"#utility.yul\":5356:5360   */\n  0x00\n    /* \"#utility.yul\":5394:5396   */\n  0x20\n    /* \"#utility.yul\":5383:5392   */\n  dup3\n    /* \"#utility.yul\":5379:5397   */\n  add\n    /* \"#utility.yul\":5371:5397   */\n  swap1\n  pop\n    /* \"#utility.yul\":5443:5452   */\n  dup2\n    /* \"#utility.yul\":5437:5441   */\n  dup2\n    /* \"#utility.yul\":5433:5453   */\n  sub\n    /* \"#utility.yul\":5429:5430   */\n  0x00\n    /* \"#utility.yul\":5418:5427   */\n  dup4\n    /* \"#utility.yul\":5414:5431   */\n  add\n    /* \"#utility.yul\":5407:5454   */\n  mstore\n    /* \"#utility.yul\":5471:5602   */\n  tag_96\n    /* \"#utility.yul\":5597:5601   */\n  dup2\n    /* \"#utility.yul\":5471:5602   */\n  tag_46\n  jump\t// in\ntag_96:\n    /* \"#utility.yul\":5463:5602   */\n  swap1\n  pop\n    /* \"#utility.yul\":5190:5609   */\n  swap2\n  swap1\n  pop\n  jump\t// out\n    /* \"#utility.yul\":5615:5844   */\ntag_47:\n    /* \"#utility.yul\":5755:5789   */\n  0x4d696e696d756d206475726174696f6e206d7573742062652067726561746572\n    /* \"#utility.yul\":5751:5752   */\n  0x00\n    /* \"#utility.yul\":5743:5749   */\n  dup3\n    /* \"#utility.yul\":5739:5753   */\n  add\n    /* \"#utility.yul\":5732:5790   */\n  mstore\n    /* \"#utility.yul\":5824:5836   */\n  0x207468616e207a65726f00000000000000000000000000000000000000000000\n    /* \"#utility.yul\":5819:5821   */\n  0x20\n    /* \"#utility.yul\":5811:5817   */\n  dup3\n    /* \"#utility.yul\":5807:5822   */\n  add\n    /* \"#utility.yul\":5800:5837   */\n  mstore\n    /* \"#utility.yul\":5615:5844   */\n  pop\n  jump\t// out\n    /* \"#utility.yul\":5850:6216   */\ntag_48:\n    /* \"#utility.yul\":5992:5995   */\n  0x00\n    /* \"#utility.yul\":6013:6080   */\n  tag_99\n    /* \"#utility.yul\":6077:6079   */\n  0x2a\n    /* \"#utility.yul\":6072:6075   */\n  dup4\n    /* \"#utility.yul\":6013:6080   */\n  tag_40\n  jump\t// in\ntag_99:\n    /* \"#utility.yul\":6006:6080   */\n  swap2\n  pop\n    /* \"#utility.yul\":6089:6182   */\n  tag_100\n    /* \"#utility.yul\":6178:6181   */\n  dup3\n    /* \"#utility.yul\":6089:6182   */\n  tag_47\n  jump\t// in\ntag_100:\n    /* \"#utility.yul\":6207:6209   */\n  0x40\n    /* \"#utility.yul\":6202:6205   */\n  dup3\n    /* \"#utility.yul\":6198:6210   */\n  add\n    /* \"#utility.yul\":6191:6210   */\n  swap1\n  pop\n    /* \"#utility.yul\":5850:6216   */\n  swap2\n  swap1\n  pop\n  jump\t// out\n    /* \"#utility.yul\":6222:6641   */\ntag_26:\n    /* \"#utility.yul\":6388:6392   */\n  0x00\n    /* \"#utility.yul\":6426:6428   */\n  0x20\n    /* \"#utility.yul\":6415:6424   */\n  dup3\n    /* \"#utility.yul\":6411:6429   */\n  add\n    /* \"#utility.yul\":6403:6429   */\n  swap1\n  pop\n    /* \"#utility.yul\":6475:6484   */\n  dup2\n    /* \"#utility.yul\":6469:6473   */\n  dup2\n    /* \"#utility.yul\":6465:6485   */\n  sub\n    /* \"#utility.yul\":6461:6462   */\n  0x00\n    /* \"#utility.yul\":6450:6459   */\n  dup4\n    /* \"#utility.yul\":6446:6463   */\n  add\n    /* \"#utility.yul\":6439:6486   */\n  mstore\n    /* \"#utility.yul\":6503:6634   */\n  tag_102\n    /* \"#utility.yul\":6629:6633   */\n  dup2\n    /* \"#utility.yul\":6503:6634   */\n  tag_48\n  jump\t// in\ntag_102:\n    /* \"#utility.yul\":6495:6634   */\n  swap1\n  pop\n    /* \"#utility.yul\":6222:6641   */\n  swap2\n  swap1\n  pop\n  jump\t// out\n    /* \"contracts/Lending.sol\":415:4960  contract LendingPlatform is Ownable, ReentrancyGuard {... */\ntag_27:\n  dataSize(sub_0)\n  dup1\n  dataOffset(sub_0)\n  0x00\n  codecopy\n  0x00\n  return\nstop\n\nsub_0: assembly {\n        /* \"contracts/Lending.sol\":415:4960  contract LendingPlatform is Ownable, ReentrancyGuard {... */\n      mstore(0x40, 0x80)\n      callvalue\n      dup1\n      iszero\n      tag_1\n      jumpi\n      0x00\n      dup1\n      revert\n    tag_1:\n      pop\n      jumpi(tag_2, lt(calldatasize, 0x04))\n      shr(0xe0, calldataload(0x00))\n      dup1\n      0x715018a6\n      gt\n      tag_15\n      jumpi\n      dup1\n      0x715018a6\n      eq\n      tag_9\n      jumpi\n      dup1\n      0x8da5cb5b\n      eq\n      tag_10\n      jumpi\n      dup1\n      0xafd92762\n      eq\n      tag_11\n      jumpi\n      dup1\n      0xefdd7c07\n      eq\n      tag_12\n      jumpi\n      dup1\n      0xf2fde38b\n      eq\n      tag_13\n      jumpi\n      dup1\n      0xfc0c546a\n      eq\n      tag_14\n      jumpi\n      jump(tag_2)\n    tag_15:\n      dup1\n      0x0ecbcdab\n      eq\n      tag_3\n      jumpi\n      dup1\n      0x11df5d72\n      eq\n      tag_4\n      jumpi\n      dup1\n      0x155dd5ee\n      eq\n      tag_5\n      jumpi\n      dup1\n      0x371fd8e6\n      eq\n      tag_6\n      jumpi\n      dup1\n      0x478230f7\n      eq\n      tag_7\n      jumpi\n      dup1\n      0x56715761\n      eq\n      tag_8\n      jumpi\n    tag_2:\n      0x00\n      dup1\n      revert\n        /* \"contracts/Lending.sol\":2361:3178  function borrow(uint256 _amount, uint256 _duration) external nonReentrant {... */\n    tag_3:\n      tag_16\n      0x04\n      dup1\n      calldatasize\n      sub\n      dup2\n      add\n      swap1\n      tag_17\n      swap2\n      swap1\n      tag_18\n      jump\t// in\n    tag_17:\n      tag_19\n      jump\t// in\n    tag_16:\n      stop\n        /* \"contracts/Lending.sol\":814:852  uint256 public interestRatePerDuration */\n    tag_4:\n      tag_20\n      tag_21\n      jump\t// in\n    tag_20:\n      mload(0x40)\n      tag_22\n      swap2\n      swap1\n      tag_23\n      jump\t// in\n    tag_22:\n      mload(0x40)\n      dup1\n      swap2\n      sub\n      swap1\n      return\n        /* \"contracts/Lending.sol\":4670:4958  function withdrawFunds(uint256 _amount) external onlyOwner {... */\n    tag_5:\n      tag_24\n      0x04\n      dup1\n      calldatasize\n      sub\n      dup2\n      add\n      swap1\n      tag_25\n      swap2\n      swap1\n      tag_26\n      jump\t// in\n    tag_25:\n      tag_27\n      jump\t// in\n    tag_24:\n      stop\n        /* \"contracts/Lending.sol\":3287:3879  function repay(uint256 _amount) external nonReentrant {... */\n    tag_6:\n      tag_28\n      0x04\n      dup1\n      calldatasize\n      sub\n      dup2\n      add\n      swap1\n      tag_29\n      swap2\n      swap1\n      tag_26\n      jump\t// in\n    tag_29:\n      tag_30\n      jump\t// in\n    tag_28:\n      stop\n        /* \"contracts/Lending.sol\":648:698  mapping(address => uint256) public borrowedAmounts */\n    tag_7:\n      tag_31\n      0x04\n      dup1\n      calldatasize\n      sub\n      dup2\n      add\n      swap1\n      tag_32\n      swap2\n      swap1\n      tag_33\n      jump\t// in\n    tag_32:\n      tag_34\n      jump\t// in\n    tag_31:\n      mload(0x40)\n      tag_35\n      swap2\n      swap1\n      tag_23\n      jump\t// in\n    tag_35:\n      mload(0x40)\n      dup1\n      swap2\n      sub\n      swap1\n      return\n        /* \"contracts/Lending.sol\":886:912  uint256 public minDuration */\n    tag_8:\n      tag_36\n      tag_37\n      jump\t// in\n    tag_36:\n      mload(0x40)\n      tag_38\n      swap2\n      swap1\n      tag_23\n      jump\t// in\n    tag_38:\n      mload(0x40)\n      dup1\n      swap2\n      sub\n      swap1\n      return\n        /* \"@openzeppelin/contracts/access/Ownable.sol\":2293:2394  function renounceOwnership() public virtual onlyOwner {... */\n    tag_9:\n      tag_39\n      tag_40\n      jump\t// in\n    tag_39:\n      stop\n        /* \"@openzeppelin/contracts/access/Ownable.sol\":1638:1723  function owner() public view virtual returns (address) {... */\n    tag_10:\n      tag_41\n      tag_42\n      jump\t// in\n    tag_41:\n      mload(0x40)\n      tag_43\n      swap2\n      swap1\n      tag_44\n      jump\t// in\n    tag_43:\n      mload(0x40)\n      dup1\n      swap2\n      sub\n      swap1\n      return\n        /* \"contracts/Lending.sol\":755:786  uint256 public baseInterestRate */\n    tag_11:\n      tag_45\n      tag_46\n      jump\t// in\n    tag_45:\n      mload(0x40)\n      tag_47\n      swap2\n      swap1\n      tag_23\n      jump\t// in\n    tag_47:\n      mload(0x40)\n      dup1\n      swap2\n      sub\n      swap1\n      return\n        /* \"contracts/Lending.sol\":4134:4526  function calculateInterest(uint256 _amount, uint256 _duration) public view returns (uint256) {... */\n    tag_12:\n      tag_48\n      0x04\n      dup1\n      calldatasize\n      sub\n      dup2\n      add\n      swap1\n      tag_49\n      swap2\n      swap1\n      tag_18\n      jump\t// in\n    tag_49:\n      tag_50\n      jump\t// in\n    tag_48:\n      mload(0x40)\n      tag_51\n      swap2\n      swap1\n      tag_23\n      jump\t// in\n    tag_51:\n      mload(0x40)\n      dup1\n      swap2\n      sub\n      swap1\n      return\n        /* \"@openzeppelin/contracts/access/Ownable.sol\":2543:2758  function transferOwnership(address newOwner) public virtual onlyOwner {... */\n    tag_13:\n      tag_52\n      0x04\n      dup1\n      calldatasize\n      sub\n      dup2\n      add\n      swap1\n      tag_53\n      swap2\n      swap1\n      tag_33\n      jump\t// in\n    tag_53:\n      tag_54\n      jump\t// in\n    tag_52:\n      stop\n        /* \"contracts/Lending.sol\":581:600  IERC20 public token */\n    tag_14:\n      tag_55\n      tag_56\n      jump\t// in\n    tag_55:\n      mload(0x40)\n      tag_57\n      swap2\n      swap1\n      tag_58\n      jump\t// in\n    tag_57:\n      mload(0x40)\n      dup1\n      swap2\n      sub\n      swap1\n      return\n        /* \"contracts/Lending.sol\":2361:3178  function borrow(uint256 _amount, uint256 _duration) external nonReentrant {... */\n    tag_19:\n        /* \"@openzeppelin/contracts/utils/ReentrancyGuard.sol\":2356:2377  _nonReentrantBefore() */\n      tag_60\n        /* \"@openzeppelin/contracts/utils/ReentrancyGuard.sol\":2356:2375  _nonReentrantBefore */\n      tag_61\n        /* \"@openzeppelin/contracts/utils/ReentrancyGuard.sol\":2356:2377  _nonReentrantBefore() */\n      jump\t// in\n    tag_60:\n        /* \"contracts/Lending.sol\":2463:2464  0 */\n      0x00\n        /* \"contracts/Lending.sol\":2453:2460  _amount */\n      dup3\n        /* \"contracts/Lending.sol\":2453:2464  _amount > 0 */\n      gt\n        /* \"contracts/Lending.sol\":2445:2501  require(_amount > 0, \"Amount must be greater than zero\") */\n      tag_63\n      jumpi\n      mload(0x40)\n      0x08c379a000000000000000000000000000000000000000000000000000000000\n      dup2\n      mstore\n      0x04\n      add\n      tag_64\n      swap1\n      tag_65\n      jump\t// in\n    tag_64:\n      mload(0x40)\n      dup1\n      swap2\n      sub\n      swap1\n      revert\n    tag_63:\n        /* \"contracts/Lending.sol\":2532:2543  minDuration */\n      sload(0x06)\n        /* \"contracts/Lending.sol\":2519:2528  _duration */\n      dup2\n        /* \"contracts/Lending.sol\":2519:2543  _duration >= minDuration */\n      lt\n      iszero\n        /* \"contracts/Lending.sol\":2511:2578  require(_duration >= minDuration, \"Duration below minimum allowed\") */\n      tag_66\n      jumpi\n      mload(0x40)\n      0x08c379a000000000000000000000000000000000000000000000000000000000\n      dup2\n      mstore\n      0x04\n      add\n      tag_67\n      swap1\n      tag_68\n      jump\t// in\n    tag_67:\n      mload(0x40)\n      dup1\n      swap2\n      sub\n      swap1\n      revert\n    tag_66:\n        /* \"contracts/Lending.sol\":2619:2635  uint256 interest */\n      0x00\n        /* \"contracts/Lending.sol\":2638:2675  calculateInterest(_amount, _duration) */\n      tag_69\n        /* \"contracts/Lending.sol\":2656:2663  _amount */\n      dup4\n        /* \"contracts/Lending.sol\":2665:2674  _duration */\n      dup4\n        /* \"contracts/Lending.sol\":2638:2655  calculateInterest */\n      tag_50\n        /* \"contracts/Lending.sol\":2638:2675  calculateInterest(_amount, _duration) */\n      jump\t// in\n    tag_69:\n        /* \"contracts/Lending.sol\":2619:2675  uint256 interest = calculateInterest(_amount, _duration) */\n      swap1\n      pop\n        /* \"contracts/Lending.sol\":2798:2819  _amount.add(interest) */\n      tag_70\n        /* \"contracts/Lending.sol\":2810:2818  interest */\n      dup2\n        /* \"contracts/Lending.sol\":2798:2805  _amount */\n      dup5\n        /* \"contracts/Lending.sol\":2798:2809  _amount.add */\n      tag_71\n      swap1\n        /* \"contracts/Lending.sol\":2798:2819  _amount.add(interest) */\n      swap2\n      swap1\n      0xffffffff\n      and\n      jump\t// in\n    tag_70:\n        /* \"contracts/Lending.sol\":2767:2772  token */\n      0x02\n      0x00\n      swap1\n      sload\n      swap1\n      0x0100\n      exp\n      swap1\n      div\n      0xffffffffffffffffffffffffffffffffffffffff\n      and\n        /* \"contracts/Lending.sol\":2767:2782  token.balanceOf */\n      0xffffffffffffffffffffffffffffffffffffffff\n      and\n      0x70a08231\n        /* \"contracts/Lending.sol\":2783:2793  msg.sender */\n      caller\n        /* \"contracts/Lending.sol\":2767:2794  token.balanceOf(msg.sender) */\n      mload(0x40)\n      dup3\n      0xffffffff\n      and\n      0xe0\n      shl\n      dup2\n      mstore\n      0x04\n      add\n      tag_72\n      swap2\n      swap1\n      tag_44\n      jump\t// in\n    tag_72:\n      0x20\n      mload(0x40)\n      dup1\n      dup4\n      sub\n      dup2\n      dup7\n      gas\n      staticcall\n      iszero\n      dup1\n      iszero\n      tag_74\n      jumpi\n      returndatasize\n      0x00\n      dup1\n      returndatacopy\n      revert(0x00, returndatasize)\n    tag_74:\n      pop\n      pop\n      pop\n      pop\n      mload(0x40)\n      returndatasize\n      not(0x1f)\n      0x1f\n      dup3\n      add\n      and\n      dup3\n      add\n      dup1\n      0x40\n      mstore\n      pop\n      dup2\n      add\n      swap1\n      tag_75\n      swap2\n      swap1\n      tag_76\n      jump\t// in\n    tag_75:\n        /* \"contracts/Lending.sol\":2767:2819  token.balanceOf(msg.sender) >= _amount.add(interest) */\n      lt\n      iszero\n        /* \"contracts/Lending.sol\":2759:2844  require(token.balanceOf(msg.sender) >= _amount.add(interest), \"Insufficient balance\") */\n      tag_77\n      jumpi\n      mload(0x40)\n      0x08c379a000000000000000000000000000000000000000000000000000000000\n      dup2\n      mstore\n      0x04\n      add\n      tag_78\n      swap1\n      tag_79\n      jump\t// in\n    tag_78:\n      mload(0x40)\n      dup1\n      swap2\n      sub\n      swap1\n      revert\n    tag_77:\n        /* \"contracts/Lending.sol\":2897:2969  token.safeTransferFrom(msg.sender, address(this), _amount.add(interest)) */\n      tag_80\n        /* \"contracts/Lending.sol\":2920:2930  msg.sender */\n      caller\n        /* \"contracts/Lending.sol\":2940:2944  this */\n      address\n        /* \"contracts/Lending.sol\":2947:2968  _amount.add(interest) */\n      tag_81\n        /* \"contracts/Lending.sol\":2959:2967  interest */\n      dup5\n        /* \"contracts/Lending.sol\":2947:2954  _amount */\n      dup8\n        /* \"contracts/Lending.sol\":2947:2958  _amount.add */\n      tag_71\n      swap1\n        /* \"contracts/Lending.sol\":2947:2968  _amount.add(interest) */\n      swap2\n      swap1\n      0xffffffff\n      and\n      jump\t// in\n    tag_81:\n        /* \"contracts/Lending.sol\":2897:2902  token */\n      0x02\n      0x00\n      swap1\n      sload\n      swap1\n      0x0100\n      exp\n      swap1\n      div\n      0xffffffffffffffffffffffffffffffffffffffff\n      and\n        /* \"contracts/Lending.sol\":2897:2919  token.safeTransferFrom */\n      0xffffffffffffffffffffffffffffffffffffffff\n      and\n      tag_82\n      swap1\n        /* \"contracts/Lending.sol\":2897:2969  token.safeTransferFrom(msg.sender, address(this), _amount.add(interest)) */\n      swap4\n      swap3\n      swap2\n      swap1\n      0xffffffff\n      and\n      jump\t// in\n    tag_80:\n        /* \"contracts/Lending.sol\":3045:3085  borrowedAmounts[msg.sender].add(_amount) */\n      tag_83\n        /* \"contracts/Lending.sol\":3077:3084  _amount */\n      dup4\n        /* \"contracts/Lending.sol\":3045:3060  borrowedAmounts */\n      0x03\n        /* \"contracts/Lending.sol\":3045:3072  borrowedAmounts[msg.sender] */\n      0x00\n        /* \"contracts/Lending.sol\":3061:3071  msg.sender */\n      caller\n        /* \"contracts/Lending.sol\":3045:3072  borrowedAmounts[msg.sender] */\n      0xffffffffffffffffffffffffffffffffffffffff\n      and\n      0xffffffffffffffffffffffffffffffffffffffff\n      and\n      dup2\n      mstore\n      0x20\n      add\n      swap1\n      dup2\n      mstore\n      0x20\n      add\n      0x00\n      keccak256\n      sload\n        /* \"contracts/Lending.sol\":3045:3076  borrowedAmounts[msg.sender].add */\n      tag_71\n      swap1\n        /* \"contracts/Lending.sol\":3045:3085  borrowedAmounts[msg.sender].add(_amount) */\n      swap2\n      swap1\n      0xffffffff\n      and\n      jump\t// in\n    tag_83:\n        /* \"contracts/Lending.sol\":3015:3030  borrowedAmounts */\n      0x03\n        /* \"contracts/Lending.sol\":3015:3042  borrowedAmounts[msg.sender] */\n      0x00\n        /* \"contracts/Lending.sol\":3031:3041  msg.sender */\n      caller\n        /* \"contracts/Lending.sol\":3015:3042  borrowedAmounts[msg.sender] */\n      0xffffffffffffffffffffffffffffffffffffffff\n      and\n      0xffffffffffffffffffffffffffffffffffffffff\n      and\n      dup2\n      mstore\n      0x20\n      add\n      swap1\n      dup2\n      mstore\n      0x20\n      add\n      0x00\n      keccak256\n        /* \"contracts/Lending.sol\":3015:3085  borrowedAmounts[msg.sender] = borrowedAmounts[msg.sender].add(_amount) */\n      dup2\n      swap1\n      sstore\n      pop\n        /* \"contracts/Lending.sol\":3130:3140  msg.sender */\n      caller\n        /* \"contracts/Lending.sol\":3123:3171  Borrow(msg.sender, _amount, interest, _duration) */\n      0xffffffffffffffffffffffffffffffffffffffff\n      and\n      0x13ed6866d4e1ee6da46f845c46d7e54120883d75c5ea9a2dacc1c4ca8984ab80\n        /* \"contracts/Lending.sol\":3142:3149  _amount */\n      dup5\n        /* \"contracts/Lending.sol\":3151:3159  interest */\n      dup4\n        /* \"contracts/Lending.sol\":3161:3170  _duration */\n      dup6\n        /* \"contracts/Lending.sol\":3123:3171  Borrow(msg.sender, _amount, interest, _duration) */\n      mload(0x40)\n      tag_84\n      swap4\n      swap3\n      swap2\n      swap1\n      tag_85\n      jump\t// in\n    tag_84:\n      mload(0x40)\n      dup1\n      swap2\n      sub\n      swap1\n      log2\n        /* \"contracts/Lending.sol\":2435:3178  {... */\n      pop\n        /* \"@openzeppelin/contracts/utils/ReentrancyGuard.sol\":2398:2418  _nonReentrantAfter() */\n      tag_86\n        /* \"@openzeppelin/contracts/utils/ReentrancyGuard.sol\":2398:2416  _nonReentrantAfter */\n      tag_87\n        /* \"@openzeppelin/contracts/utils/ReentrancyGuard.sol\":2398:2418  _nonReentrantAfter() */\n      jump\t// in\n    tag_86:\n        /* \"contracts/Lending.sol\":2361:3178  function borrow(uint256 _amount, uint256 _duration) external nonReentrant {... */\n      pop\n      pop\n      jump\t// out\n        /* \"contracts/Lending.sol\":814:852  uint256 public interestRatePerDuration */\n    tag_21:\n      sload(0x05)\n      dup2\n      jump\t// out\n        /* \"contracts/Lending.sol\":4670:4958  function withdrawFunds(uint256 _amount) external onlyOwner {... */\n    tag_27:\n        /* \"@openzeppelin/contracts/access/Ownable.sol\":1531:1544  _checkOwner() */\n      tag_89\n        /* \"@openzeppelin/contracts/access/Ownable.sol\":1531:1542  _checkOwner */\n      tag_90\n        /* \"@openzeppelin/contracts/access/Ownable.sol\":1531:1544  _checkOwner() */\n      jump\t// in\n    tag_89:\n        /* \"contracts/Lending.sol\":4757:4758  0 */\n      0x00\n        /* \"contracts/Lending.sol\":4747:4754  _amount */\n      dup2\n        /* \"contracts/Lending.sol\":4747:4758  _amount > 0 */\n      gt\n        /* \"contracts/Lending.sol\":4739:4806  require(_amount > 0, \"Withdrawal amount must be greater than zero\") */\n      tag_92\n      jumpi\n      mload(0x40)\n      0x08c379a000000000000000000000000000000000000000000000000000000000\n      dup2\n      mstore\n      0x04\n      add\n      tag_93\n      swap1\n      tag_94\n      jump\t// in\n    tag_93:\n      mload(0x40)\n      dup1\n      swap2\n      sub\n      swap1\n      revert\n    tag_92:\n        /* \"contracts/Lending.sol\":4835:4840  token */\n      0x02\n      0x00\n      swap1\n      sload\n      swap1\n      0x0100\n      exp\n      swap1\n      div\n      0xffffffffffffffffffffffffffffffffffffffff\n      and\n        /* \"contracts/Lending.sol\":4835:4850  token.balanceOf */\n      0xffffffffffffffffffffffffffffffffffffffff\n      and\n      0x70a08231\n        /* \"contracts/Lending.sol\":4859:4863  this */\n      address\n        /* \"contracts/Lending.sol\":4835:4865  token.balanceOf(address(this)) */\n      mload(0x40)\n      dup3\n      0xffffffff\n      and\n      0xe0\n      shl\n      dup2\n      mstore\n      0x04\n      add\n      tag_95\n      swap2\n      swap1\n      tag_44\n      jump\t// in\n    tag_95:\n      0x20\n      mload(0x40)\n      dup1\n      dup4\n      sub\n      dup2\n      dup7\n      gas\n      staticcall\n      iszero\n      dup1\n      iszero\n      tag_97\n      jumpi\n      returndatasize\n      0x00\n      dup1\n      returndatacopy\n      revert(0x00, returndatasize)\n    tag_97:\n      pop\n      pop\n      pop\n      pop\n      mload(0x40)\n      returndatasize\n      not(0x1f)\n      0x1f\n      dup3\n      add\n      and\n      dup3\n      add\n      dup1\n      0x40\n      mstore\n      pop\n      dup2\n      add\n      swap1\n      tag_98\n      swap2\n      swap1\n      tag_76\n      jump\t// in\n    tag_98:\n        /* \"contracts/Lending.sol\":4824:4831  _amount */\n      dup2\n        /* \"contracts/Lending.sol\":4824:4865  _amount <= token.balanceOf(address(this)) */\n      gt\n      iszero\n        /* \"contracts/Lending.sol\":4816:4904  require(_amount <= token.balanceOf(address(this)), \"Insufficient funds in the contract\") */\n      tag_99\n      jumpi\n      mload(0x40)\n      0x08c379a000000000000000000000000000000000000000000000000000000000\n      dup2\n      mstore\n      0x04\n      add\n      tag_100\n      swap1\n      tag_101\n      jump\t// in\n    tag_100:\n      mload(0x40)\n      dup1\n      swap2\n      sub\n      swap1\n      revert\n    tag_99:\n        /* \"contracts/Lending.sol\":4915:4951  token.safeTransfer(owner(), _amount) */\n      tag_102\n        /* \"contracts/Lending.sol\":4934:4941  owner() */\n      tag_103\n        /* \"contracts/Lending.sol\":4934:4939  owner */\n      tag_42\n        /* \"contracts/Lending.sol\":4934:4941  owner() */\n      jump\t// in\n    tag_103:\n        /* \"contracts/Lending.sol\":4943:4950  _amount */\n      dup3\n        /* \"contracts/Lending.sol\":4915:4920  token */\n      0x02\n      0x00\n      swap1\n      sload\n      swap1\n      0x0100\n      exp\n      swap1\n      div\n      0xffffffffffffffffffffffffffffffffffffffff\n      and\n        /* \"contracts/Lending.sol\":4915:4933  token.safeTransfer */\n      0xffffffffffffffffffffffffffffffffffffffff\n      and\n      tag_104\n      swap1\n        /* \"contracts/Lending.sol\":4915:4951  token.safeTransfer(owner(), _amount) */\n      swap3\n      swap2\n      swap1\n      0xffffffff\n      and\n      jump\t// in\n    tag_102:\n        /* \"contracts/Lending.sol\":4670:4958  function withdrawFunds(uint256 _amount) external onlyOwner {... */\n      pop\n      jump\t// out\n        /* \"contracts/Lending.sol\":3287:3879  function repay(uint256 _amount) external nonReentrant {... */\n    tag_30:\n        /* \"@openzeppelin/contracts/utils/ReentrancyGuard.sol\":2356:2377  _nonReentrantBefore() */\n      tag_106\n        /* \"@openzeppelin/contracts/utils/ReentrancyGuard.sol\":2356:2375  _nonReentrantBefore */\n      tag_61\n        /* \"@openzeppelin/contracts/utils/ReentrancyGuard.sol\":2356:2377  _nonReentrantBefore() */\n      jump\t// in\n    tag_106:\n        /* \"contracts/Lending.sol\":3369:3370  0 */\n      0x00\n        /* \"contracts/Lending.sol\":3359:3366  _amount */\n      dup2\n        /* \"contracts/Lending.sol\":3359:3370  _amount > 0 */\n      gt\n        /* \"contracts/Lending.sol\":3351:3407  require(_amount > 0, \"Amount must be greater than zero\") */\n      tag_108\n      jumpi\n      mload(0x40)\n      0x08c379a000000000000000000000000000000000000000000000000000000000\n      dup2\n      mstore\n      0x04\n      add\n      tag_109\n      swap1\n      tag_65\n      jump\t// in\n    tag_109:\n      mload(0x40)\n      dup1\n      swap2\n      sub\n      swap1\n      revert\n    tag_108:\n        /* \"contracts/Lending.sol\":3522:3529  _amount */\n      dup1\n        /* \"contracts/Lending.sol\":3491:3496  token */\n      0x02\n      0x00\n      swap1\n      sload\n      swap1\n      0x0100\n      exp\n      swap1\n      div\n      0xffffffffffffffffffffffffffffffffffffffff\n      and\n        /* \"contracts/Lending.sol\":3491:3506  token.balanceOf */\n      0xffffffffffffffffffffffffffffffffffffffff\n      and\n      0x70a08231\n        /* \"contracts/Lending.sol\":3507:3517  msg.sender */\n      caller\n        /* \"contracts/Lending.sol\":3491:3518  token.balanceOf(msg.sender) */\n      mload(0x40)\n      dup3\n      0xffffffff\n      and\n      0xe0\n      shl\n      dup2\n      mstore\n      0x04\n      add\n      tag_110\n      swap2\n      swap1\n      tag_44\n      jump\t// in\n    tag_110:\n      0x20\n      mload(0x40)\n      dup1\n      dup4\n      sub\n      dup2\n      dup7\n      gas\n      staticcall\n      iszero\n      dup1\n      iszero\n      tag_112\n      jumpi\n      returndatasize\n      0x00\n      dup1\n      returndatacopy\n      revert(0x00, returndatasize)\n    tag_112:\n      pop\n      pop\n      pop\n      pop\n      mload(0x40)\n      returndatasize\n      not(0x1f)\n      0x1f\n      dup3\n      add\n      and\n      dup3\n      add\n      dup1\n      0x40\n      mstore\n      pop\n      dup2\n      add\n      swap1\n      tag_113\n      swap2\n      swap1\n      tag_76\n      jump\t// in\n    tag_113:\n        /* \"contracts/Lending.sol\":3491:3529  token.balanceOf(msg.sender) >= _amount */\n      lt\n      iszero\n        /* \"contracts/Lending.sol\":3483:3554  require(token.balanceOf(msg.sender) >= _amount, \"Insufficient balance\") */\n      tag_114\n      jumpi\n      mload(0x40)\n      0x08c379a000000000000000000000000000000000000000000000000000000000\n      dup2\n      mstore\n      0x04\n      add\n      tag_115\n      swap1\n      tag_79\n      jump\t// in\n    tag_115:\n      mload(0x40)\n      dup1\n      swap2\n      sub\n      swap1\n      revert\n    tag_114:\n        /* \"contracts/Lending.sol\":3625:3683  token.safeTransferFrom(msg.sender, address(this), _amount) */\n      tag_116\n        /* \"contracts/Lending.sol\":3648:3658  msg.sender */\n      caller\n        /* \"contracts/Lending.sol\":3668:3672  this */\n      address\n        /* \"contracts/Lending.sol\":3675:3682  _amount */\n      dup4\n        /* \"contracts/Lending.sol\":3625:3630  token */\n      0x02\n      0x00\n      swap1\n      sload\n      swap1\n      0x0100\n      exp\n      swap1\n      div\n      0xffffffffffffffffffffffffffffffffffffffff\n      and\n        /* \"contracts/Lending.sol\":3625:3647  token.safeTransferFrom */\n      0xffffffffffffffffffffffffffffffffffffffff\n      and\n      tag_82\n      swap1\n        /* \"contracts/Lending.sol\":3625:3683  token.safeTransferFrom(msg.sender, address(this), _amount) */\n      swap4\n      swap3\n      swap2\n      swap1\n      0xffffffff\n      and\n      jump\t// in\n    tag_116:\n        /* \"contracts/Lending.sol\":3759:3799  borrowedAmounts[msg.sender].sub(_amount) */\n      tag_117\n        /* \"contracts/Lending.sol\":3791:3798  _amount */\n      dup2\n        /* \"contracts/Lending.sol\":3759:3774  borrowedAmounts */\n      0x03\n        /* \"contracts/Lending.sol\":3759:3786  borrowedAmounts[msg.sender] */\n      0x00\n        /* \"contracts/Lending.sol\":3775:3785  msg.sender */\n      caller\n        /* \"contracts/Lending.sol\":3759:3786  borrowedAmounts[msg.sender] */\n      0xffffffffffffffffffffffffffffffffffffffff\n      and\n      0xffffffffffffffffffffffffffffffffffffffff\n      and\n      dup2\n      mstore\n      0x20\n      add\n      swap1\n      dup2\n      mstore\n      0x20\n      add\n      0x00\n      keccak256\n      sload\n        /* \"contracts/Lending.sol\":3759:3790  borrowedAmounts[msg.sender].sub */\n      tag_118\n      swap1\n        /* \"contracts/Lending.sol\":3759:3799  borrowedAmounts[msg.sender].sub(_amount) */\n      swap2\n      swap1\n      0xffffffff\n      and\n      jump\t// in\n    tag_117:\n        /* \"contracts/Lending.sol\":3729:3744  borrowedAmounts */\n      0x03\n        /* \"contracts/Lending.sol\":3729:3756  borrowedAmounts[msg.sender] */\n      0x00\n        /* \"contracts/Lending.sol\":3745:3755  msg.sender */\n      caller\n        /* \"contracts/Lending.sol\":3729:3756  borrowedAmounts[msg.sender] */\n      0xffffffffffffffffffffffffffffffffffffffff\n      and\n      0xffffffffffffffffffffffffffffffffffffffff\n      and\n      dup2\n      mstore\n      0x20\n      add\n      swap1\n      dup2\n      mstore\n      0x20\n      add\n      0x00\n      keccak256\n        /* \"contracts/Lending.sol\":3729:3799  borrowedAmounts[msg.sender] = borrowedAmounts[msg.sender].sub(_amount) */\n      dup2\n      swap1\n      sstore\n      pop\n        /* \"contracts/Lending.sol\":3852:3862  msg.sender */\n      caller\n        /* \"contracts/Lending.sol\":3846:3872  Repay(msg.sender, _amount) */\n      0xffffffffffffffffffffffffffffffffffffffff\n      and\n      0x5c16de4f8b59bd9caf0f49a545f25819a895ed223294290b408242e72a594231\n        /* \"contracts/Lending.sol\":3864:3871  _amount */\n      dup3\n        /* \"contracts/Lending.sol\":3846:3872  Repay(msg.sender, _amount) */\n      mload(0x40)\n      tag_119\n      swap2\n      swap1\n      tag_23\n      jump\t// in\n    tag_119:\n      mload(0x40)\n      dup1\n      swap2\n      sub\n      swap1\n      log2\n        /* \"@openzeppelin/contracts/utils/ReentrancyGuard.sol\":2398:2418  _nonReentrantAfter() */\n      tag_120\n        /* \"@openzeppelin/contracts/utils/ReentrancyGuard.sol\":2398:2416  _nonReentrantAfter */\n      tag_87\n        /* \"@openzeppelin/contracts/utils/ReentrancyGuard.sol\":2398:2418  _nonReentrantAfter() */\n      jump\t// in\n    tag_120:\n        /* \"contracts/Lending.sol\":3287:3879  function repay(uint256 _amount) external nonReentrant {... */\n      pop\n      jump\t// out\n        /* \"contracts/Lending.sol\":648:698  mapping(address => uint256) public borrowedAmounts */\n    tag_34:\n      mstore(0x20, 0x03)\n      dup1\n      0x00\n      mstore\n      keccak256(0x00, 0x40)\n      0x00\n      swap2\n      pop\n      swap1\n      pop\n      sload\n      dup2\n      jump\t// out\n        /* \"contracts/Lending.sol\":886:912  uint256 public minDuration */\n    tag_37:\n      sload(0x06)\n      dup2\n      jump\t// out\n        /* \"@openzeppelin/contracts/access/Ownable.sol\":2293:2394  function renounceOwnership() public virtual onlyOwner {... */\n    tag_40:\n        /* \"@openzeppelin/contracts/access/Ownable.sol\":1531:1544  _checkOwner() */\n      tag_122\n        /* \"@openzeppelin/contracts/access/Ownable.sol\":1531:1542  _checkOwner */\n      tag_90\n        /* \"@openzeppelin/contracts/access/Ownable.sol\":1531:1544  _checkOwner() */\n      jump\t// in\n    tag_122:\n        /* \"@openzeppelin/contracts/access/Ownable.sol\":2357:2387  _transferOwnership(address(0)) */\n      tag_124\n        /* \"@openzeppelin/contracts/access/Ownable.sol\":2384:2385  0 */\n      0x00\n        /* \"@openzeppelin/contracts/access/Ownable.sol\":2357:2375  _transferOwnership */\n      tag_125\n        /* \"@openzeppelin/contracts/access/Ownable.sol\":2357:2387  _transferOwnership(address(0)) */\n      jump\t// in\n    tag_124:\n        /* \"@openzeppelin/contracts/access/Ownable.sol\":2293:2394  function renounceOwnership() public virtual onlyOwner {... */\n      jump\t// out\n        /* \"@openzeppelin/contracts/access/Ownable.sol\":1638:1723  function owner() public view virtual returns (address) {... */\n    tag_42:\n        /* \"@openzeppelin/contracts/access/Ownable.sol\":1684:1691  address */\n      0x00\n        /* \"@openzeppelin/contracts/access/Ownable.sol\":1710:1716  _owner */\n      dup1\n      0x00\n      swap1\n      sload\n      swap1\n      0x0100\n      exp\n      swap1\n      div\n      0xffffffffffffffffffffffffffffffffffffffff\n      and\n        /* \"@openzeppelin/contracts/access/Ownable.sol\":1703:1716  return _owner */\n      swap1\n      pop\n        /* \"@openzeppelin/contracts/access/Ownable.sol\":1638:1723  function owner() public view virtual returns (address) {... */\n      swap1\n      jump\t// out\n        /* \"contracts/Lending.sol\":755:786  uint256 public baseInterestRate */\n    tag_46:\n      sload(0x04)\n      dup2\n      jump\t// out\n        /* \"contracts/Lending.sol\":4134:4526  function calculateInterest(uint256 _amount, uint256 _duration) public view returns (uint256) {... */\n    tag_50:\n        /* \"contracts/Lending.sol\":4218:4225  uint256 */\n      0x00\n        /* \"contracts/Lending.sol\":4237:4258  uint256 totalInterest */\n      dup1\n        /* \"contracts/Lending.sol\":4261:4301  _amount.mul(baseInterestRate).div(10000) */\n      tag_128\n        /* \"contracts/Lending.sol\":4295:4300  10000 */\n      0x2710\n        /* \"contracts/Lending.sol\":4261:4290  _amount.mul(baseInterestRate) */\n      tag_129\n        /* \"contracts/Lending.sol\":4273:4289  baseInterestRate */\n      sload(0x04)\n        /* \"contracts/Lending.sol\":4261:4268  _amount */\n      dup8\n        /* \"contracts/Lending.sol\":4261:4272  _amount.mul */\n      tag_130\n      swap1\n        /* \"contracts/Lending.sol\":4261:4290  _amount.mul(baseInterestRate) */\n      swap2\n      swap1\n      0xffffffff\n      and\n      jump\t// in\n    tag_129:\n        /* \"contracts/Lending.sol\":4261:4294  _amount.mul(baseInterestRate).div */\n      tag_131\n      swap1\n        /* \"contracts/Lending.sol\":4261:4301  _amount.mul(baseInterestRate).div(10000) */\n      swap2\n      swap1\n      0xffffffff\n      and\n      jump\t// in\n    tag_128:\n        /* \"contracts/Lending.sol\":4237:4301  uint256 totalInterest = _amount.mul(baseInterestRate).div(10000) */\n      swap1\n      pop\n        /* \"contracts/Lending.sol\":4378:4402  uint256 durationInterest */\n      0x00\n        /* \"contracts/Lending.sol\":4405:4466  _amount.mul(interestRatePerDuration).mul(_duration).div(1e18) */\n      tag_132\n        /* \"contracts/Lending.sol\":4461:4465  1e18 */\n      0x0de0b6b3a7640000\n        /* \"contracts/Lending.sol\":4405:4456  _amount.mul(interestRatePerDuration).mul(_duration) */\n      tag_133\n        /* \"contracts/Lending.sol\":4446:4455  _duration */\n      dup7\n        /* \"contracts/Lending.sol\":4405:4441  _amount.mul(interestRatePerDuration) */\n      tag_134\n        /* \"contracts/Lending.sol\":4417:4440  interestRatePerDuration */\n      sload(0x05)\n        /* \"contracts/Lending.sol\":4405:4412  _amount */\n      dup11\n        /* \"contracts/Lending.sol\":4405:4416  _amount.mul */\n      tag_130\n      swap1\n        /* \"contracts/Lending.sol\":4405:4441  _amount.mul(interestRatePerDuration) */\n      swap2\n      swap1\n      0xffffffff\n      and\n      jump\t// in\n    tag_134:\n        /* \"contracts/Lending.sol\":4405:4445  _amount.mul(interestRatePerDuration).mul */\n      tag_130\n      swap1\n        /* \"contracts/Lending.sol\":4405:4456  _amount.mul(interestRatePerDuration).mul(_duration) */\n      swap2\n      swap1\n      0xffffffff\n      and\n      jump\t// in\n    tag_133:\n        /* \"contracts/Lending.sol\":4405:4460  _amount.mul(interestRatePerDuration).mul(_duration).div */\n      tag_131\n      swap1\n        /* \"contracts/Lending.sol\":4405:4466  _amount.mul(interestRatePerDuration).mul(_duration).div(1e18) */\n      swap2\n      swap1\n      0xffffffff\n      and\n      jump\t// in\n    tag_132:\n        /* \"contracts/Lending.sol\":4378:4466  uint256 durationInterest = _amount.mul(interestRatePerDuration).mul(_duration).div(1e18) */\n      swap1\n      pop\n        /* \"contracts/Lending.sol\":4484:4519  totalInterest.add(durationInterest) */\n      tag_135\n        /* \"contracts/Lending.sol\":4502:4518  durationInterest */\n      dup2\n        /* \"contracts/Lending.sol\":4484:4497  totalInterest */\n      dup4\n        /* \"contracts/Lending.sol\":4484:4501  totalInterest.add */\n      tag_71\n      swap1\n        /* \"contracts/Lending.sol\":4484:4519  totalInterest.add(durationInterest) */\n      swap2\n      swap1\n      0xffffffff\n      and\n      jump\t// in\n    tag_135:\n        /* \"contracts/Lending.sol\":4477:4519  return totalInterest.add(durationInterest) */\n      swap3\n      pop\n      pop\n      pop\n        /* \"contracts/Lending.sol\":4134:4526  function calculateInterest(uint256 _amount, uint256 _duration) public view returns (uint256) {... */\n      swap3\n      swap2\n      pop\n      pop\n      jump\t// out\n        /* \"@openzeppelin/contracts/access/Ownable.sol\":2543:2758  function transferOwnership(address newOwner) public virtual onlyOwner {... */\n    tag_54:\n        /* \"@openzeppelin/contracts/access/Ownable.sol\":1531:1544  _checkOwner() */\n      tag_137\n        /* \"@openzeppelin/contracts/access/Ownable.sol\":1531:1542  _checkOwner */\n      tag_90\n        /* \"@openzeppelin/contracts/access/Ownable.sol\":1531:1544  _checkOwner() */\n      jump\t// in\n    tag_137:\n        /* \"@openzeppelin/contracts/access/Ownable.sol\":2647:2648  0 */\n      0x00\n        /* \"@openzeppelin/contracts/access/Ownable.sol\":2627:2649  newOwner == address(0) */\n      0xffffffffffffffffffffffffffffffffffffffff\n      and\n        /* \"@openzeppelin/contracts/access/Ownable.sol\":2627:2635  newOwner */\n      dup2\n        /* \"@openzeppelin/contracts/access/Ownable.sol\":2627:2649  newOwner == address(0) */\n      0xffffffffffffffffffffffffffffffffffffffff\n      and\n      sub\n        /* \"@openzeppelin/contracts/access/Ownable.sol\":2623:2714  if (newOwner == address(0)) {... */\n      tag_139\n      jumpi\n        /* \"@openzeppelin/contracts/access/Ownable.sol\":2700:2701  0 */\n      0x00\n        /* \"@openzeppelin/contracts/access/Ownable.sol\":2672:2703  OwnableInvalidOwner(address(0)) */\n      mload(0x40)\n      0x1e4fbdf700000000000000000000000000000000000000000000000000000000\n      dup2\n      mstore\n      0x04\n      add\n      tag_140\n      swap2\n      swap1\n      tag_44\n      jump\t// in\n    tag_140:\n      mload(0x40)\n      dup1\n      swap2\n      sub\n      swap1\n      revert\n        /* \"@openzeppelin/contracts/access/Ownable.sol\":2623:2714  if (newOwner == address(0)) {... */\n    tag_139:\n        /* \"@openzeppelin/contracts/access/Ownable.sol\":2723:2751  _transferOwnership(newOwner) */\n      tag_141\n        /* \"@openzeppelin/contracts/access/Ownable.sol\":2742:2750  newOwner */\n      dup2\n        /* \"@openzeppelin/contracts/access/Ownable.sol\":2723:2741  _transferOwnership */\n      tag_125\n        /* \"@openzeppelin/contracts/access/Ownable.sol\":2723:2751  _transferOwnership(newOwner) */\n      jump\t// in\n    tag_141:\n        /* \"@openzeppelin/contracts/access/Ownable.sol\":2543:2758  function transferOwnership(address newOwner) public virtual onlyOwner {... */\n      pop\n      jump\t// out\n        /* \"contracts/Lending.sol\":581:600  IERC20 public token */\n    tag_56:\n      0x02\n      0x00\n      swap1\n      sload\n      swap1\n      0x0100\n      exp\n      swap1\n      div\n      0xffffffffffffffffffffffffffffffffffffffff\n      and\n      dup2\n      jump\t// out\n        /* \"@openzeppelin/contracts/utils/ReentrancyGuard.sol\":2431:2738  function _nonReentrantBefore() private {... */\n    tag_61:\n        /* \"@openzeppelin/contracts/utils/ReentrancyGuard.sol\":1755:1756  2 */\n      0x02\n        /* \"@openzeppelin/contracts/utils/ReentrancyGuard.sol\":2558:2565  _status */\n      sload(0x01)\n        /* \"@openzeppelin/contracts/utils/ReentrancyGuard.sol\":2558:2576  _status == ENTERED */\n      sub\n        /* \"@openzeppelin/contracts/utils/ReentrancyGuard.sol\":2554:2640  if (_status == ENTERED) {... */\n      tag_143\n      jumpi\n        /* \"@openzeppelin/contracts/utils/ReentrancyGuard.sol\":2599:2629  ReentrancyGuardReentrantCall() */\n      mload(0x40)\n      0x3ee5aeb500000000000000000000000000000000000000000000000000000000\n      dup2\n      mstore\n      0x04\n      add\n      mload(0x40)\n      dup1\n      swap2\n      sub\n      swap1\n      revert\n        /* \"@openzeppelin/contracts/utils/ReentrancyGuard.sol\":2554:2640  if (_status == ENTERED) {... */\n    tag_143:\n        /* \"@openzeppelin/contracts/utils/ReentrancyGuard.sol\":1755:1756  2 */\n      0x02\n        /* \"@openzeppelin/contracts/utils/ReentrancyGuard.sol\":2714:2721  _status */\n      0x01\n        /* \"@openzeppelin/contracts/utils/ReentrancyGuard.sol\":2714:2731  _status = ENTERED */\n      dup2\n      swap1\n      sstore\n      pop\n        /* \"@openzeppelin/contracts/utils/ReentrancyGuard.sol\":2431:2738  function _nonReentrantBefore() private {... */\n      jump\t// out\n        /* \"@openzeppelin/contracts/utils/math/SafeMath.sol\":1120:1295  function add(uint256 a, uint256 b) internal pure returns (uint256) {... */\n    tag_71:\n        /* \"@openzeppelin/contracts/utils/math/SafeMath.sol\":1178:1185  uint256 */\n      0x00\n        /* \"@openzeppelin/contracts/utils/math/SafeMath.sol\":1197:1206  uint256 c */\n      dup1\n        /* \"@openzeppelin/contracts/utils/math/SafeMath.sol\":1213:1214  b */\n      dup3\n        /* \"@openzeppelin/contracts/utils/math/SafeMath.sol\":1209:1210  a */\n      dup5\n        /* \"@openzeppelin/contracts/utils/math/SafeMath.sol\":1209:1214  a + b */\n      tag_145\n      swap2\n      swap1\n      tag_146\n      jump\t// in\n    tag_145:\n        /* \"@openzeppelin/contracts/utils/math/SafeMath.sol\":1197:1214  uint256 c = a + b */\n      swap1\n      pop\n        /* \"@openzeppelin/contracts/utils/math/SafeMath.sol\":1237:1238  a */\n      dup4\n        /* \"@openzeppelin/contracts/utils/math/SafeMath.sol\":1232:1233  c */\n      dup2\n        /* \"@openzeppelin/contracts/utils/math/SafeMath.sol\":1232:1238  c >= a */\n      lt\n      iszero\n        /* \"@openzeppelin/contracts/utils/math/SafeMath.sol\":1224:1270  require(c >= a, \"SafeMath: addition overflow\") */\n      tag_147\n      jumpi\n      mload(0x40)\n      0x08c379a000000000000000000000000000000000000000000000000000000000\n      dup2\n      mstore\n      0x04\n      add\n      tag_148\n      swap1\n      tag_149\n      jump\t// in\n    tag_148:\n      mload(0x40)\n      dup1\n      swap2\n      sub\n      swap1\n      revert\n    tag_147:\n        /* \"@openzeppelin/contracts/utils/math/SafeMath.sol\":1287:1288  c */\n      dup1\n        /* \"@openzeppelin/contracts/utils/math/SafeMath.sol\":1280:1288  return c */\n      swap2\n      pop\n      pop\n        /* \"@openzeppelin/contracts/utils/math/SafeMath.sol\":1120:1295  function add(uint256 a, uint256 b) internal pure returns (uint256) {... */\n      swap3\n      swap2\n      pop\n      pop\n      jump\t// out\n        /* \"@openzeppelin/contracts/token/ERC20/utils/SafeERC20.sol\":1702:1890  function safeTransferFrom(IERC20 token, address from, address to, uint256 value) internal {... */\n    tag_82:\n        /* \"@openzeppelin/contracts/token/ERC20/utils/SafeERC20.sol\":1802:1883  _callOptionalReturn(token, abi.encodeCall(token.transferFrom, (from, to, value))) */\n      tag_151\n        /* \"@openzeppelin/contracts/token/ERC20/utils/SafeERC20.sol\":1822:1827  token */\n      dup5\n        /* \"@openzeppelin/contracts/token/ERC20/utils/SafeERC20.sol\":1844:1849  token */\n      dup6\n        /* \"@openzeppelin/contracts/token/ERC20/utils/SafeERC20.sol\":1844:1862  token.transferFrom */\n      0xffffffffffffffffffffffffffffffffffffffff\n      and\n      0x23b872dd\n        /* \"@openzeppelin/contracts/token/ERC20/utils/SafeERC20.sol\":1865:1869  from */\n      dup7\n        /* \"@openzeppelin/contracts/token/ERC20/utils/SafeERC20.sol\":1871:1873  to */\n      dup7\n        /* \"@openzeppelin/contracts/token/ERC20/utils/SafeERC20.sol\":1875:1880  value */\n      dup7\n        /* \"@openzeppelin/contracts/token/ERC20/utils/SafeERC20.sol\":1829:1882  abi.encodeCall(token.transferFrom, (from, to, value)) */\n      add(0x24, mload(0x40))\n      tag_152\n      swap4\n      swap3\n      swap2\n      swap1\n      tag_153\n      jump\t// in\n    tag_152:\n      mload(0x40)\n      0x20\n      dup2\n      dup4\n      sub\n      sub\n      dup2\n      mstore\n      swap1\n      0x40\n      mstore\n      swap2\n      pop\n      0xe0\n      shl\n      0x20\n      dup3\n      add\n      dup1\n      mload\n      0xffffffffffffffffffffffffffffffffffffffffffffffffffffffff\n      dup4\n      dup2\n      dup4\n      and\n      or\n      dup4\n      mstore\n      pop\n      pop\n      pop\n      pop\n        /* \"@openzeppelin/contracts/token/ERC20/utils/SafeERC20.sol\":1802:1821  _callOptionalReturn */\n      tag_154\n        /* \"@openzeppelin/contracts/token/ERC20/utils/SafeERC20.sol\":1802:1883  _callOptionalReturn(token, abi.encodeCall(token.transferFrom, (from, to, value))) */\n      jump\t// in\n    tag_151:\n        /* \"@openzeppelin/contracts/token/ERC20/utils/SafeERC20.sol\":1702:1890  function safeTransferFrom(IERC20 token, address from, address to, uint256 value) internal {... */\n      pop\n      pop\n      pop\n      pop\n      jump\t// out\n        /* \"@openzeppelin/contracts/utils/ReentrancyGuard.sol\":2744:2952  function _nonReentrantAfter() private {... */\n    tag_87:\n        /* \"@openzeppelin/contracts/utils/ReentrancyGuard.sol\":1713:1714  1 */\n      0x01\n        /* \"@openzeppelin/contracts/utils/ReentrancyGuard.sol\":2924:2931  _status */\n      dup1\n        /* \"@openzeppelin/contracts/utils/ReentrancyGuard.sol\":2924:2945  _status = NOT_ENTERED */\n      dup2\n      swap1\n      sstore\n      pop\n        /* \"@openzeppelin/contracts/utils/ReentrancyGuard.sol\":2744:2952  function _nonReentrantAfter() private {... */\n      jump\t// out\n        /* \"@openzeppelin/contracts/access/Ownable.sol\":1796:1958  function _checkOwner() internal view virtual {... */\n    tag_90:\n        /* \"@openzeppelin/contracts/access/Ownable.sol\":1866:1878  _msgSender() */\n      tag_157\n        /* \"@openzeppelin/contracts/access/Ownable.sol\":1866:1876  _msgSender */\n      tag_158\n        /* \"@openzeppelin/contracts/access/Ownable.sol\":1866:1878  _msgSender() */\n      jump\t// in\n    tag_157:\n        /* \"@openzeppelin/contracts/access/Ownable.sol\":1855:1878  owner() != _msgSender() */\n      0xffffffffffffffffffffffffffffffffffffffff\n      and\n        /* \"@openzeppelin/contracts/access/Ownable.sol\":1855:1862  owner() */\n      tag_159\n        /* \"@openzeppelin/contracts/access/Ownable.sol\":1855:1860  owner */\n      tag_42\n        /* \"@openzeppelin/contracts/access/Ownable.sol\":1855:1862  owner() */\n      jump\t// in\n    tag_159:\n        /* \"@openzeppelin/contracts/access/Ownable.sol\":1855:1878  owner() != _msgSender() */\n      0xffffffffffffffffffffffffffffffffffffffff\n      and\n      eq\n        /* \"@openzeppelin/contracts/access/Ownable.sol\":1851:1952  if (owner() != _msgSender()) {... */\n      tag_160\n      jumpi\n        /* \"@openzeppelin/contracts/access/Ownable.sol\":1928:1940  _msgSender() */\n      tag_161\n        /* \"@openzeppelin/contracts/access/Ownable.sol\":1928:1938  _msgSender */\n      tag_158\n        /* \"@openzeppelin/contracts/access/Ownable.sol\":1928:1940  _msgSender() */\n      jump\t// in\n    tag_161:\n        /* \"@openzeppelin/contracts/access/Ownable.sol\":1901:1941  OwnableUnauthorizedAccount(_msgSender()) */\n      mload(0x40)\n      0x118cdaa700000000000000000000000000000000000000000000000000000000\n      dup2\n      mstore\n      0x04\n      add\n      tag_162\n      swap2\n      swap1\n      tag_44\n      jump\t// in\n    tag_162:\n      mload(0x40)\n      dup1\n      swap2\n      sub\n      swap1\n      revert\n        /* \"@openzeppelin/contracts/access/Ownable.sol\":1851:1952  if (owner() != _msgSender()) {... */\n    tag_160:\n        /* \"@openzeppelin/contracts/access/Ownable.sol\":1796:1958  function _checkOwner() internal view virtual {... */\n      jump\t// out\n        /* \"@openzeppelin/contracts/token/ERC20/utils/SafeERC20.sol\":1303:1463  function safeTransfer(IERC20 token, address to, uint256 value) internal {... */\n    tag_104:\n        /* \"@openzeppelin/contracts/token/ERC20/utils/SafeERC20.sol\":1385:1456  _callOptionalReturn(token, abi.encodeCall(token.transfer, (to, value))) */\n      tag_164\n        /* \"@openzeppelin/contracts/token/ERC20/utils/SafeERC20.sol\":1405:1410  token */\n      dup4\n        /* \"@openzeppelin/contracts/token/ERC20/utils/SafeERC20.sol\":1427:1432  token */\n      dup5\n        /* \"@openzeppelin/contracts/token/ERC20/utils/SafeERC20.sol\":1427:1441  token.transfer */\n      0xffffffffffffffffffffffffffffffffffffffff\n      and\n      0xa9059cbb\n        /* \"@openzeppelin/contracts/token/ERC20/utils/SafeERC20.sol\":1444:1446  to */\n      dup6\n        /* \"@openzeppelin/contracts/token/ERC20/utils/SafeERC20.sol\":1448:1453  value */\n      dup6\n        /* \"@openzeppelin/contracts/token/ERC20/utils/SafeERC20.sol\":1412:1455  abi.encodeCall(token.transfer, (to, value)) */\n      add(0x24, mload(0x40))\n      tag_165\n      swap3\n      swap2\n      swap1\n      tag_166\n      jump\t// in\n    tag_165:\n      mload(0x40)\n      0x20\n      dup2\n      dup4\n      sub\n      sub\n      dup2\n      mstore\n      swap1\n      0x40\n      mstore\n      swap2\n      pop\n      0xe0\n      shl\n      0x20\n      dup3\n      add\n      dup1\n      mload\n      0xffffffffffffffffffffffffffffffffffffffffffffffffffffffff\n      dup4\n      dup2\n      dup4\n      and\n      or\n      dup4\n      mstore\n      pop\n      pop\n      pop\n      pop\n        /* \"@openzeppelin/contracts/token/ERC20/utils/SafeERC20.sol\":1385:1404  _callOptionalReturn */\n      tag_154\n        /* \"@openzeppelin/contracts/token/ERC20/utils/SafeERC20.sol\":1385:1456  _callOptionalReturn(token, abi.encodeCall(token.transfer, (to, value))) */\n      jump\t// in\n    tag_164:\n        /* \"@openzeppelin/contracts/token/ERC20/utils/SafeERC20.sol\":1303:1463  function safeTransfer(IERC20 token, address to, uint256 value) internal {... */\n      pop\n      pop\n      pop\n      jump\t// out\n        /* \"@openzeppelin/contracts/utils/math/SafeMath.sol\":870:1048  function sub(uint256 a, uint256 b) internal pure returns (uint256) {... */\n    tag_118:\n        /* \"@openzeppelin/contracts/utils/math/SafeMath.sol\":928:935  uint256 */\n      0x00\n        /* \"@openzeppelin/contracts/utils/math/SafeMath.sol\":960:961  a */\n      dup3\n        /* \"@openzeppelin/contracts/utils/math/SafeMath.sol\":955:956  b */\n      dup3\n        /* \"@openzeppelin/contracts/utils/math/SafeMath.sol\":955:961  b <= a */\n      gt\n      iszero\n        /* \"@openzeppelin/contracts/utils/math/SafeMath.sol\":947:996  require(b <= a, \"SafeMath: subtraction overflow\") */\n      tag_168\n      jumpi\n      mload(0x40)\n      0x08c379a000000000000000000000000000000000000000000000000000000000\n      dup2\n      mstore\n      0x04\n      add\n      tag_169\n      swap1\n      tag_170\n      jump\t// in\n    tag_169:\n      mload(0x40)\n      dup1\n      swap2\n      sub\n      swap1\n      revert\n    tag_168:\n        /* \"@openzeppelin/contracts/utils/math/SafeMath.sol\":1006:1015  uint256 c */\n      0x00\n        /* \"@openzeppelin/contracts/utils/math/SafeMath.sol\":1022:1023  b */\n      dup3\n        /* \"@openzeppelin/contracts/utils/math/SafeMath.sol\":1018:1019  a */\n      dup5\n        /* \"@openzeppelin/contracts/utils/math/SafeMath.sol\":1018:1023  a - b */\n      tag_171\n      swap2\n      swap1\n      tag_172\n      jump\t// in\n    tag_171:\n        /* \"@openzeppelin/contracts/utils/math/SafeMath.sol\":1006:1023  uint256 c = a - b */\n      swap1\n      pop\n        /* \"@openzeppelin/contracts/utils/math/SafeMath.sol\":1040:1041  c */\n      dup1\n        /* \"@openzeppelin/contracts/utils/math/SafeMath.sol\":1033:1041  return c */\n      swap2\n      pop\n      pop\n        /* \"@openzeppelin/contracts/utils/math/SafeMath.sol\":870:1048  function sub(uint256 a, uint256 b) internal pure returns (uint256) {... */\n      swap3\n      swap2\n      pop\n      pop\n      jump\t// out\n        /* \"@openzeppelin/contracts/access/Ownable.sol\":2912:3099  function _transferOwnership(address newOwner) internal virtual {... */\n    tag_125:\n        /* \"@openzeppelin/contracts/access/Ownable.sol\":2985:3001  address oldOwner */\n      0x00\n        /* \"@openzeppelin/contracts/access/Ownable.sol\":3004:3010  _owner */\n      dup1\n      0x00\n      swap1\n      sload\n      swap1\n      0x0100\n      exp\n      swap1\n      div\n      0xffffffffffffffffffffffffffffffffffffffff\n      and\n        /* \"@openzeppelin/contracts/access/Ownable.sol\":2985:3010  address oldOwner = _owner */\n      swap1\n      pop\n        /* \"@openzeppelin/contracts/access/Ownable.sol\":3029:3037  newOwner */\n      dup2\n        /* \"@openzeppelin/contracts/access/Ownable.sol\":3020:3026  _owner */\n      0x00\n      dup1\n        /* \"@openzeppelin/contracts/access/Ownable.sol\":3020:3037  _owner = newOwner */\n      0x0100\n      exp\n      dup2\n      sload\n      dup2\n      0xffffffffffffffffffffffffffffffffffffffff\n      mul\n      not\n      and\n      swap1\n      dup4\n      0xffffffffffffffffffffffffffffffffffffffff\n      and\n      mul\n      or\n      swap1\n      sstore\n      pop\n        /* \"@openzeppelin/contracts/access/Ownable.sol\":3083:3091  newOwner */\n      dup2\n        /* \"@openzeppelin/contracts/access/Ownable.sol\":3052:3092  OwnershipTransferred(oldOwner, newOwner) */\n      0xffffffffffffffffffffffffffffffffffffffff\n      and\n        /* \"@openzeppelin/contracts/access/Ownable.sol\":3073:3081  oldOwner */\n      dup2\n        /* \"@openzeppelin/contracts/access/Ownable.sol\":3052:3092  OwnershipTransferred(oldOwner, newOwner) */\n      0xffffffffffffffffffffffffffffffffffffffff\n      and\n      0x8be0079c531659141344cd1fd0a4f28419497f9722a3daafe3b4186f6b6457e0\n      mload(0x40)\n      mload(0x40)\n      dup1\n      swap2\n      sub\n      swap1\n      log3\n        /* \"@openzeppelin/contracts/access/Ownable.sol\":2975:3099  {... */\n      pop\n        /* \"@openzeppelin/contracts/access/Ownable.sol\":2912:3099  function _transferOwnership(address newOwner) internal virtual {... */\n      pop\n      jump\t// out\n        /* \"@openzeppelin/contracts/utils/math/SafeMath.sol\":243:482  function mul(uint256 a, uint256 b) internal pure returns (uint256) {... */\n    tag_130:\n        /* \"@openzeppelin/contracts/utils/math/SafeMath.sol\":301:308  uint256 */\n      0x00\n        /* \"@openzeppelin/contracts/utils/math/SafeMath.sol\":329:330  0 */\n      dup1\n        /* \"@openzeppelin/contracts/utils/math/SafeMath.sol\":324:325  a */\n      dup4\n        /* \"@openzeppelin/contracts/utils/math/SafeMath.sol\":324:330  a == 0 */\n      sub\n        /* \"@openzeppelin/contracts/utils/math/SafeMath.sol\":320:365  if (a == 0) {... */\n      tag_175\n      jumpi\n        /* \"@openzeppelin/contracts/utils/math/SafeMath.sol\":353:354  0 */\n      0x00\n        /* \"@openzeppelin/contracts/utils/math/SafeMath.sol\":346:354  return 0 */\n      swap1\n      pop\n      jump(tag_174)\n        /* \"@openzeppelin/contracts/utils/math/SafeMath.sol\":320:365  if (a == 0) {... */\n    tag_175:\n        /* \"@openzeppelin/contracts/utils/math/SafeMath.sol\":374:383  uint256 c */\n      0x00\n        /* \"@openzeppelin/contracts/utils/math/SafeMath.sol\":390:391  b */\n      dup3\n        /* \"@openzeppelin/contracts/utils/math/SafeMath.sol\":386:387  a */\n      dup5\n        /* \"@openzeppelin/contracts/utils/math/SafeMath.sol\":386:391  a * b */\n      tag_176\n      swap2\n      swap1\n      tag_177\n      jump\t// in\n    tag_176:\n        /* \"@openzeppelin/contracts/utils/math/SafeMath.sol\":374:391  uint256 c = a * b */\n      swap1\n      pop\n        /* \"@openzeppelin/contracts/utils/math/SafeMath.sol\":418:419  b */\n      dup3\n        /* \"@openzeppelin/contracts/utils/math/SafeMath.sol\":413:414  a */\n      dup5\n        /* \"@openzeppelin/contracts/utils/math/SafeMath.sol\":409:410  c */\n      dup3\n        /* \"@openzeppelin/contracts/utils/math/SafeMath.sol\":409:414  c / a */\n      tag_178\n      swap2\n      swap1\n      tag_179\n      jump\t// in\n    tag_178:\n        /* \"@openzeppelin/contracts/utils/math/SafeMath.sol\":409:419  c / a == b */\n      eq\n        /* \"@openzeppelin/contracts/utils/math/SafeMath.sol\":401:457  require(c / a == b, \"SafeMath: multiplication overflow\") */\n      tag_180\n      jumpi\n      mload(0x40)\n      0x08c379a000000000000000000000000000000000000000000000000000000000\n      dup2\n      mstore\n      0x04\n      add\n      tag_181\n      swap1\n      tag_182\n      jump\t// in\n    tag_181:\n      mload(0x40)\n      dup1\n      swap2\n      sub\n      swap1\n      revert\n    tag_180:\n        /* \"@openzeppelin/contracts/utils/math/SafeMath.sol\":474:475  c */\n      dup1\n        /* \"@openzeppelin/contracts/utils/math/SafeMath.sol\":467:475  return c */\n      swap2\n      pop\n      pop\n        /* \"@openzeppelin/contracts/utils/math/SafeMath.sol\":243:482  function mul(uint256 a, uint256 b) internal pure returns (uint256) {... */\n    tag_174:\n      swap3\n      swap2\n      pop\n      pop\n      jump\t// out\n        /* \"@openzeppelin/contracts/utils/math/SafeMath.sol\":574:747  function div(uint256 a, uint256 b) internal pure returns (uint256) {... */\n    tag_131:\n        /* \"@openzeppelin/contracts/utils/math/SafeMath.sol\":632:639  uint256 */\n      0x00\n        /* \"@openzeppelin/contracts/utils/math/SafeMath.sol\":663:664  0 */\n      dup1\n        /* \"@openzeppelin/contracts/utils/math/SafeMath.sol\":659:660  b */\n      dup3\n        /* \"@openzeppelin/contracts/utils/math/SafeMath.sol\":659:664  b > 0 */\n      gt\n        /* \"@openzeppelin/contracts/utils/math/SafeMath.sol\":651:695  require(b > 0, \"SafeMath: division by zero\") */\n      tag_184\n      jumpi\n      mload(0x40)\n      0x08c379a000000000000000000000000000000000000000000000000000000000\n      dup2\n      mstore\n      0x04\n      add\n      tag_185\n      swap1\n      tag_186\n      jump\t// in\n    tag_185:\n      mload(0x40)\n      dup1\n      swap2\n      sub\n      swap1\n      revert\n    tag_184:\n        /* \"@openzeppelin/contracts/utils/math/SafeMath.sol\":705:714  uint256 c */\n      0x00\n        /* \"@openzeppelin/contracts/utils/math/SafeMath.sol\":721:722  b */\n      dup3\n        /* \"@openzeppelin/contracts/utils/math/SafeMath.sol\":717:718  a */\n      dup5\n        /* \"@openzeppelin/contracts/utils/math/SafeMath.sol\":717:722  a / b */\n      tag_187\n      swap2\n      swap1\n      tag_179\n      jump\t// in\n    tag_187:\n        /* \"@openzeppelin/contracts/utils/math/SafeMath.sol\":705:722  uint256 c = a / b */\n      swap1\n      pop\n        /* \"@openzeppelin/contracts/utils/math/SafeMath.sol\":739:740  c */\n      dup1\n        /* \"@openzeppelin/contracts/utils/math/SafeMath.sol\":732:740  return c */\n      swap2\n      pop\n      pop\n        /* \"@openzeppelin/contracts/utils/math/SafeMath.sol\":574:747  function div(uint256 a, uint256 b) internal pure returns (uint256) {... */\n      swap3\n      swap2\n      pop\n      pop\n      jump\t// out\n        /* \"@openzeppelin/contracts/token/ERC20/utils/SafeERC20.sol\":4059:4688  function _callOptionalReturn(IERC20 token, bytes memory data) private {... */\n    tag_154:\n        /* \"@openzeppelin/contracts/token/ERC20/utils/SafeERC20.sol\":4478:4501  bytes memory returndata */\n      0x00\n        /* \"@openzeppelin/contracts/token/ERC20/utils/SafeERC20.sol\":4504:4537  address(token).functionCall(data) */\n      tag_189\n        /* \"@openzeppelin/contracts/token/ERC20/utils/SafeERC20.sol\":4532:4536  data */\n      dup3\n        /* \"@openzeppelin/contracts/token/ERC20/utils/SafeERC20.sol\":4512:4517  token */\n      dup5\n        /* \"@openzeppelin/contracts/token/ERC20/utils/SafeERC20.sol\":4504:4531  address(token).functionCall */\n      0xffffffffffffffffffffffffffffffffffffffff\n      and\n      tag_190\n      swap1\n        /* \"@openzeppelin/contracts/token/ERC20/utils/SafeERC20.sol\":4504:4537  address(token).functionCall(data) */\n      swap2\n      swap1\n      0xffffffff\n      and\n      jump\t// in\n    tag_189:\n        /* \"@openzeppelin/contracts/token/ERC20/utils/SafeERC20.sol\":4478:4537  bytes memory returndata = address(token).functionCall(data) */\n      swap1\n      pop\n        /* \"@openzeppelin/contracts/token/ERC20/utils/SafeERC20.sol\":4572:4573  0 */\n      0x00\n        /* \"@openzeppelin/contracts/token/ERC20/utils/SafeERC20.sol\":4551:4561  returndata */\n      dup2\n        /* \"@openzeppelin/contracts/token/ERC20/utils/SafeERC20.sol\":4551:4568  returndata.length */\n      mload\n        /* \"@openzeppelin/contracts/token/ERC20/utils/SafeERC20.sol\":4551:4573  returndata.length != 0 */\n      eq\n      iszero\n        /* \"@openzeppelin/contracts/token/ERC20/utils/SafeERC20.sol\":4551:4608  returndata.length != 0 && !abi.decode(returndata, (bool)) */\n      dup1\n      iszero\n      tag_191\n      jumpi\n      pop\n        /* \"@openzeppelin/contracts/token/ERC20/utils/SafeERC20.sol\":4589:4599  returndata */\n      dup1\n        /* \"@openzeppelin/contracts/token/ERC20/utils/SafeERC20.sol\":4578:4608  abi.decode(returndata, (bool)) */\n      dup1\n      0x20\n      add\n      swap1\n      mload\n      dup2\n      add\n      swap1\n      tag_192\n      swap2\n      swap1\n      tag_193\n      jump\t// in\n    tag_192:\n        /* \"@openzeppelin/contracts/token/ERC20/utils/SafeERC20.sol\":4577:4608  !abi.decode(returndata, (bool)) */\n      iszero\n        /* \"@openzeppelin/contracts/token/ERC20/utils/SafeERC20.sol\":4551:4608  returndata.length != 0 && !abi.decode(returndata, (bool)) */\n    tag_191:\n        /* \"@openzeppelin/contracts/token/ERC20/utils/SafeERC20.sol\":4547:4682  if (returndata.length != 0 && !abi.decode(returndata, (bool))) {... */\n      iszero\n      tag_194\n      jumpi\n        /* \"@openzeppelin/contracts/token/ERC20/utils/SafeERC20.sol\":4664:4669  token */\n      dup3\n        /* \"@openzeppelin/contracts/token/ERC20/utils/SafeERC20.sol\":4631:4671  SafeERC20FailedOperation(address(token)) */\n      mload(0x40)\n      0x5274afe700000000000000000000000000000000000000000000000000000000\n      dup2\n      mstore\n      0x04\n      add\n      tag_195\n      swap2\n      swap1\n      tag_44\n      jump\t// in\n    tag_195:\n      mload(0x40)\n      dup1\n      swap2\n      sub\n      swap1\n      revert\n        /* \"@openzeppelin/contracts/token/ERC20/utils/SafeERC20.sol\":4547:4682  if (returndata.length != 0 && !abi.decode(returndata, (bool))) {... */\n    tag_194:\n        /* \"@openzeppelin/contracts/token/ERC20/utils/SafeERC20.sol\":4129:4688  {... */\n      pop\n        /* \"@openzeppelin/contracts/token/ERC20/utils/SafeERC20.sol\":4059:4688  function _callOptionalReturn(IERC20 token, bytes memory data) private {... */\n      pop\n      pop\n      jump\t// out\n        /* \"@openzeppelin/contracts/utils/Context.sol\":656:752  function _msgSender() internal view virtual returns (address) {... */\n    tag_158:\n        /* \"@openzeppelin/contracts/utils/Context.sol\":709:716  address */\n      0x00\n        /* \"@openzeppelin/contracts/utils/Context.sol\":735:745  msg.sender */\n      caller\n        /* \"@openzeppelin/contracts/utils/Context.sol\":728:745  return msg.sender */\n      swap1\n      pop\n        /* \"@openzeppelin/contracts/utils/Context.sol\":656:752  function _msgSender() internal view virtual returns (address) {... */\n      swap1\n      jump\t// out\n        /* \"@openzeppelin/contracts/utils/Address.sol\":2705:2856  function functionCall(address target, bytes memory data) internal returns (bytes memory) {... */\n    tag_190:\n        /* \"@openzeppelin/contracts/utils/Address.sol\":2780:2792  bytes memory */\n      0x60\n        /* \"@openzeppelin/contracts/utils/Address.sol\":2811:2849  functionCallWithValue(target, data, 0) */\n      tag_198\n        /* \"@openzeppelin/contracts/utils/Address.sol\":2833:2839  target */\n      dup4\n        /* \"@openzeppelin/contracts/utils/Address.sol\":2841:2845  data */\n      dup4\n        /* \"@openzeppelin/contracts/utils/Address.sol\":2847:2848  0 */\n      0x00\n        /* \"@openzeppelin/contracts/utils/Address.sol\":2811:2832  functionCallWithValue */\n      tag_199\n        /* \"@openzeppelin/contracts/utils/Address.sol\":2811:2849  functionCallWithValue(target, data, 0) */\n      jump\t// in\n    tag_198:\n        /* \"@openzeppelin/contracts/utils/Address.sol\":2804:2849  return functionCallWithValue(target, data, 0) */\n      swap1\n      pop\n        /* \"@openzeppelin/contracts/utils/Address.sol\":2705:2856  function functionCall(address target, bytes memory data) internal returns (bytes memory) {... */\n      swap3\n      swap2\n      pop\n      pop\n      jump\t// out\n        /* \"@openzeppelin/contracts/utils/Address.sol\":3180:3572  function functionCallWithValue(address target, bytes memory data, uint256 value) internal returns (bytes memory) {... */\n    tag_199:\n        /* \"@openzeppelin/contracts/utils/Address.sol\":3279:3291  bytes memory */\n      0x60\n        /* \"@openzeppelin/contracts/utils/Address.sol\":3331:3336  value */\n      dup2\n        /* \"@openzeppelin/contracts/utils/Address.sol\":3307:3328  address(this).balance */\n      selfbalance\n        /* \"@openzeppelin/contracts/utils/Address.sol\":3307:3336  address(this).balance < value */\n      lt\n        /* \"@openzeppelin/contracts/utils/Address.sol\":3303:3411  if (address(this).balance < value) {... */\n      iszero\n      tag_201\n      jumpi\n        /* \"@openzeppelin/contracts/utils/Address.sol\":3394:3398  this */\n      address\n        /* \"@openzeppelin/contracts/utils/Address.sol\":3359:3400  AddressInsufficientBalance(address(this)) */\n      mload(0x40)\n      0xcd78605900000000000000000000000000000000000000000000000000000000\n      dup2\n      mstore\n      0x04\n      add\n      tag_202\n      swap2\n      swap1\n      tag_44\n      jump\t// in\n    tag_202:\n      mload(0x40)\n      dup1\n      swap2\n      sub\n      swap1\n      revert\n        /* \"@openzeppelin/contracts/utils/Address.sol\":3303:3411  if (address(this).balance < value) {... */\n    tag_201:\n        /* \"@openzeppelin/contracts/utils/Address.sol\":3421:3433  bool success */\n      0x00\n        /* \"@openzeppelin/contracts/utils/Address.sol\":3435:3458  bytes memory returndata */\n      dup1\n        /* \"@openzeppelin/contracts/utils/Address.sol\":3462:3468  target */\n      dup6\n        /* \"@openzeppelin/contracts/utils/Address.sol\":3462:3473  target.call */\n      0xffffffffffffffffffffffffffffffffffffffff\n      and\n        /* \"@openzeppelin/contracts/utils/Address.sol\":3481:3486  value */\n      dup5\n        /* \"@openzeppelin/contracts/utils/Address.sol\":3488:3492  data */\n      dup7\n        /* \"@openzeppelin/contracts/utils/Address.sol\":3462:3493  target.call{value: value}(data) */\n      mload(0x40)\n      tag_203\n      swap2\n      swap1\n      tag_204\n      jump\t// in\n    tag_203:\n      0x00\n      mload(0x40)\n      dup1\n      dup4\n      sub\n      dup2\n      dup6\n      dup8\n      gas\n      call\n      swap3\n      pop\n      pop\n      pop\n      returndatasize\n      dup1\n      0x00\n      dup2\n      eq\n      tag_207\n      jumpi\n      mload(0x40)\n      swap2\n      pop\n      and(add(returndatasize, 0x3f), not(0x1f))\n      dup3\n      add\n      0x40\n      mstore\n      returndatasize\n      dup3\n      mstore\n      returndatasize\n      0x00\n      0x20\n      dup5\n      add\n      returndatacopy\n      jump(tag_206)\n    tag_207:\n      0x60\n      swap2\n      pop\n    tag_206:\n      pop\n        /* \"@openzeppelin/contracts/utils/Address.sol\":3420:3493  (bool success, bytes memory returndata) = target.call{value: value}(data) */\n      swap2\n      pop\n      swap2\n      pop\n        /* \"@openzeppelin/contracts/utils/Address.sol\":3510:3565  verifyCallResultFromTarget(target, success, returndata) */\n      tag_208\n        /* \"@openzeppelin/contracts/utils/Address.sol\":3537:3543  target */\n      dup7\n        /* \"@openzeppelin/contracts/utils/Address.sol\":3545:3552  success */\n      dup4\n        /* \"@openzeppelin/contracts/utils/Address.sol\":3554:3564  returndata */\n      dup4\n        /* \"@openzeppelin/contracts/utils/Address.sol\":3510:3536  verifyCallResultFromTarget */\n      tag_209\n        /* \"@openzeppelin/contracts/utils/Address.sol\":3510:3565  verifyCallResultFromTarget(target, success, returndata) */\n      jump\t// in\n    tag_208:\n        /* \"@openzeppelin/contracts/utils/Address.sol\":3503:3565  return verifyCallResultFromTarget(target, success, returndata) */\n      swap3\n      pop\n      pop\n      pop\n        /* \"@openzeppelin/contracts/utils/Address.sol\":3180:3572  function functionCallWithValue(address target, bytes memory data, uint256 value) internal returns (bytes memory) {... */\n      swap4\n      swap3\n      pop\n      pop\n      pop\n      jump\t// out\n        /* \"@openzeppelin/contracts/utils/Address.sol\":4625:5207  function verifyCallResultFromTarget(... */\n    tag_209:\n        /* \"@openzeppelin/contracts/utils/Address.sol\":4769:4781  bytes memory */\n      0x60\n        /* \"@openzeppelin/contracts/utils/Address.sol\":4798:4805  success */\n      dup3\n        /* \"@openzeppelin/contracts/utils/Address.sol\":4793:5201  if (!success) {... */\n      tag_211\n      jumpi\n        /* \"@openzeppelin/contracts/utils/Address.sol\":4821:4840  _revert(returndata) */\n      tag_212\n        /* \"@openzeppelin/contracts/utils/Address.sol\":4829:4839  returndata */\n      dup3\n        /* \"@openzeppelin/contracts/utils/Address.sol\":4821:4828  _revert */\n      tag_213\n        /* \"@openzeppelin/contracts/utils/Address.sol\":4821:4840  _revert(returndata) */\n      jump\t// in\n    tag_212:\n        /* \"@openzeppelin/contracts/utils/Address.sol\":4793:5201  if (!success) {... */\n      jump(tag_214)\n    tag_211:\n        /* \"@openzeppelin/contracts/utils/Address.sol\":5066:5067  0 */\n      0x00\n        /* \"@openzeppelin/contracts/utils/Address.sol\":5045:5055  returndata */\n      dup3\n        /* \"@openzeppelin/contracts/utils/Address.sol\":5045:5062  returndata.length */\n      mload\n        /* \"@openzeppelin/contracts/utils/Address.sol\":5045:5067  returndata.length == 0 */\n      eq\n        /* \"@openzeppelin/contracts/utils/Address.sol\":5045:5094  returndata.length == 0 && target.code.length == 0 */\n      dup1\n      iszero\n      tag_215\n      jumpi\n      pop\n        /* \"@openzeppelin/contracts/utils/Address.sol\":5093:5094  0 */\n      0x00\n        /* \"@openzeppelin/contracts/utils/Address.sol\":5071:5077  target */\n      dup5\n        /* \"@openzeppelin/contracts/utils/Address.sol\":5071:5089  target.code.length */\n      0xffffffffffffffffffffffffffffffffffffffff\n      and\n      extcodesize\n        /* \"@openzeppelin/contracts/utils/Address.sol\":5071:5094  target.code.length == 0 */\n      eq\n        /* \"@openzeppelin/contracts/utils/Address.sol\":5045:5094  returndata.length == 0 && target.code.length == 0 */\n    tag_215:\n        /* \"@openzeppelin/contracts/utils/Address.sol\":5041:5160  if (returndata.length == 0 && target.code.length == 0) {... */\n      iszero\n      tag_216\n      jumpi\n        /* \"@openzeppelin/contracts/utils/Address.sol\":5138:5144  target */\n      dup4\n        /* \"@openzeppelin/contracts/utils/Address.sol\":5121:5145  AddressEmptyCode(target) */\n      mload(0x40)\n      0x9996b31500000000000000000000000000000000000000000000000000000000\n      dup2\n      mstore\n      0x04\n      add\n      tag_217\n      swap2\n      swap1\n      tag_44\n      jump\t// in\n    tag_217:\n      mload(0x40)\n      dup1\n      swap2\n      sub\n      swap1\n      revert\n        /* \"@openzeppelin/contracts/utils/Address.sol\":5041:5160  if (returndata.length == 0 && target.code.length == 0) {... */\n    tag_216:\n        /* \"@openzeppelin/contracts/utils/Address.sol\":5180:5190  returndata */\n      dup2\n        /* \"@openzeppelin/contracts/utils/Address.sol\":5173:5190  return returndata */\n      swap1\n      pop\n      jump(tag_210)\n        /* \"@openzeppelin/contracts/utils/Address.sol\":4793:5201  if (!success) {... */\n    tag_214:\n        /* \"@openzeppelin/contracts/utils/Address.sol\":4625:5207  function verifyCallResultFromTarget(... */\n    tag_210:\n      swap4\n      swap3\n      pop\n      pop\n      pop\n      jump\t// out\n        /* \"@openzeppelin/contracts/utils/Address.sol\":5743:6259  function _revert(bytes memory returndata) private pure {... */\n    tag_213:\n        /* \"@openzeppelin/contracts/utils/Address.sol\":5894:5895  0 */\n      0x00\n        /* \"@openzeppelin/contracts/utils/Address.sol\":5874:5884  returndata */\n      dup2\n        /* \"@openzeppelin/contracts/utils/Address.sol\":5874:5891  returndata.length */\n      mload\n        /* \"@openzeppelin/contracts/utils/Address.sol\":5874:5895  returndata.length > 0 */\n      gt\n        /* \"@openzeppelin/contracts/utils/Address.sol\":5870:6253  if (returndata.length > 0) {... */\n      iszero\n      tag_219\n      jumpi\n        /* \"@openzeppelin/contracts/utils/Address.sol\":6102:6112  returndata */\n      dup1\n        /* \"@openzeppelin/contracts/utils/Address.sol\":6096:6113  mload(returndata) */\n      mload\n        /* \"@openzeppelin/contracts/utils/Address.sol\":6158:6173  returndata_size */\n      dup1\n        /* \"@openzeppelin/contracts/utils/Address.sol\":6145:6155  returndata */\n      dup3\n        /* \"@openzeppelin/contracts/utils/Address.sol\":6141:6143  32 */\n      0x20\n        /* \"@openzeppelin/contracts/utils/Address.sol\":6137:6156  add(32, returndata) */\n      add\n        /* \"@openzeppelin/contracts/utils/Address.sol\":6130:6174  revert(add(32, returndata), returndata_size) */\n      revert\n        /* \"@openzeppelin/contracts/utils/Address.sol\":5870:6253  if (returndata.length > 0) {... */\n    tag_219:\n        /* \"@openzeppelin/contracts/utils/Address.sol\":6225:6242  FailedInnerCall() */\n      mload(0x40)\n      0x1425ea4200000000000000000000000000000000000000000000000000000000\n      dup2\n      mstore\n      0x04\n      add\n      mload(0x40)\n      dup1\n      swap2\n      sub\n      swap1\n      revert\n        /* \"#utility.yul\":88:205   */\n    tag_222:\n        /* \"#utility.yul\":197:198   */\n      0x00\n        /* \"#utility.yul\":194:195   */\n      dup1\n        /* \"#utility.yul\":187:199   */\n      revert\n        /* \"#utility.yul\":334:411   */\n    tag_224:\n        /* \"#utility.yul\":371:378   */\n      0x00\n        /* \"#utility.yul\":400:405   */\n      dup2\n        /* \"#utility.yul\":389:405   */\n      swap1\n      pop\n        /* \"#utility.yul\":334:411   */\n      swap2\n      swap1\n      pop\n      jump\t// out\n        /* \"#utility.yul\":417:539   */\n    tag_225:\n        /* \"#utility.yul\":490:514   */\n      tag_273\n        /* \"#utility.yul\":508:513   */\n      dup2\n        /* \"#utility.yul\":490:514   */\n      tag_224\n      jump\t// in\n    tag_273:\n        /* \"#utility.yul\":483:488   */\n      dup2\n        /* \"#utility.yul\":480:515   */\n      eq\n        /* \"#utility.yul\":470:533   */\n      tag_274\n      jumpi\n        /* \"#utility.yul\":529:530   */\n      0x00\n        /* \"#utility.yul\":526:527   */\n      dup1\n        /* \"#utility.yul\":519:531   */\n      revert\n        /* \"#utility.yul\":470:533   */\n    tag_274:\n        /* \"#utility.yul\":417:539   */\n      pop\n      jump\t// out\n        /* \"#utility.yul\":545:684   */\n    tag_226:\n        /* \"#utility.yul\":591:596   */\n      0x00\n        /* \"#utility.yul\":629:635   */\n      dup2\n        /* \"#utility.yul\":616:636   */\n      calldataload\n        /* \"#utility.yul\":607:636   */\n      swap1\n      pop\n        /* \"#utility.yul\":645:678   */\n      tag_276\n        /* \"#utility.yul\":672:677   */\n      dup2\n        /* \"#utility.yul\":645:678   */\n      tag_225\n      jump\t// in\n    tag_276:\n        /* \"#utility.yul\":545:684   */\n      swap3\n      swap2\n      pop\n      pop\n      jump\t// out\n        /* \"#utility.yul\":690:1164   */\n    tag_18:\n        /* \"#utility.yul\":758:764   */\n      0x00\n        /* \"#utility.yul\":766:772   */\n      dup1\n        /* \"#utility.yul\":815:817   */\n      0x40\n        /* \"#utility.yul\":803:812   */\n      dup4\n        /* \"#utility.yul\":794:801   */\n      dup6\n        /* \"#utility.yul\":790:813   */\n      sub\n        /* \"#utility.yul\":786:818   */\n      slt\n        /* \"#utility.yul\":783:902   */\n      iszero\n      tag_278\n      jumpi\n        /* \"#utility.yul\":821:900   */\n      tag_279\n      tag_222\n      jump\t// in\n    tag_279:\n        /* \"#utility.yul\":783:902   */\n    tag_278:\n        /* \"#utility.yul\":941:942   */\n      0x00\n        /* \"#utility.yul\":966:1019   */\n      tag_280\n        /* \"#utility.yul\":1011:1018   */\n      dup6\n        /* \"#utility.yul\":1002:1008   */\n      dup3\n        /* \"#utility.yul\":991:1000   */\n      dup7\n        /* \"#utility.yul\":987:1009   */\n      add\n        /* \"#utility.yul\":966:1019   */\n      tag_226\n      jump\t// in\n    tag_280:\n        /* \"#utility.yul\":956:1019   */\n      swap3\n      pop\n        /* \"#utility.yul\":912:1029   */\n      pop\n        /* \"#utility.yul\":1068:1070   */\n      0x20\n        /* \"#utility.yul\":1094:1147   */\n      tag_281\n        /* \"#utility.yul\":1139:1146   */\n      dup6\n        /* \"#utility.yul\":1130:1136   */\n      dup3\n        /* \"#utility.yul\":1119:1128   */\n      dup7\n        /* \"#utility.yul\":1115:1137   */\n      add\n        /* \"#utility.yul\":1094:1147   */\n      tag_226\n      jump\t// in\n    tag_281:\n        /* \"#utility.yul\":1084:1147   */\n      swap2\n      pop\n        /* \"#utility.yul\":1039:1157   */\n      pop\n        /* \"#utility.yul\":690:1164   */\n      swap3\n      pop\n      swap3\n      swap1\n      pop\n      jump\t// out\n        /* \"#utility.yul\":1170:1288   */\n    tag_227:\n        /* \"#utility.yul\":1257:1281   */\n      tag_283\n        /* \"#utility.yul\":1275:1280   */\n      dup2\n        /* \"#utility.yul\":1257:1281   */\n      tag_224\n      jump\t// in\n    tag_283:\n        /* \"#utility.yul\":1252:1255   */\n      dup3\n        /* \"#utility.yul\":1245:1282   */\n      mstore\n        /* \"#utility.yul\":1170:1288   */\n      pop\n      pop\n      jump\t// out\n        /* \"#utility.yul\":1294:1516   */\n    tag_23:\n        /* \"#utility.yul\":1387:1391   */\n      0x00\n        /* \"#utility.yul\":1425:1427   */\n      0x20\n        /* \"#utility.yul\":1414:1423   */\n      dup3\n        /* \"#utility.yul\":1410:1428   */\n      add\n        /* \"#utility.yul\":1402:1428   */\n      swap1\n      pop\n        /* \"#utility.yul\":1438:1509   */\n      tag_285\n        /* \"#utility.yul\":1506:1507   */\n      0x00\n        /* \"#utility.yul\":1495:1504   */\n      dup4\n        /* \"#utility.yul\":1491:1508   */\n      add\n        /* \"#utility.yul\":1482:1488   */\n      dup5\n        /* \"#utility.yul\":1438:1509   */\n      tag_227\n      jump\t// in\n    tag_285:\n        /* \"#utility.yul\":1294:1516   */\n      swap3\n      swap2\n      pop\n      pop\n      jump\t// out\n        /* \"#utility.yul\":1522:1851   */\n    tag_26:\n        /* \"#utility.yul\":1581:1587   */\n      0x00\n        /* \"#utility.yul\":1630:1632   */\n      0x20\n        /* \"#utility.yul\":1618:1627   */\n      dup3\n        /* \"#utility.yul\":1609:1616   */\n      dup5\n        /* \"#utility.yul\":1605:1628   */\n      sub\n        /* \"#utility.yul\":1601:1633   */\n      slt\n        /* \"#utility.yul\":1598:1717   */\n      iszero\n      tag_287\n      jumpi\n        /* \"#utility.yul\":1636:1715   */\n      tag_288\n      tag_222\n      jump\t// in\n    tag_288:\n        /* \"#utility.yul\":1598:1717   */\n    tag_287:\n        /* \"#utility.yul\":1756:1757   */\n      0x00\n        /* \"#utility.yul\":1781:1834   */\n      tag_289\n        /* \"#utility.yul\":1826:1833   */\n      dup5\n        /* \"#utility.yul\":1817:1823   */\n      dup3\n        /* \"#utility.yul\":1806:1815   */\n      dup6\n        /* \"#utility.yul\":1802:1824   */\n      add\n        /* \"#utility.yul\":1781:1834   */\n      tag_226\n      jump\t// in\n    tag_289:\n        /* \"#utility.yul\":1771:1834   */\n      swap2\n      pop\n        /* \"#utility.yul\":1727:1844   */\n      pop\n        /* \"#utility.yul\":1522:1851   */\n      swap3\n      swap2\n      pop\n      pop\n      jump\t// out\n        /* \"#utility.yul\":1857:1983   */\n    tag_228:\n        /* \"#utility.yul\":1894:1901   */\n      0x00\n        /* \"#utility.yul\":1934:1976   */\n      0xffffffffffffffffffffffffffffffffffffffff\n        /* \"#utility.yul\":1927:1932   */\n      dup3\n        /* \"#utility.yul\":1923:1977   */\n      and\n        /* \"#utility.yul\":1912:1977   */\n      swap1\n      pop\n        /* \"#utility.yul\":1857:1983   */\n      swap2\n      swap1\n      pop\n      jump\t// out\n        /* \"#utility.yul\":1989:2085   */\n    tag_229:\n        /* \"#utility.yul\":2026:2033   */\n      0x00\n        /* \"#utility.yul\":2055:2079   */\n      tag_292\n        /* \"#utility.yul\":2073:2078   */\n      dup3\n        /* \"#utility.yul\":2055:2079   */\n      tag_228\n      jump\t// in\n    tag_292:\n        /* \"#utility.yul\":2044:2079   */\n      swap1\n      pop\n        /* \"#utility.yul\":1989:2085   */\n      swap2\n      swap1\n      pop\n      jump\t// out\n        /* \"#utility.yul\":2091:2213   */\n    tag_230:\n        /* \"#utility.yul\":2164:2188   */\n      tag_294\n        /* \"#utility.yul\":2182:2187   */\n      dup2\n        /* \"#utility.yul\":2164:2188   */\n      tag_229\n      jump\t// in\n    tag_294:\n        /* \"#utility.yul\":2157:2162   */\n      dup2\n        /* \"#utility.yul\":2154:2189   */\n      eq\n        /* \"#utility.yul\":2144:2207   */\n      tag_295\n      jumpi\n        /* \"#utility.yul\":2203:2204   */\n      0x00\n        /* \"#utility.yul\":2200:2201   */\n      dup1\n        /* \"#utility.yul\":2193:2205   */\n      revert\n        /* \"#utility.yul\":2144:2207   */\n    tag_295:\n        /* \"#utility.yul\":2091:2213   */\n      pop\n      jump\t// out\n        /* \"#utility.yul\":2219:2358   */\n    tag_231:\n        /* \"#utility.yul\":2265:2270   */\n      0x00\n        /* \"#utility.yul\":2303:2309   */\n      dup2\n        /* \"#utility.yul\":2290:2310   */\n      calldataload\n        /* \"#utility.yul\":2281:2310   */\n      swap1\n      pop\n        /* \"#utility.yul\":2319:2352   */\n      tag_297\n        /* \"#utility.yul\":2346:2351   */\n      dup2\n        /* \"#utility.yul\":2319:2352   */\n      tag_230\n      jump\t// in\n    tag_297:\n        /* \"#utility.yul\":2219:2358   */\n      swap3\n      swap2\n      pop\n      pop\n      jump\t// out\n        /* \"#utility.yul\":2364:2693   */\n    tag_33:\n        /* \"#utility.yul\":2423:2429   */\n      0x00\n        /* \"#utility.yul\":2472:2474   */\n      0x20\n        /* \"#utility.yul\":2460:2469   */\n      dup3\n        /* \"#utility.yul\":2451:2458   */\n      dup5\n        /* \"#utility.yul\":2447:2470   */\n      sub\n        /* \"#utility.yul\":2443:2475   */\n      slt\n        /* \"#utility.yul\":2440:2559   */\n      iszero\n      tag_299\n      jumpi\n        /* \"#utility.yul\":2478:2557   */\n      tag_300\n      tag_222\n      jump\t// in\n    tag_300:\n        /* \"#utility.yul\":2440:2559   */\n    tag_299:\n        /* \"#utility.yul\":2598:2599   */\n      0x00\n        /* \"#utility.yul\":2623:2676   */\n      tag_301\n        /* \"#utility.yul\":2668:2675   */\n      dup5\n        /* \"#utility.yul\":2659:2665   */\n      dup3\n        /* \"#utility.yul\":2648:2657   */\n      dup6\n        /* \"#utility.yul\":2644:2666   */\n      add\n        /* \"#utility.yul\":2623:2676   */\n      tag_231\n      jump\t// in\n    tag_301:\n        /* \"#utility.yul\":2613:2676   */\n      swap2\n      pop\n        /* \"#utility.yul\":2569:2686   */\n      pop\n        /* \"#utility.yul\":2364:2693   */\n      swap3\n      swap2\n      pop\n      pop\n      jump\t// out\n        /* \"#utility.yul\":2699:2817   */\n    tag_232:\n        /* \"#utility.yul\":2786:2810   */\n      tag_303\n        /* \"#utility.yul\":2804:2809   */\n      dup2\n        /* \"#utility.yul\":2786:2810   */\n      tag_229\n      jump\t// in\n    tag_303:\n        /* \"#utility.yul\":2781:2784   */\n      dup3\n        /* \"#utility.yul\":2774:2811   */\n      mstore\n        /* \"#utility.yul\":2699:2817   */\n      pop\n      pop\n      jump\t// out\n        /* \"#utility.yul\":2823:3045   */\n    tag_44:\n        /* \"#utility.yul\":2916:2920   */\n      0x00\n        /* \"#utility.yul\":2954:2956   */\n      0x20\n        /* \"#utility.yul\":2943:2952   */\n      dup3\n        /* \"#utility.yul\":2939:2957   */\n      add\n        /* \"#utility.yul\":2931:2957   */\n      swap1\n      pop\n        /* \"#utility.yul\":2967:3038   */\n      tag_305\n        /* \"#utility.yul\":3035:3036   */\n      0x00\n        /* \"#utility.yul\":3024:3033   */\n      dup4\n        /* \"#utility.yul\":3020:3037   */\n      add\n        /* \"#utility.yul\":3011:3017   */\n      dup5\n        /* \"#utility.yul\":2967:3038   */\n      tag_232\n      jump\t// in\n    tag_305:\n        /* \"#utility.yul\":2823:3045   */\n      swap3\n      swap2\n      pop\n      pop\n      jump\t// out\n        /* \"#utility.yul\":3051:3111   */\n    tag_233:\n        /* \"#utility.yul\":3079:3082   */\n      0x00\n        /* \"#utility.yul\":3100:3105   */\n      dup2\n        /* \"#utility.yul\":3093:3105   */\n      swap1\n      pop\n        /* \"#utility.yul\":3051:3111   */\n      swap2\n      swap1\n      pop\n      jump\t// out\n        /* \"#utility.yul\":3117:3259   */\n    tag_234:\n        /* \"#utility.yul\":3167:3176   */\n      0x00\n        /* \"#utility.yul\":3200:3253   */\n      tag_308\n        /* \"#utility.yul\":3218:3252   */\n      tag_309\n        /* \"#utility.yul\":3227:3251   */\n      tag_310\n        /* \"#utility.yul\":3245:3250   */\n      dup5\n        /* \"#utility.yul\":3227:3251   */\n      tag_228\n      jump\t// in\n    tag_310:\n        /* \"#utility.yul\":3218:3252   */\n      tag_233\n      jump\t// in\n    tag_309:\n        /* \"#utility.yul\":3200:3253   */\n      tag_228\n      jump\t// in\n    tag_308:\n        /* \"#utility.yul\":3187:3253   */\n      swap1\n      pop\n        /* \"#utility.yul\":3117:3259   */\n      swap2\n      swap1\n      pop\n      jump\t// out\n        /* \"#utility.yul\":3265:3391   */\n    tag_235:\n        /* \"#utility.yul\":3315:3324   */\n      0x00\n        /* \"#utility.yul\":3348:3385   */\n      tag_312\n        /* \"#utility.yul\":3379:3384   */\n      dup3\n        /* \"#utility.yul\":3348:3385   */\n      tag_234\n      jump\t// in\n    tag_312:\n        /* \"#utility.yul\":3335:3385   */\n      swap1\n      pop\n        /* \"#utility.yul\":3265:3391   */\n      swap2\n      swap1\n      pop\n      jump\t// out\n        /* \"#utility.yul\":3397:3537   */\n    tag_236:\n        /* \"#utility.yul\":3461:3470   */\n      0x00\n        /* \"#utility.yul\":3494:3531   */\n      tag_314\n        /* \"#utility.yul\":3525:3530   */\n      dup3\n        /* \"#utility.yul\":3494:3531   */\n      tag_235\n      jump\t// in\n    tag_314:\n        /* \"#utility.yul\":3481:3531   */\n      swap1\n      pop\n        /* \"#utility.yul\":3397:3537   */\n      swap2\n      swap1\n      pop\n      jump\t// out\n        /* \"#utility.yul\":3543:3702   */\n    tag_237:\n        /* \"#utility.yul\":3644:3695   */\n      tag_316\n        /* \"#utility.yul\":3689:3694   */\n      dup2\n        /* \"#utility.yul\":3644:3695   */\n      tag_236\n      jump\t// in\n    tag_316:\n        /* \"#utility.yul\":3639:3642   */\n      dup3\n        /* \"#utility.yul\":3632:3696   */\n      mstore\n        /* \"#utility.yul\":3543:3702   */\n      pop\n      pop\n      jump\t// out\n        /* \"#utility.yul\":3708:3958   */\n    tag_58:\n        /* \"#utility.yul\":3815:3819   */\n      0x00\n        /* \"#utility.yul\":3853:3855   */\n      0x20\n        /* \"#utility.yul\":3842:3851   */\n      dup3\n        /* \"#utility.yul\":3838:3856   */\n      add\n        /* \"#utility.yul\":3830:3856   */\n      swap1\n      pop\n        /* \"#utility.yul\":3866:3951   */\n      tag_318\n        /* \"#utility.yul\":3948:3949   */\n      0x00\n        /* \"#utility.yul\":3937:3946   */\n      dup4\n        /* \"#utility.yul\":3933:3950   */\n      add\n        /* \"#utility.yul\":3924:3930   */\n      dup5\n        /* \"#utility.yul\":3866:3951   */\n      tag_237\n      jump\t// in\n    tag_318:\n        /* \"#utility.yul\":3708:3958   */\n      swap3\n      swap2\n      pop\n      pop\n      jump\t// out\n        /* \"#utility.yul\":3964:4133   */\n    tag_238:\n        /* \"#utility.yul\":4048:4059   */\n      0x00\n        /* \"#utility.yul\":4082:4088   */\n      dup3\n        /* \"#utility.yul\":4077:4080   */\n      dup3\n        /* \"#utility.yul\":4070:4089   */\n      mstore\n        /* \"#utility.yul\":4122:4126   */\n      0x20\n        /* \"#utility.yul\":4117:4120   */\n      dup3\n        /* \"#utility.yul\":4113:4127   */\n      add\n        /* \"#utility.yul\":4098:4127   */\n      swap1\n      pop\n        /* \"#utility.yul\":3964:4133   */\n      swap3\n      swap2\n      pop\n      pop\n      jump\t// out\n        /* \"#utility.yul\":4139:4321   */\n    tag_239:\n        /* \"#utility.yul\":4279:4313   */\n      0x416d6f756e74206d7573742062652067726561746572207468616e207a65726f\n        /* \"#utility.yul\":4275:4276   */\n      0x00\n        /* \"#utility.yul\":4267:4273   */\n      dup3\n        /* \"#utility.yul\":4263:4277   */\n      add\n        /* \"#utility.yul\":4256:4314   */\n      mstore\n        /* \"#utility.yul\":4139:4321   */\n      pop\n      jump\t// out\n        /* \"#utility.yul\":4327:4693   */\n    tag_240:\n        /* \"#utility.yul\":4469:4472   */\n      0x00\n        /* \"#utility.yul\":4490:4557   */\n      tag_322\n        /* \"#utility.yul\":4554:4556   */\n      0x20\n        /* \"#utility.yul\":4549:4552   */\n      dup4\n        /* \"#utility.yul\":4490:4557   */\n      tag_238\n      jump\t// in\n    tag_322:\n        /* \"#utility.yul\":4483:4557   */\n      swap2\n      pop\n        /* \"#utility.yul\":4566:4659   */\n      tag_323\n        /* \"#utility.yul\":4655:4658   */\n      dup3\n        /* \"#utility.yul\":4566:4659   */\n      tag_239\n      jump\t// in\n    tag_323:\n        /* \"#utility.yul\":4684:4686   */\n      0x20\n        /* \"#utility.yul\":4679:4682   */\n      dup3\n        /* \"#utility.yul\":4675:4687   */\n      add\n        /* \"#utility.yul\":4668:4687   */\n      swap1\n      pop\n        /* \"#utility.yul\":4327:4693   */\n      swap2\n      swap1\n      pop\n      jump\t// out\n        /* \"#utility.yul\":4699:5118   */\n    tag_65:\n        /* \"#utility.yul\":4865:4869   */\n      0x00\n        /* \"#utility.yul\":4903:4905   */\n      0x20\n        /* \"#utility.yul\":4892:4901   */\n      dup3\n        /* \"#utility.yul\":4888:4906   */\n      add\n        /* \"#utility.yul\":4880:4906   */\n      swap1\n      pop\n        /* \"#utility.yul\":4952:4961   */\n      dup2\n        /* \"#utility.yul\":4946:4950   */\n      dup2\n        /* \"#utility.yul\":4942:4962   */\n      sub\n        /* \"#utility.yul\":4938:4939   */\n      0x00\n        /* \"#utility.yul\":4927:4936   */\n      dup4\n        /* \"#utility.yul\":4923:4940   */\n      add\n        /* \"#utility.yul\":4916:4963   */\n      mstore\n        /* \"#utility.yul\":4980:5111   */\n      tag_325\n        /* \"#utility.yul\":5106:5110   */\n      dup2\n        /* \"#utility.yul\":4980:5111   */\n      tag_240\n      jump\t// in\n    tag_325:\n        /* \"#utility.yul\":4972:5111   */\n      swap1\n      pop\n        /* \"#utility.yul\":4699:5118   */\n      swap2\n      swap1\n      pop\n      jump\t// out\n        /* \"#utility.yul\":5124:5304   */\n    tag_241:\n        /* \"#utility.yul\":5264:5296   */\n      0x4475726174696f6e2062656c6f77206d696e696d756d20616c6c6f7765640000\n        /* \"#utility.yul\":5260:5261   */\n      0x00\n        /* \"#utility.yul\":5252:5258   */\n      dup3\n        /* \"#utility.yul\":5248:5262   */\n      add\n        /* \"#utility.yul\":5241:5297   */\n      mstore\n        /* \"#utility.yul\":5124:5304   */\n      pop\n      jump\t// out\n        /* \"#utility.yul\":5310:5676   */\n    tag_242:\n        /* \"#utility.yul\":5452:5455   */\n      0x00\n        /* \"#utility.yul\":5473:5540   */\n      tag_328\n        /* \"#utility.yul\":5537:5539   */\n      0x1e\n        /* \"#utility.yul\":5532:5535   */\n      dup4\n        /* \"#utility.yul\":5473:5540   */\n      tag_238\n      jump\t// in\n    tag_328:\n        /* \"#utility.yul\":5466:5540   */\n      swap2\n      pop\n        /* \"#utility.yul\":5549:5642   */\n      tag_329\n        /* \"#utility.yul\":5638:5641   */\n      dup3\n        /* \"#utility.yul\":5549:5642   */\n      tag_241\n      jump\t// in\n    tag_329:\n        /* \"#utility.yul\":5667:5669   */\n      0x20\n        /* \"#utility.yul\":5662:5665   */\n      dup3\n        /* \"#utility.yul\":5658:5670   */\n      add\n        /* \"#utility.yul\":5651:5670   */\n      swap1\n      pop\n        /* \"#utility.yul\":5310:5676   */\n      swap2\n      swap1\n      pop\n      jump\t// out\n        /* \"#utility.yul\":5682:6101   */\n    tag_68:\n        /* \"#utility.yul\":5848:5852   */\n      0x00\n        /* \"#utility.yul\":5886:5888   */\n      0x20\n        /* \"#utility.yul\":5875:5884   */\n      dup3\n        /* \"#utility.yul\":5871:5889   */\n      add\n        /* \"#utility.yul\":5863:5889   */\n      swap1\n      pop\n        /* \"#utility.yul\":5935:5944   */\n      dup2\n        /* \"#utility.yul\":5929:5933   */\n      dup2\n        /* \"#utility.yul\":5925:5945   */\n      sub\n        /* \"#utility.yul\":5921:5922   */\n      0x00\n        /* \"#utility.yul\":5910:5919   */\n      dup4\n        /* \"#utility.yul\":5906:5923   */\n      add\n        /* \"#utility.yul\":5899:5946   */\n      mstore\n        /* \"#utility.yul\":5963:6094   */\n      tag_331\n        /* \"#utility.yul\":6089:6093   */\n      dup2\n        /* \"#utility.yul\":5963:6094   */\n      tag_242\n      jump\t// in\n    tag_331:\n        /* \"#utility.yul\":5955:6094   */\n      swap1\n      pop\n        /* \"#utility.yul\":5682:6101   */\n      swap2\n      swap1\n      pop\n      jump\t// out\n        /* \"#utility.yul\":6107:6250   */\n    tag_243:\n        /* \"#utility.yul\":6164:6169   */\n      0x00\n        /* \"#utility.yul\":6195:6201   */\n      dup2\n        /* \"#utility.yul\":6189:6202   */\n      mload\n        /* \"#utility.yul\":6180:6202   */\n      swap1\n      pop\n        /* \"#utility.yul\":6211:6244   */\n      tag_333\n        /* \"#utility.yul\":6238:6243   */\n      dup2\n        /* \"#utility.yul\":6211:6244   */\n      tag_225\n      jump\t// in\n    tag_333:\n        /* \"#utility.yul\":6107:6250   */\n      swap3\n      swap2\n      pop\n      pop\n      jump\t// out\n        /* \"#utility.yul\":6256:6607   */\n    tag_76:\n        /* \"#utility.yul\":6326:6332   */\n      0x00\n        /* \"#utility.yul\":6375:6377   */\n      0x20\n        /* \"#utility.yul\":6363:6372   */\n      dup3\n        /* \"#utility.yul\":6354:6361   */\n      dup5\n        /* \"#utility.yul\":6350:6373   */\n      sub\n        /* \"#utility.yul\":6346:6378   */\n      slt\n        /* \"#utility.yul\":6343:6462   */\n      iszero\n      tag_335\n      jumpi\n        /* \"#utility.yul\":6381:6460   */\n      tag_336\n      tag_222\n      jump\t// in\n    tag_336:\n        /* \"#utility.yul\":6343:6462   */\n    tag_335:\n        /* \"#utility.yul\":6501:6502   */\n      0x00\n        /* \"#utility.yul\":6526:6590   */\n      tag_337\n        /* \"#utility.yul\":6582:6589   */\n      dup5\n        /* \"#utility.yul\":6573:6579   */\n      dup3\n        /* \"#utility.yul\":6562:6571   */\n      dup6\n        /* \"#utility.yul\":6558:6580   */\n      add\n        /* \"#utility.yul\":6526:6590   */\n      tag_243\n      jump\t// in\n    tag_337:\n        /* \"#utility.yul\":6516:6590   */\n      swap2\n      pop\n        /* \"#utility.yul\":6472:6600   */\n      pop\n        /* \"#utility.yul\":6256:6607   */\n      swap3\n      swap2\n      pop\n      pop\n      jump\t// out\n        /* \"#utility.yul\":6613:6783   */\n    tag_244:\n        /* \"#utility.yul\":6753:6775   */\n      0x496e73756666696369656e742062616c616e6365000000000000000000000000\n        /* \"#utility.yul\":6749:6750   */\n      0x00\n        /* \"#utility.yul\":6741:6747   */\n      dup3\n        /* \"#utility.yul\":6737:6751   */\n      add\n        /* \"#utility.yul\":6730:6776   */\n      mstore\n        /* \"#utility.yul\":6613:6783   */\n      pop\n      jump\t// out\n        /* \"#utility.yul\":6789:7155   */\n    tag_245:\n        /* \"#utility.yul\":6931:6934   */\n      0x00\n        /* \"#utility.yul\":6952:7019   */\n      tag_340\n        /* \"#utility.yul\":7016:7018   */\n      0x14\n        /* \"#utility.yul\":7011:7014   */\n      dup4\n        /* \"#utility.yul\":6952:7019   */\n      tag_238\n      jump\t// in\n    tag_340:\n        /* \"#utility.yul\":6945:7019   */\n      swap2\n      pop\n        /* \"#utility.yul\":7028:7121   */\n      tag_341\n        /* \"#utility.yul\":7117:7120   */\n      dup3\n        /* \"#utility.yul\":7028:7121   */\n      tag_244\n      jump\t// in\n    tag_341:\n        /* \"#utility.yul\":7146:7148   */\n      0x20\n        /* \"#utility.yul\":7141:7144   */\n      dup3\n        /* \"#utility.yul\":7137:7149   */\n      add\n        /* \"#utility.yul\":7130:7149   */\n      swap1\n      pop\n        /* \"#utility.yul\":6789:7155   */\n      swap2\n      swap1\n      pop\n      jump\t// out\n        /* \"#utility.yul\":7161:7580   */\n    tag_79:\n        /* \"#utility.yul\":7327:7331   */\n      0x00\n        /* \"#utility.yul\":7365:7367   */\n      0x20\n        /* \"#utility.yul\":7354:7363   */\n      dup3\n        /* \"#utility.yul\":7350:7368   */\n      add\n        /* \"#utility.yul\":7342:7368   */\n      swap1\n      pop\n        /* \"#utility.yul\":7414:7423   */\n      dup2\n        /* \"#utility.yul\":7408:7412   */\n      dup2\n        /* \"#utility.yul\":7404:7424   */\n      sub\n        /* \"#utility.yul\":7400:7401   */\n      0x00\n        /* \"#utility.yul\":7389:7398   */\n      dup4\n        /* \"#utility.yul\":7385:7402   */\n      add\n        /* \"#utility.yul\":7378:7425   */\n      mstore\n        /* \"#utility.yul\":7442:7573   */\n      tag_343\n        /* \"#utility.yul\":7568:7572   */\n      dup2\n        /* \"#utility.yul\":7442:7573   */\n      tag_245\n      jump\t// in\n    tag_343:\n        /* \"#utility.yul\":7434:7573   */\n      swap1\n      pop\n        /* \"#utility.yul\":7161:7580   */\n      swap2\n      swap1\n      pop\n      jump\t// out\n        /* \"#utility.yul\":7586:8028   */\n    tag_85:\n        /* \"#utility.yul\":7735:7739   */\n      0x00\n        /* \"#utility.yul\":7773:7775   */\n      0x60\n        /* \"#utility.yul\":7762:7771   */\n      dup3\n        /* \"#utility.yul\":7758:7776   */\n      add\n        /* \"#utility.yul\":7750:7776   */\n      swap1\n      pop\n        /* \"#utility.yul\":7786:7857   */\n      tag_345\n        /* \"#utility.yul\":7854:7855   */\n      0x00\n        /* \"#utility.yul\":7843:7852   */\n      dup4\n        /* \"#utility.yul\":7839:7856   */\n      add\n        /* \"#utility.yul\":7830:7836   */\n      dup7\n        /* \"#utility.yul\":7786:7857   */\n      tag_227\n      jump\t// in\n    tag_345:\n        /* \"#utility.yul\":7867:7939   */\n      tag_346\n        /* \"#utility.yul\":7935:7937   */\n      0x20\n        /* \"#utility.yul\":7924:7933   */\n      dup4\n        /* \"#utility.yul\":7920:7938   */\n      add\n        /* \"#utility.yul\":7911:7917   */\n      dup6\n        /* \"#utility.yul\":7867:7939   */\n      tag_227\n      jump\t// in\n    tag_346:\n        /* \"#utility.yul\":7949:8021   */\n      tag_347\n        /* \"#utility.yul\":8017:8019   */\n      0x40\n        /* \"#utility.yul\":8006:8015   */\n      dup4\n        /* \"#utility.yul\":8002:8020   */\n      add\n        /* \"#utility.yul\":7993:7999   */\n      dup5\n        /* \"#utility.yul\":7949:8021   */\n      tag_227\n      jump\t// in\n    tag_347:\n        /* \"#utility.yul\":7586:8028   */\n      swap5\n      swap4\n      pop\n      pop\n      pop\n      pop\n      jump\t// out\n        /* \"#utility.yul\":8034:8264   */\n    tag_246:\n        /* \"#utility.yul\":8174:8208   */\n      0x5769746864726177616c20616d6f756e74206d75737420626520677265617465\n        /* \"#utility.yul\":8170:8171   */\n      0x00\n        /* \"#utility.yul\":8162:8168   */\n      dup3\n        /* \"#utility.yul\":8158:8172   */\n      add\n        /* \"#utility.yul\":8151:8209   */\n      mstore\n        /* \"#utility.yul\":8243:8256   */\n      0x72207468616e207a65726f000000000000000000000000000000000000000000\n        /* \"#utility.yul\":8238:8240   */\n      0x20\n        /* \"#utility.yul\":8230:8236   */\n      dup3\n        /* \"#utility.yul\":8226:8241   */\n      add\n        /* \"#utility.yul\":8219:8257   */\n      mstore\n        /* \"#utility.yul\":8034:8264   */\n      pop\n      jump\t// out\n        /* \"#utility.yul\":8270:8636   */\n    tag_247:\n        /* \"#utility.yul\":8412:8415   */\n      0x00\n        /* \"#utility.yul\":8433:8500   */\n      tag_350\n        /* \"#utility.yul\":8497:8499   */\n      0x2b\n        /* \"#utility.yul\":8492:8495   */\n      dup4\n        /* \"#utility.yul\":8433:8500   */\n      tag_238\n      jump\t// in\n    tag_350:\n        /* \"#utility.yul\":8426:8500   */\n      swap2\n      pop\n        /* \"#utility.yul\":8509:8602   */\n      tag_351\n        /* \"#utility.yul\":8598:8601   */\n      dup3\n        /* \"#utility.yul\":8509:8602   */\n      tag_246\n      jump\t// in\n    tag_351:\n        /* \"#utility.yul\":8627:8629   */\n      0x40\n        /* \"#utility.yul\":8622:8625   */\n      dup3\n        /* \"#utility.yul\":8618:8630   */\n      add\n        /* \"#utility.yul\":8611:8630   */\n      swap1\n      pop\n        /* \"#utility.yul\":8270:8636   */\n      swap2\n      swap1\n      pop\n      jump\t// out\n        /* \"#utility.yul\":8642:9061   */\n    tag_94:\n        /* \"#utility.yul\":8808:8812   */\n      0x00\n        /* \"#utility.yul\":8846:8848   */\n      0x20\n        /* \"#utility.yul\":8835:8844   */\n      dup3\n        /* \"#utility.yul\":8831:8849   */\n      add\n        /* \"#utility.yul\":8823:8849   */\n      swap1\n      pop\n        /* \"#utility.yul\":8895:8904   */\n      dup2\n        /* \"#utility.yul\":8889:8893   */\n      dup2\n        /* \"#utility.yul\":8885:8905   */\n      sub\n        /* \"#utility.yul\":8881:8882   */\n      0x00\n        /* \"#utility.yul\":8870:8879   */\n      dup4\n        /* \"#utility.yul\":8866:8883   */\n      add\n        /* \"#utility.yul\":8859:8906   */\n      mstore\n        /* \"#utility.yul\":8923:9054   */\n      tag_353\n        /* \"#utility.yul\":9049:9053   */\n      dup2\n        /* \"#utility.yul\":8923:9054   */\n      tag_247\n      jump\t// in\n    tag_353:\n        /* \"#utility.yul\":8915:9054   */\n      swap1\n      pop\n        /* \"#utility.yul\":8642:9061   */\n      swap2\n      swap1\n      pop\n      jump\t// out\n        /* \"#utility.yul\":9067:9288   */\n    tag_248:\n        /* \"#utility.yul\":9207:9241   */\n      0x496e73756666696369656e742066756e647320696e2074686520636f6e747261\n        /* \"#utility.yul\":9203:9204   */\n      0x00\n        /* \"#utility.yul\":9195:9201   */\n      dup3\n        /* \"#utility.yul\":9191:9205   */\n      add\n        /* \"#utility.yul\":9184:9242   */\n      mstore\n        /* \"#utility.yul\":9276:9280   */\n      0x6374000000000000000000000000000000000000000000000000000000000000\n        /* \"#utility.yul\":9271:9273   */\n      0x20\n        /* \"#utility.yul\":9263:9269   */\n      dup3\n        /* \"#utility.yul\":9259:9274   */\n      add\n        /* \"#utility.yul\":9252:9281   */\n      mstore\n        /* \"#utility.yul\":9067:9288   */\n      pop\n      jump\t// out\n        /* \"#utility.yul\":9294:9660   */\n    tag_249:\n        /* \"#utility.yul\":9436:9439   */\n      0x00\n        /* \"#utility.yul\":9457:9524   */\n      tag_356\n        /* \"#utility.yul\":9521:9523   */\n      0x22\n        /* \"#utility.yul\":9516:9519   */\n      dup4\n        /* \"#utility.yul\":9457:9524   */\n      tag_238\n      jump\t// in\n    tag_356:\n        /* \"#utility.yul\":9450:9524   */\n      swap2\n      pop\n        /* \"#utility.yul\":9533:9626   */\n      tag_357\n        /* \"#utility.yul\":9622:9625   */\n      dup3\n        /* \"#utility.yul\":9533:9626   */\n      tag_248\n      jump\t// in\n    tag_357:\n        /* \"#utility.yul\":9651:9653   */\n      0x40\n        /* \"#utility.yul\":9646:9649   */\n      dup3\n        /* \"#utility.yul\":9642:9654   */\n      add\n        /* \"#utility.yul\":9635:9654   */\n      swap1\n      pop\n        /* \"#utility.yul\":9294:9660   */\n      swap2\n      swap1\n      pop\n      jump\t// out\n        /* \"#utility.yul\":9666:10085   */\n    tag_101:\n        /* \"#utility.yul\":9832:9836   */\n      0x00\n        /* \"#utility.yul\":9870:9872   */\n      0x20\n        /* \"#utility.yul\":9859:9868   */\n      dup3\n        /* \"#utility.yul\":9855:9873   */\n      add\n        /* \"#utility.yul\":9847:9873   */\n      swap1\n      pop\n        /* \"#utility.yul\":9919:9928   */\n      dup2\n        /* \"#utility.yul\":9913:9917   */\n      dup2\n        /* \"#utility.yul\":9909:9929   */\n      sub\n        /* \"#utility.yul\":9905:9906   */\n      0x00\n        /* \"#utility.yul\":9894:9903   */\n      dup4\n        /* \"#utility.yul\":9890:9907   */\n      add\n        /* \"#utility.yul\":9883:9930   */\n      mstore\n        /* \"#utility.yul\":9947:10078   */\n      tag_359\n        /* \"#utility.yul\":10073:10077   */\n      dup2\n        /* \"#utility.yul\":9947:10078   */\n      tag_249\n      jump\t// in\n    tag_359:\n        /* \"#utility.yul\":9939:10078   */\n      swap1\n      pop\n        /* \"#utility.yul\":9666:10085   */\n      swap2\n      swap1\n      pop\n      jump\t// out\n        /* \"#utility.yul\":10091:10271   */\n    tag_250:\n        /* \"#utility.yul\":10139:10216   */\n      0x4e487b7100000000000000000000000000000000000000000000000000000000\n        /* \"#utility.yul\":10136:10137   */\n      0x00\n        /* \"#utility.yul\":10129:10217   */\n      mstore\n        /* \"#utility.yul\":10236:10240   */\n      0x11\n        /* \"#utility.yul\":10233:10234   */\n      0x04\n        /* \"#utility.yul\":10226:10241   */\n      mstore\n        /* \"#utility.yul\":10260:10264   */\n      0x24\n        /* \"#utility.yul\":10257:10258   */\n      0x00\n        /* \"#utility.yul\":10250:10265   */\n      revert\n        /* \"#utility.yul\":10277:10468   */\n    tag_146:\n        /* \"#utility.yul\":10317:10320   */\n      0x00\n        /* \"#utility.yul\":10336:10356   */\n      tag_362\n        /* \"#utility.yul\":10354:10355   */\n      dup3\n        /* \"#utility.yul\":10336:10356   */\n      tag_224\n      jump\t// in\n    tag_362:\n        /* \"#utility.yul\":10331:10356   */\n      swap2\n      pop\n        /* \"#utility.yul\":10370:10390   */\n      tag_363\n        /* \"#utility.yul\":10388:10389   */\n      dup4\n        /* \"#utility.yul\":10370:10390   */\n      tag_224\n      jump\t// in\n    tag_363:\n        /* \"#utility.yul\":10365:10390   */\n      swap3\n      pop\n        /* \"#utility.yul\":10413:10414   */\n      dup3\n        /* \"#utility.yul\":10410:10411   */\n      dup3\n        /* \"#utility.yul\":10406:10415   */\n      add\n        /* \"#utility.yul\":10399:10415   */\n      swap1\n      pop\n        /* \"#utility.yul\":10434:10437   */\n      dup1\n        /* \"#utility.yul\":10431:10432   */\n      dup3\n        /* \"#utility.yul\":10428:10438   */\n      gt\n        /* \"#utility.yul\":10425:10461   */\n      iszero\n      tag_364\n      jumpi\n        /* \"#utility.yul\":10441:10459   */\n      tag_365\n      tag_250\n      jump\t// in\n    tag_365:\n        /* \"#utility.yul\":10425:10461   */\n    tag_364:\n        /* \"#utility.yul\":10277:10468   */\n      swap3\n      swap2\n      pop\n      pop\n      jump\t// out\n        /* \"#utility.yul\":10474:10651   */\n    tag_251:\n        /* \"#utility.yul\":10614:10643   */\n      0x536166654d6174683a206164646974696f6e206f766572666c6f770000000000\n        /* \"#utility.yul\":10610:10611   */\n      0x00\n        /* \"#utility.yul\":10602:10608   */\n      dup3\n        /* \"#utility.yul\":10598:10612   */\n      add\n        /* \"#utility.yul\":10591:10644   */\n      mstore\n        /* \"#utility.yul\":10474:10651   */\n      pop\n      jump\t// out\n        /* \"#utility.yul\":10657:11023   */\n    tag_252:\n        /* \"#utility.yul\":10799:10802   */\n      0x00\n        /* \"#utility.yul\":10820:10887   */\n      tag_368\n        /* \"#utility.yul\":10884:10886   */\n      0x1b\n        /* \"#utility.yul\":10879:10882   */\n      dup4\n        /* \"#utility.yul\":10820:10887   */\n      tag_238\n      jump\t// in\n    tag_368:\n        /* \"#utility.yul\":10813:10887   */\n      swap2\n      pop\n        /* \"#utility.yul\":10896:10989   */\n      tag_369\n        /* \"#utility.yul\":10985:10988   */\n      dup3\n        /* \"#utility.yul\":10896:10989   */\n      tag_251\n      jump\t// in\n    tag_369:\n        /* \"#utility.yul\":11014:11016   */\n      0x20\n        /* \"#utility.yul\":11009:11012   */\n      dup3\n        /* \"#utility.yul\":11005:11017   */\n      add\n        /* \"#utility.yul\":10998:11017   */\n      swap1\n      pop\n        /* \"#utility.yul\":10657:11023   */\n      swap2\n      swap1\n      pop\n      jump\t// out\n        /* \"#utility.yul\":11029:11448   */\n    tag_149:\n        /* \"#utility.yul\":11195:11199   */\n      0x00\n        /* \"#utility.yul\":11233:11235   */\n      0x20\n        /* \"#utility.yul\":11222:11231   */\n      dup3\n        /* \"#utility.yul\":11218:11236   */\n      add\n        /* \"#utility.yul\":11210:11236   */\n      swap1\n      pop\n        /* \"#utility.yul\":11282:11291   */\n      dup2\n        /* \"#utility.yul\":11276:11280   */\n      dup2\n        /* \"#utility.yul\":11272:11292   */\n      sub\n        /* \"#utility.yul\":11268:11269   */\n      0x00\n        /* \"#utility.yul\":11257:11266   */\n      dup4\n        /* \"#utility.yul\":11253:11270   */\n      add\n        /* \"#utility.yul\":11246:11293   */\n      mstore\n        /* \"#utility.yul\":11310:11441   */\n      tag_371\n        /* \"#utility.yul\":11436:11440   */\n      dup2\n        /* \"#utility.yul\":11310:11441   */\n      tag_252\n      jump\t// in\n    tag_371:\n        /* \"#utility.yul\":11302:11441   */\n      swap1\n      pop\n        /* \"#utility.yul\":11029:11448   */\n      swap2\n      swap1\n      pop\n      jump\t// out\n        /* \"#utility.yul\":11454:11896   */\n    tag_153:\n        /* \"#utility.yul\":11603:11607   */\n      0x00\n        /* \"#utility.yul\":11641:11643   */\n      0x60\n        /* \"#utility.yul\":11630:11639   */\n      dup3\n        /* \"#utility.yul\":11626:11644   */\n      add\n        /* \"#utility.yul\":11618:11644   */\n      swap1\n      pop\n        /* \"#utility.yul\":11654:11725   */\n      tag_373\n        /* \"#utility.yul\":11722:11723   */\n      0x00\n        /* \"#utility.yul\":11711:11720   */\n      dup4\n        /* \"#utility.yul\":11707:11724   */\n      add\n        /* \"#utility.yul\":11698:11704   */\n      dup7\n        /* \"#utility.yul\":11654:11725   */\n      tag_232\n      jump\t// in\n    tag_373:\n        /* \"#utility.yul\":11735:11807   */\n      tag_374\n        /* \"#utility.yul\":11803:11805   */\n      0x20\n        /* \"#utility.yul\":11792:11801   */\n      dup4\n        /* \"#utility.yul\":11788:11806   */\n      add\n        /* \"#utility.yul\":11779:11785   */\n      dup6\n        /* \"#utility.yul\":11735:11807   */\n      tag_232\n      jump\t// in\n    tag_374:\n        /* \"#utility.yul\":11817:11889   */\n      tag_375\n        /* \"#utility.yul\":11885:11887   */\n      0x40\n        /* \"#utility.yul\":11874:11883   */\n      dup4\n        /* \"#utility.yul\":11870:11888   */\n      add\n        /* \"#utility.yul\":11861:11867   */\n      dup5\n        /* \"#utility.yul\":11817:11889   */\n      tag_227\n      jump\t// in\n    tag_375:\n        /* \"#utility.yul\":11454:11896   */\n      swap5\n      swap4\n      pop\n      pop\n      pop\n      pop\n      jump\t// out\n        /* \"#utility.yul\":11902:12234   */\n    tag_166:\n        /* \"#utility.yul\":12023:12027   */\n      0x00\n        /* \"#utility.yul\":12061:12063   */\n      0x40\n        /* \"#utility.yul\":12050:12059   */\n      dup3\n        /* \"#utility.yul\":12046:12064   */\n      add\n        /* \"#utility.yul\":12038:12064   */\n      swap1\n      pop\n        /* \"#utility.yul\":12074:12145   */\n      tag_377\n        /* \"#utility.yul\":12142:12143   */\n      0x00\n        /* \"#utility.yul\":12131:12140   */\n      dup4\n        /* \"#utility.yul\":12127:12144   */\n      add\n        /* \"#utility.yul\":12118:12124   */\n      dup6\n        /* \"#utility.yul\":12074:12145   */\n      tag_232\n      jump\t// in\n    tag_377:\n        /* \"#utility.yul\":12155:12227   */\n      tag_378\n        /* \"#utility.yul\":12223:12225   */\n      0x20\n        /* \"#utility.yul\":12212:12221   */\n      dup4\n        /* \"#utility.yul\":12208:12226   */\n      add\n        /* \"#utility.yul\":12199:12205   */\n      dup5\n        /* \"#utility.yul\":12155:12227   */\n      tag_227\n      jump\t// in\n    tag_378:\n        /* \"#utility.yul\":11902:12234   */\n      swap4\n      swap3\n      pop\n      pop\n      pop\n      jump\t// out\n        /* \"#utility.yul\":12240:12420   */\n    tag_253:\n        /* \"#utility.yul\":12380:12412   */\n      0x536166654d6174683a207375627472616374696f6e206f766572666c6f770000\n        /* \"#utility.yul\":12376:12377   */\n      0x00\n        /* \"#utility.yul\":12368:12374   */\n      dup3\n        /* \"#utility.yul\":12364:12378   */\n      add\n        /* \"#utility.yul\":12357:12413   */\n      mstore\n        /* \"#utility.yul\":12240:12420   */\n      pop\n      jump\t// out\n        /* \"#utility.yul\":12426:12792   */\n    tag_254:\n        /* \"#utility.yul\":12568:12571   */\n      0x00\n        /* \"#utility.yul\":12589:12656   */\n      tag_381\n        /* \"#utility.yul\":12653:12655   */\n      0x1e\n        /* \"#utility.yul\":12648:12651   */\n      dup4\n        /* \"#utility.yul\":12589:12656   */\n      tag_238\n      jump\t// in\n    tag_381:\n        /* \"#utility.yul\":12582:12656   */\n      swap2\n      pop\n        /* \"#utility.yul\":12665:12758   */\n      tag_382\n        /* \"#utility.yul\":12754:12757   */\n      dup3\n        /* \"#utility.yul\":12665:12758   */\n      tag_253\n      jump\t// in\n    tag_382:\n        /* \"#utility.yul\":12783:12785   */\n      0x20\n        /* \"#utility.yul\":12778:12781   */\n      dup3\n        /* \"#utility.yul\":12774:12786   */\n      add\n        /* \"#utility.yul\":12767:12786   */\n      swap1\n      pop\n        /* \"#utility.yul\":12426:12792   */\n      swap2\n      swap1\n      pop\n      jump\t// out\n        /* \"#utility.yul\":12798:13217   */\n    tag_170:\n        /* \"#utility.yul\":12964:12968   */\n      0x00\n        /* \"#utility.yul\":13002:13004   */\n      0x20\n        /* \"#utility.yul\":12991:13000   */\n      dup3\n        /* \"#utility.yul\":12987:13005   */\n      add\n        /* \"#utility.yul\":12979:13005   */\n      swap1\n      pop\n        /* \"#utility.yul\":13051:13060   */\n      dup2\n        /* \"#utility.yul\":13045:13049   */\n      dup2\n        /* \"#utility.yul\":13041:13061   */\n      sub\n        /* \"#utility.yul\":13037:13038   */\n      0x00\n        /* \"#utility.yul\":13026:13035   */\n      dup4\n        /* \"#utility.yul\":13022:13039   */\n      add\n        /* \"#utility.yul\":13015:13062   */\n      mstore\n        /* \"#utility.yul\":13079:13210   */\n      tag_384\n        /* \"#utility.yul\":13205:13209   */\n      dup2\n        /* \"#utility.yul\":13079:13210   */\n      tag_254\n      jump\t// in\n    tag_384:\n        /* \"#utility.yul\":13071:13210   */\n      swap1\n      pop\n        /* \"#utility.yul\":12798:13217   */\n      swap2\n      swap1\n      pop\n      jump\t// out\n        /* \"#utility.yul\":13223:13417   */\n    tag_172:\n        /* \"#utility.yul\":13263:13267   */\n      0x00\n        /* \"#utility.yul\":13283:13303   */\n      tag_386\n        /* \"#utility.yul\":13301:13302   */\n      dup3\n        /* \"#utility.yul\":13283:13303   */\n      tag_224\n      jump\t// in\n    tag_386:\n        /* \"#utility.yul\":13278:13303   */\n      swap2\n      pop\n        /* \"#utility.yul\":13317:13337   */\n      tag_387\n        /* \"#utility.yul\":13335:13336   */\n      dup4\n        /* \"#utility.yul\":13317:13337   */\n      tag_224\n      jump\t// in\n    tag_387:\n        /* \"#utility.yul\":13312:13337   */\n      swap3\n      pop\n        /* \"#utility.yul\":13361:13362   */\n      dup3\n        /* \"#utility.yul\":13358:13359   */\n      dup3\n        /* \"#utility.yul\":13354:13363   */\n      sub\n        /* \"#utility.yul\":13346:13363   */\n      swap1\n      pop\n        /* \"#utility.yul\":13385:13386   */\n      dup2\n        /* \"#utility.yul\":13379:13383   */\n      dup2\n        /* \"#utility.yul\":13376:13387   */\n      gt\n        /* \"#utility.yul\":13373:13410   */\n      iszero\n      tag_388\n      jumpi\n        /* \"#utility.yul\":13390:13408   */\n      tag_389\n      tag_250\n      jump\t// in\n    tag_389:\n        /* \"#utility.yul\":13373:13410   */\n    tag_388:\n        /* \"#utility.yul\":13223:13417   */\n      swap3\n      swap2\n      pop\n      pop\n      jump\t// out\n        /* \"#utility.yul\":13423:13833   */\n    tag_177:\n        /* \"#utility.yul\":13463:13470   */\n      0x00\n        /* \"#utility.yul\":13486:13506   */\n      tag_391\n        /* \"#utility.yul\":13504:13505   */\n      dup3\n        /* \"#utility.yul\":13486:13506   */\n      tag_224\n      jump\t// in\n    tag_391:\n        /* \"#utility.yul\":13481:13506   */\n      swap2\n      pop\n        /* \"#utility.yul\":13520:13540   */\n      tag_392\n        /* \"#utility.yul\":13538:13539   */\n      dup4\n        /* \"#utility.yul\":13520:13540   */\n      tag_224\n      jump\t// in\n    tag_392:\n        /* \"#utility.yul\":13515:13540   */\n      swap3\n      pop\n        /* \"#utility.yul\":13575:13576   */\n      dup3\n        /* \"#utility.yul\":13572:13573   */\n      dup3\n        /* \"#utility.yul\":13568:13577   */\n      mul\n        /* \"#utility.yul\":13597:13627   */\n      tag_393\n        /* \"#utility.yul\":13615:13626   */\n      dup2\n        /* \"#utility.yul\":13597:13627   */\n      tag_224\n      jump\t// in\n    tag_393:\n        /* \"#utility.yul\":13586:13627   */\n      swap2\n      pop\n        /* \"#utility.yul\":13776:13777   */\n      dup3\n        /* \"#utility.yul\":13767:13774   */\n      dup3\n        /* \"#utility.yul\":13763:13778   */\n      div\n        /* \"#utility.yul\":13760:13761   */\n      dup5\n        /* \"#utility.yul\":13757:13779   */\n      eq\n        /* \"#utility.yul\":13737:13738   */\n      dup4\n        /* \"#utility.yul\":13730:13739   */\n      iszero\n        /* \"#utility.yul\":13710:13793   */\n      or\n        /* \"#utility.yul\":13687:13826   */\n      tag_394\n      jumpi\n        /* \"#utility.yul\":13806:13824   */\n      tag_395\n      tag_250\n      jump\t// in\n    tag_395:\n        /* \"#utility.yul\":13687:13826   */\n    tag_394:\n        /* \"#utility.yul\":13471:13833   */\n      pop\n        /* \"#utility.yul\":13423:13833   */\n      swap3\n      swap2\n      pop\n      pop\n      jump\t// out\n        /* \"#utility.yul\":13839:14019   */\n    tag_255:\n        /* \"#utility.yul\":13887:13964   */\n      0x4e487b7100000000000000000000000000000000000000000000000000000000\n        /* \"#utility.yul\":13884:13885   */\n      0x00\n        /* \"#utility.yul\":13877:13965   */\n      mstore\n        /* \"#utility.yul\":13984:13988   */\n      0x12\n        /* \"#utility.yul\":13981:13982   */\n      0x04\n        /* \"#utility.yul\":13974:13989   */\n      mstore\n        /* \"#utility.yul\":14008:14012   */\n      0x24\n        /* \"#utility.yul\":14005:14006   */\n      0x00\n        /* \"#utility.yul\":13998:14013   */\n      revert\n        /* \"#utility.yul\":14025:14210   */\n    tag_179:\n        /* \"#utility.yul\":14065:14066   */\n      0x00\n        /* \"#utility.yul\":14082:14102   */\n      tag_398\n        /* \"#utility.yul\":14100:14101   */\n      dup3\n        /* \"#utility.yul\":14082:14102   */\n      tag_224\n      jump\t// in\n    tag_398:\n        /* \"#utility.yul\":14077:14102   */\n      swap2\n      pop\n        /* \"#utility.yul\":14116:14136   */\n      tag_399\n        /* \"#utility.yul\":14134:14135   */\n      dup4\n        /* \"#utility.yul\":14116:14136   */\n      tag_224\n      jump\t// in\n    tag_399:\n        /* \"#utility.yul\":14111:14136   */\n      swap3\n      pop\n        /* \"#utility.yul\":14155:14156   */\n      dup3\n        /* \"#utility.yul\":14145:14180   */\n      tag_400\n      jumpi\n        /* \"#utility.yul\":14160:14178   */\n      tag_401\n      tag_255\n      jump\t// in\n    tag_401:\n        /* \"#utility.yul\":14145:14180   */\n    tag_400:\n        /* \"#utility.yul\":14202:14203   */\n      dup3\n        /* \"#utility.yul\":14199:14200   */\n      dup3\n        /* \"#utility.yul\":14195:14204   */\n      div\n        /* \"#utility.yul\":14190:14204   */\n      swap1\n      pop\n        /* \"#utility.yul\":14025:14210   */\n      swap3\n      swap2\n      pop\n      pop\n      jump\t// out\n        /* \"#utility.yul\":14216:14436   */\n    tag_256:\n        /* \"#utility.yul\":14356:14390   */\n      0x536166654d6174683a206d756c7469706c69636174696f6e206f766572666c6f\n        /* \"#utility.yul\":14352:14353   */\n      0x00\n        /* \"#utility.yul\":14344:14350   */\n      dup3\n        /* \"#utility.yul\":14340:14354   */\n      add\n        /* \"#utility.yul\":14333:14391   */\n      mstore\n        /* \"#utility.yul\":14425:14428   */\n      0x7700000000000000000000000000000000000000000000000000000000000000\n        /* \"#utility.yul\":14420:14422   */\n      0x20\n        /* \"#utility.yul\":14412:14418   */\n      dup3\n        /* \"#utility.yul\":14408:14423   */\n      add\n        /* \"#utility.yul\":14401:14429   */\n      mstore\n        /* \"#utility.yul\":14216:14436   */\n      pop\n      jump\t// out\n        /* \"#utility.yul\":14442:14808   */\n    tag_257:\n        /* \"#utility.yul\":14584:14587   */\n      0x00\n        /* \"#utility.yul\":14605:14672   */\n      tag_404\n        /* \"#utility.yul\":14669:14671   */\n      0x21\n        /* \"#utility.yul\":14664:14667   */\n      dup4\n        /* \"#utility.yul\":14605:14672   */\n      tag_238\n      jump\t// in\n    tag_404:\n        /* \"#utility.yul\":14598:14672   */\n      swap2\n      pop\n        /* \"#utility.yul\":14681:14774   */\n      tag_405\n        /* \"#utility.yul\":14770:14773   */\n      dup3\n        /* \"#utility.yul\":14681:14774   */\n      tag_256\n      jump\t// in\n    tag_405:\n        /* \"#utility.yul\":14799:14801   */\n      0x40\n        /* \"#utility.yul\":14794:14797   */\n      dup3\n        /* \"#utility.yul\":14790:14802   */\n      add\n        /* \"#utility.yul\":14783:14802   */\n      swap1\n      pop\n        /* \"#utility.yul\":14442:14808   */\n      swap2\n      swap1\n      pop\n      jump\t// out\n        /* \"#utility.yul\":14814:15233   */\n    tag_182:\n        /* \"#utility.yul\":14980:14984   */\n      0x00\n        /* \"#utility.yul\":15018:15020   */\n      0x20\n        /* \"#utility.yul\":15007:15016   */\n      dup3\n        /* \"#utility.yul\":15003:15021   */\n      add\n        /* \"#utility.yul\":14995:15021   */\n      swap1\n      pop\n        /* \"#utility.yul\":15067:15076   */\n      dup2\n        /* \"#utility.yul\":15061:15065   */\n      dup2\n        /* \"#utility.yul\":15057:15077   */\n      sub\n        /* \"#utility.yul\":15053:15054   */\n      0x00\n        /* \"#utility.yul\":15042:15051   */\n      dup4\n        /* \"#utility.yul\":15038:15055   */\n      add\n        /* \"#utility.yul\":15031:15078   */\n      mstore\n        /* \"#utility.yul\":15095:15226   */\n      tag_407\n        /* \"#utility.yul\":15221:15225   */\n      dup2\n        /* \"#utility.yul\":15095:15226   */\n      tag_257\n      jump\t// in\n    tag_407:\n        /* \"#utility.yul\":15087:15226   */\n      swap1\n      pop\n        /* \"#utility.yul\":14814:15233   */\n      swap2\n      swap1\n      pop\n      jump\t// out\n        /* \"#utility.yul\":15239:15415   */\n    tag_258:\n        /* \"#utility.yul\":15379:15407   */\n      0x536166654d6174683a206469766973696f6e206279207a65726f000000000000\n        /* \"#utility.yul\":15375:15376   */\n      0x00\n        /* \"#utility.yul\":15367:15373   */\n      dup3\n        /* \"#utility.yul\":15363:15377   */\n      add\n        /* \"#utility.yul\":15356:15408   */\n      mstore\n        /* \"#utility.yul\":15239:15415   */\n      pop\n      jump\t// out\n        /* \"#utility.yul\":15421:15787   */\n    tag_259:\n        /* \"#utility.yul\":15563:15566   */\n      0x00\n        /* \"#utility.yul\":15584:15651   */\n      tag_410\n        /* \"#utility.yul\":15648:15650   */\n      0x1a\n        /* \"#utility.yul\":15643:15646   */\n      dup4\n        /* \"#utility.yul\":15584:15651   */\n      tag_238\n      jump\t// in\n    tag_410:\n        /* \"#utility.yul\":15577:15651   */\n      swap2\n      pop\n        /* \"#utility.yul\":15660:15753   */\n      tag_411\n        /* \"#utility.yul\":15749:15752   */\n      dup3\n        /* \"#utility.yul\":15660:15753   */\n      tag_258\n      jump\t// in\n    tag_411:\n        /* \"#utility.yul\":15778:15780   */\n      0x20\n        /* \"#utility.yul\":15773:15776   */\n      dup3\n        /* \"#utility.yul\":15769:15781   */\n      add\n        /* \"#utility.yul\":15762:15781   */\n      swap1\n      pop\n        /* \"#utility.yul\":15421:15787   */\n      swap2\n      swap1\n      pop\n      jump\t// out\n        /* \"#utility.yul\":15793:16212   */\n    tag_186:\n        /* \"#utility.yul\":15959:15963   */\n      0x00\n        /* \"#utility.yul\":15997:15999   */\n      0x20\n        /* \"#utility.yul\":15986:15995   */\n      dup3\n        /* \"#utility.yul\":15982:16000   */\n      add\n        /* \"#utility.yul\":15974:16000   */\n      swap1\n      pop\n        /* \"#utility.yul\":16046:16055   */\n      dup2\n        /* \"#utility.yul\":16040:16044   */\n      dup2\n        /* \"#utility.yul\":16036:16056   */\n      sub\n        /* \"#utility.yul\":16032:16033   */\n      0x00\n        /* \"#utility.yul\":16021:16030   */\n      dup4\n        /* \"#utility.yul\":16017:16034   */\n      add\n        /* \"#utility.yul\":16010:16057   */\n      mstore\n        /* \"#utility.yul\":16074:16205   */\n      tag_413\n        /* \"#utility.yul\":16200:16204   */\n      dup2\n        /* \"#utility.yul\":16074:16205   */\n      tag_259\n      jump\t// in\n    tag_413:\n        /* \"#utility.yul\":16066:16205   */\n      swap1\n      pop\n        /* \"#utility.yul\":15793:16212   */\n      swap2\n      swap1\n      pop\n      jump\t// out\n        /* \"#utility.yul\":16218:16308   */\n    tag_260:\n        /* \"#utility.yul\":16252:16259   */\n      0x00\n        /* \"#utility.yul\":16295:16300   */\n      dup2\n        /* \"#utility.yul\":16288:16301   */\n      iszero\n        /* \"#utility.yul\":16281:16302   */\n      iszero\n        /* \"#utility.yul\":16270:16302   */\n      swap1\n      pop\n        /* \"#utility.yul\":16218:16308   */\n      swap2\n      swap1\n      pop\n      jump\t// out\n        /* \"#utility.yul\":16314:16430   */\n    tag_261:\n        /* \"#utility.yul\":16384:16405   */\n      tag_416\n        /* \"#utility.yul\":16399:16404   */\n      dup2\n        /* \"#utility.yul\":16384:16405   */\n      tag_260\n      jump\t// in\n    tag_416:\n        /* \"#utility.yul\":16377:16382   */\n      dup2\n        /* \"#utility.yul\":16374:16406   */\n      eq\n        /* \"#utility.yul\":16364:16424   */\n      tag_417\n      jumpi\n        /* \"#utility.yul\":16420:16421   */\n      0x00\n        /* \"#utility.yul\":16417:16418   */\n      dup1\n        /* \"#utility.yul\":16410:16422   */\n      revert\n        /* \"#utility.yul\":16364:16424   */\n    tag_417:\n        /* \"#utility.yul\":16314:16430   */\n      pop\n      jump\t// out\n        /* \"#utility.yul\":16436:16573   */\n    tag_262:\n        /* \"#utility.yul\":16490:16495   */\n      0x00\n        /* \"#utility.yul\":16521:16527   */\n      dup2\n        /* \"#utility.yul\":16515:16528   */\n      mload\n        /* \"#utility.yul\":16506:16528   */\n      swap1\n      pop\n        /* \"#utility.yul\":16537:16567   */\n      tag_419\n        /* \"#utility.yul\":16561:16566   */\n      dup2\n        /* \"#utility.yul\":16537:16567   */\n      tag_261\n      jump\t// in\n    tag_419:\n        /* \"#utility.yul\":16436:16573   */\n      swap3\n      swap2\n      pop\n      pop\n      jump\t// out\n        /* \"#utility.yul\":16579:16924   */\n    tag_193:\n        /* \"#utility.yul\":16646:16652   */\n      0x00\n        /* \"#utility.yul\":16695:16697   */\n      0x20\n        /* \"#utility.yul\":16683:16692   */\n      dup3\n        /* \"#utility.yul\":16674:16681   */\n      dup5\n        /* \"#utility.yul\":16670:16693   */\n      sub\n        /* \"#utility.yul\":16666:16698   */\n      slt\n        /* \"#utility.yul\":16663:16782   */\n      iszero\n      tag_421\n      jumpi\n        /* \"#utility.yul\":16701:16780   */\n      tag_422\n      tag_222\n      jump\t// in\n    tag_422:\n        /* \"#utility.yul\":16663:16782   */\n    tag_421:\n        /* \"#utility.yul\":16821:16822   */\n      0x00\n        /* \"#utility.yul\":16846:16907   */\n      tag_423\n        /* \"#utility.yul\":16899:16906   */\n      dup5\n        /* \"#utility.yul\":16890:16896   */\n      dup3\n        /* \"#utility.yul\":16879:16888   */\n      dup6\n        /* \"#utility.yul\":16875:16897   */\n      add\n        /* \"#utility.yul\":16846:16907   */\n      tag_262\n      jump\t// in\n    tag_423:\n        /* \"#utility.yul\":16836:16907   */\n      swap2\n      pop\n        /* \"#utility.yul\":16792:16917   */\n      pop\n        /* \"#utility.yul\":16579:16924   */\n      swap3\n      swap2\n      pop\n      pop\n      jump\t// out\n        /* \"#utility.yul\":16930:17028   */\n    tag_263:\n        /* \"#utility.yul\":16981:16987   */\n      0x00\n        /* \"#utility.yul\":17015:17020   */\n      dup2\n        /* \"#utility.yul\":17009:17021   */\n      mload\n        /* \"#utility.yul\":16999:17021   */\n      swap1\n      pop\n        /* \"#utility.yul\":16930:17028   */\n      swap2\n      swap1\n      pop\n      jump\t// out\n        /* \"#utility.yul\":17034:17181   */\n    tag_264:\n        /* \"#utility.yul\":17135:17146   */\n      0x00\n        /* \"#utility.yul\":17172:17175   */\n      dup2\n        /* \"#utility.yul\":17157:17175   */\n      swap1\n      pop\n        /* \"#utility.yul\":17034:17181   */\n      swap3\n      swap2\n      pop\n      pop\n      jump\t// out\n        /* \"#utility.yul\":17187:17433   */\n    tag_265:\n        /* \"#utility.yul\":17268:17269   */\n      0x00\n        /* \"#utility.yul\":17278:17391   */\n    tag_427:\n        /* \"#utility.yul\":17292:17298   */\n      dup4\n        /* \"#utility.yul\":17289:17290   */\n      dup2\n        /* \"#utility.yul\":17286:17299   */\n      lt\n        /* \"#utility.yul\":17278:17391   */\n      iszero\n      tag_429\n      jumpi\n        /* \"#utility.yul\":17377:17378   */\n      dup1\n        /* \"#utility.yul\":17372:17375   */\n      dup3\n        /* \"#utility.yul\":17368:17379   */\n      add\n        /* \"#utility.yul\":17362:17380   */\n      mload\n        /* \"#utility.yul\":17358:17359   */\n      dup2\n        /* \"#utility.yul\":17353:17356   */\n      dup5\n        /* \"#utility.yul\":17349:17360   */\n      add\n        /* \"#utility.yul\":17342:17381   */\n      mstore\n        /* \"#utility.yul\":17314:17316   */\n      0x20\n        /* \"#utility.yul\":17311:17312   */\n      dup2\n        /* \"#utility.yul\":17307:17317   */\n      add\n        /* \"#utility.yul\":17302:17317   */\n      swap1\n      pop\n        /* \"#utility.yul\":17278:17391   */\n      jump(tag_427)\n    tag_429:\n        /* \"#utility.yul\":17425:17426   */\n      0x00\n        /* \"#utility.yul\":17416:17422   */\n      dup5\n        /* \"#utility.yul\":17411:17414   */\n      dup5\n        /* \"#utility.yul\":17407:17423   */\n      add\n        /* \"#utility.yul\":17400:17427   */\n      mstore\n        /* \"#utility.yul\":17249:17433   */\n      pop\n        /* \"#utility.yul\":17187:17433   */\n      pop\n      pop\n      pop\n      jump\t// out\n        /* \"#utility.yul\":17439:17825   */\n    tag_266:\n        /* \"#utility.yul\":17543:17546   */\n      0x00\n        /* \"#utility.yul\":17571:17609   */\n      tag_431\n        /* \"#utility.yul\":17603:17608   */\n      dup3\n        /* \"#utility.yul\":17571:17609   */\n      tag_263\n      jump\t// in\n    tag_431:\n        /* \"#utility.yul\":17625:17713   */\n      tag_432\n        /* \"#utility.yul\":17706:17712   */\n      dup2\n        /* \"#utility.yul\":17701:17704   */\n      dup6\n        /* \"#utility.yul\":17625:17713   */\n      tag_264\n      jump\t// in\n    tag_432:\n        /* \"#utility.yul\":17618:17713   */\n      swap4\n      pop\n        /* \"#utility.yul\":17722:17787   */\n      tag_433\n        /* \"#utility.yul\":17780:17786   */\n      dup2\n        /* \"#utility.yul\":17775:17778   */\n      dup6\n        /* \"#utility.yul\":17768:17772   */\n      0x20\n        /* \"#utility.yul\":17761:17766   */\n      dup7\n        /* \"#utility.yul\":17757:17773   */\n      add\n        /* \"#utility.yul\":17722:17787   */\n      tag_265\n      jump\t// in\n    tag_433:\n        /* \"#utility.yul\":17812:17818   */\n      dup1\n        /* \"#utility.yul\":17807:17810   */\n      dup5\n        /* \"#utility.yul\":17803:17819   */\n      add\n        /* \"#utility.yul\":17796:17819   */\n      swap2\n      pop\n        /* \"#utility.yul\":17547:17825   */\n      pop\n        /* \"#utility.yul\":17439:17825   */\n      swap3\n      swap2\n      pop\n      pop\n      jump\t// out\n        /* \"#utility.yul\":17831:18102   */\n    tag_204:\n        /* \"#utility.yul\":17961:17964   */\n      0x00\n        /* \"#utility.yul\":17983:18076   */\n      tag_435\n        /* \"#utility.yul\":18072:18075   */\n      dup3\n        /* \"#utility.yul\":18063:18069   */\n      dup5\n        /* \"#utility.yul\":17983:18076   */\n      tag_266\n      jump\t// in\n    tag_435:\n        /* \"#utility.yul\":17976:18076   */\n      swap2\n      pop\n        /* \"#utility.yul\":18093:18096   */\n      dup2\n        /* \"#utility.yul\":18086:18096   */\n      swap1\n      pop\n        /* \"#utility.yul\":17831:18102   */\n      swap3\n      swap2\n      pop\n      pop\n      jump\t// out\n\n    auxdata: 0xa264697066735822122040f69fb49383b2d9167fcada71f9229e2d082ddbabb59561e47e5d1ab49091de64736f6c63430008140033\n}\n",
				"bytecode": {
					"linkReferences": {},
					"object": "608060405234801562000010575f80fd5b50604051620020ae380380620020ae8339818101604052810190620000369190620003c0565b335f73ffffffffffffffffffffffffffffffffffffffff168173ffffffffffffffffffffffffffffffffffffffff1603620000aa575f6040517f1e4fbdf7000000000000000000000000000000000000000000000000000000008152600401620000a1919062000440565b60405180910390fd5b620000bb816200026260201b60201c565b50600180819055505f73ffffffffffffffffffffffffffffffffffffffff168473ffffffffffffffffffffffffffffffffffffffff160362000134576040517f08c379a00000000000000000000000000000000000000000000000000000000081526004016200012b90620004b9565b60405180910390fd5b5f831162000179576040517f08c379a000000000000000000000000000000000000000000000000000000000815260040162000170906200054d565b60405180910390fd5b5f8211620001be576040517f08c379a0000000000000000000000000000000000000000000000000000000008152600401620001b590620005e1565b60405180910390fd5b5f811162000203576040517f08c379a0000000000000000000000000000000000000000000000000000000008152600401620001fa9062000675565b60405180910390fd5b8360025f6101000a81548173ffffffffffffffffffffffffffffffffffffffff021916908373ffffffffffffffffffffffffffffffffffffffff1602179055508260048190555081600581905550806006819055505050505062000695565b5f805f9054906101000a900473ffffffffffffffffffffffffffffffffffffffff169050815f806101000a81548173ffffffffffffffffffffffffffffffffffffffff021916908373ffffffffffffffffffffffffffffffffffffffff1602179055508173ffffffffffffffffffffffffffffffffffffffff168173ffffffffffffffffffffffffffffffffffffffff167f8be0079c531659141344cd1fd0a4f28419497f9722a3daafe3b4186f6b6457e060405160405180910390a35050565b5f80fd5b5f73ffffffffffffffffffffffffffffffffffffffff82169050919050565b5f620003528262000327565b9050919050565b620003648162000346565b81146200036f575f80fd5b50565b5f81519050620003828162000359565b92915050565b5f819050919050565b6200039c8162000388565b8114620003a7575f80fd5b50565b5f81519050620003ba8162000391565b92915050565b5f805f8060808587031215620003db57620003da62000323565b5b5f620003ea8782880162000372565b9450506020620003fd87828801620003aa565b93505060406200041087828801620003aa565b92505060606200042387828801620003aa565b91505092959194509250565b6200043a8162000346565b82525050565b5f602082019050620004555f8301846200042f565b92915050565b5f82825260208201905092915050565b7f546f6b656e20616464726573732063616e6e6f74206265207a65726f000000005f82015250565b5f620004a1601c836200045b565b9150620004ae826200046b565b602082019050919050565b5f6020820190508181035f830152620004d28162000493565b9050919050565b7f4261736520696e7465726573742072617465206d7573742062652067726561745f8201527f6572207468616e207a65726f0000000000000000000000000000000000000000602082015250565b5f62000535602c836200045b565b91506200054282620004d9565b604082019050919050565b5f6020820190508181035f830152620005668162000527565b9050919050565b7f496e746572657374207261746520706572206475726174696f6e206d757374205f8201527f62652067726561746572207468616e207a65726f000000000000000000000000602082015250565b5f620005c96034836200045b565b9150620005d6826200056d565b604082019050919050565b5f6020820190508181035f830152620005fa81620005bb565b9050919050565b7f4d696e696d756d206475726174696f6e206d75737420626520677265617465725f8201527f207468616e207a65726f00000000000000000000000000000000000000000000602082015250565b5f6200065d602a836200045b565b91506200066a8262000601565b604082019050919050565b5f6020820190508181035f8301526200068e816200064f565b9050919050565b611a0b80620006a35f395ff3fe608060405234801561000f575f80fd5b50600436106100b2575f3560e01c8063715018a61161006f578063715018a6146101765780638da5cb5b14610180578063afd927621461019e578063efdd7c07146101bc578063f2fde38b146101ec578063fc0c546a14610208576100b2565b80630ecbcdab146100b657806311df5d72146100d2578063155dd5ee146100f0578063371fd8e61461010c578063478230f7146101285780635671576114610158575b5f80fd5b6100d060048036038101906100cb9190611116565b610226565b005b6100da6104ff565b6040516100e79190611163565b60405180910390f35b61010a6004803603810190610105919061117c565b610505565b005b6101266004803603810190610121919061117c565b610680565b005b610142600480360381019061013d9190611201565b6108dd565b60405161014f9190611163565b60405180910390f35b6101606108f2565b60405161016d9190611163565b60405180910390f35b61017e6108f8565b005b61018861090b565b604051610195919061123b565b60405180910390f35b6101a6610932565b6040516101b39190611163565b60405180910390f35b6101d660048036038101906101d19190611116565b610938565b6040516101e39190611163565b60405180910390f35b61020660048036038101906102019190611201565b6109c6565b005b610210610a4a565b60405161021d91906112af565b60405180910390f35b61022e610a6f565b5f8211610270576040517f08c379a000000000000000000000000000000000000000000000000000000000815260040161026790611322565b60405180910390fd5b6006548110156102b5576040517f08c379a00000000000000000000000000000000000000000000000000000000081526004016102ac9061138a565b60405180910390fd5b5f6102c08383610938565b90506102d58184610ab590919063ffffffff16565b60025f9054906101000a900473ffffffffffffffffffffffffffffffffffffffff1673ffffffffffffffffffffffffffffffffffffffff166370a08231336040518263ffffffff1660e01b815260040161032f919061123b565b602060405180830381865afa15801561034a573d5f803e3d5ffd5b505050506040513d601f19601f8201168201806040525081019061036e91906113bc565b10156103af576040517f08c379a00000000000000000000000000000000000000000000000000000000081526004016103a690611431565b60405180910390fd5b61040f33306103c78487610ab590919063ffffffff16565b60025f9054906101000a900473ffffffffffffffffffffffffffffffffffffffff1673ffffffffffffffffffffffffffffffffffffffff16610b12909392919063ffffffff16565b61045f8360035f3373ffffffffffffffffffffffffffffffffffffffff1673ffffffffffffffffffffffffffffffffffffffff1681526020019081526020015f2054610ab590919063ffffffff16565b60035f3373ffffffffffffffffffffffffffffffffffffffff1673ffffffffffffffffffffffffffffffffffffffff1681526020019081526020015f20819055503373ffffffffffffffffffffffffffffffffffffffff167f13ed6866d4e1ee6da46f845c46d7e54120883d75c5ea9a2dacc1c4ca8984ab808483856040516104ea9392919061144f565b60405180910390a2506104fb610b94565b5050565b60055481565b61050d610b9d565b5f811161054f576040517f08c379a0000000000000000000000000000000000000000000000000000000008152600401610546906114f4565b60405180910390fd5b60025f9054906101000a900473ffffffffffffffffffffffffffffffffffffffff1673ffffffffffffffffffffffffffffffffffffffff166370a08231306040518263ffffffff1660e01b81526004016105a9919061123b565b602060405180830381865afa1580156105c4573d5f803e3d5ffd5b505050506040513d601f19601f820116820180604052508101906105e891906113bc565b81111561062a576040517f08c379a000000000000000000000000000000000000000000000000000000000815260040161062190611582565b60405180910390fd5b61067d61063561090b565b8260025f9054906101000a900473ffffffffffffffffffffffffffffffffffffffff1673ffffffffffffffffffffffffffffffffffffffff16610c249092919063ffffffff16565b50565b610688610a6f565b5f81116106ca576040517f08c379a00000000000000000000000000000000000000000000000000000000081526004016106c190611322565b60405180910390fd5b8060025f9054906101000a900473ffffffffffffffffffffffffffffffffffffffff1673ffffffffffffffffffffffffffffffffffffffff166370a08231336040518263ffffffff1660e01b8152600401610725919061123b565b602060405180830381865afa158015610740573d5f803e3d5ffd5b505050506040513d601f19601f8201168201806040525081019061076491906113bc565b10156107a5576040517f08c379a000000000000000000000000000000000000000000000000000000000815260040161079c90611431565b60405180910390fd5b6107f333308360025f9054906101000a900473ffffffffffffffffffffffffffffffffffffffff1673ffffffffffffffffffffffffffffffffffffffff16610b12909392919063ffffffff16565b6108438160035f3373ffffffffffffffffffffffffffffffffffffffff1673ffffffffffffffffffffffffffffffffffffffff1681526020019081526020015f2054610ca390919063ffffffff16565b60035f3373ffffffffffffffffffffffffffffffffffffffff1673ffffffffffffffffffffffffffffffffffffffff1681526020019081526020015f20819055503373ffffffffffffffffffffffffffffffffffffffff167f5c16de4f8b59bd9caf0f49a545f25819a895ed223294290b408242e72a594231826040516108ca9190611163565b60405180910390a26108da610b94565b50565b6003602052805f5260405f205f915090505481565b60065481565b610900610b9d565b6109095f610d00565b565b5f805f9054906101000a900473ffffffffffffffffffffffffffffffffffffffff16905090565b60045481565b5f8061096361271061095560045487610dc190919063ffffffff16565b610e3890919063ffffffff16565b90505f6109a7670de0b6b3a76400006109998661098b6005548a610dc190919063ffffffff16565b610dc190919063ffffffff16565b610e3890919063ffffffff16565b90506109bc8183610ab590919063ffffffff16565b9250505092915050565b6109ce610b9d565b5f73ffffffffffffffffffffffffffffffffffffffff168173ffffffffffffffffffffffffffffffffffffffff1603610a3e575f6040517f1e4fbdf7000000000000000000000000000000000000000000000000000000008152600401610a35919061123b565b60405180910390fd5b610a4781610d00565b50565b60025f9054906101000a900473ffffffffffffffffffffffffffffffffffffffff1681565b600260015403610aab576040517f3ee5aeb500000000000000000000000000000000000000000000000000000000815260040160405180910390fd5b6002600181905550565b5f808284610ac391906115cd565b905083811015610b08576040517f08c379a0000000000000000000000000000000000000000000000000000000008152600401610aff9061164a565b60405180910390fd5b8091505092915050565b610b8e848573ffffffffffffffffffffffffffffffffffffffff166323b872dd868686604051602401610b4793929190611668565b604051602081830303815290604052915060e01b6020820180517bffffffffffffffffffffffffffffffffffffffffffffffffffffffff8381831617835250505050610e94565b50505050565b60018081905550565b610ba5610f29565b73ffffffffffffffffffffffffffffffffffffffff16610bc361090b565b73ffffffffffffffffffffffffffffffffffffffff1614610c2257610be6610f29565b6040517f118cdaa7000000000000000000000000000000000000000000000000000000008152600401610c19919061123b565b60405180910390fd5b565b610c9e838473ffffffffffffffffffffffffffffffffffffffff1663a9059cbb8585604051602401610c5792919061169d565b604051602081830303815290604052915060e01b6020820180517bffffffffffffffffffffffffffffffffffffffffffffffffffffffff8381831617835250505050610e94565b505050565b5f82821115610ce7576040517f08c379a0000000000000000000000000000000000000000000000000000000008152600401610cde9061170e565b60405180910390fd5b5f8284610cf4919061172c565b90508091505092915050565b5f805f9054906101000a900473ffffffffffffffffffffffffffffffffffffffff169050815f806101000a81548173ffffffffffffffffffffffffffffffffffffffff021916908373ffffffffffffffffffffffffffffffffffffffff1602179055508173ffffffffffffffffffffffffffffffffffffffff168173ffffffffffffffffffffffffffffffffffffffff167f8be0079c531659141344cd1fd0a4f28419497f9722a3daafe3b4186f6b6457e060405160405180910390a35050565b5f808303610dd1575f9050610e32565b5f8284610dde919061175f565b9050828482610ded91906117cd565b14610e2d576040517f08c379a0000000000000000000000000000000000000000000000000000000008152600401610e249061186d565b60405180910390fd5b809150505b92915050565b5f808211610e7b576040517f08c379a0000000000000000000000000000000000000000000000000000000008152600401610e72906118d5565b60405180910390fd5b5f8284610e8891906117cd565b90508091505092915050565b5f610ebe828473ffffffffffffffffffffffffffffffffffffffff16610f3090919063ffffffff16565b90505f815114158015610ee2575080806020019051810190610ee09190611928565b155b15610f2457826040517f5274afe7000000000000000000000000000000000000000000000000000000008152600401610f1b919061123b565b60405180910390fd5b505050565b5f33905090565b6060610f3d83835f610f45565b905092915050565b606081471015610f8c57306040517fcd786059000000000000000000000000000000000000000000000000000000008152600401610f83919061123b565b60405180910390fd5b5f808573ffffffffffffffffffffffffffffffffffffffff168486604051610fb491906119bf565b5f6040518083038185875af1925050503d805f8114610fee576040519150601f19603f3d011682016040523d82523d5f602084013e610ff3565b606091505b509150915061100386838361100e565b925050509392505050565b6060826110235761101e8261109b565b611093565b5f825114801561104957505f8473ffffffffffffffffffffffffffffffffffffffff163b145b1561108b57836040517f9996b315000000000000000000000000000000000000000000000000000000008152600401611082919061123b565b60405180910390fd5b819050611094565b5b9392505050565b5f815111156110ad5780518082602001fd5b6040517f1425ea4200000000000000000000000000000000000000000000000000000000815260040160405180910390fd5b5f80fd5b5f819050919050565b6110f5816110e3565b81146110ff575f80fd5b50565b5f81359050611110816110ec565b92915050565b5f806040838503121561112c5761112b6110df565b5b5f61113985828601611102565b925050602061114a85828601611102565b9150509250929050565b61115d816110e3565b82525050565b5f6020820190506111765f830184611154565b92915050565b5f60208284031215611191576111906110df565b5b5f61119e84828501611102565b91505092915050565b5f73ffffffffffffffffffffffffffffffffffffffff82169050919050565b5f6111d0826111a7565b9050919050565b6111e0816111c6565b81146111ea575f80fd5b50565b5f813590506111fb816111d7565b92915050565b5f60208284031215611216576112156110df565b5b5f611223848285016111ed565b91505092915050565b611235816111c6565b82525050565b5f60208201905061124e5f83018461122c565b92915050565b5f819050919050565b5f61127761127261126d846111a7565b611254565b6111a7565b9050919050565b5f6112888261125d565b9050919050565b5f6112998261127e565b9050919050565b6112a98161128f565b82525050565b5f6020820190506112c25f8301846112a0565b92915050565b5f82825260208201905092915050565b7f416d6f756e74206d7573742062652067726561746572207468616e207a65726f5f82015250565b5f61130c6020836112c8565b9150611317826112d8565b602082019050919050565b5f6020820190508181035f83015261133981611300565b9050919050565b7f4475726174696f6e2062656c6f77206d696e696d756d20616c6c6f77656400005f82015250565b5f611374601e836112c8565b915061137f82611340565b602082019050919050565b5f6020820190508181035f8301526113a181611368565b9050919050565b5f815190506113b6816110ec565b92915050565b5f602082840312156113d1576113d06110df565b5b5f6113de848285016113a8565b91505092915050565b7f496e73756666696369656e742062616c616e63650000000000000000000000005f82015250565b5f61141b6014836112c8565b9150611426826113e7565b602082019050919050565b5f6020820190508181035f8301526114488161140f565b9050919050565b5f6060820190506114625f830186611154565b61146f6020830185611154565b61147c6040830184611154565b949350505050565b7f5769746864726177616c20616d6f756e74206d757374206265206772656174655f8201527f72207468616e207a65726f000000000000000000000000000000000000000000602082015250565b5f6114de602b836112c8565b91506114e982611484565b604082019050919050565b5f6020820190508181035f83015261150b816114d2565b9050919050565b7f496e73756666696369656e742066756e647320696e2074686520636f6e7472615f8201527f6374000000000000000000000000000000000000000000000000000000000000602082015250565b5f61156c6022836112c8565b915061157782611512565b604082019050919050565b5f6020820190508181035f83015261159981611560565b9050919050565b7f4e487b71000000000000000000000000000000000000000000000000000000005f52601160045260245ffd5b5f6115d7826110e3565b91506115e2836110e3565b92508282019050808211156115fa576115f96115a0565b5b92915050565b7f536166654d6174683a206164646974696f6e206f766572666c6f7700000000005f82015250565b5f611634601b836112c8565b915061163f82611600565b602082019050919050565b5f6020820190508181035f83015261166181611628565b9050919050565b5f60608201905061167b5f83018661122c565b611688602083018561122c565b6116956040830184611154565b949350505050565b5f6040820190506116b05f83018561122c565b6116bd6020830184611154565b9392505050565b7f536166654d6174683a207375627472616374696f6e206f766572666c6f7700005f82015250565b5f6116f8601e836112c8565b9150611703826116c4565b602082019050919050565b5f6020820190508181035f830152611725816116ec565b9050919050565b5f611736826110e3565b9150611741836110e3565b9250828203905081811115611759576117586115a0565b5b92915050565b5f611769826110e3565b9150611774836110e3565b9250828202611782816110e3565b91508282048414831517611799576117986115a0565b5b5092915050565b7f4e487b71000000000000000000000000000000000000000000000000000000005f52601260045260245ffd5b5f6117d7826110e3565b91506117e2836110e3565b9250826117f2576117f16117a0565b5b828204905092915050565b7f536166654d6174683a206d756c7469706c69636174696f6e206f766572666c6f5f8201527f7700000000000000000000000000000000000000000000000000000000000000602082015250565b5f6118576021836112c8565b9150611862826117fd565b604082019050919050565b5f6020820190508181035f8301526118848161184b565b9050919050565b7f536166654d6174683a206469766973696f6e206279207a65726f0000000000005f82015250565b5f6118bf601a836112c8565b91506118ca8261188b565b602082019050919050565b5f6020820190508181035f8301526118ec816118b3565b9050919050565b5f8115159050919050565b611907816118f3565b8114611911575f80fd5b50565b5f81519050611922816118fe565b92915050565b5f6020828403121561193d5761193c6110df565b5b5f61194a84828501611914565b91505092915050565b5f81519050919050565b5f81905092915050565b5f5b83811015611984578082015181840152602081019050611969565b5f8484015250505050565b5f61199982611953565b6119a3818561195d565b93506119b3818560208601611967565b80840191505092915050565b5f6119ca828461198f565b91508190509291505056fea264697066735822122040f69fb49383b2d9167fcada71f9229e2d082ddbabb59561e47e5d1ab49091de64736f6c63430008140033",
					"opcodes": "PUSH1 0x80 PUSH1 0x40 MSTORE CALLVALUE DUP1 ISZERO PUSH3 0x10 JUMPI PUSH0 DUP1 REVERT JUMPDEST POP PUSH1 0x40 MLOAD PUSH3 0x20AE CODESIZE SUB DUP1 PUSH3 0x20AE DUP4 CODECOPY DUP2 DUP2 ADD PUSH1 0x40 MSTORE DUP2 ADD SWAP1 PUSH3 0x36 SWAP2 SWAP1 PUSH3 0x3C0 JUMP JUMPDEST CALLER PUSH0 PUSH20 0xFFFFFFFFFFFFFFFFFFFFFFFFFFFFFFFFFFFFFFFF AND DUP2 PUSH20 0xFFFFFFFFFFFFFFFFFFFFFFFFFFFFFFFFFFFFFFFF AND SUB PUSH3 0xAA JUMPI PUSH0 PUSH1 0x40 MLOAD PUSH32 0x1E4FBDF700000000000000000000000000000000000000000000000000000000 DUP2 MSTORE PUSH1 0x4 ADD PUSH3 0xA1 SWAP2 SWAP1 PUSH3 0x440 JUMP JUMPDEST PUSH1 0x40 MLOAD DUP1 SWAP2 SUB SWAP1 REVERT JUMPDEST PUSH3 0xBB DUP2 PUSH3 0x262 PUSH1 0x20 SHL PUSH1 0x20 SHR JUMP JUMPDEST POP PUSH1 0x1 DUP1 DUP2 SWAP1 SSTORE POP PUSH0 PUSH20 0xFFFFFFFFFFFFFFFFFFFFFFFFFFFFFFFFFFFFFFFF AND DUP5 PUSH20 0xFFFFFFFFFFFFFFFFFFFFFFFFFFFFFFFFFFFFFFFF AND SUB PUSH3 0x134 JUMPI PUSH1 0x40 MLOAD PUSH32 0x8C379A000000000000000000000000000000000000000000000000000000000 DUP2 MSTORE PUSH1 0x4 ADD PUSH3 0x12B SWAP1 PUSH3 0x4B9 JUMP JUMPDEST PUSH1 0x40 MLOAD DUP1 SWAP2 SUB SWAP1 REVERT JUMPDEST PUSH0 DUP4 GT PUSH3 0x179 JUMPI PUSH1 0x40 MLOAD PUSH32 0x8C379A000000000000000000000000000000000000000000000000000000000 DUP2 MSTORE PUSH1 0x4 ADD PUSH3 0x170 SWAP1 PUSH3 0x54D JUMP JUMPDEST PUSH1 0x40 MLOAD DUP1 SWAP2 SUB SWAP1 REVERT JUMPDEST PUSH0 DUP3 GT PUSH3 0x1BE JUMPI PUSH1 0x40 MLOAD PUSH32 0x8C379A000000000000000000000000000000000000000000000000000000000 DUP2 MSTORE PUSH1 0x4 ADD PUSH3 0x1B5 SWAP1 PUSH3 0x5E1 JUMP JUMPDEST PUSH1 0x40 MLOAD DUP1 SWAP2 SUB SWAP1 REVERT JUMPDEST PUSH0 DUP2 GT PUSH3 0x203 JUMPI PUSH1 0x40 MLOAD PUSH32 0x8C379A000000000000000000000000000000000000000000000000000000000 DUP2 MSTORE PUSH1 0x4 ADD PUSH3 0x1FA SWAP1 PUSH3 0x675 JUMP JUMPDEST PUSH1 0x40 MLOAD DUP1 SWAP2 SUB SWAP1 REVERT JUMPDEST DUP4 PUSH1 0x2 PUSH0 PUSH2 0x100 EXP DUP2 SLOAD DUP2 PUSH20 0xFFFFFFFFFFFFFFFFFFFFFFFFFFFFFFFFFFFFFFFF MUL NOT AND SWAP1 DUP4 PUSH20 0xFFFFFFFFFFFFFFFFFFFFFFFFFFFFFFFFFFFFFFFF AND MUL OR SWAP1 SSTORE POP DUP3 PUSH1 0x4 DUP2 SWAP1 SSTORE POP DUP2 PUSH1 0x5 DUP2 SWAP1 SSTORE POP DUP1 PUSH1 0x6 DUP2 SWAP1 SSTORE POP POP POP POP POP PUSH3 0x695 JUMP JUMPDEST PUSH0 DUP1 PUSH0 SWAP1 SLOAD SWAP1 PUSH2 0x100 EXP SWAP1 DIV PUSH20 0xFFFFFFFFFFFFFFFFFFFFFFFFFFFFFFFFFFFFFFFF AND SWAP1 POP DUP2 PUSH0 DUP1 PUSH2 0x100 EXP DUP2 SLOAD DUP2 PUSH20 0xFFFFFFFFFFFFFFFFFFFFFFFFFFFFFFFFFFFFFFFF MUL NOT AND SWAP1 DUP4 PUSH20 0xFFFFFFFFFFFFFFFFFFFFFFFFFFFFFFFFFFFFFFFF AND MUL OR SWAP1 SSTORE POP DUP2 PUSH20 0xFFFFFFFFFFFFFFFFFFFFFFFFFFFFFFFFFFFFFFFF AND DUP2 PUSH20 0xFFFFFFFFFFFFFFFFFFFFFFFFFFFFFFFFFFFFFFFF AND PUSH32 0x8BE0079C531659141344CD1FD0A4F28419497F9722A3DAAFE3B4186F6B6457E0 PUSH1 0x40 MLOAD PUSH1 0x40 MLOAD DUP1 SWAP2 SUB SWAP1 LOG3 POP POP JUMP JUMPDEST PUSH0 DUP1 REVERT JUMPDEST PUSH0 PUSH20 0xFFFFFFFFFFFFFFFFFFFFFFFFFFFFFFFFFFFFFFFF DUP3 AND SWAP1 POP SWAP2 SWAP1 POP JUMP JUMPDEST PUSH0 PUSH3 0x352 DUP3 PUSH3 0x327 JUMP JUMPDEST SWAP1 POP SWAP2 SWAP1 POP JUMP JUMPDEST PUSH3 0x364 DUP2 PUSH3 0x346 JUMP JUMPDEST DUP2 EQ PUSH3 0x36F JUMPI PUSH0 DUP1 REVERT JUMPDEST POP JUMP JUMPDEST PUSH0 DUP2 MLOAD SWAP1 POP PUSH3 0x382 DUP2 PUSH3 0x359 JUMP JUMPDEST SWAP3 SWAP2 POP POP JUMP JUMPDEST PUSH0 DUP2 SWAP1 POP SWAP2 SWAP1 POP JUMP JUMPDEST PUSH3 0x39C DUP2 PUSH3 0x388 JUMP JUMPDEST DUP2 EQ PUSH3 0x3A7 JUMPI PUSH0 DUP1 REVERT JUMPDEST POP JUMP JUMPDEST PUSH0 DUP2 MLOAD SWAP1 POP PUSH3 0x3BA DUP2 PUSH3 0x391 JUMP JUMPDEST SWAP3 SWAP2 POP POP JUMP JUMPDEST PUSH0 DUP1 PUSH0 DUP1 PUSH1 0x80 DUP6 DUP8 SUB SLT ISZERO PUSH3 0x3DB JUMPI PUSH3 0x3DA PUSH3 0x323 JUMP JUMPDEST JUMPDEST PUSH0 PUSH3 0x3EA DUP8 DUP3 DUP9 ADD PUSH3 0x372 JUMP JUMPDEST SWAP5 POP POP PUSH1 0x20 PUSH3 0x3FD DUP8 DUP3 DUP9 ADD PUSH3 0x3AA JUMP JUMPDEST SWAP4 POP POP PUSH1 0x40 PUSH3 0x410 DUP8 DUP3 DUP9 ADD PUSH3 0x3AA JUMP JUMPDEST SWAP3 POP POP PUSH1 0x60 PUSH3 0x423 DUP8 DUP3 DUP9 ADD PUSH3 0x3AA JUMP JUMPDEST SWAP2 POP POP SWAP3 SWAP6 SWAP2 SWAP5 POP SWAP3 POP JUMP JUMPDEST PUSH3 0x43A DUP2 PUSH3 0x346 JUMP JUMPDEST DUP3 MSTORE POP POP JUMP JUMPDEST PUSH0 PUSH1 0x20 DUP3 ADD SWAP1 POP PUSH3 0x455 PUSH0 DUP4 ADD DUP5 PUSH3 0x42F JUMP JUMPDEST SWAP3 SWAP2 POP POP JUMP JUMPDEST PUSH0 DUP3 DUP3 MSTORE PUSH1 0x20 DUP3 ADD SWAP1 POP SWAP3 SWAP2 POP POP JUMP JUMPDEST PUSH32 0x546F6B656E20616464726573732063616E6E6F74206265207A65726F00000000 PUSH0 DUP3 ADD MSTORE POP JUMP JUMPDEST PUSH0 PUSH3 0x4A1 PUSH1 0x1C DUP4 PUSH3 0x45B JUMP JUMPDEST SWAP2 POP PUSH3 0x4AE DUP3 PUSH3 0x46B JUMP JUMPDEST PUSH1 0x20 DUP3 ADD SWAP1 POP SWAP2 SWAP1 POP JUMP JUMPDEST PUSH0 PUSH1 0x20 DUP3 ADD SWAP1 POP DUP2 DUP2 SUB PUSH0 DUP4 ADD MSTORE PUSH3 0x4D2 DUP2 PUSH3 0x493 JUMP JUMPDEST SWAP1 POP SWAP2 SWAP1 POP JUMP JUMPDEST PUSH32 0x4261736520696E7465726573742072617465206D757374206265206772656174 PUSH0 DUP3 ADD MSTORE PUSH32 0x6572207468616E207A65726F0000000000000000000000000000000000000000 PUSH1 0x20 DUP3 ADD MSTORE POP JUMP JUMPDEST PUSH0 PUSH3 0x535 PUSH1 0x2C DUP4 PUSH3 0x45B JUMP JUMPDEST SWAP2 POP PUSH3 0x542 DUP3 PUSH3 0x4D9 JUMP JUMPDEST PUSH1 0x40 DUP3 ADD SWAP1 POP SWAP2 SWAP1 POP JUMP JUMPDEST PUSH0 PUSH1 0x20 DUP3 ADD SWAP1 POP DUP2 DUP2 SUB PUSH0 DUP4 ADD MSTORE PUSH3 0x566 DUP2 PUSH3 0x527 JUMP JUMPDEST SWAP1 POP SWAP2 SWAP1 POP JUMP JUMPDEST PUSH32 0x496E746572657374207261746520706572206475726174696F6E206D75737420 PUSH0 DUP3 ADD MSTORE PUSH32 0x62652067726561746572207468616E207A65726F000000000000000000000000 PUSH1 0x20 DUP3 ADD MSTORE POP JUMP JUMPDEST PUSH0 PUSH3 0x5C9 PUSH1 0x34 DUP4 PUSH3 0x45B JUMP JUMPDEST SWAP2 POP PUSH3 0x5D6 DUP3 PUSH3 0x56D JUMP JUMPDEST PUSH1 0x40 DUP3 ADD SWAP1 POP SWAP2 SWAP1 POP JUMP JUMPDEST PUSH0 PUSH1 0x20 DUP3 ADD SWAP1 POP DUP2 DUP2 SUB PUSH0 DUP4 ADD MSTORE PUSH3 0x5FA DUP2 PUSH3 0x5BB JUMP JUMPDEST SWAP1 POP SWAP2 SWAP1 POP JUMP JUMPDEST PUSH32 0x4D696E696D756D206475726174696F6E206D7573742062652067726561746572 PUSH0 DUP3 ADD MSTORE PUSH32 0x207468616E207A65726F00000000000000000000000000000000000000000000 PUSH1 0x20 DUP3 ADD MSTORE POP JUMP JUMPDEST PUSH0 PUSH3 0x65D PUSH1 0x2A DUP4 PUSH3 0x45B JUMP JUMPDEST SWAP2 POP PUSH3 0x66A DUP3 PUSH3 0x601 JUMP JUMPDEST PUSH1 0x40 DUP3 ADD SWAP1 POP SWAP2 SWAP1 POP JUMP JUMPDEST PUSH0 PUSH1 0x20 DUP3 ADD SWAP1 POP DUP2 DUP2 SUB PUSH0 DUP4 ADD MSTORE PUSH3 0x68E DUP2 PUSH3 0x64F JUMP JUMPDEST SWAP1 POP SWAP2 SWAP1 POP JUMP JUMPDEST PUSH2 0x1A0B DUP1 PUSH3 0x6A3 PUSH0 CODECOPY PUSH0 RETURN INVALID PUSH1 0x80 PUSH1 0x40 MSTORE CALLVALUE DUP1 ISZERO PUSH2 0xF JUMPI PUSH0 DUP1 REVERT JUMPDEST POP PUSH1 0x4 CALLDATASIZE LT PUSH2 0xB2 JUMPI PUSH0 CALLDATALOAD PUSH1 0xE0 SHR DUP1 PUSH4 0x715018A6 GT PUSH2 0x6F JUMPI DUP1 PUSH4 0x715018A6 EQ PUSH2 0x176 JUMPI DUP1 PUSH4 0x8DA5CB5B EQ PUSH2 0x180 JUMPI DUP1 PUSH4 0xAFD92762 EQ PUSH2 0x19E JUMPI DUP1 PUSH4 0xEFDD7C07 EQ PUSH2 0x1BC JUMPI DUP1 PUSH4 0xF2FDE38B EQ PUSH2 0x1EC JUMPI DUP1 PUSH4 0xFC0C546A EQ PUSH2 0x208 JUMPI PUSH2 0xB2 JUMP JUMPDEST DUP1 PUSH4 0xECBCDAB EQ PUSH2 0xB6 JUMPI DUP1 PUSH4 0x11DF5D72 EQ PUSH2 0xD2 JUMPI DUP1 PUSH4 0x155DD5EE EQ PUSH2 0xF0 JUMPI DUP1 PUSH4 0x371FD8E6 EQ PUSH2 0x10C JUMPI DUP1 PUSH4 0x478230F7 EQ PUSH2 0x128 JUMPI DUP1 PUSH4 0x56715761 EQ PUSH2 0x158 JUMPI JUMPDEST PUSH0 DUP1 REVERT JUMPDEST PUSH2 0xD0 PUSH1 0x4 DUP1 CALLDATASIZE SUB DUP2 ADD SWAP1 PUSH2 0xCB SWAP2 SWAP1 PUSH2 0x1116 JUMP JUMPDEST PUSH2 0x226 JUMP JUMPDEST STOP JUMPDEST PUSH2 0xDA PUSH2 0x4FF JUMP JUMPDEST PUSH1 0x40 MLOAD PUSH2 0xE7 SWAP2 SWAP1 PUSH2 0x1163 JUMP JUMPDEST PUSH1 0x40 MLOAD DUP1 SWAP2 SUB SWAP1 RETURN JUMPDEST PUSH2 0x10A PUSH1 0x4 DUP1 CALLDATASIZE SUB DUP2 ADD SWAP1 PUSH2 0x105 SWAP2 SWAP1 PUSH2 0x117C JUMP JUMPDEST PUSH2 0x505 JUMP JUMPDEST STOP JUMPDEST PUSH2 0x126 PUSH1 0x4 DUP1 CALLDATASIZE SUB DUP2 ADD SWAP1 PUSH2 0x121 SWAP2 SWAP1 PUSH2 0x117C JUMP JUMPDEST PUSH2 0x680 JUMP JUMPDEST STOP JUMPDEST PUSH2 0x142 PUSH1 0x4 DUP1 CALLDATASIZE SUB DUP2 ADD SWAP1 PUSH2 0x13D SWAP2 SWAP1 PUSH2 0x1201 JUMP JUMPDEST PUSH2 0x8DD JUMP JUMPDEST PUSH1 0x40 MLOAD PUSH2 0x14F SWAP2 SWAP1 PUSH2 0x1163 JUMP JUMPDEST PUSH1 0x40 MLOAD DUP1 SWAP2 SUB SWAP1 RETURN JUMPDEST PUSH2 0x160 PUSH2 0x8F2 JUMP JUMPDEST PUSH1 0x40 MLOAD PUSH2 0x16D SWAP2 SWAP1 PUSH2 0x1163 JUMP JUMPDEST PUSH1 0x40 MLOAD DUP1 SWAP2 SUB SWAP1 RETURN JUMPDEST PUSH2 0x17E PUSH2 0x8F8 JUMP JUMPDEST STOP JUMPDEST PUSH2 0x188 PUSH2 0x90B JUMP JUMPDEST PUSH1 0x40 MLOAD PUSH2 0x195 SWAP2 SWAP1 PUSH2 0x123B JUMP JUMPDEST PUSH1 0x40 MLOAD DUP1 SWAP2 SUB SWAP1 RETURN JUMPDEST PUSH2 0x1A6 PUSH2 0x932 JUMP JUMPDEST PUSH1 0x40 MLOAD PUSH2 0x1B3 SWAP2 SWAP1 PUSH2 0x1163 JUMP JUMPDEST PUSH1 0x40 MLOAD DUP1 SWAP2 SUB SWAP1 RETURN JUMPDEST PUSH2 0x1D6 PUSH1 0x4 DUP1 CALLDATASIZE SUB DUP2 ADD SWAP1 PUSH2 0x1D1 SWAP2 SWAP1 PUSH2 0x1116 JUMP JUMPDEST PUSH2 0x938 JUMP JUMPDEST PUSH1 0x40 MLOAD PUSH2 0x1E3 SWAP2 SWAP1 PUSH2 0x1163 JUMP JUMPDEST PUSH1 0x40 MLOAD DUP1 SWAP2 SUB SWAP1 RETURN JUMPDEST PUSH2 0x206 PUSH1 0x4 DUP1 CALLDATASIZE SUB DUP2 ADD SWAP1 PUSH2 0x201 SWAP2 SWAP1 PUSH2 0x1201 JUMP JUMPDEST PUSH2 0x9C6 JUMP JUMPDEST STOP JUMPDEST PUSH2 0x210 PUSH2 0xA4A JUMP JUMPDEST PUSH1 0x40 MLOAD PUSH2 0x21D SWAP2 SWAP1 PUSH2 0x12AF JUMP JUMPDEST PUSH1 0x40 MLOAD DUP1 SWAP2 SUB SWAP1 RETURN JUMPDEST PUSH2 0x22E PUSH2 0xA6F JUMP JUMPDEST PUSH0 DUP3 GT PUSH2 0x270 JUMPI PUSH1 0x40 MLOAD PUSH32 0x8C379A000000000000000000000000000000000000000000000000000000000 DUP2 MSTORE PUSH1 0x4 ADD PUSH2 0x267 SWAP1 PUSH2 0x1322 JUMP JUMPDEST PUSH1 0x40 MLOAD DUP1 SWAP2 SUB SWAP1 REVERT JUMPDEST PUSH1 0x6 SLOAD DUP2 LT ISZERO PUSH2 0x2B5 JUMPI PUSH1 0x40 MLOAD PUSH32 0x8C379A000000000000000000000000000000000000000000000000000000000 DUP2 MSTORE PUSH1 0x4 ADD PUSH2 0x2AC SWAP1 PUSH2 0x138A JUMP JUMPDEST PUSH1 0x40 MLOAD DUP1 SWAP2 SUB SWAP1 REVERT JUMPDEST PUSH0 PUSH2 0x2C0 DUP4 DUP4 PUSH2 0x938 JUMP JUMPDEST SWAP1 POP PUSH2 0x2D5 DUP2 DUP5 PUSH2 0xAB5 SWAP1 SWAP2 SWAP1 PUSH4 0xFFFFFFFF AND JUMP JUMPDEST PUSH1 0x2 PUSH0 SWAP1 SLOAD SWAP1 PUSH2 0x100 EXP SWAP1 DIV PUSH20 0xFFFFFFFFFFFFFFFFFFFFFFFFFFFFFFFFFFFFFFFF AND PUSH20 0xFFFFFFFFFFFFFFFFFFFFFFFFFFFFFFFFFFFFFFFF AND PUSH4 0x70A08231 CALLER PUSH1 0x40 MLOAD DUP3 PUSH4 0xFFFFFFFF AND PUSH1 0xE0 SHL DUP2 MSTORE PUSH1 0x4 ADD PUSH2 0x32F SWAP2 SWAP1 PUSH2 0x123B JUMP JUMPDEST PUSH1 0x20 PUSH1 0x40 MLOAD DUP1 DUP4 SUB DUP2 DUP7 GAS STATICCALL ISZERO DUP1 ISZERO PUSH2 0x34A JUMPI RETURNDATASIZE PUSH0 DUP1 RETURNDATACOPY RETURNDATASIZE PUSH0 REVERT JUMPDEST POP POP POP POP PUSH1 0x40 MLOAD RETURNDATASIZE PUSH1 0x1F NOT PUSH1 0x1F DUP3 ADD AND DUP3 ADD DUP1 PUSH1 0x40 MSTORE POP DUP2 ADD SWAP1 PUSH2 0x36E SWAP2 SWAP1 PUSH2 0x13BC JUMP JUMPDEST LT ISZERO PUSH2 0x3AF JUMPI PUSH1 0x40 MLOAD PUSH32 0x8C379A000000000000000000000000000000000000000000000000000000000 DUP2 MSTORE PUSH1 0x4 ADD PUSH2 0x3A6 SWAP1 PUSH2 0x1431 JUMP JUMPDEST PUSH1 0x40 MLOAD DUP1 SWAP2 SUB SWAP1 REVERT JUMPDEST PUSH2 0x40F CALLER ADDRESS PUSH2 0x3C7 DUP5 DUP8 PUSH2 0xAB5 SWAP1 SWAP2 SWAP1 PUSH4 0xFFFFFFFF AND JUMP JUMPDEST PUSH1 0x2 PUSH0 SWAP1 SLOAD SWAP1 PUSH2 0x100 EXP SWAP1 DIV PUSH20 0xFFFFFFFFFFFFFFFFFFFFFFFFFFFFFFFFFFFFFFFF AND PUSH20 0xFFFFFFFFFFFFFFFFFFFFFFFFFFFFFFFFFFFFFFFF AND PUSH2 0xB12 SWAP1 SWAP4 SWAP3 SWAP2 SWAP1 PUSH4 0xFFFFFFFF AND JUMP JUMPDEST PUSH2 0x45F DUP4 PUSH1 0x3 PUSH0 CALLER PUSH20 0xFFFFFFFFFFFFFFFFFFFFFFFFFFFFFFFFFFFFFFFF AND PUSH20 0xFFFFFFFFFFFFFFFFFFFFFFFFFFFFFFFFFFFFFFFF AND DUP2 MSTORE PUSH1 0x20 ADD SWAP1 DUP2 MSTORE PUSH1 0x20 ADD PUSH0 KECCAK256 SLOAD PUSH2 0xAB5 SWAP1 SWAP2 SWAP1 PUSH4 0xFFFFFFFF AND JUMP JUMPDEST PUSH1 0x3 PUSH0 CALLER PUSH20 0xFFFFFFFFFFFFFFFFFFFFFFFFFFFFFFFFFFFFFFFF AND PUSH20 0xFFFFFFFFFFFFFFFFFFFFFFFFFFFFFFFFFFFFFFFF AND DUP2 MSTORE PUSH1 0x20 ADD SWAP1 DUP2 MSTORE PUSH1 0x20 ADD PUSH0 KECCAK256 DUP2 SWAP1 SSTORE POP CALLER PUSH20 0xFFFFFFFFFFFFFFFFFFFFFFFFFFFFFFFFFFFFFFFF AND PUSH32 0x13ED6866D4E1EE6DA46F845C46D7E54120883D75C5EA9A2DACC1C4CA8984AB80 DUP5 DUP4 DUP6 PUSH1 0x40 MLOAD PUSH2 0x4EA SWAP4 SWAP3 SWAP2 SWAP1 PUSH2 0x144F JUMP JUMPDEST PUSH1 0x40 MLOAD DUP1 SWAP2 SUB SWAP1 LOG2 POP PUSH2 0x4FB PUSH2 0xB94 JUMP JUMPDEST POP POP JUMP JUMPDEST PUSH1 0x5 SLOAD DUP2 JUMP JUMPDEST PUSH2 0x50D PUSH2 0xB9D JUMP JUMPDEST PUSH0 DUP2 GT PUSH2 0x54F JUMPI PUSH1 0x40 MLOAD PUSH32 0x8C379A000000000000000000000000000000000000000000000000000000000 DUP2 MSTORE PUSH1 0x4 ADD PUSH2 0x546 SWAP1 PUSH2 0x14F4 JUMP JUMPDEST PUSH1 0x40 MLOAD DUP1 SWAP2 SUB SWAP1 REVERT JUMPDEST PUSH1 0x2 PUSH0 SWAP1 SLOAD SWAP1 PUSH2 0x100 EXP SWAP1 DIV PUSH20 0xFFFFFFFFFFFFFFFFFFFFFFFFFFFFFFFFFFFFFFFF AND PUSH20 0xFFFFFFFFFFFFFFFFFFFFFFFFFFFFFFFFFFFFFFFF AND PUSH4 0x70A08231 ADDRESS PUSH1 0x40 MLOAD DUP3 PUSH4 0xFFFFFFFF AND PUSH1 0xE0 SHL DUP2 MSTORE PUSH1 0x4 ADD PUSH2 0x5A9 SWAP2 SWAP1 PUSH2 0x123B JUMP JUMPDEST PUSH1 0x20 PUSH1 0x40 MLOAD DUP1 DUP4 SUB DUP2 DUP7 GAS STATICCALL ISZERO DUP1 ISZERO PUSH2 0x5C4 JUMPI RETURNDATASIZE PUSH0 DUP1 RETURNDATACOPY RETURNDATASIZE PUSH0 REVERT JUMPDEST POP POP POP POP PUSH1 0x40 MLOAD RETURNDATASIZE PUSH1 0x1F NOT PUSH1 0x1F DUP3 ADD AND DUP3 ADD DUP1 PUSH1 0x40 MSTORE POP DUP2 ADD SWAP1 PUSH2 0x5E8 SWAP2 SWAP1 PUSH2 0x13BC JUMP JUMPDEST DUP2 GT ISZERO PUSH2 0x62A JUMPI PUSH1 0x40 MLOAD PUSH32 0x8C379A000000000000000000000000000000000000000000000000000000000 DUP2 MSTORE PUSH1 0x4 ADD PUSH2 0x621 SWAP1 PUSH2 0x1582 JUMP JUMPDEST PUSH1 0x40 MLOAD DUP1 SWAP2 SUB SWAP1 REVERT JUMPDEST PUSH2 0x67D PUSH2 0x635 PUSH2 0x90B JUMP JUMPDEST DUP3 PUSH1 0x2 PUSH0 SWAP1 SLOAD SWAP1 PUSH2 0x100 EXP SWAP1 DIV PUSH20 0xFFFFFFFFFFFFFFFFFFFFFFFFFFFFFFFFFFFFFFFF AND PUSH20 0xFFFFFFFFFFFFFFFFFFFFFFFFFFFFFFFFFFFFFFFF AND PUSH2 0xC24 SWAP1 SWAP3 SWAP2 SWAP1 PUSH4 0xFFFFFFFF AND JUMP JUMPDEST POP JUMP JUMPDEST PUSH2 0x688 PUSH2 0xA6F JUMP JUMPDEST PUSH0 DUP2 GT PUSH2 0x6CA JUMPI PUSH1 0x40 MLOAD PUSH32 0x8C379A000000000000000000000000000000000000000000000000000000000 DUP2 MSTORE PUSH1 0x4 ADD PUSH2 0x6C1 SWAP1 PUSH2 0x1322 JUMP JUMPDEST PUSH1 0x40 MLOAD DUP1 SWAP2 SUB SWAP1 REVERT JUMPDEST DUP1 PUSH1 0x2 PUSH0 SWAP1 SLOAD SWAP1 PUSH2 0x100 EXP SWAP1 DIV PUSH20 0xFFFFFFFFFFFFFFFFFFFFFFFFFFFFFFFFFFFFFFFF AND PUSH20 0xFFFFFFFFFFFFFFFFFFFFFFFFFFFFFFFFFFFFFFFF AND PUSH4 0x70A08231 CALLER PUSH1 0x40 MLOAD DUP3 PUSH4 0xFFFFFFFF AND PUSH1 0xE0 SHL DUP2 MSTORE PUSH1 0x4 ADD PUSH2 0x725 SWAP2 SWAP1 PUSH2 0x123B JUMP JUMPDEST PUSH1 0x20 PUSH1 0x40 MLOAD DUP1 DUP4 SUB DUP2 DUP7 GAS STATICCALL ISZERO DUP1 ISZERO PUSH2 0x740 JUMPI RETURNDATASIZE PUSH0 DUP1 RETURNDATACOPY RETURNDATASIZE PUSH0 REVERT JUMPDEST POP POP POP POP PUSH1 0x40 MLOAD RETURNDATASIZE PUSH1 0x1F NOT PUSH1 0x1F DUP3 ADD AND DUP3 ADD DUP1 PUSH1 0x40 MSTORE POP DUP2 ADD SWAP1 PUSH2 0x764 SWAP2 SWAP1 PUSH2 0x13BC JUMP JUMPDEST LT ISZERO PUSH2 0x7A5 JUMPI PUSH1 0x40 MLOAD PUSH32 0x8C379A000000000000000000000000000000000000000000000000000000000 DUP2 MSTORE PUSH1 0x4 ADD PUSH2 0x79C SWAP1 PUSH2 0x1431 JUMP JUMPDEST PUSH1 0x40 MLOAD DUP1 SWAP2 SUB SWAP1 REVERT JUMPDEST PUSH2 0x7F3 CALLER ADDRESS DUP4 PUSH1 0x2 PUSH0 SWAP1 SLOAD SWAP1 PUSH2 0x100 EXP SWAP1 DIV PUSH20 0xFFFFFFFFFFFFFFFFFFFFFFFFFFFFFFFFFFFFFFFF AND PUSH20 0xFFFFFFFFFFFFFFFFFFFFFFFFFFFFFFFFFFFFFFFF AND PUSH2 0xB12 SWAP1 SWAP4 SWAP3 SWAP2 SWAP1 PUSH4 0xFFFFFFFF AND JUMP JUMPDEST PUSH2 0x843 DUP2 PUSH1 0x3 PUSH0 CALLER PUSH20 0xFFFFFFFFFFFFFFFFFFFFFFFFFFFFFFFFFFFFFFFF AND PUSH20 0xFFFFFFFFFFFFFFFFFFFFFFFFFFFFFFFFFFFFFFFF AND DUP2 MSTORE PUSH1 0x20 ADD SWAP1 DUP2 MSTORE PUSH1 0x20 ADD PUSH0 KECCAK256 SLOAD PUSH2 0xCA3 SWAP1 SWAP2 SWAP1 PUSH4 0xFFFFFFFF AND JUMP JUMPDEST PUSH1 0x3 PUSH0 CALLER PUSH20 0xFFFFFFFFFFFFFFFFFFFFFFFFFFFFFFFFFFFFFFFF AND PUSH20 0xFFFFFFFFFFFFFFFFFFFFFFFFFFFFFFFFFFFFFFFF AND DUP2 MSTORE PUSH1 0x20 ADD SWAP1 DUP2 MSTORE PUSH1 0x20 ADD PUSH0 KECCAK256 DUP2 SWAP1 SSTORE POP CALLER PUSH20 0xFFFFFFFFFFFFFFFFFFFFFFFFFFFFFFFFFFFFFFFF AND PUSH32 0x5C16DE4F8B59BD9CAF0F49A545F25819A895ED223294290B408242E72A594231 DUP3 PUSH1 0x40 MLOAD PUSH2 0x8CA SWAP2 SWAP1 PUSH2 0x1163 JUMP JUMPDEST PUSH1 0x40 MLOAD DUP1 SWAP2 SUB SWAP1 LOG2 PUSH2 0x8DA PUSH2 0xB94 JUMP JUMPDEST POP JUMP JUMPDEST PUSH1 0x3 PUSH1 0x20 MSTORE DUP1 PUSH0 MSTORE PUSH1 0x40 PUSH0 KECCAK256 PUSH0 SWAP2 POP SWAP1 POP SLOAD DUP2 JUMP JUMPDEST PUSH1 0x6 SLOAD DUP2 JUMP JUMPDEST PUSH2 0x900 PUSH2 0xB9D JUMP JUMPDEST PUSH2 0x909 PUSH0 PUSH2 0xD00 JUMP JUMPDEST JUMP JUMPDEST PUSH0 DUP1 PUSH0 SWAP1 SLOAD SWAP1 PUSH2 0x100 EXP SWAP1 DIV PUSH20 0xFFFFFFFFFFFFFFFFFFFFFFFFFFFFFFFFFFFFFFFF AND SWAP1 POP SWAP1 JUMP JUMPDEST PUSH1 0x4 SLOAD DUP2 JUMP JUMPDEST PUSH0 DUP1 PUSH2 0x963 PUSH2 0x2710 PUSH2 0x955 PUSH1 0x4 SLOAD DUP8 PUSH2 0xDC1 SWAP1 SWAP2 SWAP1 PUSH4 0xFFFFFFFF AND JUMP JUMPDEST PUSH2 0xE38 SWAP1 SWAP2 SWAP1 PUSH4 0xFFFFFFFF AND JUMP JUMPDEST SWAP1 POP PUSH0 PUSH2 0x9A7 PUSH8 0xDE0B6B3A7640000 PUSH2 0x999 DUP7 PUSH2 0x98B PUSH1 0x5 SLOAD DUP11 PUSH2 0xDC1 SWAP1 SWAP2 SWAP1 PUSH4 0xFFFFFFFF AND JUMP JUMPDEST PUSH2 0xDC1 SWAP1 SWAP2 SWAP1 PUSH4 0xFFFFFFFF AND JUMP JUMPDEST PUSH2 0xE38 SWAP1 SWAP2 SWAP1 PUSH4 0xFFFFFFFF AND JUMP JUMPDEST SWAP1 POP PUSH2 0x9BC DUP2 DUP4 PUSH2 0xAB5 SWAP1 SWAP2 SWAP1 PUSH4 0xFFFFFFFF AND JUMP JUMPDEST SWAP3 POP POP POP SWAP3 SWAP2 POP POP JUMP JUMPDEST PUSH2 0x9CE PUSH2 0xB9D JUMP JUMPDEST PUSH0 PUSH20 0xFFFFFFFFFFFFFFFFFFFFFFFFFFFFFFFFFFFFFFFF AND DUP2 PUSH20 0xFFFFFFFFFFFFFFFFFFFFFFFFFFFFFFFFFFFFFFFF AND SUB PUSH2 0xA3E JUMPI PUSH0 PUSH1 0x40 MLOAD PUSH32 0x1E4FBDF700000000000000000000000000000000000000000000000000000000 DUP2 MSTORE PUSH1 0x4 ADD PUSH2 0xA35 SWAP2 SWAP1 PUSH2 0x123B JUMP JUMPDEST PUSH1 0x40 MLOAD DUP1 SWAP2 SUB SWAP1 REVERT JUMPDEST PUSH2 0xA47 DUP2 PUSH2 0xD00 JUMP JUMPDEST POP JUMP JUMPDEST PUSH1 0x2 PUSH0 SWAP1 SLOAD SWAP1 PUSH2 0x100 EXP SWAP1 DIV PUSH20 0xFFFFFFFFFFFFFFFFFFFFFFFFFFFFFFFFFFFFFFFF AND DUP2 JUMP JUMPDEST PUSH1 0x2 PUSH1 0x1 SLOAD SUB PUSH2 0xAAB JUMPI PUSH1 0x40 MLOAD PUSH32 0x3EE5AEB500000000000000000000000000000000000000000000000000000000 DUP2 MSTORE PUSH1 0x4 ADD PUSH1 0x40 MLOAD DUP1 SWAP2 SUB SWAP1 REVERT JUMPDEST PUSH1 0x2 PUSH1 0x1 DUP2 SWAP1 SSTORE POP JUMP JUMPDEST PUSH0 DUP1 DUP3 DUP5 PUSH2 0xAC3 SWAP2 SWAP1 PUSH2 0x15CD JUMP JUMPDEST SWAP1 POP DUP4 DUP2 LT ISZERO PUSH2 0xB08 JUMPI PUSH1 0x40 MLOAD PUSH32 0x8C379A000000000000000000000000000000000000000000000000000000000 DUP2 MSTORE PUSH1 0x4 ADD PUSH2 0xAFF SWAP1 PUSH2 0x164A JUMP JUMPDEST PUSH1 0x40 MLOAD DUP1 SWAP2 SUB SWAP1 REVERT JUMPDEST DUP1 SWAP2 POP POP SWAP3 SWAP2 POP POP JUMP JUMPDEST PUSH2 0xB8E DUP5 DUP6 PUSH20 0xFFFFFFFFFFFFFFFFFFFFFFFFFFFFFFFFFFFFFFFF AND PUSH4 0x23B872DD DUP7 DUP7 DUP7 PUSH1 0x40 MLOAD PUSH1 0x24 ADD PUSH2 0xB47 SWAP4 SWAP3 SWAP2 SWAP1 PUSH2 0x1668 JUMP JUMPDEST PUSH1 0x40 MLOAD PUSH1 0x20 DUP2 DUP4 SUB SUB DUP2 MSTORE SWAP1 PUSH1 0x40 MSTORE SWAP2 POP PUSH1 0xE0 SHL PUSH1 0x20 DUP3 ADD DUP1 MLOAD PUSH28 0xFFFFFFFFFFFFFFFFFFFFFFFFFFFFFFFFFFFFFFFFFFFFFFFFFFFFFFFF DUP4 DUP2 DUP4 AND OR DUP4 MSTORE POP POP POP POP PUSH2 0xE94 JUMP JUMPDEST POP POP POP POP JUMP JUMPDEST PUSH1 0x1 DUP1 DUP2 SWAP1 SSTORE POP JUMP JUMPDEST PUSH2 0xBA5 PUSH2 0xF29 JUMP JUMPDEST PUSH20 0xFFFFFFFFFFFFFFFFFFFFFFFFFFFFFFFFFFFFFFFF AND PUSH2 0xBC3 PUSH2 0x90B JUMP JUMPDEST PUSH20 0xFFFFFFFFFFFFFFFFFFFFFFFFFFFFFFFFFFFFFFFF AND EQ PUSH2 0xC22 JUMPI PUSH2 0xBE6 PUSH2 0xF29 JUMP JUMPDEST PUSH1 0x40 MLOAD PUSH32 0x118CDAA700000000000000000000000000000000000000000000000000000000 DUP2 MSTORE PUSH1 0x4 ADD PUSH2 0xC19 SWAP2 SWAP1 PUSH2 0x123B JUMP JUMPDEST PUSH1 0x40 MLOAD DUP1 SWAP2 SUB SWAP1 REVERT JUMPDEST JUMP JUMPDEST PUSH2 0xC9E DUP4 DUP5 PUSH20 0xFFFFFFFFFFFFFFFFFFFFFFFFFFFFFFFFFFFFFFFF AND PUSH4 0xA9059CBB DUP6 DUP6 PUSH1 0x40 MLOAD PUSH1 0x24 ADD PUSH2 0xC57 SWAP3 SWAP2 SWAP1 PUSH2 0x169D JUMP JUMPDEST PUSH1 0x40 MLOAD PUSH1 0x20 DUP2 DUP4 SUB SUB DUP2 MSTORE SWAP1 PUSH1 0x40 MSTORE SWAP2 POP PUSH1 0xE0 SHL PUSH1 0x20 DUP3 ADD DUP1 MLOAD PUSH28 0xFFFFFFFFFFFFFFFFFFFFFFFFFFFFFFFFFFFFFFFFFFFFFFFFFFFFFFFF DUP4 DUP2 DUP4 AND OR DUP4 MSTORE POP POP POP POP PUSH2 0xE94 JUMP JUMPDEST POP POP POP JUMP JUMPDEST PUSH0 DUP3 DUP3 GT ISZERO PUSH2 0xCE7 JUMPI PUSH1 0x40 MLOAD PUSH32 0x8C379A000000000000000000000000000000000000000000000000000000000 DUP2 MSTORE PUSH1 0x4 ADD PUSH2 0xCDE SWAP1 PUSH2 0x170E JUMP JUMPDEST PUSH1 0x40 MLOAD DUP1 SWAP2 SUB SWAP1 REVERT JUMPDEST PUSH0 DUP3 DUP5 PUSH2 0xCF4 SWAP2 SWAP1 PUSH2 0x172C JUMP JUMPDEST SWAP1 POP DUP1 SWAP2 POP POP SWAP3 SWAP2 POP POP JUMP JUMPDEST PUSH0 DUP1 PUSH0 SWAP1 SLOAD SWAP1 PUSH2 0x100 EXP SWAP1 DIV PUSH20 0xFFFFFFFFFFFFFFFFFFFFFFFFFFFFFFFFFFFFFFFF AND SWAP1 POP DUP2 PUSH0 DUP1 PUSH2 0x100 EXP DUP2 SLOAD DUP2 PUSH20 0xFFFFFFFFFFFFFFFFFFFFFFFFFFFFFFFFFFFFFFFF MUL NOT AND SWAP1 DUP4 PUSH20 0xFFFFFFFFFFFFFFFFFFFFFFFFFFFFFFFFFFFFFFFF AND MUL OR SWAP1 SSTORE POP DUP2 PUSH20 0xFFFFFFFFFFFFFFFFFFFFFFFFFFFFFFFFFFFFFFFF AND DUP2 PUSH20 0xFFFFFFFFFFFFFFFFFFFFFFFFFFFFFFFFFFFFFFFF AND PUSH32 0x8BE0079C531659141344CD1FD0A4F28419497F9722A3DAAFE3B4186F6B6457E0 PUSH1 0x40 MLOAD PUSH1 0x40 MLOAD DUP1 SWAP2 SUB SWAP1 LOG3 POP POP JUMP JUMPDEST PUSH0 DUP1 DUP4 SUB PUSH2 0xDD1 JUMPI PUSH0 SWAP1 POP PUSH2 0xE32 JUMP JUMPDEST PUSH0 DUP3 DUP5 PUSH2 0xDDE SWAP2 SWAP1 PUSH2 0x175F JUMP JUMPDEST SWAP1 POP DUP3 DUP5 DUP3 PUSH2 0xDED SWAP2 SWAP1 PUSH2 0x17CD JUMP JUMPDEST EQ PUSH2 0xE2D JUMPI PUSH1 0x40 MLOAD PUSH32 0x8C379A000000000000000000000000000000000000000000000000000000000 DUP2 MSTORE PUSH1 0x4 ADD PUSH2 0xE24 SWAP1 PUSH2 0x186D JUMP JUMPDEST PUSH1 0x40 MLOAD DUP1 SWAP2 SUB SWAP1 REVERT JUMPDEST DUP1 SWAP2 POP POP JUMPDEST SWAP3 SWAP2 POP POP JUMP JUMPDEST PUSH0 DUP1 DUP3 GT PUSH2 0xE7B JUMPI PUSH1 0x40 MLOAD PUSH32 0x8C379A000000000000000000000000000000000000000000000000000000000 DUP2 MSTORE PUSH1 0x4 ADD PUSH2 0xE72 SWAP1 PUSH2 0x18D5 JUMP JUMPDEST PUSH1 0x40 MLOAD DUP1 SWAP2 SUB SWAP1 REVERT JUMPDEST PUSH0 DUP3 DUP5 PUSH2 0xE88 SWAP2 SWAP1 PUSH2 0x17CD JUMP JUMPDEST SWAP1 POP DUP1 SWAP2 POP POP SWAP3 SWAP2 POP POP JUMP JUMPDEST PUSH0 PUSH2 0xEBE DUP3 DUP5 PUSH20 0xFFFFFFFFFFFFFFFFFFFFFFFFFFFFFFFFFFFFFFFF AND PUSH2 0xF30 SWAP1 SWAP2 SWAP1 PUSH4 0xFFFFFFFF AND JUMP JUMPDEST SWAP1 POP PUSH0 DUP2 MLOAD EQ ISZERO DUP1 ISZERO PUSH2 0xEE2 JUMPI POP DUP1 DUP1 PUSH1 0x20 ADD SWAP1 MLOAD DUP2 ADD SWAP1 PUSH2 0xEE0 SWAP2 SWAP1 PUSH2 0x1928 JUMP JUMPDEST ISZERO JUMPDEST ISZERO PUSH2 0xF24 JUMPI DUP3 PUSH1 0x40 MLOAD PUSH32 0x5274AFE700000000000000000000000000000000000000000000000000000000 DUP2 MSTORE PUSH1 0x4 ADD PUSH2 0xF1B SWAP2 SWAP1 PUSH2 0x123B JUMP JUMPDEST PUSH1 0x40 MLOAD DUP1 SWAP2 SUB SWAP1 REVERT JUMPDEST POP POP POP JUMP JUMPDEST PUSH0 CALLER SWAP1 POP SWAP1 JUMP JUMPDEST PUSH1 0x60 PUSH2 0xF3D DUP4 DUP4 PUSH0 PUSH2 0xF45 JUMP JUMPDEST SWAP1 POP SWAP3 SWAP2 POP POP JUMP JUMPDEST PUSH1 0x60 DUP2 SELFBALANCE LT ISZERO PUSH2 0xF8C JUMPI ADDRESS PUSH1 0x40 MLOAD PUSH32 0xCD78605900000000000000000000000000000000000000000000000000000000 DUP2 MSTORE PUSH1 0x4 ADD PUSH2 0xF83 SWAP2 SWAP1 PUSH2 0x123B JUMP JUMPDEST PUSH1 0x40 MLOAD DUP1 SWAP2 SUB SWAP1 REVERT JUMPDEST PUSH0 DUP1 DUP6 PUSH20 0xFFFFFFFFFFFFFFFFFFFFFFFFFFFFFFFFFFFFFFFF AND DUP5 DUP7 PUSH1 0x40 MLOAD PUSH2 0xFB4 SWAP2 SWAP1 PUSH2 0x19BF JUMP JUMPDEST PUSH0 PUSH1 0x40 MLOAD DUP1 DUP4 SUB DUP2 DUP6 DUP8 GAS CALL SWAP3 POP POP POP RETURNDATASIZE DUP1 PUSH0 DUP2 EQ PUSH2 0xFEE JUMPI PUSH1 0x40 MLOAD SWAP2 POP PUSH1 0x1F NOT PUSH1 0x3F RETURNDATASIZE ADD AND DUP3 ADD PUSH1 0x40 MSTORE RETURNDATASIZE DUP3 MSTORE RETURNDATASIZE PUSH0 PUSH1 0x20 DUP5 ADD RETURNDATACOPY PUSH2 0xFF3 JUMP JUMPDEST PUSH1 0x60 SWAP2 POP JUMPDEST POP SWAP2 POP SWAP2 POP PUSH2 0x1003 DUP7 DUP4 DUP4 PUSH2 0x100E JUMP JUMPDEST SWAP3 POP POP POP SWAP4 SWAP3 POP POP POP JUMP JUMPDEST PUSH1 0x60 DUP3 PUSH2 0x1023 JUMPI PUSH2 0x101E DUP3 PUSH2 0x109B JUMP JUMPDEST PUSH2 0x1093 JUMP JUMPDEST PUSH0 DUP3 MLOAD EQ DUP1 ISZERO PUSH2 0x1049 JUMPI POP PUSH0 DUP5 PUSH20 0xFFFFFFFFFFFFFFFFFFFFFFFFFFFFFFFFFFFFFFFF AND EXTCODESIZE EQ JUMPDEST ISZERO PUSH2 0x108B JUMPI DUP4 PUSH1 0x40 MLOAD PUSH32 0x9996B31500000000000000000000000000000000000000000000000000000000 DUP2 MSTORE PUSH1 0x4 ADD PUSH2 0x1082 SWAP2 SWAP1 PUSH2 0x123B JUMP JUMPDEST PUSH1 0x40 MLOAD DUP1 SWAP2 SUB SWAP1 REVERT JUMPDEST DUP2 SWAP1 POP PUSH2 0x1094 JUMP JUMPDEST JUMPDEST SWAP4 SWAP3 POP POP POP JUMP JUMPDEST PUSH0 DUP2 MLOAD GT ISZERO PUSH2 0x10AD JUMPI DUP1 MLOAD DUP1 DUP3 PUSH1 0x20 ADD REVERT JUMPDEST PUSH1 0x40 MLOAD PUSH32 0x1425EA4200000000000000000000000000000000000000000000000000000000 DUP2 MSTORE PUSH1 0x4 ADD PUSH1 0x40 MLOAD DUP1 SWAP2 SUB SWAP1 REVERT JUMPDEST PUSH0 DUP1 REVERT JUMPDEST PUSH0 DUP2 SWAP1 POP SWAP2 SWAP1 POP JUMP JUMPDEST PUSH2 0x10F5 DUP2 PUSH2 0x10E3 JUMP JUMPDEST DUP2 EQ PUSH2 0x10FF JUMPI PUSH0 DUP1 REVERT JUMPDEST POP JUMP JUMPDEST PUSH0 DUP2 CALLDATALOAD SWAP1 POP PUSH2 0x1110 DUP2 PUSH2 0x10EC JUMP JUMPDEST SWAP3 SWAP2 POP POP JUMP JUMPDEST PUSH0 DUP1 PUSH1 0x40 DUP4 DUP6 SUB SLT ISZERO PUSH2 0x112C JUMPI PUSH2 0x112B PUSH2 0x10DF JUMP JUMPDEST JUMPDEST PUSH0 PUSH2 0x1139 DUP6 DUP3 DUP7 ADD PUSH2 0x1102 JUMP JUMPDEST SWAP3 POP POP PUSH1 0x20 PUSH2 0x114A DUP6 DUP3 DUP7 ADD PUSH2 0x1102 JUMP JUMPDEST SWAP2 POP POP SWAP3 POP SWAP3 SWAP1 POP JUMP JUMPDEST PUSH2 0x115D DUP2 PUSH2 0x10E3 JUMP JUMPDEST DUP3 MSTORE POP POP JUMP JUMPDEST PUSH0 PUSH1 0x20 DUP3 ADD SWAP1 POP PUSH2 0x1176 PUSH0 DUP4 ADD DUP5 PUSH2 0x1154 JUMP JUMPDEST SWAP3 SWAP2 POP POP JUMP JUMPDEST PUSH0 PUSH1 0x20 DUP3 DUP5 SUB SLT ISZERO PUSH2 0x1191 JUMPI PUSH2 0x1190 PUSH2 0x10DF JUMP JUMPDEST JUMPDEST PUSH0 PUSH2 0x119E DUP5 DUP3 DUP6 ADD PUSH2 0x1102 JUMP JUMPDEST SWAP2 POP POP SWAP3 SWAP2 POP POP JUMP JUMPDEST PUSH0 PUSH20 0xFFFFFFFFFFFFFFFFFFFFFFFFFFFFFFFFFFFFFFFF DUP3 AND SWAP1 POP SWAP2 SWAP1 POP JUMP JUMPDEST PUSH0 PUSH2 0x11D0 DUP3 PUSH2 0x11A7 JUMP JUMPDEST SWAP1 POP SWAP2 SWAP1 POP JUMP JUMPDEST PUSH2 0x11E0 DUP2 PUSH2 0x11C6 JUMP JUMPDEST DUP2 EQ PUSH2 0x11EA JUMPI PUSH0 DUP1 REVERT JUMPDEST POP JUMP JUMPDEST PUSH0 DUP2 CALLDATALOAD SWAP1 POP PUSH2 0x11FB DUP2 PUSH2 0x11D7 JUMP JUMPDEST SWAP3 SWAP2 POP POP JUMP JUMPDEST PUSH0 PUSH1 0x20 DUP3 DUP5 SUB SLT ISZERO PUSH2 0x1216 JUMPI PUSH2 0x1215 PUSH2 0x10DF JUMP JUMPDEST JUMPDEST PUSH0 PUSH2 0x1223 DUP5 DUP3 DUP6 ADD PUSH2 0x11ED JUMP JUMPDEST SWAP2 POP POP SWAP3 SWAP2 POP POP JUMP JUMPDEST PUSH2 0x1235 DUP2 PUSH2 0x11C6 JUMP JUMPDEST DUP3 MSTORE POP POP JUMP JUMPDEST PUSH0 PUSH1 0x20 DUP3 ADD SWAP1 POP PUSH2 0x124E PUSH0 DUP4 ADD DUP5 PUSH2 0x122C JUMP JUMPDEST SWAP3 SWAP2 POP POP JUMP JUMPDEST PUSH0 DUP2 SWAP1 POP SWAP2 SWAP1 POP JUMP JUMPDEST PUSH0 PUSH2 0x1277 PUSH2 0x1272 PUSH2 0x126D DUP5 PUSH2 0x11A7 JUMP JUMPDEST PUSH2 0x1254 JUMP JUMPDEST PUSH2 0x11A7 JUMP JUMPDEST SWAP1 POP SWAP2 SWAP1 POP JUMP JUMPDEST PUSH0 PUSH2 0x1288 DUP3 PUSH2 0x125D JUMP JUMPDEST SWAP1 POP SWAP2 SWAP1 POP JUMP JUMPDEST PUSH0 PUSH2 0x1299 DUP3 PUSH2 0x127E JUMP JUMPDEST SWAP1 POP SWAP2 SWAP1 POP JUMP JUMPDEST PUSH2 0x12A9 DUP2 PUSH2 0x128F JUMP JUMPDEST DUP3 MSTORE POP POP JUMP JUMPDEST PUSH0 PUSH1 0x20 DUP3 ADD SWAP1 POP PUSH2 0x12C2 PUSH0 DUP4 ADD DUP5 PUSH2 0x12A0 JUMP JUMPDEST SWAP3 SWAP2 POP POP JUMP JUMPDEST PUSH0 DUP3 DUP3 MSTORE PUSH1 0x20 DUP3 ADD SWAP1 POP SWAP3 SWAP2 POP POP JUMP JUMPDEST PUSH32 0x416D6F756E74206D7573742062652067726561746572207468616E207A65726F PUSH0 DUP3 ADD MSTORE POP JUMP JUMPDEST PUSH0 PUSH2 0x130C PUSH1 0x20 DUP4 PUSH2 0x12C8 JUMP JUMPDEST SWAP2 POP PUSH2 0x1317 DUP3 PUSH2 0x12D8 JUMP JUMPDEST PUSH1 0x20 DUP3 ADD SWAP1 POP SWAP2 SWAP1 POP JUMP JUMPDEST PUSH0 PUSH1 0x20 DUP3 ADD SWAP1 POP DUP2 DUP2 SUB PUSH0 DUP4 ADD MSTORE PUSH2 0x1339 DUP2 PUSH2 0x1300 JUMP JUMPDEST SWAP1 POP SWAP2 SWAP1 POP JUMP JUMPDEST PUSH32 0x4475726174696F6E2062656C6F77206D696E696D756D20616C6C6F7765640000 PUSH0 DUP3 ADD MSTORE POP JUMP JUMPDEST PUSH0 PUSH2 0x1374 PUSH1 0x1E DUP4 PUSH2 0x12C8 JUMP JUMPDEST SWAP2 POP PUSH2 0x137F DUP3 PUSH2 0x1340 JUMP JUMPDEST PUSH1 0x20 DUP3 ADD SWAP1 POP SWAP2 SWAP1 POP JUMP JUMPDEST PUSH0 PUSH1 0x20 DUP3 ADD SWAP1 POP DUP2 DUP2 SUB PUSH0 DUP4 ADD MSTORE PUSH2 0x13A1 DUP2 PUSH2 0x1368 JUMP JUMPDEST SWAP1 POP SWAP2 SWAP1 POP JUMP JUMPDEST PUSH0 DUP2 MLOAD SWAP1 POP PUSH2 0x13B6 DUP2 PUSH2 0x10EC JUMP JUMPDEST SWAP3 SWAP2 POP POP JUMP JUMPDEST PUSH0 PUSH1 0x20 DUP3 DUP5 SUB SLT ISZERO PUSH2 0x13D1 JUMPI PUSH2 0x13D0 PUSH2 0x10DF JUMP JUMPDEST JUMPDEST PUSH0 PUSH2 0x13DE DUP5 DUP3 DUP6 ADD PUSH2 0x13A8 JUMP JUMPDEST SWAP2 POP POP SWAP3 SWAP2 POP POP JUMP JUMPDEST PUSH32 0x496E73756666696369656E742062616C616E6365000000000000000000000000 PUSH0 DUP3 ADD MSTORE POP JUMP JUMPDEST PUSH0 PUSH2 0x141B PUSH1 0x14 DUP4 PUSH2 0x12C8 JUMP JUMPDEST SWAP2 POP PUSH2 0x1426 DUP3 PUSH2 0x13E7 JUMP JUMPDEST PUSH1 0x20 DUP3 ADD SWAP1 POP SWAP2 SWAP1 POP JUMP JUMPDEST PUSH0 PUSH1 0x20 DUP3 ADD SWAP1 POP DUP2 DUP2 SUB PUSH0 DUP4 ADD MSTORE PUSH2 0x1448 DUP2 PUSH2 0x140F JUMP JUMPDEST SWAP1 POP SWAP2 SWAP1 POP JUMP JUMPDEST PUSH0 PUSH1 0x60 DUP3 ADD SWAP1 POP PUSH2 0x1462 PUSH0 DUP4 ADD DUP7 PUSH2 0x1154 JUMP JUMPDEST PUSH2 0x146F PUSH1 0x20 DUP4 ADD DUP6 PUSH2 0x1154 JUMP JUMPDEST PUSH2 0x147C PUSH1 0x40 DUP4 ADD DUP5 PUSH2 0x1154 JUMP JUMPDEST SWAP5 SWAP4 POP POP POP POP JUMP JUMPDEST PUSH32 0x5769746864726177616C20616D6F756E74206D75737420626520677265617465 PUSH0 DUP3 ADD MSTORE PUSH32 0x72207468616E207A65726F000000000000000000000000000000000000000000 PUSH1 0x20 DUP3 ADD MSTORE POP JUMP JUMPDEST PUSH0 PUSH2 0x14DE PUSH1 0x2B DUP4 PUSH2 0x12C8 JUMP JUMPDEST SWAP2 POP PUSH2 0x14E9 DUP3 PUSH2 0x1484 JUMP JUMPDEST PUSH1 0x40 DUP3 ADD SWAP1 POP SWAP2 SWAP1 POP JUMP JUMPDEST PUSH0 PUSH1 0x20 DUP3 ADD SWAP1 POP DUP2 DUP2 SUB PUSH0 DUP4 ADD MSTORE PUSH2 0x150B DUP2 PUSH2 0x14D2 JUMP JUMPDEST SWAP1 POP SWAP2 SWAP1 POP JUMP JUMPDEST PUSH32 0x496E73756666696369656E742066756E647320696E2074686520636F6E747261 PUSH0 DUP3 ADD MSTORE PUSH32 0x6374000000000000000000000000000000000000000000000000000000000000 PUSH1 0x20 DUP3 ADD MSTORE POP JUMP JUMPDEST PUSH0 PUSH2 0x156C PUSH1 0x22 DUP4 PUSH2 0x12C8 JUMP JUMPDEST SWAP2 POP PUSH2 0x1577 DUP3 PUSH2 0x1512 JUMP JUMPDEST PUSH1 0x40 DUP3 ADD SWAP1 POP SWAP2 SWAP1 POP JUMP JUMPDEST PUSH0 PUSH1 0x20 DUP3 ADD SWAP1 POP DUP2 DUP2 SUB PUSH0 DUP4 ADD MSTORE PUSH2 0x1599 DUP2 PUSH2 0x1560 JUMP JUMPDEST SWAP1 POP SWAP2 SWAP1 POP JUMP JUMPDEST PUSH32 0x4E487B7100000000000000000000000000000000000000000000000000000000 PUSH0 MSTORE PUSH1 0x11 PUSH1 0x4 MSTORE PUSH1 0x24 PUSH0 REVERT JUMPDEST PUSH0 PUSH2 0x15D7 DUP3 PUSH2 0x10E3 JUMP JUMPDEST SWAP2 POP PUSH2 0x15E2 DUP4 PUSH2 0x10E3 JUMP JUMPDEST SWAP3 POP DUP3 DUP3 ADD SWAP1 POP DUP1 DUP3 GT ISZERO PUSH2 0x15FA JUMPI PUSH2 0x15F9 PUSH2 0x15A0 JUMP JUMPDEST JUMPDEST SWAP3 SWAP2 POP POP JUMP JUMPDEST PUSH32 0x536166654D6174683A206164646974696F6E206F766572666C6F770000000000 PUSH0 DUP3 ADD MSTORE POP JUMP JUMPDEST PUSH0 PUSH2 0x1634 PUSH1 0x1B DUP4 PUSH2 0x12C8 JUMP JUMPDEST SWAP2 POP PUSH2 0x163F DUP3 PUSH2 0x1600 JUMP JUMPDEST PUSH1 0x20 DUP3 ADD SWAP1 POP SWAP2 SWAP1 POP JUMP JUMPDEST PUSH0 PUSH1 0x20 DUP3 ADD SWAP1 POP DUP2 DUP2 SUB PUSH0 DUP4 ADD MSTORE PUSH2 0x1661 DUP2 PUSH2 0x1628 JUMP JUMPDEST SWAP1 POP SWAP2 SWAP1 POP JUMP JUMPDEST PUSH0 PUSH1 0x60 DUP3 ADD SWAP1 POP PUSH2 0x167B PUSH0 DUP4 ADD DUP7 PUSH2 0x122C JUMP JUMPDEST PUSH2 0x1688 PUSH1 0x20 DUP4 ADD DUP6 PUSH2 0x122C JUMP JUMPDEST PUSH2 0x1695 PUSH1 0x40 DUP4 ADD DUP5 PUSH2 0x1154 JUMP JUMPDEST SWAP5 SWAP4 POP POP POP POP JUMP JUMPDEST PUSH0 PUSH1 0x40 DUP3 ADD SWAP1 POP PUSH2 0x16B0 PUSH0 DUP4 ADD DUP6 PUSH2 0x122C JUMP JUMPDEST PUSH2 0x16BD PUSH1 0x20 DUP4 ADD DUP5 PUSH2 0x1154 JUMP JUMPDEST SWAP4 SWAP3 POP POP POP JUMP JUMPDEST PUSH32 0x536166654D6174683A207375627472616374696F6E206F766572666C6F770000 PUSH0 DUP3 ADD MSTORE POP JUMP JUMPDEST PUSH0 PUSH2 0x16F8 PUSH1 0x1E DUP4 PUSH2 0x12C8 JUMP JUMPDEST SWAP2 POP PUSH2 0x1703 DUP3 PUSH2 0x16C4 JUMP JUMPDEST PUSH1 0x20 DUP3 ADD SWAP1 POP SWAP2 SWAP1 POP JUMP JUMPDEST PUSH0 PUSH1 0x20 DUP3 ADD SWAP1 POP DUP2 DUP2 SUB PUSH0 DUP4 ADD MSTORE PUSH2 0x1725 DUP2 PUSH2 0x16EC JUMP JUMPDEST SWAP1 POP SWAP2 SWAP1 POP JUMP JUMPDEST PUSH0 PUSH2 0x1736 DUP3 PUSH2 0x10E3 JUMP JUMPDEST SWAP2 POP PUSH2 0x1741 DUP4 PUSH2 0x10E3 JUMP JUMPDEST SWAP3 POP DUP3 DUP3 SUB SWAP1 POP DUP2 DUP2 GT ISZERO PUSH2 0x1759 JUMPI PUSH2 0x1758 PUSH2 0x15A0 JUMP JUMPDEST JUMPDEST SWAP3 SWAP2 POP POP JUMP JUMPDEST PUSH0 PUSH2 0x1769 DUP3 PUSH2 0x10E3 JUMP JUMPDEST SWAP2 POP PUSH2 0x1774 DUP4 PUSH2 0x10E3 JUMP JUMPDEST SWAP3 POP DUP3 DUP3 MUL PUSH2 0x1782 DUP2 PUSH2 0x10E3 JUMP JUMPDEST SWAP2 POP DUP3 DUP3 DIV DUP5 EQ DUP4 ISZERO OR PUSH2 0x1799 JUMPI PUSH2 0x1798 PUSH2 0x15A0 JUMP JUMPDEST JUMPDEST POP SWAP3 SWAP2 POP POP JUMP JUMPDEST PUSH32 0x4E487B7100000000000000000000000000000000000000000000000000000000 PUSH0 MSTORE PUSH1 0x12 PUSH1 0x4 MSTORE PUSH1 0x24 PUSH0 REVERT JUMPDEST PUSH0 PUSH2 0x17D7 DUP3 PUSH2 0x10E3 JUMP JUMPDEST SWAP2 POP PUSH2 0x17E2 DUP4 PUSH2 0x10E3 JUMP JUMPDEST SWAP3 POP DUP3 PUSH2 0x17F2 JUMPI PUSH2 0x17F1 PUSH2 0x17A0 JUMP JUMPDEST JUMPDEST DUP3 DUP3 DIV SWAP1 POP SWAP3 SWAP2 POP POP JUMP JUMPDEST PUSH32 0x536166654D6174683A206D756C7469706C69636174696F6E206F766572666C6F PUSH0 DUP3 ADD MSTORE PUSH32 0x7700000000000000000000000000000000000000000000000000000000000000 PUSH1 0x20 DUP3 ADD MSTORE POP JUMP JUMPDEST PUSH0 PUSH2 0x1857 PUSH1 0x21 DUP4 PUSH2 0x12C8 JUMP JUMPDEST SWAP2 POP PUSH2 0x1862 DUP3 PUSH2 0x17FD JUMP JUMPDEST PUSH1 0x40 DUP3 ADD SWAP1 POP SWAP2 SWAP1 POP JUMP JUMPDEST PUSH0 PUSH1 0x20 DUP3 ADD SWAP1 POP DUP2 DUP2 SUB PUSH0 DUP4 ADD MSTORE PUSH2 0x1884 DUP2 PUSH2 0x184B JUMP JUMPDEST SWAP1 POP SWAP2 SWAP1 POP JUMP JUMPDEST PUSH32 0x536166654D6174683A206469766973696F6E206279207A65726F000000000000 PUSH0 DUP3 ADD MSTORE POP JUMP JUMPDEST PUSH0 PUSH2 0x18BF PUSH1 0x1A DUP4 PUSH2 0x12C8 JUMP JUMPDEST SWAP2 POP PUSH2 0x18CA DUP3 PUSH2 0x188B JUMP JUMPDEST PUSH1 0x20 DUP3 ADD SWAP1 POP SWAP2 SWAP1 POP JUMP JUMPDEST PUSH0 PUSH1 0x20 DUP3 ADD SWAP1 POP DUP2 DUP2 SUB PUSH0 DUP4 ADD MSTORE PUSH2 0x18EC DUP2 PUSH2 0x18B3 JUMP JUMPDEST SWAP1 POP SWAP2 SWAP1 POP JUMP JUMPDEST PUSH0 DUP2 ISZERO ISZERO SWAP1 POP SWAP2 SWAP1 POP JUMP JUMPDEST PUSH2 0x1907 DUP2 PUSH2 0x18F3 JUMP JUMPDEST DUP2 EQ PUSH2 0x1911 JUMPI PUSH0 DUP1 REVERT JUMPDEST POP JUMP JUMPDEST PUSH0 DUP2 MLOAD SWAP1 POP PUSH2 0x1922 DUP2 PUSH2 0x18FE JUMP JUMPDEST SWAP3 SWAP2 POP POP JUMP JUMPDEST PUSH0 PUSH1 0x20 DUP3 DUP5 SUB SLT ISZERO PUSH2 0x193D JUMPI PUSH2 0x193C PUSH2 0x10DF JUMP JUMPDEST JUMPDEST PUSH0 PUSH2 0x194A DUP5 DUP3 DUP6 ADD PUSH2 0x1914 JUMP JUMPDEST SWAP2 POP POP SWAP3 SWAP2 POP POP JUMP JUMPDEST PUSH0 DUP2 MLOAD SWAP1 POP SWAP2 SWAP1 POP JUMP JUMPDEST PUSH0 DUP2 SWAP1 POP SWAP3 SWAP2 POP POP JUMP JUMPDEST PUSH0 JUMPDEST DUP4 DUP2 LT ISZERO PUSH2 0x1984 JUMPI DUP1 DUP3 ADD MLOAD DUP2 DUP5 ADD MSTORE PUSH1 0x20 DUP2 ADD SWAP1 POP PUSH2 0x1969 JUMP JUMPDEST PUSH0 DUP5 DUP5 ADD MSTORE POP POP POP POP JUMP JUMPDEST PUSH0 PUSH2 0x1999 DUP3 PUSH2 0x1953 JUMP JUMPDEST PUSH2 0x19A3 DUP2 DUP6 PUSH2 0x195D JUMP JUMPDEST SWAP4 POP PUSH2 0x19B3 DUP2 DUP6 PUSH1 0x20 DUP7 ADD PUSH2 0x1967 JUMP JUMPDEST DUP1 DUP5 ADD SWAP2 POP POP SWAP3 SWAP2 POP POP JUMP JUMPDEST PUSH0 PUSH2 0x19CA DUP3 DUP5 PUSH2 0x198F JUMP JUMPDEST SWAP2 POP DUP2 SWAP1 POP SWAP3 SWAP2 POP POP JUMP INVALID LOG2 PUSH5 0x6970667358 0x22 SLT KECCAK256 BLOCKHASH 0xF6 SWAP16 0xB4 SWAP4 DUP4 0xB2 0xD9 AND PUSH32 0xCADA71F9229E2D082DDBABB59561E47E5D1AB49091DE64736F6C634300081400 CALLER "
				},
				"gasEstimates": {
					"creation": {
						"codeDepositCost": "1333400",
						"executionCost": "infinite",
						"totalCost": "infinite"
					},
					"external": {
						"baseInterestRate()": "2469",
						"borrow(uint256,uint256)": "infinite",
						"borrowedAmounts(address)": "2891",
						"calculateInterest(uint256,uint256)": "infinite",
						"interestRatePerDuration()": "2448",
						"minDuration()": "2536",
						"owner()": "2537",
						"renounceOwnership()": "infinite",
						"repay(uint256)": "infinite",
						"token()": "infinite",
						"transferOwnership(address)": "infinite",
						"withdrawFunds(uint256)": "infinite"
					}
				},
				"methodIdentifiers": {
					"baseInterestRate()": "afd92762",
					"borrow(uint256,uint256)": "0ecbcdab",
					"borrowedAmounts(address)": "478230f7",
					"calculateInterest(uint256,uint256)": "efdd7c07",
					"interestRatePerDuration()": "11df5d72",
					"minDuration()": "56715761",
					"owner()": "8da5cb5b",
					"renounceOwnership()": "715018a6",
					"repay(uint256)": "371fd8e6",
					"token()": "fc0c546a",
					"transferOwnership(address)": "f2fde38b",
					"withdrawFunds(uint256)": "155dd5ee"
				}
			},
			"storageLayout": {
				"storage": [
					{
						"astId": 8,
						"contract": "contracts/Lending.sol:LendingPlatform",
						"label": "_owner",
						"offset": 0,
						"slot": "0",
						"type": "t_address"
					},
					{
						"astId": 845,
						"contract": "contracts/Lending.sol:LendingPlatform",
						"label": "_status",
						"offset": 0,
						"slot": "1",
						"type": "t_uint256"
					},
					{
						"astId": 1092,
						"contract": "contracts/Lending.sol:LendingPlatform",
						"label": "token",
						"offset": 0,
						"slot": "2",
						"type": "t_contract(IERC20)225"
					},
					{
						"astId": 1096,
						"contract": "contracts/Lending.sol:LendingPlatform",
						"label": "borrowedAmounts",
						"offset": 0,
						"slot": "3",
						"type": "t_mapping(t_address,t_uint256)"
					},
					{
						"astId": 1098,
						"contract": "contracts/Lending.sol:LendingPlatform",
						"label": "baseInterestRate",
						"offset": 0,
						"slot": "4",
						"type": "t_uint256"
					},
					{
						"astId": 1100,
						"contract": "contracts/Lending.sol:LendingPlatform",
						"label": "interestRatePerDuration",
						"offset": 0,
						"slot": "5",
						"type": "t_uint256"
					},
					{
						"astId": 1102,
						"contract": "contracts/Lending.sol:LendingPlatform",
						"label": "minDuration",
						"offset": 0,
						"slot": "6",
						"type": "t_uint256"
					}
				],
				"types": {
					"t_address": {
						"encoding": "inplace",
						"label": "address",
						"numberOfBytes": "20"
					},
					"t_contract(IERC20)225": {
						"encoding": "inplace",
						"label": "contract IERC20",
						"numberOfBytes": "20"
					},
					"t_mapping(t_address,t_uint256)": {
						"encoding": "mapping",
						"key": "t_address",
						"label": "mapping(address => uint256)",
						"numberOfBytes": "32",
						"value": "t_uint256"
					},
					"t_uint256": {
						"encoding": "inplace",
						"label": "uint256",
						"numberOfBytes": "32"
					}
				}
			},
			"userdoc": {
				"kind": "user",
				"methods": {},
				"version": 1
			}
		}
	}
}