{
	"contracts/Stake.sol": {
		"StakingPool": {
			"abi": [
				{
					"inputs": [
						{
							"internalType": "address",
							"name": "_stakingToken",
							"type": "address"
						},
						{
							"internalType": "uint256",
							"name": "_rewardRate",
							"type": "uint256"
						},
						{
							"internalType": "address",
							"name": "_initialOwner",
							"type": "address"
						}
					],
					"stateMutability": "nonpayable",
					"type": "constructor"
				},
				{
					"inputs": [
						{
							"internalType": "address",
							"name": "owner",
							"type": "address"
						}
					],
					"name": "OwnableInvalidOwner",
					"type": "error"
				},
				{
					"inputs": [
						{
							"internalType": "address",
							"name": "account",
							"type": "address"
						}
					],
					"name": "OwnableUnauthorizedAccount",
					"type": "error"
				},
				{
					"inputs": [],
					"name": "ReentrancyGuardReentrantCall",
					"type": "error"
				},
				{
					"anonymous": false,
					"inputs": [
						{
							"indexed": true,
							"internalType": "address",
							"name": "previousOwner",
							"type": "address"
						},
						{
							"indexed": true,
							"internalType": "address",
							"name": "newOwner",
							"type": "address"
						}
					],
					"name": "OwnershipTransferred",
					"type": "event"
				},
				{
					"anonymous": false,
					"inputs": [
						{
							"indexed": true,
							"internalType": "address",
							"name": "user",
							"type": "address"
						},
						{
							"indexed": false,
							"internalType": "uint256",
							"name": "amount",
							"type": "uint256"
						}
					],
					"name": "RewardClaimed",
					"type": "event"
				},
				{
					"anonymous": false,
					"inputs": [
						{
							"indexed": true,
							"internalType": "address",
							"name": "user",
							"type": "address"
						},
						{
							"indexed": false,
							"internalType": "uint256",
							"name": "amount",
							"type": "uint256"
						},
						{
							"indexed": false,
							"internalType": "uint256",
							"name": "stakingPeriod",
							"type": "uint256"
						}
					],
					"name": "Staked",
					"type": "event"
				},
				{
					"anonymous": false,
					"inputs": [
						{
							"indexed": true,
							"internalType": "address",
							"name": "user",
							"type": "address"
						},
						{
							"indexed": false,
							"internalType": "uint256",
							"name": "amount",
							"type": "uint256"
						}
					],
					"name": "Withdrawn",
					"type": "event"
				},
				{
					"inputs": [
						{
							"internalType": "address",
							"name": "account",
							"type": "address"
						}
					],
					"name": "calculateReward",
					"outputs": [
						{
							"internalType": "uint256",
							"name": "",
							"type": "uint256"
						}
					],
					"stateMutability": "view",
					"type": "function"
				},
				{
					"inputs": [],
					"name": "claimReward",
					"outputs": [],
					"stateMutability": "nonpayable",
					"type": "function"
				},
				{
					"inputs": [],
					"name": "lastRewardTimestamp",
					"outputs": [
						{
							"internalType": "uint256",
							"name": "",
							"type": "uint256"
						}
					],
					"stateMutability": "view",
					"type": "function"
				},
				{
					"inputs": [
						{
							"internalType": "address",
							"name": "",
							"type": "address"
						}
					],
					"name": "lastStakeTimestamp",
					"outputs": [
						{
							"internalType": "uint256",
							"name": "",
							"type": "uint256"
						}
					],
					"stateMutability": "view",
					"type": "function"
				},
				{
					"inputs": [],
					"name": "owner",
					"outputs": [
						{
							"internalType": "address",
							"name": "",
							"type": "address"
						}
					],
					"stateMutability": "view",
					"type": "function"
				},
				{
					"inputs": [],
					"name": "renounceOwnership",
					"outputs": [],
					"stateMutability": "nonpayable",
					"type": "function"
				},
				{
					"inputs": [],
					"name": "rewardRate",
					"outputs": [
						{
							"internalType": "uint256",
							"name": "",
							"type": "uint256"
						}
					],
					"stateMutability": "view",
					"type": "function"
				},
				{
					"inputs": [
						{
							"internalType": "uint256",
							"name": "amount",
							"type": "uint256"
						},
						{
							"internalType": "uint256",
							"name": "stakingPeriod",
							"type": "uint256"
						}
					],
					"name": "stake",
					"outputs": [],
					"stateMutability": "nonpayable",
					"type": "function"
				},
				{
					"inputs": [
						{
							"internalType": "address",
							"name": "",
							"type": "address"
						}
					],
					"name": "stakedBalances",
					"outputs": [
						{
							"internalType": "uint256",
							"name": "",
							"type": "uint256"
						}
					],
					"stateMutability": "view",
					"type": "function"
				},
				{
					"inputs": [],
					"name": "stakingToken",
					"outputs": [
						{
							"internalType": "contract IERC20",
							"name": "",
							"type": "address"
						}
					],
					"stateMutability": "view",
					"type": "function"
				},
				{
					"inputs": [],
					"name": "totalStaked",
					"outputs": [
						{
							"internalType": "uint256",
							"name": "",
							"type": "uint256"
						}
					],
					"stateMutability": "view",
					"type": "function"
				},
				{
					"inputs": [
						{
							"internalType": "address",
							"name": "newOwner",
							"type": "address"
						}
					],
					"name": "transferOwnership",
					"outputs": [],
					"stateMutability": "nonpayable",
					"type": "function"
				},
				{
					"inputs": [
						{
							"internalType": "uint256",
							"name": "amount",
							"type": "uint256"
						}
					],
					"name": "withdraw",
					"outputs": [],
					"stateMutability": "nonpayable",
					"type": "function"
				}
			],
			"devdoc": {
				"details": "A smart contract for staking tokens with flexible or fixed staking periodsUsers can stake tokens, withdraw, and claim rewards based on the staking duration",
				"errors": {
					"OwnableInvalidOwner(address)": [
						{
							"details": "The owner is not a valid owner account. (eg. `address(0)`)"
						}
					],
					"OwnableUnauthorizedAccount(address)": [
						{
							"details": "The caller account is not authorized to perform an operation."
						}
					],
					"ReentrancyGuardReentrantCall()": [
						{
							"details": "Unauthorized reentrant call."
						}
					]
				},
				"kind": "dev",
				"methods": {
					"calculateReward(address)": {
						"details": "Function to calculate the pending reward for a user",
						"params": {
							"account": "User's address"
						},
						"returns": {
							"_0": "Pending reward amount"
						}
					},
					"claimReward()": {
						"details": "Function to allow users to claim rewards based on their staking duration"
					},
					"constructor": {
						"details": "Constructor to initialize the StakingPool contract",
						"params": {
							"_initialOwner": "Address of the initial owner (used by Ownable)",
							"_rewardRate": "Reward rate per second for staking",
							"_stakingToken": "Address of the staking token"
						}
					},
					"owner()": {
						"details": "Returns the address of the current owner."
					},
					"renounceOwnership()": {
						"details": "Leaves the contract without owner. It will not be possible to call `onlyOwner` functions. Can only be called by the current owner. NOTE: Renouncing ownership will leave the contract without an owner, thereby disabling any functionality that is only available to the owner."
					},
					"stake(uint256,uint256)": {
						"details": "Function to allow users to stake tokens with a specific staking period",
						"params": {
							"amount": "Amount of tokens to stake",
							"stakingPeriod": "Desired staking period identifier"
						}
					},
					"transferOwnership(address)": {
						"details": "Transfers ownership of the contract to a new account (`newOwner`). Can only be called by the current owner."
					},
					"withdraw(uint256)": {
						"details": "Function to allow users to withdraw their staked tokens",
						"params": {
							"amount": "Amount of tokens to withdraw"
						}
					}
				},
				"title": "StakingPool",
				"version": 1
			},
			"evm": {
				"assembly": "    /* \"contracts/Stake.sol\":565:5053  contract StakingPool is Ownable, ReentrancyGuard {... */\n  mstore(0x40, 0x80)\n    /* \"contracts/Stake.sol\":1943:2472  constructor(address _stakingToken, uint256 _rewardRate, address _initialOwner) Ownable(_initialOwner) {... */\n  callvalue\n  dup1\n  iszero\n  tag_1\n  jumpi\n  0x00\n  dup1\n  revert\ntag_1:\n  pop\n  mload(0x40)\n  sub(codesize, bytecodeSize)\n  dup1\n  bytecodeSize\n  dup4\n  codecopy\n  dup2\n  dup2\n  add\n  0x40\n  mstore\n  dup2\n  add\n  swap1\n  tag_2\n  swap2\n  swap1\n  tag_3\n  jump\t// in\ntag_2:\n    /* \"contracts/Stake.sol\":2030:2043  _initialOwner */\n  dup1\n    /* \"@openzeppelin/contracts/access/Ownable.sol\":1297:1298  0 */\n  0x00\n    /* \"@openzeppelin/contracts/access/Ownable.sol\":1273:1299  initialOwner == address(0) */\n  0xffffffffffffffffffffffffffffffffffffffff\n  and\n    /* \"@openzeppelin/contracts/access/Ownable.sol\":1273:1285  initialOwner */\n  dup2\n    /* \"@openzeppelin/contracts/access/Ownable.sol\":1273:1299  initialOwner == address(0) */\n  0xffffffffffffffffffffffffffffffffffffffff\n  and\n  sub\n    /* \"@openzeppelin/contracts/access/Ownable.sol\":1269:1364  if (initialOwner == address(0)) {... */\n  tag_8\n  jumpi\n    /* \"@openzeppelin/contracts/access/Ownable.sol\":1350:1351  0 */\n  0x00\n    /* \"@openzeppelin/contracts/access/Ownable.sol\":1322:1353  OwnableInvalidOwner(address(0)) */\n  mload(0x40)\n  0x1e4fbdf700000000000000000000000000000000000000000000000000000000\n  dup2\n  mstore\n  0x04\n  add\n  tag_9\n  swap2\n  swap1\n  tag_10\n  jump\t// in\ntag_9:\n  mload(0x40)\n  dup1\n  swap2\n  sub\n  swap1\n  revert\n    /* \"@openzeppelin/contracts/access/Ownable.sol\":1269:1364  if (initialOwner == address(0)) {... */\ntag_8:\n    /* \"@openzeppelin/contracts/access/Ownable.sol\":1373:1405  _transferOwnership(initialOwner) */\n  tag_11\n    /* \"@openzeppelin/contracts/access/Ownable.sol\":1392:1404  initialOwner */\n  dup2\n    /* \"@openzeppelin/contracts/access/Ownable.sol\":1373:1391  _transferOwnership */\n  shl(0x20, tag_12)\n    /* \"@openzeppelin/contracts/access/Ownable.sol\":1373:1405  _transferOwnership(initialOwner) */\n  0x20\n  shr\n  jump\t// in\ntag_11:\n    /* \"@openzeppelin/contracts/access/Ownable.sol\":1225:1412  constructor(address initialOwner) {... */\n  pop\n    /* \"@openzeppelin/contracts/utils/ReentrancyGuard.sol\":1713:1714  1 */\n  0x01\n    /* \"@openzeppelin/contracts/utils/ReentrancyGuard.sol\":1917:1924  _status */\n  dup1\n    /* \"@openzeppelin/contracts/utils/ReentrancyGuard.sol\":1917:1938  _status = NOT_ENTERED */\n  dup2\n  swap1\n  sstore\n  pop\n    /* \"contracts/Stake.sol\":2077:2090  _stakingToken */\n  dup3\n    /* \"contracts/Stake.sol\":2055:2067  stakingToken */\n  0x02\n  0x00\n    /* \"contracts/Stake.sol\":2055:2091  stakingToken = IERC20(_stakingToken) */\n  0x0100\n  exp\n  dup2\n  sload\n  dup2\n  0xffffffffffffffffffffffffffffffffffffffff\n  mul\n  not\n  and\n  swap1\n  dup4\n  0xffffffffffffffffffffffffffffffffffffffff\n  and\n  mul\n  or\n  swap1\n  sstore\n  pop\n    /* \"contracts/Stake.sol\":2114:2125  _rewardRate */\n  dup2\n    /* \"contracts/Stake.sol\":2101:2111  rewardRate */\n  0x06\n    /* \"contracts/Stake.sol\":2101:2125  rewardRate = _rewardRate */\n  dup2\n  swap1\n  sstore\n  pop\n    /* \"contracts/Stake.sol\":2157:2172  block.timestamp */\n  timestamp\n    /* \"contracts/Stake.sol\":2135:2154  lastRewardTimestamp */\n  0x07\n    /* \"contracts/Stake.sol\":2135:2172  lastRewardTimestamp = block.timestamp */\n  dup2\n  swap1\n  sstore\n  pop\n    /* \"contracts/Stake.sol\":2231:2283  supportedStakingPeriods.add(FLEXIBLE_STAKING_PERIOD) */\n  tag_15\n    /* \"contracts/Stake.sol\":1154:1155  0 */\n  0x00\n    /* \"contracts/Stake.sol\":2231:2254  supportedStakingPeriods */\n  0x08\n    /* \"contracts/Stake.sol\":2231:2258  supportedStakingPeriods.add */\n  shl(0x20, tag_16)\n  swap1\n    /* \"contracts/Stake.sol\":2231:2283  supportedStakingPeriods.add(FLEXIBLE_STAKING_PERIOD) */\n  swap2\n  swap1\n  0x20\n  shr\n  jump\t// in\ntag_15:\n  pop\n    /* \"contracts/Stake.sol\":2293:2345  supportedStakingPeriods.add(ONE_WEEK_STAKING_PERIOD) */\n  tag_17\n    /* \"contracts/Stake.sol\":1204:1211  1 weeks */\n  0x093a80\n    /* \"contracts/Stake.sol\":2293:2316  supportedStakingPeriods */\n  0x08\n    /* \"contracts/Stake.sol\":2293:2320  supportedStakingPeriods.add */\n  shl(0x20, tag_16)\n  swap1\n    /* \"contracts/Stake.sol\":2293:2345  supportedStakingPeriods.add(ONE_WEEK_STAKING_PERIOD) */\n  swap2\n  swap1\n  0x20\n  shr\n  jump\t// in\ntag_17:\n  pop\n    /* \"contracts/Stake.sol\":2355:2408  supportedStakingPeriods.add(TWO_WEEKS_STAKING_PERIOD) */\n  tag_18\n    /* \"contracts/Stake.sol\":1261:1268  2 weeks */\n  0x127500\n    /* \"contracts/Stake.sol\":2355:2378  supportedStakingPeriods */\n  0x08\n    /* \"contracts/Stake.sol\":2355:2382  supportedStakingPeriods.add */\n  shl(0x20, tag_16)\n  swap1\n    /* \"contracts/Stake.sol\":2355:2408  supportedStakingPeriods.add(TWO_WEEKS_STAKING_PERIOD) */\n  swap2\n  swap1\n  0x20\n  shr\n  jump\t// in\ntag_18:\n  pop\n    /* \"contracts/Stake.sol\":2418:2465  supportedStakingPeriods.add(MAX_STAKING_PERIOD) */\n  tag_19\n    /* \"contracts/Stake.sol\":1312:1319  60 days */\n  0x4f1a00\n    /* \"contracts/Stake.sol\":2418:2441  supportedStakingPeriods */\n  0x08\n    /* \"contracts/Stake.sol\":2418:2445  supportedStakingPeriods.add */\n  shl(0x20, tag_16)\n  swap1\n    /* \"contracts/Stake.sol\":2418:2465  supportedStakingPeriods.add(MAX_STAKING_PERIOD) */\n  swap2\n  swap1\n  0x20\n  shr\n  jump\t// in\ntag_19:\n  pop\n    /* \"contracts/Stake.sol\":1943:2472  constructor(address _stakingToken, uint256 _rewardRate, address _initialOwner) Ownable(_initialOwner) {... */\n  pop\n  pop\n  pop\n    /* \"contracts/Stake.sol\":565:5053  contract StakingPool is Ownable, ReentrancyGuard {... */\n  jump(tag_20)\n    /* \"@openzeppelin/contracts/access/Ownable.sol\":2912:3099  function _transferOwnership(address newOwner) internal virtual {... */\ntag_12:\n    /* \"@openzeppelin/contracts/access/Ownable.sol\":2985:3001  address oldOwner */\n  0x00\n    /* \"@openzeppelin/contracts/access/Ownable.sol\":3004:3010  _owner */\n  dup1\n  0x00\n  swap1\n  sload\n  swap1\n  0x0100\n  exp\n  swap1\n  div\n  0xffffffffffffffffffffffffffffffffffffffff\n  and\n    /* \"@openzeppelin/contracts/access/Ownable.sol\":2985:3010  address oldOwner = _owner */\n  swap1\n  pop\n    /* \"@openzeppelin/contracts/access/Ownable.sol\":3029:3037  newOwner */\n  dup2\n    /* \"@openzeppelin/contracts/access/Ownable.sol\":3020:3026  _owner */\n  0x00\n  dup1\n    /* \"@openzeppelin/contracts/access/Ownable.sol\":3020:3037  _owner = newOwner */\n  0x0100\n  exp\n  dup2\n  sload\n  dup2\n  0xffffffffffffffffffffffffffffffffffffffff\n  mul\n  not\n  and\n  swap1\n  dup4\n  0xffffffffffffffffffffffffffffffffffffffff\n  and\n  mul\n  or\n  swap1\n  sstore\n  pop\n    /* \"@openzeppelin/contracts/access/Ownable.sol\":3083:3091  newOwner */\n  dup2\n    /* \"@openzeppelin/contracts/access/Ownable.sol\":3052:3092  OwnershipTransferred(oldOwner, newOwner) */\n  0xffffffffffffffffffffffffffffffffffffffff\n  and\n    /* \"@openzeppelin/contracts/access/Ownable.sol\":3073:3081  oldOwner */\n  dup2\n    /* \"@openzeppelin/contracts/access/Ownable.sol\":3052:3092  OwnershipTransferred(oldOwner, newOwner) */\n  0xffffffffffffffffffffffffffffffffffffffff\n  and\n  0x8be0079c531659141344cd1fd0a4f28419497f9722a3daafe3b4186f6b6457e0\n  mload(0x40)\n  mload(0x40)\n  dup1\n  swap2\n  sub\n  swap1\n  log3\n    /* \"@openzeppelin/contracts/access/Ownable.sol\":2975:3099  {... */\n  pop\n    /* \"@openzeppelin/contracts/access/Ownable.sol\":2912:3099  function _transferOwnership(address newOwner) internal virtual {... */\n  pop\n  jump\t// out\n    /* \"@openzeppelin/contracts/utils/structs/EnumerableSet.sol\":10804:10933  function add(UintSet storage set, uint256 value) internal returns (bool) {... */\ntag_16:\n    /* \"@openzeppelin/contracts/utils/structs/EnumerableSet.sol\":10871:10875  bool */\n  0x00\n    /* \"@openzeppelin/contracts/utils/structs/EnumerableSet.sol\":10894:10926  _add(set._inner, bytes32(value)) */\n  tag_23\n    /* \"@openzeppelin/contracts/utils/structs/EnumerableSet.sol\":10899:10902  set */\n  dup4\n    /* \"@openzeppelin/contracts/utils/structs/EnumerableSet.sol\":10899:10909  set._inner */\n  0x00\n  add\n    /* \"@openzeppelin/contracts/utils/structs/EnumerableSet.sol\":10919:10924  value */\n  dup4\n    /* \"@openzeppelin/contracts/utils/structs/EnumerableSet.sol\":10911:10925  bytes32(value) */\n  0x00\n  shl\n    /* \"@openzeppelin/contracts/utils/structs/EnumerableSet.sol\":10894:10898  _add */\n  shl(0x20, tag_24)\n    /* \"@openzeppelin/contracts/utils/structs/EnumerableSet.sol\":10894:10926  _add(set._inner, bytes32(value)) */\n  0x20\n  shr\n  jump\t// in\ntag_23:\n    /* \"@openzeppelin/contracts/utils/structs/EnumerableSet.sol\":10887:10926  return _add(set._inner, bytes32(value)) */\n  swap1\n  pop\n    /* \"@openzeppelin/contracts/utils/structs/EnumerableSet.sol\":10804:10933  function add(UintSet storage set, uint256 value) internal returns (bool) {... */\n  swap3\n  swap2\n  pop\n  pop\n  jump\t// out\n    /* \"@openzeppelin/contracts/utils/structs/EnumerableSet.sol\":2241:2647  function _add(Set storage set, bytes32 value) private returns (bool) {... */\ntag_24:\n    /* \"@openzeppelin/contracts/utils/structs/EnumerableSet.sol\":2304:2308  bool */\n  0x00\n    /* \"@openzeppelin/contracts/utils/structs/EnumerableSet.sol\":2325:2346  _contains(set, value) */\n  tag_26\n    /* \"@openzeppelin/contracts/utils/structs/EnumerableSet.sol\":2335:2338  set */\n  dup4\n    /* \"@openzeppelin/contracts/utils/structs/EnumerableSet.sol\":2340:2345  value */\n  dup4\n    /* \"@openzeppelin/contracts/utils/structs/EnumerableSet.sol\":2325:2334  _contains */\n  shl(0x20, tag_27)\n    /* \"@openzeppelin/contracts/utils/structs/EnumerableSet.sol\":2325:2346  _contains(set, value) */\n  0x20\n  shr\n  jump\t// in\ntag_26:\n    /* \"@openzeppelin/contracts/utils/structs/EnumerableSet.sol\":2320:2641  if (!_contains(set, value)) {... */\n  tag_28\n  jumpi\n    /* \"@openzeppelin/contracts/utils/structs/EnumerableSet.sol\":2362:2365  set */\n  dup3\n    /* \"@openzeppelin/contracts/utils/structs/EnumerableSet.sol\":2362:2373  set._values */\n  0x00\n  add\n    /* \"@openzeppelin/contracts/utils/structs/EnumerableSet.sol\":2379:2384  value */\n  dup3\n    /* \"@openzeppelin/contracts/utils/structs/EnumerableSet.sol\":2362:2385  set._values.push(value) */\n  swap1\n  dup1\n  0x01\n  dup2\n  sload\n  add\n  dup1\n  dup3\n  sstore\n  dup1\n  swap2\n  pop\n  pop\n  0x01\n  swap1\n  sub\n  swap1\n  0x00\n  mstore\n  keccak256(0x00, 0x20)\n  add\n  0x00\n  swap1\n  swap2\n  swap1\n  swap2\n  swap1\n  swap2\n  pop\n  sstore\n    /* \"@openzeppelin/contracts/utils/structs/EnumerableSet.sol\":2544:2547  set */\n  dup3\n    /* \"@openzeppelin/contracts/utils/structs/EnumerableSet.sol\":2544:2555  set._values */\n  0x00\n  add\n    /* \"@openzeppelin/contracts/utils/structs/EnumerableSet.sol\":2544:2562  set._values.length */\n  dup1\n  sload\n  swap1\n  pop\n    /* \"@openzeppelin/contracts/utils/structs/EnumerableSet.sol\":2520:2523  set */\n  dup4\n    /* \"@openzeppelin/contracts/utils/structs/EnumerableSet.sol\":2520:2534  set._positions */\n  0x01\n  add\n    /* \"@openzeppelin/contracts/utils/structs/EnumerableSet.sol\":2520:2541  set._positions[value] */\n  0x00\n    /* \"@openzeppelin/contracts/utils/structs/EnumerableSet.sol\":2535:2540  value */\n  dup5\n    /* \"@openzeppelin/contracts/utils/structs/EnumerableSet.sol\":2520:2541  set._positions[value] */\n  dup2\n  mstore\n  0x20\n  add\n  swap1\n  dup2\n  mstore\n  0x20\n  add\n  0x00\n  keccak256\n    /* \"@openzeppelin/contracts/utils/structs/EnumerableSet.sol\":2520:2562  set._positions[value] = set._values.length */\n  dup2\n  swap1\n  sstore\n  pop\n    /* \"@openzeppelin/contracts/utils/structs/EnumerableSet.sol\":2583:2587  true */\n  0x01\n    /* \"@openzeppelin/contracts/utils/structs/EnumerableSet.sol\":2576:2587  return true */\n  swap1\n  pop\n  jump(tag_25)\n    /* \"@openzeppelin/contracts/utils/structs/EnumerableSet.sol\":2320:2641  if (!_contains(set, value)) {... */\ntag_28:\n    /* \"@openzeppelin/contracts/utils/structs/EnumerableSet.sol\":2625:2630  false */\n  0x00\n    /* \"@openzeppelin/contracts/utils/structs/EnumerableSet.sol\":2618:2630  return false */\n  swap1\n  pop\n    /* \"@openzeppelin/contracts/utils/structs/EnumerableSet.sol\":2241:2647  function _add(Set storage set, bytes32 value) private returns (bool) {... */\ntag_25:\n  swap3\n  swap2\n  pop\n  pop\n  jump\t// out\n    /* \"@openzeppelin/contracts/utils/structs/EnumerableSet.sol\":4264:4393  function _contains(Set storage set, bytes32 value) private view returns (bool) {... */\ntag_27:\n    /* \"@openzeppelin/contracts/utils/structs/EnumerableSet.sol\":4337:4341  bool */\n  0x00\n    /* \"@openzeppelin/contracts/utils/structs/EnumerableSet.sol\":4385:4386  0 */\n  dup1\n    /* \"@openzeppelin/contracts/utils/structs/EnumerableSet.sol\":4360:4363  set */\n  dup4\n    /* \"@openzeppelin/contracts/utils/structs/EnumerableSet.sol\":4360:4374  set._positions */\n  0x01\n  add\n    /* \"@openzeppelin/contracts/utils/structs/EnumerableSet.sol\":4360:4381  set._positions[value] */\n  0x00\n    /* \"@openzeppelin/contracts/utils/structs/EnumerableSet.sol\":4375:4380  value */\n  dup5\n    /* \"@openzeppelin/contracts/utils/structs/EnumerableSet.sol\":4360:4381  set._positions[value] */\n  dup2\n  mstore\n  0x20\n  add\n  swap1\n  dup2\n  mstore\n  0x20\n  add\n  0x00\n  keccak256\n  sload\n    /* \"@openzeppelin/contracts/utils/structs/EnumerableSet.sol\":4360:4386  set._positions[value] != 0 */\n  eq\n  iszero\n    /* \"@openzeppelin/contracts/utils/structs/EnumerableSet.sol\":4353:4386  return set._positions[value] != 0 */\n  swap1\n  pop\n    /* \"@openzeppelin/contracts/utils/structs/EnumerableSet.sol\":4264:4393  function _contains(Set storage set, bytes32 value) private view returns (bool) {... */\n  swap3\n  swap2\n  pop\n  pop\n  jump\t// out\n    /* \"#utility.yul\":88:205   */\ntag_33:\n    /* \"#utility.yul\":197:198   */\n  0x00\n    /* \"#utility.yul\":194:195   */\n  dup1\n    /* \"#utility.yul\":187:199   */\n  revert\n    /* \"#utility.yul\":334:460   */\ntag_35:\n    /* \"#utility.yul\":371:378   */\n  0x00\n    /* \"#utility.yul\":411:453   */\n  0xffffffffffffffffffffffffffffffffffffffff\n    /* \"#utility.yul\":404:409   */\n  dup3\n    /* \"#utility.yul\":400:454   */\n  and\n    /* \"#utility.yul\":389:454   */\n  swap1\n  pop\n    /* \"#utility.yul\":334:460   */\n  swap2\n  swap1\n  pop\n  jump\t// out\n    /* \"#utility.yul\":466:562   */\ntag_36:\n    /* \"#utility.yul\":503:510   */\n  0x00\n    /* \"#utility.yul\":532:556   */\n  tag_49\n    /* \"#utility.yul\":550:555   */\n  dup3\n    /* \"#utility.yul\":532:556   */\n  tag_35\n  jump\t// in\ntag_49:\n    /* \"#utility.yul\":521:556   */\n  swap1\n  pop\n    /* \"#utility.yul\":466:562   */\n  swap2\n  swap1\n  pop\n  jump\t// out\n    /* \"#utility.yul\":568:690   */\ntag_37:\n    /* \"#utility.yul\":641:665   */\n  tag_51\n    /* \"#utility.yul\":659:664   */\n  dup2\n    /* \"#utility.yul\":641:665   */\n  tag_36\n  jump\t// in\ntag_51:\n    /* \"#utility.yul\":634:639   */\n  dup2\n    /* \"#utility.yul\":631:666   */\n  eq\n    /* \"#utility.yul\":621:684   */\n  tag_52\n  jumpi\n    /* \"#utility.yul\":680:681   */\n  0x00\n    /* \"#utility.yul\":677:678   */\n  dup1\n    /* \"#utility.yul\":670:682   */\n  revert\n    /* \"#utility.yul\":621:684   */\ntag_52:\n    /* \"#utility.yul\":568:690   */\n  pop\n  jump\t// out\n    /* \"#utility.yul\":696:839   */\ntag_38:\n    /* \"#utility.yul\":753:758   */\n  0x00\n    /* \"#utility.yul\":784:790   */\n  dup2\n    /* \"#utility.yul\":778:791   */\n  mload\n    /* \"#utility.yul\":769:791   */\n  swap1\n  pop\n    /* \"#utility.yul\":800:833   */\n  tag_54\n    /* \"#utility.yul\":827:832   */\n  dup2\n    /* \"#utility.yul\":800:833   */\n  tag_37\n  jump\t// in\ntag_54:\n    /* \"#utility.yul\":696:839   */\n  swap3\n  swap2\n  pop\n  pop\n  jump\t// out\n    /* \"#utility.yul\":845:922   */\ntag_39:\n    /* \"#utility.yul\":882:889   */\n  0x00\n    /* \"#utility.yul\":911:916   */\n  dup2\n    /* \"#utility.yul\":900:916   */\n  swap1\n  pop\n    /* \"#utility.yul\":845:922   */\n  swap2\n  swap1\n  pop\n  jump\t// out\n    /* \"#utility.yul\":928:1050   */\ntag_40:\n    /* \"#utility.yul\":1001:1025   */\n  tag_57\n    /* \"#utility.yul\":1019:1024   */\n  dup2\n    /* \"#utility.yul\":1001:1025   */\n  tag_39\n  jump\t// in\ntag_57:\n    /* \"#utility.yul\":994:999   */\n  dup2\n    /* \"#utility.yul\":991:1026   */\n  eq\n    /* \"#utility.yul\":981:1044   */\n  tag_58\n  jumpi\n    /* \"#utility.yul\":1040:1041   */\n  0x00\n    /* \"#utility.yul\":1037:1038   */\n  dup1\n    /* \"#utility.yul\":1030:1042   */\n  revert\n    /* \"#utility.yul\":981:1044   */\ntag_58:\n    /* \"#utility.yul\":928:1050   */\n  pop\n  jump\t// out\n    /* \"#utility.yul\":1056:1199   */\ntag_41:\n    /* \"#utility.yul\":1113:1118   */\n  0x00\n    /* \"#utility.yul\":1144:1150   */\n  dup2\n    /* \"#utility.yul\":1138:1151   */\n  mload\n    /* \"#utility.yul\":1129:1151   */\n  swap1\n  pop\n    /* \"#utility.yul\":1160:1193   */\n  tag_60\n    /* \"#utility.yul\":1187:1192   */\n  dup2\n    /* \"#utility.yul\":1160:1193   */\n  tag_40\n  jump\t// in\ntag_60:\n    /* \"#utility.yul\":1056:1199   */\n  swap3\n  swap2\n  pop\n  pop\n  jump\t// out\n    /* \"#utility.yul\":1205:1868   */\ntag_3:\n    /* \"#utility.yul\":1293:1299   */\n  0x00\n    /* \"#utility.yul\":1301:1307   */\n  dup1\n    /* \"#utility.yul\":1309:1315   */\n  0x00\n    /* \"#utility.yul\":1358:1360   */\n  0x60\n    /* \"#utility.yul\":1346:1355   */\n  dup5\n    /* \"#utility.yul\":1337:1344   */\n  dup7\n    /* \"#utility.yul\":1333:1356   */\n  sub\n    /* \"#utility.yul\":1329:1361   */\n  slt\n    /* \"#utility.yul\":1326:1445   */\n  iszero\n  tag_62\n  jumpi\n    /* \"#utility.yul\":1364:1443   */\n  tag_63\n  tag_33\n  jump\t// in\ntag_63:\n    /* \"#utility.yul\":1326:1445   */\ntag_62:\n    /* \"#utility.yul\":1484:1485   */\n  0x00\n    /* \"#utility.yul\":1509:1573   */\n  tag_64\n    /* \"#utility.yul\":1565:1572   */\n  dup7\n    /* \"#utility.yul\":1556:1562   */\n  dup3\n    /* \"#utility.yul\":1545:1554   */\n  dup8\n    /* \"#utility.yul\":1541:1563   */\n  add\n    /* \"#utility.yul\":1509:1573   */\n  tag_38\n  jump\t// in\ntag_64:\n    /* \"#utility.yul\":1499:1573   */\n  swap4\n  pop\n    /* \"#utility.yul\":1455:1583   */\n  pop\n    /* \"#utility.yul\":1622:1624   */\n  0x20\n    /* \"#utility.yul\":1648:1712   */\n  tag_65\n    /* \"#utility.yul\":1704:1711   */\n  dup7\n    /* \"#utility.yul\":1695:1701   */\n  dup3\n    /* \"#utility.yul\":1684:1693   */\n  dup8\n    /* \"#utility.yul\":1680:1702   */\n  add\n    /* \"#utility.yul\":1648:1712   */\n  tag_41\n  jump\t// in\ntag_65:\n    /* \"#utility.yul\":1638:1712   */\n  swap3\n  pop\n    /* \"#utility.yul\":1593:1722   */\n  pop\n    /* \"#utility.yul\":1761:1763   */\n  0x40\n    /* \"#utility.yul\":1787:1851   */\n  tag_66\n    /* \"#utility.yul\":1843:1850   */\n  dup7\n    /* \"#utility.yul\":1834:1840   */\n  dup3\n    /* \"#utility.yul\":1823:1832   */\n  dup8\n    /* \"#utility.yul\":1819:1841   */\n  add\n    /* \"#utility.yul\":1787:1851   */\n  tag_38\n  jump\t// in\ntag_66:\n    /* \"#utility.yul\":1777:1851   */\n  swap2\n  pop\n    /* \"#utility.yul\":1732:1861   */\n  pop\n    /* \"#utility.yul\":1205:1868   */\n  swap3\n  pop\n  swap3\n  pop\n  swap3\n  jump\t// out\n    /* \"#utility.yul\":1874:1992   */\ntag_42:\n    /* \"#utility.yul\":1961:1985   */\n  tag_68\n    /* \"#utility.yul\":1979:1984   */\n  dup2\n    /* \"#utility.yul\":1961:1985   */\n  tag_36\n  jump\t// in\ntag_68:\n    /* \"#utility.yul\":1956:1959   */\n  dup3\n    /* \"#utility.yul\":1949:1986   */\n  mstore\n    /* \"#utility.yul\":1874:1992   */\n  pop\n  pop\n  jump\t// out\n    /* \"#utility.yul\":1998:2220   */\ntag_10:\n    /* \"#utility.yul\":2091:2095   */\n  0x00\n    /* \"#utility.yul\":2129:2131   */\n  0x20\n    /* \"#utility.yul\":2118:2127   */\n  dup3\n    /* \"#utility.yul\":2114:2132   */\n  add\n    /* \"#utility.yul\":2106:2132   */\n  swap1\n  pop\n    /* \"#utility.yul\":2142:2213   */\n  tag_70\n    /* \"#utility.yul\":2210:2211   */\n  0x00\n    /* \"#utility.yul\":2199:2208   */\n  dup4\n    /* \"#utility.yul\":2195:2212   */\n  add\n    /* \"#utility.yul\":2186:2192   */\n  dup5\n    /* \"#utility.yul\":2142:2213   */\n  tag_42\n  jump\t// in\ntag_70:\n    /* \"#utility.yul\":1998:2220   */\n  swap3\n  swap2\n  pop\n  pop\n  jump\t// out\n    /* \"contracts/Stake.sol\":565:5053  contract StakingPool is Ownable, ReentrancyGuard {... */\ntag_20:\n  dataSize(sub_0)\n  dup1\n  dataOffset(sub_0)\n  0x00\n  codecopy\n  0x00\n  return\nstop\n\nsub_0: assembly {\n        /* \"contracts/Stake.sol\":565:5053  contract StakingPool is Ownable, ReentrancyGuard {... */\n      mstore(0x40, 0x80)\n      callvalue\n      dup1\n      iszero\n      tag_1\n      jumpi\n      0x00\n      dup1\n      revert\n    tag_1:\n      pop\n      jumpi(tag_2, lt(calldatasize, 0x04))\n      shr(0xe0, calldataload(0x00))\n      dup1\n      0x7b0a47ee\n      gt\n      tag_16\n      jumpi\n      dup1\n      0xb88a802f\n      gt\n      tag_17\n      jumpi\n      dup1\n      0xb88a802f\n      eq\n      tag_12\n      jumpi\n      dup1\n      0xd82e3962\n      eq\n      tag_13\n      jumpi\n      dup1\n      0xf2fde38b\n      eq\n      tag_14\n      jumpi\n      dup1\n      0xf8077fae\n      eq\n      tag_15\n      jumpi\n      jump(tag_2)\n    tag_17:\n      dup1\n      0x7b0a47ee\n      eq\n      tag_9\n      jumpi\n      dup1\n      0x817b1cd2\n      eq\n      tag_10\n      jumpi\n      dup1\n      0x8da5cb5b\n      eq\n      tag_11\n      jumpi\n      jump(tag_2)\n    tag_16:\n      dup1\n      0x1460fa87\n      eq\n      tag_3\n      jumpi\n      dup1\n      0x2c42b233\n      eq\n      tag_4\n      jumpi\n      dup1\n      0x2e1a7d4d\n      eq\n      tag_5\n      jumpi\n      dup1\n      0x715018a6\n      eq\n      tag_6\n      jumpi\n      dup1\n      0x72f702f3\n      eq\n      tag_7\n      jumpi\n      dup1\n      0x7b0472f0\n      eq\n      tag_8\n      jumpi\n    tag_2:\n      0x00\n      dup1\n      revert\n        /* \"contracts/Stake.sol\":801:850  mapping(address => uint256) public stakedBalances */\n    tag_3:\n      tag_18\n      0x04\n      dup1\n      calldatasize\n      sub\n      dup2\n      add\n      swap1\n      tag_19\n      swap2\n      swap1\n      tag_20\n      jump\t// in\n    tag_19:\n      tag_21\n      jump\t// in\n    tag_18:\n      mload(0x40)\n      tag_22\n      swap2\n      swap1\n      tag_23\n      jump\t// in\n    tag_22:\n      mload(0x40)\n      dup1\n      swap2\n      sub\n      swap1\n      return\n        /* \"contracts/Stake.sol\":856:909  mapping(address => uint256) public lastStakeTimestamp */\n    tag_4:\n      tag_24\n      0x04\n      dup1\n      calldatasize\n      sub\n      dup2\n      add\n      swap1\n      tag_25\n      swap2\n      swap1\n      tag_20\n      jump\t// in\n    tag_25:\n      tag_26\n      jump\t// in\n    tag_24:\n      mload(0x40)\n      tag_27\n      swap2\n      swap1\n      tag_23\n      jump\t// in\n    tag_27:\n      mload(0x40)\n      dup1\n      swap2\n      sub\n      swap1\n      return\n        /* \"contracts/Stake.sol\":3377:3710  function withdraw(uint256 amount) external nonReentrant {... */\n    tag_5:\n      tag_28\n      0x04\n      dup1\n      calldatasize\n      sub\n      dup2\n      add\n      swap1\n      tag_29\n      swap2\n      swap1\n      tag_30\n      jump\t// in\n    tag_29:\n      tag_31\n      jump\t// in\n    tag_28:\n      stop\n        /* \"@openzeppelin/contracts/access/Ownable.sol\":2293:2394  function renounceOwnership() public virtual onlyOwner {... */\n    tag_6:\n      tag_32\n      tag_33\n      jump\t// in\n    tag_32:\n      stop\n        /* \"contracts/Stake.sol\":737:763  IERC20 public stakingToken */\n    tag_7:\n      tag_34\n      tag_35\n      jump\t// in\n    tag_34:\n      mload(0x40)\n      tag_36\n      swap2\n      swap1\n      tag_37\n      jump\t// in\n    tag_36:\n      mload(0x40)\n      dup1\n      swap2\n      sub\n      swap1\n      return\n        /* \"contracts/Stake.sol\":2686:3237  function stake(uint256 amount, uint256 stakingPeriod) external nonReentrant {... */\n    tag_8:\n      tag_38\n      0x04\n      dup1\n      calldatasize\n      sub\n      dup2\n      add\n      swap1\n      tag_39\n      swap2\n      swap1\n      tag_40\n      jump\t// in\n    tag_39:\n      tag_41\n      jump\t// in\n    tag_38:\n      stop\n        /* \"contracts/Stake.sol\":915:940  uint256 public rewardRate */\n    tag_9:\n      tag_42\n      tag_43\n      jump\t// in\n    tag_42:\n      mload(0x40)\n      tag_44\n      swap2\n      swap1\n      tag_23\n      jump\t// in\n    tag_44:\n      mload(0x40)\n      dup1\n      swap2\n      sub\n      swap1\n      return\n        /* \"contracts/Stake.sol\":769:795  uint256 public totalStaked */\n    tag_10:\n      tag_45\n      tag_46\n      jump\t// in\n    tag_45:\n      mload(0x40)\n      tag_47\n      swap2\n      swap1\n      tag_23\n      jump\t// in\n    tag_47:\n      mload(0x40)\n      dup1\n      swap2\n      sub\n      swap1\n      return\n        /* \"@openzeppelin/contracts/access/Ownable.sol\":1638:1723  function owner() public view virtual returns (address) {... */\n    tag_11:\n      tag_48\n      tag_49\n      jump\t// in\n    tag_48:\n      mload(0x40)\n      tag_50\n      swap2\n      swap1\n      tag_51\n      jump\t// in\n    tag_50:\n      mload(0x40)\n      dup1\n      swap2\n      sub\n      swap1\n      return\n        /* \"contracts/Stake.sol\":3817:4101  function claimReward() external nonReentrant {... */\n    tag_12:\n      tag_52\n      tag_53\n      jump\t// in\n    tag_52:\n      stop\n        /* \"contracts/Stake.sol\":4822:5051  function calculateReward(address account) public view returns (uint256) {... */\n    tag_13:\n      tag_54\n      0x04\n      dup1\n      calldatasize\n      sub\n      dup2\n      add\n      swap1\n      tag_55\n      swap2\n      swap1\n      tag_20\n      jump\t// in\n    tag_55:\n      tag_56\n      jump\t// in\n    tag_54:\n      mload(0x40)\n      tag_57\n      swap2\n      swap1\n      tag_23\n      jump\t// in\n    tag_57:\n      mload(0x40)\n      dup1\n      swap2\n      sub\n      swap1\n      return\n        /* \"@openzeppelin/contracts/access/Ownable.sol\":2543:2758  function transferOwnership(address newOwner) public virtual onlyOwner {... */\n    tag_14:\n      tag_58\n      0x04\n      dup1\n      calldatasize\n      sub\n      dup2\n      add\n      swap1\n      tag_59\n      swap2\n      swap1\n      tag_20\n      jump\t// in\n    tag_59:\n      tag_60\n      jump\t// in\n    tag_58:\n      stop\n        /* \"contracts/Stake.sol\":972:1006  uint256 public lastRewardTimestamp */\n    tag_15:\n      tag_61\n      tag_62\n      jump\t// in\n    tag_61:\n      mload(0x40)\n      tag_63\n      swap2\n      swap1\n      tag_23\n      jump\t// in\n    tag_63:\n      mload(0x40)\n      dup1\n      swap2\n      sub\n      swap1\n      return\n        /* \"contracts/Stake.sol\":801:850  mapping(address => uint256) public stakedBalances */\n    tag_21:\n      mstore(0x20, 0x04)\n      dup1\n      0x00\n      mstore\n      keccak256(0x00, 0x40)\n      0x00\n      swap2\n      pop\n      swap1\n      pop\n      sload\n      dup2\n      jump\t// out\n        /* \"contracts/Stake.sol\":856:909  mapping(address => uint256) public lastStakeTimestamp */\n    tag_26:\n      mstore(0x20, 0x05)\n      dup1\n      0x00\n      mstore\n      keccak256(0x00, 0x40)\n      0x00\n      swap2\n      pop\n      swap1\n      pop\n      sload\n      dup2\n      jump\t// out\n        /* \"contracts/Stake.sol\":3377:3710  function withdraw(uint256 amount) external nonReentrant {... */\n    tag_31:\n        /* \"@openzeppelin/contracts/utils/ReentrancyGuard.sol\":2356:2377  _nonReentrantBefore() */\n      tag_65\n        /* \"@openzeppelin/contracts/utils/ReentrancyGuard.sol\":2356:2375  _nonReentrantBefore */\n      tag_66\n        /* \"@openzeppelin/contracts/utils/ReentrancyGuard.sol\":2356:2377  _nonReentrantBefore() */\n      jump\t// in\n    tag_65:\n        /* \"contracts/Stake.sol\":3460:3461  0 */\n      0x00\n        /* \"contracts/Stake.sol\":3451:3457  amount */\n      dup2\n        /* \"contracts/Stake.sol\":3451:3461  amount > 0 */\n      gt\n        /* \"contracts/Stake.sol\":3443:3495  require(amount > 0, \"Amount must be greater than 0\") */\n      tag_68\n      jumpi\n      mload(0x40)\n      0x08c379a000000000000000000000000000000000000000000000000000000000\n      dup2\n      mstore\n      0x04\n      add\n      tag_69\n      swap1\n      tag_70\n      jump\t// in\n    tag_69:\n      mload(0x40)\n      dup1\n      swap2\n      sub\n      swap1\n      revert\n    tag_68:\n        /* \"contracts/Stake.sol\":3505:3529  updateReward(msg.sender) */\n      tag_71\n        /* \"contracts/Stake.sol\":3518:3528  msg.sender */\n      caller\n        /* \"contracts/Stake.sol\":3505:3517  updateReward */\n      tag_72\n        /* \"contracts/Stake.sol\":3505:3529  updateReward(msg.sender) */\n      jump\t// in\n    tag_71:\n        /* \"contracts/Stake.sol\":3570:3576  amount */\n      dup1\n        /* \"contracts/Stake.sol\":3540:3554  stakedBalances */\n      0x04\n        /* \"contracts/Stake.sol\":3540:3566  stakedBalances[msg.sender] */\n      0x00\n        /* \"contracts/Stake.sol\":3555:3565  msg.sender */\n      caller\n        /* \"contracts/Stake.sol\":3540:3566  stakedBalances[msg.sender] */\n      0xffffffffffffffffffffffffffffffffffffffff\n      and\n      0xffffffffffffffffffffffffffffffffffffffff\n      and\n      dup2\n      mstore\n      0x20\n      add\n      swap1\n      dup2\n      mstore\n      0x20\n      add\n      0x00\n      keccak256\n      0x00\n        /* \"contracts/Stake.sol\":3540:3576  stakedBalances[msg.sender] -= amount */\n      dup3\n      dup3\n      sload\n      tag_73\n      swap2\n      swap1\n      tag_74\n      jump\t// in\n    tag_73:\n      swap3\n      pop\n      pop\n      dup2\n      swap1\n      sstore\n      pop\n        /* \"contracts/Stake.sol\":3601:3607  amount */\n      dup1\n        /* \"contracts/Stake.sol\":3586:3597  totalStaked */\n      0x03\n      0x00\n        /* \"contracts/Stake.sol\":3586:3607  totalStaked -= amount */\n      dup3\n      dup3\n      sload\n      tag_75\n      swap2\n      swap1\n      tag_74\n      jump\t// in\n    tag_75:\n      swap3\n      pop\n      pop\n      dup2\n      swap1\n      sstore\n      pop\n        /* \"contracts/Stake.sol\":3617:3629  stakingToken */\n      0x02\n      0x00\n      swap1\n      sload\n      swap1\n      0x0100\n      exp\n      swap1\n      div\n      0xffffffffffffffffffffffffffffffffffffffff\n      and\n        /* \"contracts/Stake.sol\":3617:3638  stakingToken.transfer */\n      0xffffffffffffffffffffffffffffffffffffffff\n      and\n      0xa9059cbb\n        /* \"contracts/Stake.sol\":3639:3649  msg.sender */\n      caller\n        /* \"contracts/Stake.sol\":3651:3657  amount */\n      dup4\n        /* \"contracts/Stake.sol\":3617:3658  stakingToken.transfer(msg.sender, amount) */\n      mload(0x40)\n      dup4\n      0xffffffff\n      and\n      0xe0\n      shl\n      dup2\n      mstore\n      0x04\n      add\n      tag_76\n      swap3\n      swap2\n      swap1\n      tag_77\n      jump\t// in\n    tag_76:\n      0x20\n      mload(0x40)\n      dup1\n      dup4\n      sub\n      dup2\n      0x00\n      dup8\n      gas\n      call\n      iszero\n      dup1\n      iszero\n      tag_79\n      jumpi\n      returndatasize\n      0x00\n      dup1\n      returndatacopy\n      revert(0x00, returndatasize)\n    tag_79:\n      pop\n      pop\n      pop\n      pop\n      mload(0x40)\n      returndatasize\n      not(0x1f)\n      0x1f\n      dup3\n      add\n      and\n      dup3\n      add\n      dup1\n      0x40\n      mstore\n      pop\n      dup2\n      add\n      swap1\n      tag_80\n      swap2\n      swap1\n      tag_81\n      jump\t// in\n    tag_80:\n      pop\n        /* \"contracts/Stake.sol\":3684:3694  msg.sender */\n      caller\n        /* \"contracts/Stake.sol\":3674:3703  Withdrawn(msg.sender, amount) */\n      0xffffffffffffffffffffffffffffffffffffffff\n      and\n      0x7084f5476618d8e60b11ef0d7d3f06914655adb8793e28ff7f018d4c76d505d5\n        /* \"contracts/Stake.sol\":3696:3702  amount */\n      dup3\n        /* \"contracts/Stake.sol\":3674:3703  Withdrawn(msg.sender, amount) */\n      mload(0x40)\n      tag_82\n      swap2\n      swap1\n      tag_23\n      jump\t// in\n    tag_82:\n      mload(0x40)\n      dup1\n      swap2\n      sub\n      swap1\n      log2\n        /* \"@openzeppelin/contracts/utils/ReentrancyGuard.sol\":2398:2418  _nonReentrantAfter() */\n      tag_83\n        /* \"@openzeppelin/contracts/utils/ReentrancyGuard.sol\":2398:2416  _nonReentrantAfter */\n      tag_84\n        /* \"@openzeppelin/contracts/utils/ReentrancyGuard.sol\":2398:2418  _nonReentrantAfter() */\n      jump\t// in\n    tag_83:\n        /* \"contracts/Stake.sol\":3377:3710  function withdraw(uint256 amount) external nonReentrant {... */\n      pop\n      jump\t// out\n        /* \"@openzeppelin/contracts/access/Ownable.sol\":2293:2394  function renounceOwnership() public virtual onlyOwner {... */\n    tag_33:\n        /* \"@openzeppelin/contracts/access/Ownable.sol\":1531:1544  _checkOwner() */\n      tag_86\n        /* \"@openzeppelin/contracts/access/Ownable.sol\":1531:1542  _checkOwner */\n      tag_87\n        /* \"@openzeppelin/contracts/access/Ownable.sol\":1531:1544  _checkOwner() */\n      jump\t// in\n    tag_86:\n        /* \"@openzeppelin/contracts/access/Ownable.sol\":2357:2387  _transferOwnership(address(0)) */\n      tag_89\n        /* \"@openzeppelin/contracts/access/Ownable.sol\":2384:2385  0 */\n      0x00\n        /* \"@openzeppelin/contracts/access/Ownable.sol\":2357:2375  _transferOwnership */\n      tag_90\n        /* \"@openzeppelin/contracts/access/Ownable.sol\":2357:2387  _transferOwnership(address(0)) */\n      jump\t// in\n    tag_89:\n        /* \"@openzeppelin/contracts/access/Ownable.sol\":2293:2394  function renounceOwnership() public virtual onlyOwner {... */\n      jump\t// out\n        /* \"contracts/Stake.sol\":737:763  IERC20 public stakingToken */\n    tag_35:\n      0x02\n      0x00\n      swap1\n      sload\n      swap1\n      0x0100\n      exp\n      swap1\n      div\n      0xffffffffffffffffffffffffffffffffffffffff\n      and\n      dup2\n      jump\t// out\n        /* \"contracts/Stake.sol\":2686:3237  function stake(uint256 amount, uint256 stakingPeriod) external nonReentrant {... */\n    tag_41:\n        /* \"@openzeppelin/contracts/utils/ReentrancyGuard.sol\":2356:2377  _nonReentrantBefore() */\n      tag_92\n        /* \"@openzeppelin/contracts/utils/ReentrancyGuard.sol\":2356:2375  _nonReentrantBefore */\n      tag_66\n        /* \"@openzeppelin/contracts/utils/ReentrancyGuard.sol\":2356:2377  _nonReentrantBefore() */\n      jump\t// in\n    tag_92:\n        /* \"contracts/Stake.sol\":2789:2790  0 */\n      0x00\n        /* \"contracts/Stake.sol\":2780:2786  amount */\n      dup3\n        /* \"contracts/Stake.sol\":2780:2790  amount > 0 */\n      gt\n        /* \"contracts/Stake.sol\":2772:2824  require(amount > 0, \"Amount must be greater than 0\") */\n      tag_94\n      jumpi\n      mload(0x40)\n      0x08c379a000000000000000000000000000000000000000000000000000000000\n      dup2\n      mstore\n      0x04\n      add\n      tag_95\n      swap1\n      tag_70\n      jump\t// in\n    tag_95:\n      mload(0x40)\n      dup1\n      swap2\n      sub\n      swap1\n      revert\n    tag_94:\n        /* \"contracts/Stake.sol\":2842:2889  supportedStakingPeriods.contains(stakingPeriod) */\n      tag_96\n        /* \"contracts/Stake.sol\":2875:2888  stakingPeriod */\n      dup2\n        /* \"contracts/Stake.sol\":2842:2865  supportedStakingPeriods */\n      0x08\n        /* \"contracts/Stake.sol\":2842:2874  supportedStakingPeriods.contains */\n      tag_97\n      swap1\n        /* \"contracts/Stake.sol\":2842:2889  supportedStakingPeriods.contains(stakingPeriod) */\n      swap2\n      swap1\n      0xffffffff\n      and\n      jump\t// in\n    tag_96:\n        /* \"contracts/Stake.sol\":2834:2916  require(supportedStakingPeriods.contains(stakingPeriod), \"Invalid staking period\") */\n      tag_98\n      jumpi\n      mload(0x40)\n      0x08c379a000000000000000000000000000000000000000000000000000000000\n      dup2\n      mstore\n      0x04\n      add\n      tag_99\n      swap1\n      tag_100\n      jump\t// in\n    tag_99:\n      mload(0x40)\n      dup1\n      swap2\n      sub\n      swap1\n      revert\n    tag_98:\n        /* \"contracts/Stake.sol\":2935:2959  updateReward(msg.sender) */\n      tag_101\n        /* \"contracts/Stake.sol\":2948:2958  msg.sender */\n      caller\n        /* \"contracts/Stake.sol\":2935:2947  updateReward */\n      tag_72\n        /* \"contracts/Stake.sol\":2935:2959  updateReward(msg.sender) */\n      jump\t// in\n    tag_101:\n        /* \"contracts/Stake.sol\":2978:2990  stakingToken */\n      0x02\n      0x00\n      swap1\n      sload\n      swap1\n      0x0100\n      exp\n      swap1\n      div\n      0xffffffffffffffffffffffffffffffffffffffff\n      and\n        /* \"contracts/Stake.sol\":2978:3003  stakingToken.transferFrom */\n      0xffffffffffffffffffffffffffffffffffffffff\n      and\n      0x23b872dd\n        /* \"contracts/Stake.sol\":3004:3014  msg.sender */\n      caller\n        /* \"contracts/Stake.sol\":3024:3028  this */\n      address\n        /* \"contracts/Stake.sol\":3031:3037  amount */\n      dup6\n        /* \"contracts/Stake.sol\":2978:3038  stakingToken.transferFrom(msg.sender, address(this), amount) */\n      mload(0x40)\n      dup5\n      0xffffffff\n      and\n      0xe0\n      shl\n      dup2\n      mstore\n      0x04\n      add\n      tag_102\n      swap4\n      swap3\n      swap2\n      swap1\n      tag_103\n      jump\t// in\n    tag_102:\n      0x20\n      mload(0x40)\n      dup1\n      dup4\n      sub\n      dup2\n      0x00\n      dup8\n      gas\n      call\n      iszero\n      dup1\n      iszero\n      tag_105\n      jumpi\n      returndatasize\n      0x00\n      dup1\n      returndatacopy\n      revert(0x00, returndatasize)\n    tag_105:\n      pop\n      pop\n      pop\n      pop\n      mload(0x40)\n      returndatasize\n      not(0x1f)\n      0x1f\n      dup3\n      add\n      and\n      dup3\n      add\n      dup1\n      0x40\n      mstore\n      pop\n      dup2\n      add\n      swap1\n      tag_106\n      swap2\n      swap1\n      tag_81\n      jump\t// in\n    tag_106:\n      pop\n        /* \"contracts/Stake.sol\":3078:3084  amount */\n      dup2\n        /* \"contracts/Stake.sol\":3048:3062  stakedBalances */\n      0x04\n        /* \"contracts/Stake.sol\":3048:3074  stakedBalances[msg.sender] */\n      0x00\n        /* \"contracts/Stake.sol\":3063:3073  msg.sender */\n      caller\n        /* \"contracts/Stake.sol\":3048:3074  stakedBalances[msg.sender] */\n      0xffffffffffffffffffffffffffffffffffffffff\n      and\n      0xffffffffffffffffffffffffffffffffffffffff\n      and\n      dup2\n      mstore\n      0x20\n      add\n      swap1\n      dup2\n      mstore\n      0x20\n      add\n      0x00\n      keccak256\n      0x00\n        /* \"contracts/Stake.sol\":3048:3084  stakedBalances[msg.sender] += amount */\n      dup3\n      dup3\n      sload\n      tag_107\n      swap2\n      swap1\n      tag_108\n      jump\t// in\n    tag_107:\n      swap3\n      pop\n      pop\n      dup2\n      swap1\n      sstore\n      pop\n        /* \"contracts/Stake.sol\":3109:3115  amount */\n      dup2\n        /* \"contracts/Stake.sol\":3094:3105  totalStaked */\n      0x03\n      0x00\n        /* \"contracts/Stake.sol\":3094:3115  totalStaked += amount */\n      dup3\n      dup3\n      sload\n      tag_109\n      swap2\n      swap1\n      tag_108\n      jump\t// in\n    tag_109:\n      swap3\n      pop\n      pop\n      dup2\n      swap1\n      sstore\n      pop\n        /* \"contracts/Stake.sol\":3158:3173  block.timestamp */\n      timestamp\n        /* \"contracts/Stake.sol\":3125:3143  lastStakeTimestamp */\n      0x05\n        /* \"contracts/Stake.sol\":3125:3155  lastStakeTimestamp[msg.sender] */\n      0x00\n        /* \"contracts/Stake.sol\":3144:3154  msg.sender */\n      caller\n        /* \"contracts/Stake.sol\":3125:3155  lastStakeTimestamp[msg.sender] */\n      0xffffffffffffffffffffffffffffffffffffffff\n      and\n      0xffffffffffffffffffffffffffffffffffffffff\n      and\n      dup2\n      mstore\n      0x20\n      add\n      swap1\n      dup2\n      mstore\n      0x20\n      add\n      0x00\n      keccak256\n        /* \"contracts/Stake.sol\":3125:3173  lastStakeTimestamp[msg.sender] = block.timestamp */\n      dup2\n      swap1\n      sstore\n      pop\n        /* \"contracts/Stake.sol\":3196:3206  msg.sender */\n      caller\n        /* \"contracts/Stake.sol\":3189:3230  Staked(msg.sender, amount, stakingPeriod) */\n      0xffffffffffffffffffffffffffffffffffffffff\n      and\n      0x1449c6dd7851abc30abf37f57715f492010519147cc2652fbc38202c18a6ee90\n        /* \"contracts/Stake.sol\":3208:3214  amount */\n      dup4\n        /* \"contracts/Stake.sol\":3216:3229  stakingPeriod */\n      dup4\n        /* \"contracts/Stake.sol\":3189:3230  Staked(msg.sender, amount, stakingPeriod) */\n      mload(0x40)\n      tag_110\n      swap3\n      swap2\n      swap1\n      tag_111\n      jump\t// in\n    tag_110:\n      mload(0x40)\n      dup1\n      swap2\n      sub\n      swap1\n      log2\n        /* \"@openzeppelin/contracts/utils/ReentrancyGuard.sol\":2398:2418  _nonReentrantAfter() */\n      tag_112\n        /* \"@openzeppelin/contracts/utils/ReentrancyGuard.sol\":2398:2416  _nonReentrantAfter */\n      tag_84\n        /* \"@openzeppelin/contracts/utils/ReentrancyGuard.sol\":2398:2418  _nonReentrantAfter() */\n      jump\t// in\n    tag_112:\n        /* \"contracts/Stake.sol\":2686:3237  function stake(uint256 amount, uint256 stakingPeriod) external nonReentrant {... */\n      pop\n      pop\n      jump\t// out\n        /* \"contracts/Stake.sol\":915:940  uint256 public rewardRate */\n    tag_43:\n      sload(0x06)\n      dup2\n      jump\t// out\n        /* \"contracts/Stake.sol\":769:795  uint256 public totalStaked */\n    tag_46:\n      sload(0x03)\n      dup2\n      jump\t// out\n        /* \"@openzeppelin/contracts/access/Ownable.sol\":1638:1723  function owner() public view virtual returns (address) {... */\n    tag_49:\n        /* \"@openzeppelin/contracts/access/Ownable.sol\":1684:1691  address */\n      0x00\n        /* \"@openzeppelin/contracts/access/Ownable.sol\":1710:1716  _owner */\n      dup1\n      0x00\n      swap1\n      sload\n      swap1\n      0x0100\n      exp\n      swap1\n      div\n      0xffffffffffffffffffffffffffffffffffffffff\n      and\n        /* \"@openzeppelin/contracts/access/Ownable.sol\":1703:1716  return _owner */\n      swap1\n      pop\n        /* \"@openzeppelin/contracts/access/Ownable.sol\":1638:1723  function owner() public view virtual returns (address) {... */\n      swap1\n      jump\t// out\n        /* \"contracts/Stake.sol\":3817:4101  function claimReward() external nonReentrant {... */\n    tag_53:\n        /* \"@openzeppelin/contracts/utils/ReentrancyGuard.sol\":2356:2377  _nonReentrantBefore() */\n      tag_115\n        /* \"@openzeppelin/contracts/utils/ReentrancyGuard.sol\":2356:2375  _nonReentrantBefore */\n      tag_66\n        /* \"@openzeppelin/contracts/utils/ReentrancyGuard.sol\":2356:2377  _nonReentrantBefore() */\n      jump\t// in\n    tag_115:\n        /* \"contracts/Stake.sol\":3872:3896  updateReward(msg.sender) */\n      tag_117\n        /* \"contracts/Stake.sol\":3885:3895  msg.sender */\n      caller\n        /* \"contracts/Stake.sol\":3872:3884  updateReward */\n      tag_72\n        /* \"contracts/Stake.sol\":3872:3896  updateReward(msg.sender) */\n      jump\t// in\n    tag_117:\n        /* \"contracts/Stake.sol\":3906:3920  uint256 reward */\n      0x00\n        /* \"contracts/Stake.sol\":3923:3950  calculateReward(msg.sender) */\n      tag_118\n        /* \"contracts/Stake.sol\":3939:3949  msg.sender */\n      caller\n        /* \"contracts/Stake.sol\":3923:3938  calculateReward */\n      tag_56\n        /* \"contracts/Stake.sol\":3923:3950  calculateReward(msg.sender) */\n      jump\t// in\n    tag_118:\n        /* \"contracts/Stake.sol\":3906:3950  uint256 reward = calculateReward(msg.sender) */\n      swap1\n      pop\n        /* \"contracts/Stake.sol\":3974:3975  0 */\n      0x00\n        /* \"contracts/Stake.sol\":3965:3971  reward */\n      dup2\n        /* \"contracts/Stake.sol\":3965:3975  reward > 0 */\n      gt\n        /* \"contracts/Stake.sol\":3961:4095  if (reward > 0) {... */\n      iszero\n      tag_119\n      jumpi\n        /* \"contracts/Stake.sol\":3991:4003  stakingToken */\n      0x02\n      0x00\n      swap1\n      sload\n      swap1\n      0x0100\n      exp\n      swap1\n      div\n      0xffffffffffffffffffffffffffffffffffffffff\n      and\n        /* \"contracts/Stake.sol\":3991:4012  stakingToken.transfer */\n      0xffffffffffffffffffffffffffffffffffffffff\n      and\n      0xa9059cbb\n        /* \"contracts/Stake.sol\":4013:4023  msg.sender */\n      caller\n        /* \"contracts/Stake.sol\":4025:4031  reward */\n      dup4\n        /* \"contracts/Stake.sol\":3991:4032  stakingToken.transfer(msg.sender, reward) */\n      mload(0x40)\n      dup4\n      0xffffffff\n      and\n      0xe0\n      shl\n      dup2\n      mstore\n      0x04\n      add\n      tag_120\n      swap3\n      swap2\n      swap1\n      tag_77\n      jump\t// in\n    tag_120:\n      0x20\n      mload(0x40)\n      dup1\n      dup4\n      sub\n      dup2\n      0x00\n      dup8\n      gas\n      call\n      iszero\n      dup1\n      iszero\n      tag_122\n      jumpi\n      returndatasize\n      0x00\n      dup1\n      returndatacopy\n      revert(0x00, returndatasize)\n    tag_122:\n      pop\n      pop\n      pop\n      pop\n      mload(0x40)\n      returndatasize\n      not(0x1f)\n      0x1f\n      dup3\n      add\n      and\n      dup3\n      add\n      dup1\n      0x40\n      mstore\n      pop\n      dup2\n      add\n      swap1\n      tag_123\n      swap2\n      swap1\n      tag_81\n      jump\t// in\n    tag_123:\n      pop\n        /* \"contracts/Stake.sol\":4065:4075  msg.sender */\n      caller\n        /* \"contracts/Stake.sol\":4051:4084  RewardClaimed(msg.sender, reward) */\n      0xffffffffffffffffffffffffffffffffffffffff\n      and\n      0x106f923f993c2149d49b4255ff723acafa1f2d94393f561d3eda32ae348f7241\n        /* \"contracts/Stake.sol\":4077:4083  reward */\n      dup3\n        /* \"contracts/Stake.sol\":4051:4084  RewardClaimed(msg.sender, reward) */\n      mload(0x40)\n      tag_124\n      swap2\n      swap1\n      tag_23\n      jump\t// in\n    tag_124:\n      mload(0x40)\n      dup1\n      swap2\n      sub\n      swap1\n      log2\n        /* \"contracts/Stake.sol\":3961:4095  if (reward > 0) {... */\n    tag_119:\n        /* \"contracts/Stake.sol\":3862:4101  {... */\n      pop\n        /* \"@openzeppelin/contracts/utils/ReentrancyGuard.sol\":2398:2418  _nonReentrantAfter() */\n      tag_125\n        /* \"@openzeppelin/contracts/utils/ReentrancyGuard.sol\":2398:2416  _nonReentrantAfter */\n      tag_84\n        /* \"@openzeppelin/contracts/utils/ReentrancyGuard.sol\":2398:2418  _nonReentrantAfter() */\n      jump\t// in\n    tag_125:\n        /* \"contracts/Stake.sol\":3817:4101  function claimReward() external nonReentrant {... */\n      jump\t// out\n        /* \"contracts/Stake.sol\":4822:5051  function calculateReward(address account) public view returns (uint256) {... */\n    tag_56:\n        /* \"contracts/Stake.sol\":4885:4892  uint256 */\n      0x00\n        /* \"contracts/Stake.sol\":4904:4926  uint256 elapsedSeconds */\n      dup1\n        /* \"contracts/Stake.sol\":4947:4965  lastStakeTimestamp */\n      0x05\n        /* \"contracts/Stake.sol\":4947:4974  lastStakeTimestamp[account] */\n      0x00\n        /* \"contracts/Stake.sol\":4966:4973  account */\n      dup5\n        /* \"contracts/Stake.sol\":4947:4974  lastStakeTimestamp[account] */\n      0xffffffffffffffffffffffffffffffffffffffff\n      and\n      0xffffffffffffffffffffffffffffffffffffffff\n      and\n      dup2\n      mstore\n      0x20\n      add\n      swap1\n      dup2\n      mstore\n      0x20\n      add\n      0x00\n      keccak256\n      sload\n        /* \"contracts/Stake.sol\":4929:4944  block.timestamp */\n      timestamp\n        /* \"contracts/Stake.sol\":4929:4974  block.timestamp - lastStakeTimestamp[account] */\n      tag_127\n      swap2\n      swap1\n      tag_74\n      jump\t// in\n    tag_127:\n        /* \"contracts/Stake.sol\":4904:4974  uint256 elapsedSeconds = block.timestamp - lastStakeTimestamp[account] */\n      swap1\n      pop\n        /* \"contracts/Stake.sol\":5034:5044  rewardRate */\n      sload(0x06)\n        /* \"contracts/Stake.sol\":5017:5031  elapsedSeconds */\n      dup2\n        /* \"contracts/Stake.sol\":4991:5005  stakedBalances */\n      0x04\n        /* \"contracts/Stake.sol\":4991:5014  stakedBalances[account] */\n      0x00\n        /* \"contracts/Stake.sol\":5006:5013  account */\n      dup7\n        /* \"contracts/Stake.sol\":4991:5014  stakedBalances[account] */\n      0xffffffffffffffffffffffffffffffffffffffff\n      and\n      0xffffffffffffffffffffffffffffffffffffffff\n      and\n      dup2\n      mstore\n      0x20\n      add\n      swap1\n      dup2\n      mstore\n      0x20\n      add\n      0x00\n      keccak256\n      sload\n        /* \"contracts/Stake.sol\":4991:5031  stakedBalances[account] * elapsedSeconds */\n      tag_128\n      swap2\n      swap1\n      tag_129\n      jump\t// in\n    tag_128:\n        /* \"contracts/Stake.sol\":4991:5044  stakedBalances[account] * elapsedSeconds * rewardRate */\n      tag_130\n      swap2\n      swap1\n      tag_129\n      jump\t// in\n    tag_130:\n        /* \"contracts/Stake.sol\":4984:5044  return stakedBalances[account] * elapsedSeconds * rewardRate */\n      swap2\n      pop\n      pop\n        /* \"contracts/Stake.sol\":4822:5051  function calculateReward(address account) public view returns (uint256) {... */\n      swap2\n      swap1\n      pop\n      jump\t// out\n        /* \"@openzeppelin/contracts/access/Ownable.sol\":2543:2758  function transferOwnership(address newOwner) public virtual onlyOwner {... */\n    tag_60:\n        /* \"@openzeppelin/contracts/access/Ownable.sol\":1531:1544  _checkOwner() */\n      tag_132\n        /* \"@openzeppelin/contracts/access/Ownable.sol\":1531:1542  _checkOwner */\n      tag_87\n        /* \"@openzeppelin/contracts/access/Ownable.sol\":1531:1544  _checkOwner() */\n      jump\t// in\n    tag_132:\n        /* \"@openzeppelin/contracts/access/Ownable.sol\":2647:2648  0 */\n      0x00\n        /* \"@openzeppelin/contracts/access/Ownable.sol\":2627:2649  newOwner == address(0) */\n      0xffffffffffffffffffffffffffffffffffffffff\n      and\n        /* \"@openzeppelin/contracts/access/Ownable.sol\":2627:2635  newOwner */\n      dup2\n        /* \"@openzeppelin/contracts/access/Ownable.sol\":2627:2649  newOwner == address(0) */\n      0xffffffffffffffffffffffffffffffffffffffff\n      and\n      sub\n        /* \"@openzeppelin/contracts/access/Ownable.sol\":2623:2714  if (newOwner == address(0)) {... */\n      tag_134\n      jumpi\n        /* \"@openzeppelin/contracts/access/Ownable.sol\":2700:2701  0 */\n      0x00\n        /* \"@openzeppelin/contracts/access/Ownable.sol\":2672:2703  OwnableInvalidOwner(address(0)) */\n      mload(0x40)\n      0x1e4fbdf700000000000000000000000000000000000000000000000000000000\n      dup2\n      mstore\n      0x04\n      add\n      tag_135\n      swap2\n      swap1\n      tag_51\n      jump\t// in\n    tag_135:\n      mload(0x40)\n      dup1\n      swap2\n      sub\n      swap1\n      revert\n        /* \"@openzeppelin/contracts/access/Ownable.sol\":2623:2714  if (newOwner == address(0)) {... */\n    tag_134:\n        /* \"@openzeppelin/contracts/access/Ownable.sol\":2723:2751  _transferOwnership(newOwner) */\n      tag_136\n        /* \"@openzeppelin/contracts/access/Ownable.sol\":2742:2750  newOwner */\n      dup2\n        /* \"@openzeppelin/contracts/access/Ownable.sol\":2723:2741  _transferOwnership */\n      tag_90\n        /* \"@openzeppelin/contracts/access/Ownable.sol\":2723:2751  _transferOwnership(newOwner) */\n      jump\t// in\n    tag_136:\n        /* \"@openzeppelin/contracts/access/Ownable.sol\":2543:2758  function transferOwnership(address newOwner) public virtual onlyOwner {... */\n      pop\n      jump\t// out\n        /* \"contracts/Stake.sol\":972:1006  uint256 public lastRewardTimestamp */\n    tag_62:\n      sload(0x07)\n      dup2\n      jump\t// out\n        /* \"@openzeppelin/contracts/utils/ReentrancyGuard.sol\":2431:2738  function _nonReentrantBefore() private {... */\n    tag_66:\n        /* \"@openzeppelin/contracts/utils/ReentrancyGuard.sol\":1755:1756  2 */\n      0x02\n        /* \"@openzeppelin/contracts/utils/ReentrancyGuard.sol\":2558:2565  _status */\n      sload(0x01)\n        /* \"@openzeppelin/contracts/utils/ReentrancyGuard.sol\":2558:2576  _status == ENTERED */\n      sub\n        /* \"@openzeppelin/contracts/utils/ReentrancyGuard.sol\":2554:2640  if (_status == ENTERED) {... */\n      tag_138\n      jumpi\n        /* \"@openzeppelin/contracts/utils/ReentrancyGuard.sol\":2599:2629  ReentrancyGuardReentrantCall() */\n      mload(0x40)\n      0x3ee5aeb500000000000000000000000000000000000000000000000000000000\n      dup2\n      mstore\n      0x04\n      add\n      mload(0x40)\n      dup1\n      swap2\n      sub\n      swap1\n      revert\n        /* \"@openzeppelin/contracts/utils/ReentrancyGuard.sol\":2554:2640  if (_status == ENTERED) {... */\n    tag_138:\n        /* \"@openzeppelin/contracts/utils/ReentrancyGuard.sol\":1755:1756  2 */\n      0x02\n        /* \"@openzeppelin/contracts/utils/ReentrancyGuard.sol\":2714:2721  _status */\n      0x01\n        /* \"@openzeppelin/contracts/utils/ReentrancyGuard.sol\":2714:2731  _status = ENTERED */\n      dup2\n      swap1\n      sstore\n      pop\n        /* \"@openzeppelin/contracts/utils/ReentrancyGuard.sol\":2431:2738  function _nonReentrantBefore() private {... */\n      jump\t// out\n        /* \"contracts/Stake.sol\":4239:4661  function updateReward(address account) internal {... */\n    tag_72:\n        /* \"contracts/Stake.sol\":4376:4395  lastRewardTimestamp */\n      sload(0x07)\n        /* \"contracts/Stake.sol\":4358:4373  block.timestamp */\n      timestamp\n        /* \"contracts/Stake.sol\":4358:4395  block.timestamp > lastRewardTimestamp */\n      gt\n        /* \"contracts/Stake.sol\":4354:4659  if (block.timestamp > lastRewardTimestamp) {... */\n      iszero\n      tag_140\n      jumpi\n        /* \"contracts/Stake.sol\":4407:4429  uint256 elapsedSeconds */\n      0x00\n        /* \"contracts/Stake.sol\":4450:4469  lastRewardTimestamp */\n      sload(0x07)\n        /* \"contracts/Stake.sol\":4432:4447  block.timestamp */\n      timestamp\n        /* \"contracts/Stake.sol\":4432:4469  block.timestamp - lastRewardTimestamp */\n      tag_141\n      swap2\n      swap1\n      tag_74\n      jump\t// in\n    tag_141:\n        /* \"contracts/Stake.sol\":4407:4469  uint256 elapsedSeconds = block.timestamp - lastRewardTimestamp */\n      swap1\n      pop\n        /* \"contracts/Stake.sol\":4479:4493  uint256 reward */\n      0x00\n        /* \"contracts/Stake.sol\":4527:4537  rewardRate */\n      sload(0x06)\n        /* \"contracts/Stake.sol\":4510:4524  elapsedSeconds */\n      dup3\n        /* \"contracts/Stake.sol\":4496:4507  totalStaked */\n      sload(0x03)\n        /* \"contracts/Stake.sol\":4496:4524  totalStaked * elapsedSeconds */\n      tag_142\n      swap2\n      swap1\n      tag_129\n      jump\t// in\n    tag_142:\n        /* \"contracts/Stake.sol\":4496:4537  totalStaked * elapsedSeconds * rewardRate */\n      tag_143\n      swap2\n      swap1\n      tag_129\n      jump\t// in\n    tag_143:\n        /* \"contracts/Stake.sol\":4479:4537  uint256 reward = totalStaked * elapsedSeconds * rewardRate */\n      swap1\n      pop\n        /* \"contracts/Stake.sol\":4548:4560  stakingToken */\n      0x02\n      0x00\n      swap1\n      sload\n      swap1\n      0x0100\n      exp\n      swap1\n      div\n      0xffffffffffffffffffffffffffffffffffffffff\n      and\n        /* \"contracts/Stake.sol\":4548:4573  stakingToken.transferFrom */\n      0xffffffffffffffffffffffffffffffffffffffff\n      and\n      0x23b872dd\n        /* \"contracts/Stake.sol\":4574:4581  owner() */\n      tag_144\n        /* \"contracts/Stake.sol\":4574:4579  owner */\n      tag_49\n        /* \"contracts/Stake.sol\":4574:4581  owner() */\n      jump\t// in\n    tag_144:\n        /* \"contracts/Stake.sol\":4591:4595  this */\n      address\n        /* \"contracts/Stake.sol\":4598:4604  reward */\n      dup5\n        /* \"contracts/Stake.sol\":4548:4605  stakingToken.transferFrom(owner(), address(this), reward) */\n      mload(0x40)\n      dup5\n      0xffffffff\n      and\n      0xe0\n      shl\n      dup2\n      mstore\n      0x04\n      add\n      tag_145\n      swap4\n      swap3\n      swap2\n      swap1\n      tag_103\n      jump\t// in\n    tag_145:\n      0x20\n      mload(0x40)\n      dup1\n      dup4\n      sub\n      dup2\n      0x00\n      dup8\n      gas\n      call\n      iszero\n      dup1\n      iszero\n      tag_147\n      jumpi\n      returndatasize\n      0x00\n      dup1\n      returndatacopy\n      revert(0x00, returndatasize)\n    tag_147:\n      pop\n      pop\n      pop\n      pop\n      mload(0x40)\n      returndatasize\n      not(0x1f)\n      0x1f\n      dup3\n      add\n      and\n      dup3\n      add\n      dup1\n      0x40\n      mstore\n      pop\n      dup2\n      add\n      swap1\n      tag_148\n      swap2\n      swap1\n      tag_81\n      jump\t// in\n    tag_148:\n      pop\n        /* \"contracts/Stake.sol\":4637:4652  block.timestamp */\n      timestamp\n        /* \"contracts/Stake.sol\":4615:4634  lastRewardTimestamp */\n      0x07\n        /* \"contracts/Stake.sol\":4615:4652  lastRewardTimestamp = block.timestamp */\n      dup2\n      swap1\n      sstore\n      pop\n        /* \"contracts/Stake.sol\":4397:4659  {... */\n      pop\n      pop\n        /* \"contracts/Stake.sol\":4354:4659  if (block.timestamp > lastRewardTimestamp) {... */\n    tag_140:\n        /* \"contracts/Stake.sol\":4239:4661  function updateReward(address account) internal {... */\n      pop\n      jump\t// out\n        /* \"@openzeppelin/contracts/utils/ReentrancyGuard.sol\":2744:2952  function _nonReentrantAfter() private {... */\n    tag_84:\n        /* \"@openzeppelin/contracts/utils/ReentrancyGuard.sol\":1713:1714  1 */\n      0x01\n        /* \"@openzeppelin/contracts/utils/ReentrancyGuard.sol\":2924:2931  _status */\n      dup1\n        /* \"@openzeppelin/contracts/utils/ReentrancyGuard.sol\":2924:2945  _status = NOT_ENTERED */\n      dup2\n      swap1\n      sstore\n      pop\n        /* \"@openzeppelin/contracts/utils/ReentrancyGuard.sol\":2744:2952  function _nonReentrantAfter() private {... */\n      jump\t// out\n        /* \"@openzeppelin/contracts/access/Ownable.sol\":1796:1958  function _checkOwner() internal view virtual {... */\n    tag_87:\n        /* \"@openzeppelin/contracts/access/Ownable.sol\":1866:1878  _msgSender() */\n      tag_151\n        /* \"@openzeppelin/contracts/access/Ownable.sol\":1866:1876  _msgSender */\n      tag_152\n        /* \"@openzeppelin/contracts/access/Ownable.sol\":1866:1878  _msgSender() */\n      jump\t// in\n    tag_151:\n        /* \"@openzeppelin/contracts/access/Ownable.sol\":1855:1878  owner() != _msgSender() */\n      0xffffffffffffffffffffffffffffffffffffffff\n      and\n        /* \"@openzeppelin/contracts/access/Ownable.sol\":1855:1862  owner() */\n      tag_153\n        /* \"@openzeppelin/contracts/access/Ownable.sol\":1855:1860  owner */\n      tag_49\n        /* \"@openzeppelin/contracts/access/Ownable.sol\":1855:1862  owner() */\n      jump\t// in\n    tag_153:\n        /* \"@openzeppelin/contracts/access/Ownable.sol\":1855:1878  owner() != _msgSender() */\n      0xffffffffffffffffffffffffffffffffffffffff\n      and\n      eq\n        /* \"@openzeppelin/contracts/access/Ownable.sol\":1851:1952  if (owner() != _msgSender()) {... */\n      tag_154\n      jumpi\n        /* \"@openzeppelin/contracts/access/Ownable.sol\":1928:1940  _msgSender() */\n      tag_155\n        /* \"@openzeppelin/contracts/access/Ownable.sol\":1928:1938  _msgSender */\n      tag_152\n        /* \"@openzeppelin/contracts/access/Ownable.sol\":1928:1940  _msgSender() */\n      jump\t// in\n    tag_155:\n        /* \"@openzeppelin/contracts/access/Ownable.sol\":1901:1941  OwnableUnauthorizedAccount(_msgSender()) */\n      mload(0x40)\n      0x118cdaa700000000000000000000000000000000000000000000000000000000\n      dup2\n      mstore\n      0x04\n      add\n      tag_156\n      swap2\n      swap1\n      tag_51\n      jump\t// in\n    tag_156:\n      mload(0x40)\n      dup1\n      swap2\n      sub\n      swap1\n      revert\n        /* \"@openzeppelin/contracts/access/Ownable.sol\":1851:1952  if (owner() != _msgSender()) {... */\n    tag_154:\n        /* \"@openzeppelin/contracts/access/Ownable.sol\":1796:1958  function _checkOwner() internal view virtual {... */\n      jump\t// out\n        /* \"@openzeppelin/contracts/access/Ownable.sol\":2912:3099  function _transferOwnership(address newOwner) internal virtual {... */\n    tag_90:\n        /* \"@openzeppelin/contracts/access/Ownable.sol\":2985:3001  address oldOwner */\n      0x00\n        /* \"@openzeppelin/contracts/access/Ownable.sol\":3004:3010  _owner */\n      dup1\n      0x00\n      swap1\n      sload\n      swap1\n      0x0100\n      exp\n      swap1\n      div\n      0xffffffffffffffffffffffffffffffffffffffff\n      and\n        /* \"@openzeppelin/contracts/access/Ownable.sol\":2985:3010  address oldOwner = _owner */\n      swap1\n      pop\n        /* \"@openzeppelin/contracts/access/Ownable.sol\":3029:3037  newOwner */\n      dup2\n        /* \"@openzeppelin/contracts/access/Ownable.sol\":3020:3026  _owner */\n      0x00\n      dup1\n        /* \"@openzeppelin/contracts/access/Ownable.sol\":3020:3037  _owner = newOwner */\n      0x0100\n      exp\n      dup2\n      sload\n      dup2\n      0xffffffffffffffffffffffffffffffffffffffff\n      mul\n      not\n      and\n      swap1\n      dup4\n      0xffffffffffffffffffffffffffffffffffffffff\n      and\n      mul\n      or\n      swap1\n      sstore\n      pop\n        /* \"@openzeppelin/contracts/access/Ownable.sol\":3083:3091  newOwner */\n      dup2\n        /* \"@openzeppelin/contracts/access/Ownable.sol\":3052:3092  OwnershipTransferred(oldOwner, newOwner) */\n      0xffffffffffffffffffffffffffffffffffffffff\n      and\n        /* \"@openzeppelin/contracts/access/Ownable.sol\":3073:3081  oldOwner */\n      dup2\n        /* \"@openzeppelin/contracts/access/Ownable.sol\":3052:3092  OwnershipTransferred(oldOwner, newOwner) */\n      0xffffffffffffffffffffffffffffffffffffffff\n      and\n      0x8be0079c531659141344cd1fd0a4f28419497f9722a3daafe3b4186f6b6457e0\n      mload(0x40)\n      mload(0x40)\n      dup1\n      swap2\n      sub\n      swap1\n      log3\n        /* \"@openzeppelin/contracts/access/Ownable.sol\":2975:3099  {... */\n      pop\n        /* \"@openzeppelin/contracts/access/Ownable.sol\":2912:3099  function _transferOwnership(address newOwner) internal virtual {... */\n      pop\n      jump\t// out\n        /* \"@openzeppelin/contracts/utils/structs/EnumerableSet.sol\":11317:11461  function contains(UintSet storage set, uint256 value) internal view returns (bool) {... */\n    tag_97:\n        /* \"@openzeppelin/contracts/utils/structs/EnumerableSet.sol\":11394:11398  bool */\n      0x00\n        /* \"@openzeppelin/contracts/utils/structs/EnumerableSet.sol\":11417:11454  _contains(set._inner, bytes32(value)) */\n      tag_159\n        /* \"@openzeppelin/contracts/utils/structs/EnumerableSet.sol\":11427:11430  set */\n      dup4\n        /* \"@openzeppelin/contracts/utils/structs/EnumerableSet.sol\":11427:11437  set._inner */\n      0x00\n      add\n        /* \"@openzeppelin/contracts/utils/structs/EnumerableSet.sol\":11447:11452  value */\n      dup4\n        /* \"@openzeppelin/contracts/utils/structs/EnumerableSet.sol\":11439:11453  bytes32(value) */\n      0x00\n      shl\n        /* \"@openzeppelin/contracts/utils/structs/EnumerableSet.sol\":11417:11426  _contains */\n      tag_160\n        /* \"@openzeppelin/contracts/utils/structs/EnumerableSet.sol\":11417:11454  _contains(set._inner, bytes32(value)) */\n      jump\t// in\n    tag_159:\n        /* \"@openzeppelin/contracts/utils/structs/EnumerableSet.sol\":11410:11454  return _contains(set._inner, bytes32(value)) */\n      swap1\n      pop\n        /* \"@openzeppelin/contracts/utils/structs/EnumerableSet.sol\":11317:11461  function contains(UintSet storage set, uint256 value) internal view returns (bool) {... */\n      swap3\n      swap2\n      pop\n      pop\n      jump\t// out\n        /* \"@openzeppelin/contracts/utils/Context.sol\":656:752  function _msgSender() internal view virtual returns (address) {... */\n    tag_152:\n        /* \"@openzeppelin/contracts/utils/Context.sol\":709:716  address */\n      0x00\n        /* \"@openzeppelin/contracts/utils/Context.sol\":735:745  msg.sender */\n      caller\n        /* \"@openzeppelin/contracts/utils/Context.sol\":728:745  return msg.sender */\n      swap1\n      pop\n        /* \"@openzeppelin/contracts/utils/Context.sol\":656:752  function _msgSender() internal view virtual returns (address) {... */\n      swap1\n      jump\t// out\n        /* \"@openzeppelin/contracts/utils/structs/EnumerableSet.sol\":4264:4393  function _contains(Set storage set, bytes32 value) private view returns (bool) {... */\n    tag_160:\n        /* \"@openzeppelin/contracts/utils/structs/EnumerableSet.sol\":4337:4341  bool */\n      0x00\n        /* \"@openzeppelin/contracts/utils/structs/EnumerableSet.sol\":4385:4386  0 */\n      dup1\n        /* \"@openzeppelin/contracts/utils/structs/EnumerableSet.sol\":4360:4363  set */\n      dup4\n        /* \"@openzeppelin/contracts/utils/structs/EnumerableSet.sol\":4360:4374  set._positions */\n      0x01\n      add\n        /* \"@openzeppelin/contracts/utils/structs/EnumerableSet.sol\":4360:4381  set._positions[value] */\n      0x00\n        /* \"@openzeppelin/contracts/utils/structs/EnumerableSet.sol\":4375:4380  value */\n      dup5\n        /* \"@openzeppelin/contracts/utils/structs/EnumerableSet.sol\":4360:4381  set._positions[value] */\n      dup2\n      mstore\n      0x20\n      add\n      swap1\n      dup2\n      mstore\n      0x20\n      add\n      0x00\n      keccak256\n      sload\n        /* \"@openzeppelin/contracts/utils/structs/EnumerableSet.sol\":4360:4386  set._positions[value] != 0 */\n      eq\n      iszero\n        /* \"@openzeppelin/contracts/utils/structs/EnumerableSet.sol\":4353:4386  return set._positions[value] != 0 */\n      swap1\n      pop\n        /* \"@openzeppelin/contracts/utils/structs/EnumerableSet.sol\":4264:4393  function _contains(Set storage set, bytes32 value) private view returns (bool) {... */\n      swap3\n      swap2\n      pop\n      pop\n      jump\t// out\n        /* \"#utility.yul\":88:205   */\n    tag_164:\n        /* \"#utility.yul\":197:198   */\n      0x00\n        /* \"#utility.yul\":194:195   */\n      dup1\n        /* \"#utility.yul\":187:199   */\n      revert\n        /* \"#utility.yul\":334:460   */\n    tag_166:\n        /* \"#utility.yul\":371:378   */\n      0x00\n        /* \"#utility.yul\":411:453   */\n      0xffffffffffffffffffffffffffffffffffffffff\n        /* \"#utility.yul\":404:409   */\n      dup3\n        /* \"#utility.yul\":400:454   */\n      and\n        /* \"#utility.yul\":389:454   */\n      swap1\n      pop\n        /* \"#utility.yul\":334:460   */\n      swap2\n      swap1\n      pop\n      jump\t// out\n        /* \"#utility.yul\":466:562   */\n    tag_167:\n        /* \"#utility.yul\":503:510   */\n      0x00\n        /* \"#utility.yul\":532:556   */\n      tag_195\n        /* \"#utility.yul\":550:555   */\n      dup3\n        /* \"#utility.yul\":532:556   */\n      tag_166\n      jump\t// in\n    tag_195:\n        /* \"#utility.yul\":521:556   */\n      swap1\n      pop\n        /* \"#utility.yul\":466:562   */\n      swap2\n      swap1\n      pop\n      jump\t// out\n        /* \"#utility.yul\":568:690   */\n    tag_168:\n        /* \"#utility.yul\":641:665   */\n      tag_197\n        /* \"#utility.yul\":659:664   */\n      dup2\n        /* \"#utility.yul\":641:665   */\n      tag_167\n      jump\t// in\n    tag_197:\n        /* \"#utility.yul\":634:639   */\n      dup2\n        /* \"#utility.yul\":631:666   */\n      eq\n        /* \"#utility.yul\":621:684   */\n      tag_198\n      jumpi\n        /* \"#utility.yul\":680:681   */\n      0x00\n        /* \"#utility.yul\":677:678   */\n      dup1\n        /* \"#utility.yul\":670:682   */\n      revert\n        /* \"#utility.yul\":621:684   */\n    tag_198:\n        /* \"#utility.yul\":568:690   */\n      pop\n      jump\t// out\n        /* \"#utility.yul\":696:835   */\n    tag_169:\n        /* \"#utility.yul\":742:747   */\n      0x00\n        /* \"#utility.yul\":780:786   */\n      dup2\n        /* \"#utility.yul\":767:787   */\n      calldataload\n        /* \"#utility.yul\":758:787   */\n      swap1\n      pop\n        /* \"#utility.yul\":796:829   */\n      tag_200\n        /* \"#utility.yul\":823:828   */\n      dup2\n        /* \"#utility.yul\":796:829   */\n      tag_168\n      jump\t// in\n    tag_200:\n        /* \"#utility.yul\":696:835   */\n      swap3\n      swap2\n      pop\n      pop\n      jump\t// out\n        /* \"#utility.yul\":841:1170   */\n    tag_20:\n        /* \"#utility.yul\":900:906   */\n      0x00\n        /* \"#utility.yul\":949:951   */\n      0x20\n        /* \"#utility.yul\":937:946   */\n      dup3\n        /* \"#utility.yul\":928:935   */\n      dup5\n        /* \"#utility.yul\":924:947   */\n      sub\n        /* \"#utility.yul\":920:952   */\n      slt\n        /* \"#utility.yul\":917:1036   */\n      iszero\n      tag_202\n      jumpi\n        /* \"#utility.yul\":955:1034   */\n      tag_203\n      tag_164\n      jump\t// in\n    tag_203:\n        /* \"#utility.yul\":917:1036   */\n    tag_202:\n        /* \"#utility.yul\":1075:1076   */\n      0x00\n        /* \"#utility.yul\":1100:1153   */\n      tag_204\n        /* \"#utility.yul\":1145:1152   */\n      dup5\n        /* \"#utility.yul\":1136:1142   */\n      dup3\n        /* \"#utility.yul\":1125:1134   */\n      dup6\n        /* \"#utility.yul\":1121:1143   */\n      add\n        /* \"#utility.yul\":1100:1153   */\n      tag_169\n      jump\t// in\n    tag_204:\n        /* \"#utility.yul\":1090:1153   */\n      swap2\n      pop\n        /* \"#utility.yul\":1046:1163   */\n      pop\n        /* \"#utility.yul\":841:1170   */\n      swap3\n      swap2\n      pop\n      pop\n      jump\t// out\n        /* \"#utility.yul\":1176:1253   */\n    tag_170:\n        /* \"#utility.yul\":1213:1220   */\n      0x00\n        /* \"#utility.yul\":1242:1247   */\n      dup2\n        /* \"#utility.yul\":1231:1247   */\n      swap1\n      pop\n        /* \"#utility.yul\":1176:1253   */\n      swap2\n      swap1\n      pop\n      jump\t// out\n        /* \"#utility.yul\":1259:1377   */\n    tag_171:\n        /* \"#utility.yul\":1346:1370   */\n      tag_207\n        /* \"#utility.yul\":1364:1369   */\n      dup2\n        /* \"#utility.yul\":1346:1370   */\n      tag_170\n      jump\t// in\n    tag_207:\n        /* \"#utility.yul\":1341:1344   */\n      dup3\n        /* \"#utility.yul\":1334:1371   */\n      mstore\n        /* \"#utility.yul\":1259:1377   */\n      pop\n      pop\n      jump\t// out\n        /* \"#utility.yul\":1383:1605   */\n    tag_23:\n        /* \"#utility.yul\":1476:1480   */\n      0x00\n        /* \"#utility.yul\":1514:1516   */\n      0x20\n        /* \"#utility.yul\":1503:1512   */\n      dup3\n        /* \"#utility.yul\":1499:1517   */\n      add\n        /* \"#utility.yul\":1491:1517   */\n      swap1\n      pop\n        /* \"#utility.yul\":1527:1598   */\n      tag_209\n        /* \"#utility.yul\":1595:1596   */\n      0x00\n        /* \"#utility.yul\":1584:1593   */\n      dup4\n        /* \"#utility.yul\":1580:1597   */\n      add\n        /* \"#utility.yul\":1571:1577   */\n      dup5\n        /* \"#utility.yul\":1527:1598   */\n      tag_171\n      jump\t// in\n    tag_209:\n        /* \"#utility.yul\":1383:1605   */\n      swap3\n      swap2\n      pop\n      pop\n      jump\t// out\n        /* \"#utility.yul\":1611:1733   */\n    tag_172:\n        /* \"#utility.yul\":1684:1708   */\n      tag_211\n        /* \"#utility.yul\":1702:1707   */\n      dup2\n        /* \"#utility.yul\":1684:1708   */\n      tag_170\n      jump\t// in\n    tag_211:\n        /* \"#utility.yul\":1677:1682   */\n      dup2\n        /* \"#utility.yul\":1674:1709   */\n      eq\n        /* \"#utility.yul\":1664:1727   */\n      tag_212\n      jumpi\n        /* \"#utility.yul\":1723:1724   */\n      0x00\n        /* \"#utility.yul\":1720:1721   */\n      dup1\n        /* \"#utility.yul\":1713:1725   */\n      revert\n        /* \"#utility.yul\":1664:1727   */\n    tag_212:\n        /* \"#utility.yul\":1611:1733   */\n      pop\n      jump\t// out\n        /* \"#utility.yul\":1739:1878   */\n    tag_173:\n        /* \"#utility.yul\":1785:1790   */\n      0x00\n        /* \"#utility.yul\":1823:1829   */\n      dup2\n        /* \"#utility.yul\":1810:1830   */\n      calldataload\n        /* \"#utility.yul\":1801:1830   */\n      swap1\n      pop\n        /* \"#utility.yul\":1839:1872   */\n      tag_214\n        /* \"#utility.yul\":1866:1871   */\n      dup2\n        /* \"#utility.yul\":1839:1872   */\n      tag_172\n      jump\t// in\n    tag_214:\n        /* \"#utility.yul\":1739:1878   */\n      swap3\n      swap2\n      pop\n      pop\n      jump\t// out\n        /* \"#utility.yul\":1884:2213   */\n    tag_30:\n        /* \"#utility.yul\":1943:1949   */\n      0x00\n        /* \"#utility.yul\":1992:1994   */\n      0x20\n        /* \"#utility.yul\":1980:1989   */\n      dup3\n        /* \"#utility.yul\":1971:1978   */\n      dup5\n        /* \"#utility.yul\":1967:1990   */\n      sub\n        /* \"#utility.yul\":1963:1995   */\n      slt\n        /* \"#utility.yul\":1960:2079   */\n      iszero\n      tag_216\n      jumpi\n        /* \"#utility.yul\":1998:2077   */\n      tag_217\n      tag_164\n      jump\t// in\n    tag_217:\n        /* \"#utility.yul\":1960:2079   */\n    tag_216:\n        /* \"#utility.yul\":2118:2119   */\n      0x00\n        /* \"#utility.yul\":2143:2196   */\n      tag_218\n        /* \"#utility.yul\":2188:2195   */\n      dup5\n        /* \"#utility.yul\":2179:2185   */\n      dup3\n        /* \"#utility.yul\":2168:2177   */\n      dup6\n        /* \"#utility.yul\":2164:2186   */\n      add\n        /* \"#utility.yul\":2143:2196   */\n      tag_173\n      jump\t// in\n    tag_218:\n        /* \"#utility.yul\":2133:2196   */\n      swap2\n      pop\n        /* \"#utility.yul\":2089:2206   */\n      pop\n        /* \"#utility.yul\":1884:2213   */\n      swap3\n      swap2\n      pop\n      pop\n      jump\t// out\n        /* \"#utility.yul\":2219:2279   */\n    tag_174:\n        /* \"#utility.yul\":2247:2250   */\n      0x00\n        /* \"#utility.yul\":2268:2273   */\n      dup2\n        /* \"#utility.yul\":2261:2273   */\n      swap1\n      pop\n        /* \"#utility.yul\":2219:2279   */\n      swap2\n      swap1\n      pop\n      jump\t// out\n        /* \"#utility.yul\":2285:2427   */\n    tag_175:\n        /* \"#utility.yul\":2335:2344   */\n      0x00\n        /* \"#utility.yul\":2368:2421   */\n      tag_221\n        /* \"#utility.yul\":2386:2420   */\n      tag_222\n        /* \"#utility.yul\":2395:2419   */\n      tag_223\n        /* \"#utility.yul\":2413:2418   */\n      dup5\n        /* \"#utility.yul\":2395:2419   */\n      tag_166\n      jump\t// in\n    tag_223:\n        /* \"#utility.yul\":2386:2420   */\n      tag_174\n      jump\t// in\n    tag_222:\n        /* \"#utility.yul\":2368:2421   */\n      tag_166\n      jump\t// in\n    tag_221:\n        /* \"#utility.yul\":2355:2421   */\n      swap1\n      pop\n        /* \"#utility.yul\":2285:2427   */\n      swap2\n      swap1\n      pop\n      jump\t// out\n        /* \"#utility.yul\":2433:2559   */\n    tag_176:\n        /* \"#utility.yul\":2483:2492   */\n      0x00\n        /* \"#utility.yul\":2516:2553   */\n      tag_225\n        /* \"#utility.yul\":2547:2552   */\n      dup3\n        /* \"#utility.yul\":2516:2553   */\n      tag_175\n      jump\t// in\n    tag_225:\n        /* \"#utility.yul\":2503:2553   */\n      swap1\n      pop\n        /* \"#utility.yul\":2433:2559   */\n      swap2\n      swap1\n      pop\n      jump\t// out\n        /* \"#utility.yul\":2565:2705   */\n    tag_177:\n        /* \"#utility.yul\":2629:2638   */\n      0x00\n        /* \"#utility.yul\":2662:2699   */\n      tag_227\n        /* \"#utility.yul\":2693:2698   */\n      dup3\n        /* \"#utility.yul\":2662:2699   */\n      tag_176\n      jump\t// in\n    tag_227:\n        /* \"#utility.yul\":2649:2699   */\n      swap1\n      pop\n        /* \"#utility.yul\":2565:2705   */\n      swap2\n      swap1\n      pop\n      jump\t// out\n        /* \"#utility.yul\":2711:2870   */\n    tag_178:\n        /* \"#utility.yul\":2812:2863   */\n      tag_229\n        /* \"#utility.yul\":2857:2862   */\n      dup2\n        /* \"#utility.yul\":2812:2863   */\n      tag_177\n      jump\t// in\n    tag_229:\n        /* \"#utility.yul\":2807:2810   */\n      dup3\n        /* \"#utility.yul\":2800:2864   */\n      mstore\n        /* \"#utility.yul\":2711:2870   */\n      pop\n      pop\n      jump\t// out\n        /* \"#utility.yul\":2876:3126   */\n    tag_37:\n        /* \"#utility.yul\":2983:2987   */\n      0x00\n        /* \"#utility.yul\":3021:3023   */\n      0x20\n        /* \"#utility.yul\":3010:3019   */\n      dup3\n        /* \"#utility.yul\":3006:3024   */\n      add\n        /* \"#utility.yul\":2998:3024   */\n      swap1\n      pop\n        /* \"#utility.yul\":3034:3119   */\n      tag_231\n        /* \"#utility.yul\":3116:3117   */\n      0x00\n        /* \"#utility.yul\":3105:3114   */\n      dup4\n        /* \"#utility.yul\":3101:3118   */\n      add\n        /* \"#utility.yul\":3092:3098   */\n      dup5\n        /* \"#utility.yul\":3034:3119   */\n      tag_178\n      jump\t// in\n    tag_231:\n        /* \"#utility.yul\":2876:3126   */\n      swap3\n      swap2\n      pop\n      pop\n      jump\t// out\n        /* \"#utility.yul\":3132:3606   */\n    tag_40:\n        /* \"#utility.yul\":3200:3206   */\n      0x00\n        /* \"#utility.yul\":3208:3214   */\n      dup1\n        /* \"#utility.yul\":3257:3259   */\n      0x40\n        /* \"#utility.yul\":3245:3254   */\n      dup4\n        /* \"#utility.yul\":3236:3243   */\n      dup6\n        /* \"#utility.yul\":3232:3255   */\n      sub\n        /* \"#utility.yul\":3228:3260   */\n      slt\n        /* \"#utility.yul\":3225:3344   */\n      iszero\n      tag_233\n      jumpi\n        /* \"#utility.yul\":3263:3342   */\n      tag_234\n      tag_164\n      jump\t// in\n    tag_234:\n        /* \"#utility.yul\":3225:3344   */\n    tag_233:\n        /* \"#utility.yul\":3383:3384   */\n      0x00\n        /* \"#utility.yul\":3408:3461   */\n      tag_235\n        /* \"#utility.yul\":3453:3460   */\n      dup6\n        /* \"#utility.yul\":3444:3450   */\n      dup3\n        /* \"#utility.yul\":3433:3442   */\n      dup7\n        /* \"#utility.yul\":3429:3451   */\n      add\n        /* \"#utility.yul\":3408:3461   */\n      tag_173\n      jump\t// in\n    tag_235:\n        /* \"#utility.yul\":3398:3461   */\n      swap3\n      pop\n        /* \"#utility.yul\":3354:3471   */\n      pop\n        /* \"#utility.yul\":3510:3512   */\n      0x20\n        /* \"#utility.yul\":3536:3589   */\n      tag_236\n        /* \"#utility.yul\":3581:3588   */\n      dup6\n        /* \"#utility.yul\":3572:3578   */\n      dup3\n        /* \"#utility.yul\":3561:3570   */\n      dup7\n        /* \"#utility.yul\":3557:3579   */\n      add\n        /* \"#utility.yul\":3536:3589   */\n      tag_173\n      jump\t// in\n    tag_236:\n        /* \"#utility.yul\":3526:3589   */\n      swap2\n      pop\n        /* \"#utility.yul\":3481:3599   */\n      pop\n        /* \"#utility.yul\":3132:3606   */\n      swap3\n      pop\n      swap3\n      swap1\n      pop\n      jump\t// out\n        /* \"#utility.yul\":3612:3730   */\n    tag_179:\n        /* \"#utility.yul\":3699:3723   */\n      tag_238\n        /* \"#utility.yul\":3717:3722   */\n      dup2\n        /* \"#utility.yul\":3699:3723   */\n      tag_167\n      jump\t// in\n    tag_238:\n        /* \"#utility.yul\":3694:3697   */\n      dup3\n        /* \"#utility.yul\":3687:3724   */\n      mstore\n        /* \"#utility.yul\":3612:3730   */\n      pop\n      pop\n      jump\t// out\n        /* \"#utility.yul\":3736:3958   */\n    tag_51:\n        /* \"#utility.yul\":3829:3833   */\n      0x00\n        /* \"#utility.yul\":3867:3869   */\n      0x20\n        /* \"#utility.yul\":3856:3865   */\n      dup3\n        /* \"#utility.yul\":3852:3870   */\n      add\n        /* \"#utility.yul\":3844:3870   */\n      swap1\n      pop\n        /* \"#utility.yul\":3880:3951   */\n      tag_240\n        /* \"#utility.yul\":3948:3949   */\n      0x00\n        /* \"#utility.yul\":3937:3946   */\n      dup4\n        /* \"#utility.yul\":3933:3950   */\n      add\n        /* \"#utility.yul\":3924:3930   */\n      dup5\n        /* \"#utility.yul\":3880:3951   */\n      tag_179\n      jump\t// in\n    tag_240:\n        /* \"#utility.yul\":3736:3958   */\n      swap3\n      swap2\n      pop\n      pop\n      jump\t// out\n        /* \"#utility.yul\":3964:4133   */\n    tag_180:\n        /* \"#utility.yul\":4048:4059   */\n      0x00\n        /* \"#utility.yul\":4082:4088   */\n      dup3\n        /* \"#utility.yul\":4077:4080   */\n      dup3\n        /* \"#utility.yul\":4070:4089   */\n      mstore\n        /* \"#utility.yul\":4122:4126   */\n      0x20\n        /* \"#utility.yul\":4117:4120   */\n      dup3\n        /* \"#utility.yul\":4113:4127   */\n      add\n        /* \"#utility.yul\":4098:4127   */\n      swap1\n      pop\n        /* \"#utility.yul\":3964:4133   */\n      swap3\n      swap2\n      pop\n      pop\n      jump\t// out\n        /* \"#utility.yul\":4139:4318   */\n    tag_181:\n        /* \"#utility.yul\":4279:4310   */\n      0x416d6f756e74206d7573742062652067726561746572207468616e2030000000\n        /* \"#utility.yul\":4275:4276   */\n      0x00\n        /* \"#utility.yul\":4267:4273   */\n      dup3\n        /* \"#utility.yul\":4263:4277   */\n      add\n        /* \"#utility.yul\":4256:4311   */\n      mstore\n        /* \"#utility.yul\":4139:4318   */\n      pop\n      jump\t// out\n        /* \"#utility.yul\":4324:4690   */\n    tag_182:\n        /* \"#utility.yul\":4466:4469   */\n      0x00\n        /* \"#utility.yul\":4487:4554   */\n      tag_244\n        /* \"#utility.yul\":4551:4553   */\n      0x1d\n        /* \"#utility.yul\":4546:4549   */\n      dup4\n        /* \"#utility.yul\":4487:4554   */\n      tag_180\n      jump\t// in\n    tag_244:\n        /* \"#utility.yul\":4480:4554   */\n      swap2\n      pop\n        /* \"#utility.yul\":4563:4656   */\n      tag_245\n        /* \"#utility.yul\":4652:4655   */\n      dup3\n        /* \"#utility.yul\":4563:4656   */\n      tag_181\n      jump\t// in\n    tag_245:\n        /* \"#utility.yul\":4681:4683   */\n      0x20\n        /* \"#utility.yul\":4676:4679   */\n      dup3\n        /* \"#utility.yul\":4672:4684   */\n      add\n        /* \"#utility.yul\":4665:4684   */\n      swap1\n      pop\n        /* \"#utility.yul\":4324:4690   */\n      swap2\n      swap1\n      pop\n      jump\t// out\n        /* \"#utility.yul\":4696:5115   */\n    tag_70:\n        /* \"#utility.yul\":4862:4866   */\n      0x00\n        /* \"#utility.yul\":4900:4902   */\n      0x20\n        /* \"#utility.yul\":4889:4898   */\n      dup3\n        /* \"#utility.yul\":4885:4903   */\n      add\n        /* \"#utility.yul\":4877:4903   */\n      swap1\n      pop\n        /* \"#utility.yul\":4949:4958   */\n      dup2\n        /* \"#utility.yul\":4943:4947   */\n      dup2\n        /* \"#utility.yul\":4939:4959   */\n      sub\n        /* \"#utility.yul\":4935:4936   */\n      0x00\n        /* \"#utility.yul\":4924:4933   */\n      dup4\n        /* \"#utility.yul\":4920:4937   */\n      add\n        /* \"#utility.yul\":4913:4960   */\n      mstore\n        /* \"#utility.yul\":4977:5108   */\n      tag_247\n        /* \"#utility.yul\":5103:5107   */\n      dup2\n        /* \"#utility.yul\":4977:5108   */\n      tag_182\n      jump\t// in\n    tag_247:\n        /* \"#utility.yul\":4969:5108   */\n      swap1\n      pop\n        /* \"#utility.yul\":4696:5115   */\n      swap2\n      swap1\n      pop\n      jump\t// out\n        /* \"#utility.yul\":5121:5301   */\n    tag_183:\n        /* \"#utility.yul\":5169:5246   */\n      0x4e487b7100000000000000000000000000000000000000000000000000000000\n        /* \"#utility.yul\":5166:5167   */\n      0x00\n        /* \"#utility.yul\":5159:5247   */\n      mstore\n        /* \"#utility.yul\":5266:5270   */\n      0x11\n        /* \"#utility.yul\":5263:5264   */\n      0x04\n        /* \"#utility.yul\":5256:5271   */\n      mstore\n        /* \"#utility.yul\":5290:5294   */\n      0x24\n        /* \"#utility.yul\":5287:5288   */\n      0x00\n        /* \"#utility.yul\":5280:5295   */\n      revert\n        /* \"#utility.yul\":5307:5501   */\n    tag_74:\n        /* \"#utility.yul\":5347:5351   */\n      0x00\n        /* \"#utility.yul\":5367:5387   */\n      tag_250\n        /* \"#utility.yul\":5385:5386   */\n      dup3\n        /* \"#utility.yul\":5367:5387   */\n      tag_170\n      jump\t// in\n    tag_250:\n        /* \"#utility.yul\":5362:5387   */\n      swap2\n      pop\n        /* \"#utility.yul\":5401:5421   */\n      tag_251\n        /* \"#utility.yul\":5419:5420   */\n      dup4\n        /* \"#utility.yul\":5401:5421   */\n      tag_170\n      jump\t// in\n    tag_251:\n        /* \"#utility.yul\":5396:5421   */\n      swap3\n      pop\n        /* \"#utility.yul\":5445:5446   */\n      dup3\n        /* \"#utility.yul\":5442:5443   */\n      dup3\n        /* \"#utility.yul\":5438:5447   */\n      sub\n        /* \"#utility.yul\":5430:5447   */\n      swap1\n      pop\n        /* \"#utility.yul\":5469:5470   */\n      dup2\n        /* \"#utility.yul\":5463:5467   */\n      dup2\n        /* \"#utility.yul\":5460:5471   */\n      gt\n        /* \"#utility.yul\":5457:5494   */\n      iszero\n      tag_252\n      jumpi\n        /* \"#utility.yul\":5474:5492   */\n      tag_253\n      tag_183\n      jump\t// in\n    tag_253:\n        /* \"#utility.yul\":5457:5494   */\n    tag_252:\n        /* \"#utility.yul\":5307:5501   */\n      swap3\n      swap2\n      pop\n      pop\n      jump\t// out\n        /* \"#utility.yul\":5507:5839   */\n    tag_77:\n        /* \"#utility.yul\":5628:5632   */\n      0x00\n        /* \"#utility.yul\":5666:5668   */\n      0x40\n        /* \"#utility.yul\":5655:5664   */\n      dup3\n        /* \"#utility.yul\":5651:5669   */\n      add\n        /* \"#utility.yul\":5643:5669   */\n      swap1\n      pop\n        /* \"#utility.yul\":5679:5750   */\n      tag_255\n        /* \"#utility.yul\":5747:5748   */\n      0x00\n        /* \"#utility.yul\":5736:5745   */\n      dup4\n        /* \"#utility.yul\":5732:5749   */\n      add\n        /* \"#utility.yul\":5723:5729   */\n      dup6\n        /* \"#utility.yul\":5679:5750   */\n      tag_179\n      jump\t// in\n    tag_255:\n        /* \"#utility.yul\":5760:5832   */\n      tag_256\n        /* \"#utility.yul\":5828:5830   */\n      0x20\n        /* \"#utility.yul\":5817:5826   */\n      dup4\n        /* \"#utility.yul\":5813:5831   */\n      add\n        /* \"#utility.yul\":5804:5810   */\n      dup5\n        /* \"#utility.yul\":5760:5832   */\n      tag_171\n      jump\t// in\n    tag_256:\n        /* \"#utility.yul\":5507:5839   */\n      swap4\n      swap3\n      pop\n      pop\n      pop\n      jump\t// out\n        /* \"#utility.yul\":5845:5935   */\n    tag_184:\n        /* \"#utility.yul\":5879:5886   */\n      0x00\n        /* \"#utility.yul\":5922:5927   */\n      dup2\n        /* \"#utility.yul\":5915:5928   */\n      iszero\n        /* \"#utility.yul\":5908:5929   */\n      iszero\n        /* \"#utility.yul\":5897:5929   */\n      swap1\n      pop\n        /* \"#utility.yul\":5845:5935   */\n      swap2\n      swap1\n      pop\n      jump\t// out\n        /* \"#utility.yul\":5941:6057   */\n    tag_185:\n        /* \"#utility.yul\":6011:6032   */\n      tag_259\n        /* \"#utility.yul\":6026:6031   */\n      dup2\n        /* \"#utility.yul\":6011:6032   */\n      tag_184\n      jump\t// in\n    tag_259:\n        /* \"#utility.yul\":6004:6009   */\n      dup2\n        /* \"#utility.yul\":6001:6033   */\n      eq\n        /* \"#utility.yul\":5991:6051   */\n      tag_260\n      jumpi\n        /* \"#utility.yul\":6047:6048   */\n      0x00\n        /* \"#utility.yul\":6044:6045   */\n      dup1\n        /* \"#utility.yul\":6037:6049   */\n      revert\n        /* \"#utility.yul\":5991:6051   */\n    tag_260:\n        /* \"#utility.yul\":5941:6057   */\n      pop\n      jump\t// out\n        /* \"#utility.yul\":6063:6200   */\n    tag_186:\n        /* \"#utility.yul\":6117:6122   */\n      0x00\n        /* \"#utility.yul\":6148:6154   */\n      dup2\n        /* \"#utility.yul\":6142:6155   */\n      mload\n        /* \"#utility.yul\":6133:6155   */\n      swap1\n      pop\n        /* \"#utility.yul\":6164:6194   */\n      tag_262\n        /* \"#utility.yul\":6188:6193   */\n      dup2\n        /* \"#utility.yul\":6164:6194   */\n      tag_185\n      jump\t// in\n    tag_262:\n        /* \"#utility.yul\":6063:6200   */\n      swap3\n      swap2\n      pop\n      pop\n      jump\t// out\n        /* \"#utility.yul\":6206:6551   */\n    tag_81:\n        /* \"#utility.yul\":6273:6279   */\n      0x00\n        /* \"#utility.yul\":6322:6324   */\n      0x20\n        /* \"#utility.yul\":6310:6319   */\n      dup3\n        /* \"#utility.yul\":6301:6308   */\n      dup5\n        /* \"#utility.yul\":6297:6320   */\n      sub\n        /* \"#utility.yul\":6293:6325   */\n      slt\n        /* \"#utility.yul\":6290:6409   */\n      iszero\n      tag_264\n      jumpi\n        /* \"#utility.yul\":6328:6407   */\n      tag_265\n      tag_164\n      jump\t// in\n    tag_265:\n        /* \"#utility.yul\":6290:6409   */\n    tag_264:\n        /* \"#utility.yul\":6448:6449   */\n      0x00\n        /* \"#utility.yul\":6473:6534   */\n      tag_266\n        /* \"#utility.yul\":6526:6533   */\n      dup5\n        /* \"#utility.yul\":6517:6523   */\n      dup3\n        /* \"#utility.yul\":6506:6515   */\n      dup6\n        /* \"#utility.yul\":6502:6524   */\n      add\n        /* \"#utility.yul\":6473:6534   */\n      tag_186\n      jump\t// in\n    tag_266:\n        /* \"#utility.yul\":6463:6534   */\n      swap2\n      pop\n        /* \"#utility.yul\":6419:6544   */\n      pop\n        /* \"#utility.yul\":6206:6551   */\n      swap3\n      swap2\n      pop\n      pop\n      jump\t// out\n        /* \"#utility.yul\":6557:6729   */\n    tag_187:\n        /* \"#utility.yul\":6697:6721   */\n      0x496e76616c6964207374616b696e6720706572696f6400000000000000000000\n        /* \"#utility.yul\":6693:6694   */\n      0x00\n        /* \"#utility.yul\":6685:6691   */\n      dup3\n        /* \"#utility.yul\":6681:6695   */\n      add\n        /* \"#utility.yul\":6674:6722   */\n      mstore\n        /* \"#utility.yul\":6557:6729   */\n      pop\n      jump\t// out\n        /* \"#utility.yul\":6735:7101   */\n    tag_188:\n        /* \"#utility.yul\":6877:6880   */\n      0x00\n        /* \"#utility.yul\":6898:6965   */\n      tag_269\n        /* \"#utility.yul\":6962:6964   */\n      0x16\n        /* \"#utility.yul\":6957:6960   */\n      dup4\n        /* \"#utility.yul\":6898:6965   */\n      tag_180\n      jump\t// in\n    tag_269:\n        /* \"#utility.yul\":6891:6965   */\n      swap2\n      pop\n        /* \"#utility.yul\":6974:7067   */\n      tag_270\n        /* \"#utility.yul\":7063:7066   */\n      dup3\n        /* \"#utility.yul\":6974:7067   */\n      tag_187\n      jump\t// in\n    tag_270:\n        /* \"#utility.yul\":7092:7094   */\n      0x20\n        /* \"#utility.yul\":7087:7090   */\n      dup3\n        /* \"#utility.yul\":7083:7095   */\n      add\n        /* \"#utility.yul\":7076:7095   */\n      swap1\n      pop\n        /* \"#utility.yul\":6735:7101   */\n      swap2\n      swap1\n      pop\n      jump\t// out\n        /* \"#utility.yul\":7107:7526   */\n    tag_100:\n        /* \"#utility.yul\":7273:7277   */\n      0x00\n        /* \"#utility.yul\":7311:7313   */\n      0x20\n        /* \"#utility.yul\":7300:7309   */\n      dup3\n        /* \"#utility.yul\":7296:7314   */\n      add\n        /* \"#utility.yul\":7288:7314   */\n      swap1\n      pop\n        /* \"#utility.yul\":7360:7369   */\n      dup2\n        /* \"#utility.yul\":7354:7358   */\n      dup2\n        /* \"#utility.yul\":7350:7370   */\n      sub\n        /* \"#utility.yul\":7346:7347   */\n      0x00\n        /* \"#utility.yul\":7335:7344   */\n      dup4\n        /* \"#utility.yul\":7331:7348   */\n      add\n        /* \"#utility.yul\":7324:7371   */\n      mstore\n        /* \"#utility.yul\":7388:7519   */\n      tag_272\n        /* \"#utility.yul\":7514:7518   */\n      dup2\n        /* \"#utility.yul\":7388:7519   */\n      tag_188\n      jump\t// in\n    tag_272:\n        /* \"#utility.yul\":7380:7519   */\n      swap1\n      pop\n        /* \"#utility.yul\":7107:7526   */\n      swap2\n      swap1\n      pop\n      jump\t// out\n        /* \"#utility.yul\":7532:7974   */\n    tag_103:\n        /* \"#utility.yul\":7681:7685   */\n      0x00\n        /* \"#utility.yul\":7719:7721   */\n      0x60\n        /* \"#utility.yul\":7708:7717   */\n      dup3\n        /* \"#utility.yul\":7704:7722   */\n      add\n        /* \"#utility.yul\":7696:7722   */\n      swap1\n      pop\n        /* \"#utility.yul\":7732:7803   */\n      tag_274\n        /* \"#utility.yul\":7800:7801   */\n      0x00\n        /* \"#utility.yul\":7789:7798   */\n      dup4\n        /* \"#utility.yul\":7785:7802   */\n      add\n        /* \"#utility.yul\":7776:7782   */\n      dup7\n        /* \"#utility.yul\":7732:7803   */\n      tag_179\n      jump\t// in\n    tag_274:\n        /* \"#utility.yul\":7813:7885   */\n      tag_275\n        /* \"#utility.yul\":7881:7883   */\n      0x20\n        /* \"#utility.yul\":7870:7879   */\n      dup4\n        /* \"#utility.yul\":7866:7884   */\n      add\n        /* \"#utility.yul\":7857:7863   */\n      dup6\n        /* \"#utility.yul\":7813:7885   */\n      tag_179\n      jump\t// in\n    tag_275:\n        /* \"#utility.yul\":7895:7967   */\n      tag_276\n        /* \"#utility.yul\":7963:7965   */\n      0x40\n        /* \"#utility.yul\":7952:7961   */\n      dup4\n        /* \"#utility.yul\":7948:7966   */\n      add\n        /* \"#utility.yul\":7939:7945   */\n      dup5\n        /* \"#utility.yul\":7895:7967   */\n      tag_171\n      jump\t// in\n    tag_276:\n        /* \"#utility.yul\":7532:7974   */\n      swap5\n      swap4\n      pop\n      pop\n      pop\n      pop\n      jump\t// out\n        /* \"#utility.yul\":7980:8171   */\n    tag_108:\n        /* \"#utility.yul\":8020:8023   */\n      0x00\n        /* \"#utility.yul\":8039:8059   */\n      tag_278\n        /* \"#utility.yul\":8057:8058   */\n      dup3\n        /* \"#utility.yul\":8039:8059   */\n      tag_170\n      jump\t// in\n    tag_278:\n        /* \"#utility.yul\":8034:8059   */\n      swap2\n      pop\n        /* \"#utility.yul\":8073:8093   */\n      tag_279\n        /* \"#utility.yul\":8091:8092   */\n      dup4\n        /* \"#utility.yul\":8073:8093   */\n      tag_170\n      jump\t// in\n    tag_279:\n        /* \"#utility.yul\":8068:8093   */\n      swap3\n      pop\n        /* \"#utility.yul\":8116:8117   */\n      dup3\n        /* \"#utility.yul\":8113:8114   */\n      dup3\n        /* \"#utility.yul\":8109:8118   */\n      add\n        /* \"#utility.yul\":8102:8118   */\n      swap1\n      pop\n        /* \"#utility.yul\":8137:8140   */\n      dup1\n        /* \"#utility.yul\":8134:8135   */\n      dup3\n        /* \"#utility.yul\":8131:8141   */\n      gt\n        /* \"#utility.yul\":8128:8164   */\n      iszero\n      tag_280\n      jumpi\n        /* \"#utility.yul\":8144:8162   */\n      tag_281\n      tag_183\n      jump\t// in\n    tag_281:\n        /* \"#utility.yul\":8128:8164   */\n    tag_280:\n        /* \"#utility.yul\":7980:8171   */\n      swap3\n      swap2\n      pop\n      pop\n      jump\t// out\n        /* \"#utility.yul\":8177:8509   */\n    tag_111:\n        /* \"#utility.yul\":8298:8302   */\n      0x00\n        /* \"#utility.yul\":8336:8338   */\n      0x40\n        /* \"#utility.yul\":8325:8334   */\n      dup3\n        /* \"#utility.yul\":8321:8339   */\n      add\n        /* \"#utility.yul\":8313:8339   */\n      swap1\n      pop\n        /* \"#utility.yul\":8349:8420   */\n      tag_283\n        /* \"#utility.yul\":8417:8418   */\n      0x00\n        /* \"#utility.yul\":8406:8415   */\n      dup4\n        /* \"#utility.yul\":8402:8419   */\n      add\n        /* \"#utility.yul\":8393:8399   */\n      dup6\n        /* \"#utility.yul\":8349:8420   */\n      tag_171\n      jump\t// in\n    tag_283:\n        /* \"#utility.yul\":8430:8502   */\n      tag_284\n        /* \"#utility.yul\":8498:8500   */\n      0x20\n        /* \"#utility.yul\":8487:8496   */\n      dup4\n        /* \"#utility.yul\":8483:8501   */\n      add\n        /* \"#utility.yul\":8474:8480   */\n      dup5\n        /* \"#utility.yul\":8430:8502   */\n      tag_171\n      jump\t// in\n    tag_284:\n        /* \"#utility.yul\":8177:8509   */\n      swap4\n      swap3\n      pop\n      pop\n      pop\n      jump\t// out\n        /* \"#utility.yul\":8515:8925   */\n    tag_129:\n        /* \"#utility.yul\":8555:8562   */\n      0x00\n        /* \"#utility.yul\":8578:8598   */\n      tag_286\n        /* \"#utility.yul\":8596:8597   */\n      dup3\n        /* \"#utility.yul\":8578:8598   */\n      tag_170\n      jump\t// in\n    tag_286:\n        /* \"#utility.yul\":8573:8598   */\n      swap2\n      pop\n        /* \"#utility.yul\":8612:8632   */\n      tag_287\n        /* \"#utility.yul\":8630:8631   */\n      dup4\n        /* \"#utility.yul\":8612:8632   */\n      tag_170\n      jump\t// in\n    tag_287:\n        /* \"#utility.yul\":8607:8632   */\n      swap3\n      pop\n        /* \"#utility.yul\":8667:8668   */\n      dup3\n        /* \"#utility.yul\":8664:8665   */\n      dup3\n        /* \"#utility.yul\":8660:8669   */\n      mul\n        /* \"#utility.yul\":8689:8719   */\n      tag_288\n        /* \"#utility.yul\":8707:8718   */\n      dup2\n        /* \"#utility.yul\":8689:8719   */\n      tag_170\n      jump\t// in\n    tag_288:\n        /* \"#utility.yul\":8678:8719   */\n      swap2\n      pop\n        /* \"#utility.yul\":8868:8869   */\n      dup3\n        /* \"#utility.yul\":8859:8866   */\n      dup3\n        /* \"#utility.yul\":8855:8870   */\n      div\n        /* \"#utility.yul\":8852:8853   */\n      dup5\n        /* \"#utility.yul\":8849:8871   */\n      eq\n        /* \"#utility.yul\":8829:8830   */\n      dup4\n        /* \"#utility.yul\":8822:8831   */\n      iszero\n        /* \"#utility.yul\":8802:8885   */\n      or\n        /* \"#utility.yul\":8779:8918   */\n      tag_289\n      jumpi\n        /* \"#utility.yul\":8898:8916   */\n      tag_290\n      tag_183\n      jump\t// in\n    tag_290:\n        /* \"#utility.yul\":8779:8918   */\n    tag_289:\n        /* \"#utility.yul\":8563:8925   */\n      pop\n        /* \"#utility.yul\":8515:8925   */\n      swap3\n      swap2\n      pop\n      pop\n      jump\t// out\n\n    auxdata: 0xa2646970667358221220b50b332a767a046f2a6170a2d6d0c25fe2ee8f33e7636e1edc7bcdf0d563aa6c64736f6c63430008140033\n}\n",
				"bytecode": {
					"linkReferences": {},
					"object": "608060405234801562000010575f80fd5b50604051620014de380380620014de83398181016040528101906200003691906200038d565b805f73ffffffffffffffffffffffffffffffffffffffff168173ffffffffffffffffffffffffffffffffffffffff1603620000aa575f6040517f1e4fbdf7000000000000000000000000000000000000000000000000000000008152600401620000a19190620003f7565b60405180910390fd5b620000bb816200017f60201b60201c565b50600180819055508260025f6101000a81548173ffffffffffffffffffffffffffffffffffffffff021916908373ffffffffffffffffffffffffffffffffffffffff1602179055508160068190555042600781905550620001275f60086200024060201b90919060201c565b506200014162093a8060086200024060201b90919060201c565b506200015b6212750060086200024060201b90919060201c565b5062000175624f1a0060086200024060201b90919060201c565b5050505062000412565b5f805f9054906101000a900473ffffffffffffffffffffffffffffffffffffffff169050815f806101000a81548173ffffffffffffffffffffffffffffffffffffffff021916908373ffffffffffffffffffffffffffffffffffffffff1602179055508173ffffffffffffffffffffffffffffffffffffffff168173ffffffffffffffffffffffffffffffffffffffff167f8be0079c531659141344cd1fd0a4f28419497f9722a3daafe3b4186f6b6457e060405160405180910390a35050565b5f62000257835f01835f1b6200025f60201b60201c565b905092915050565b5f620002728383620002d060201b60201c565b620002c657825f0182908060018154018082558091505060019003905f5260205f20015f9091909190915055825f0180549050836001015f8481526020019081526020015f208190555060019050620002ca565b5f90505b92915050565b5f80836001015f8481526020019081526020015f20541415905092915050565b5f80fd5b5f73ffffffffffffffffffffffffffffffffffffffff82169050919050565b5f6200031f82620002f4565b9050919050565b620003318162000313565b81146200033c575f80fd5b50565b5f815190506200034f8162000326565b92915050565b5f819050919050565b620003698162000355565b811462000374575f80fd5b50565b5f8151905062000387816200035e565b92915050565b5f805f60608486031215620003a757620003a6620002f0565b5b5f620003b6868287016200033f565b9350506020620003c98682870162000377565b9250506040620003dc868287016200033f565b9150509250925092565b620003f18162000313565b82525050565b5f6020820190506200040c5f830184620003e6565b92915050565b6110be80620004205f395ff3fe608060405234801561000f575f80fd5b50600436106100cd575f3560e01c80637b0a47ee1161008a578063b88a802f11610064578063b88a802f146101eb578063d82e3962146101f5578063f2fde38b14610225578063f8077fae14610241576100cd565b80637b0a47ee14610191578063817b1cd2146101af5780638da5cb5b146101cd576100cd565b80631460fa87146100d15780632c42b233146101015780632e1a7d4d14610131578063715018a61461014d57806372f702f3146101575780637b0472f014610175575b5f80fd5b6100eb60048036038101906100e69190610c66565b61025f565b6040516100f89190610ca9565b60405180910390f35b61011b60048036038101906101169190610c66565b610274565b6040516101289190610ca9565b60405180910390f35b61014b60048036038101906101469190610cec565b610289565b005b61015561043d565b005b61015f610450565b60405161016c9190610d72565b60405180910390f35b61018f600480360381019061018a9190610d8b565b610475565b005b6101996106c3565b6040516101a69190610ca9565b60405180910390f35b6101b76106c9565b6040516101c49190610ca9565b60405180910390f35b6101d56106cf565b6040516101e29190610dd8565b60405180910390f35b6101f36106f6565b005b61020f600480360381019061020a9190610c66565b610812565b60405161021c9190610ca9565b60405180910390f35b61023f600480360381019061023a9190610c66565b6108bd565b005b610249610941565b6040516102569190610ca9565b60405180910390f35b6004602052805f5260405f205f915090505481565b6005602052805f5260405f205f915090505481565b610291610947565b5f81116102d3576040517f08c379a00000000000000000000000000000000000000000000000000000000081526004016102ca90610e4b565b60405180910390fd5b6102dc3361098d565b8060045f3373ffffffffffffffffffffffffffffffffffffffff1673ffffffffffffffffffffffffffffffffffffffff1681526020019081526020015f205f8282546103289190610e96565b925050819055508060035f8282546103409190610e96565b9250508190555060025f9054906101000a900473ffffffffffffffffffffffffffffffffffffffff1673ffffffffffffffffffffffffffffffffffffffff1663a9059cbb33836040518363ffffffff1660e01b81526004016103a3929190610ec9565b6020604051808303815f875af11580156103bf573d5f803e3d5ffd5b505050506040513d601f19601f820116820180604052508101906103e39190610f25565b503373ffffffffffffffffffffffffffffffffffffffff167f7084f5476618d8e60b11ef0d7d3f06914655adb8793e28ff7f018d4c76d505d58260405161042a9190610ca9565b60405180910390a261043a610a79565b50565b610445610a82565b61044e5f610b09565b565b60025f9054906101000a900473ffffffffffffffffffffffffffffffffffffffff1681565b61047d610947565b5f82116104bf576040517f08c379a00000000000000000000000000000000000000000000000000000000081526004016104b690610e4b565b60405180910390fd5b6104d3816008610bca90919063ffffffff16565b610512576040517f08c379a000000000000000000000000000000000000000000000000000000000815260040161050990610f9a565b60405180910390fd5b61051b3361098d565b60025f9054906101000a900473ffffffffffffffffffffffffffffffffffffffff1673ffffffffffffffffffffffffffffffffffffffff166323b872dd3330856040518463ffffffff1660e01b815260040161057993929190610fb8565b6020604051808303815f875af1158015610595573d5f803e3d5ffd5b505050506040513d601f19601f820116820180604052508101906105b99190610f25565b508160045f3373ffffffffffffffffffffffffffffffffffffffff1673ffffffffffffffffffffffffffffffffffffffff1681526020019081526020015f205f8282546106069190610fed565b925050819055508160035f82825461061e9190610fed565b925050819055504260055f3373ffffffffffffffffffffffffffffffffffffffff1673ffffffffffffffffffffffffffffffffffffffff1681526020019081526020015f20819055503373ffffffffffffffffffffffffffffffffffffffff167f1449c6dd7851abc30abf37f57715f492010519147cc2652fbc38202c18a6ee9083836040516106af929190611020565b60405180910390a26106bf610a79565b5050565b60065481565b60035481565b5f805f9054906101000a900473ffffffffffffffffffffffffffffffffffffffff16905090565b6106fe610947565b6107073361098d565b5f61071133610812565b90505f8111156108075760025f9054906101000a900473ffffffffffffffffffffffffffffffffffffffff1673ffffffffffffffffffffffffffffffffffffffff1663a9059cbb33836040518363ffffffff1660e01b8152600401610777929190610ec9565b6020604051808303815f875af1158015610793573d5f803e3d5ffd5b505050506040513d601f19601f820116820180604052508101906107b79190610f25565b503373ffffffffffffffffffffffffffffffffffffffff167f106f923f993c2149d49b4255ff723acafa1f2d94393f561d3eda32ae348f7241826040516107fe9190610ca9565b60405180910390a25b50610810610a79565b565b5f8060055f8473ffffffffffffffffffffffffffffffffffffffff1673ffffffffffffffffffffffffffffffffffffffff1681526020019081526020015f20544261085d9190610e96565b90506006548160045f8673ffffffffffffffffffffffffffffffffffffffff1673ffffffffffffffffffffffffffffffffffffffff1681526020019081526020015f20546108ab9190611047565b6108b59190611047565b915050919050565b6108c5610a82565b5f73ffffffffffffffffffffffffffffffffffffffff168173ffffffffffffffffffffffffffffffffffffffff1603610935575f6040517f1e4fbdf700000000000000000000000000000000000000000000000000000000815260040161092c9190610dd8565b60405180910390fd5b61093e81610b09565b50565b60075481565b600260015403610983576040517f3ee5aeb500000000000000000000000000000000000000000000000000000000815260040160405180910390fd5b6002600181905550565b600754421115610a76575f600754426109a69190610e96565b90505f600654826003546109ba9190611047565b6109c49190611047565b905060025f9054906101000a900473ffffffffffffffffffffffffffffffffffffffff1673ffffffffffffffffffffffffffffffffffffffff166323b872dd610a0b6106cf565b30846040518463ffffffff1660e01b8152600401610a2b93929190610fb8565b6020604051808303815f875af1158015610a47573d5f803e3d5ffd5b505050506040513d601f19601f82011682018060405250810190610a6b9190610f25565b504260078190555050505b50565b60018081905550565b610a8a610be1565b73ffffffffffffffffffffffffffffffffffffffff16610aa86106cf565b73ffffffffffffffffffffffffffffffffffffffff1614610b0757610acb610be1565b6040517f118cdaa7000000000000000000000000000000000000000000000000000000008152600401610afe9190610dd8565b60405180910390fd5b565b5f805f9054906101000a900473ffffffffffffffffffffffffffffffffffffffff169050815f806101000a81548173ffffffffffffffffffffffffffffffffffffffff021916908373ffffffffffffffffffffffffffffffffffffffff1602179055508173ffffffffffffffffffffffffffffffffffffffff168173ffffffffffffffffffffffffffffffffffffffff167f8be0079c531659141344cd1fd0a4f28419497f9722a3daafe3b4186f6b6457e060405160405180910390a35050565b5f610bd9835f01835f1b610be8565b905092915050565b5f33905090565b5f80836001015f8481526020019081526020015f20541415905092915050565b5f80fd5b5f73ffffffffffffffffffffffffffffffffffffffff82169050919050565b5f610c3582610c0c565b9050919050565b610c4581610c2b565b8114610c4f575f80fd5b50565b5f81359050610c6081610c3c565b92915050565b5f60208284031215610c7b57610c7a610c08565b5b5f610c8884828501610c52565b91505092915050565b5f819050919050565b610ca381610c91565b82525050565b5f602082019050610cbc5f830184610c9a565b92915050565b610ccb81610c91565b8114610cd5575f80fd5b50565b5f81359050610ce681610cc2565b92915050565b5f60208284031215610d0157610d00610c08565b5b5f610d0e84828501610cd8565b91505092915050565b5f819050919050565b5f610d3a610d35610d3084610c0c565b610d17565b610c0c565b9050919050565b5f610d4b82610d20565b9050919050565b5f610d5c82610d41565b9050919050565b610d6c81610d52565b82525050565b5f602082019050610d855f830184610d63565b92915050565b5f8060408385031215610da157610da0610c08565b5b5f610dae85828601610cd8565b9250506020610dbf85828601610cd8565b9150509250929050565b610dd281610c2b565b82525050565b5f602082019050610deb5f830184610dc9565b92915050565b5f82825260208201905092915050565b7f416d6f756e74206d7573742062652067726561746572207468616e20300000005f82015250565b5f610e35601d83610df1565b9150610e4082610e01565b602082019050919050565b5f6020820190508181035f830152610e6281610e29565b9050919050565b7f4e487b71000000000000000000000000000000000000000000000000000000005f52601160045260245ffd5b5f610ea082610c91565b9150610eab83610c91565b9250828203905081811115610ec357610ec2610e69565b5b92915050565b5f604082019050610edc5f830185610dc9565b610ee96020830184610c9a565b9392505050565b5f8115159050919050565b610f0481610ef0565b8114610f0e575f80fd5b50565b5f81519050610f1f81610efb565b92915050565b5f60208284031215610f3a57610f39610c08565b5b5f610f4784828501610f11565b91505092915050565b7f496e76616c6964207374616b696e6720706572696f64000000000000000000005f82015250565b5f610f84601683610df1565b9150610f8f82610f50565b602082019050919050565b5f6020820190508181035f830152610fb181610f78565b9050919050565b5f606082019050610fcb5f830186610dc9565b610fd86020830185610dc9565b610fe56040830184610c9a565b949350505050565b5f610ff782610c91565b915061100283610c91565b925082820190508082111561101a57611019610e69565b5b92915050565b5f6040820190506110335f830185610c9a565b6110406020830184610c9a565b9392505050565b5f61105182610c91565b915061105c83610c91565b925082820261106a81610c91565b9150828204841483151761108157611080610e69565b5b509291505056fea2646970667358221220b50b332a767a046f2a6170a2d6d0c25fe2ee8f33e7636e1edc7bcdf0d563aa6c64736f6c63430008140033",
					"opcodes": "PUSH1 0x80 PUSH1 0x40 MSTORE CALLVALUE DUP1 ISZERO PUSH3 0x10 JUMPI PUSH0 DUP1 REVERT JUMPDEST POP PUSH1 0x40 MLOAD PUSH3 0x14DE CODESIZE SUB DUP1 PUSH3 0x14DE DUP4 CODECOPY DUP2 DUP2 ADD PUSH1 0x40 MSTORE DUP2 ADD SWAP1 PUSH3 0x36 SWAP2 SWAP1 PUSH3 0x38D JUMP JUMPDEST DUP1 PUSH0 PUSH20 0xFFFFFFFFFFFFFFFFFFFFFFFFFFFFFFFFFFFFFFFF AND DUP2 PUSH20 0xFFFFFFFFFFFFFFFFFFFFFFFFFFFFFFFFFFFFFFFF AND SUB PUSH3 0xAA JUMPI PUSH0 PUSH1 0x40 MLOAD PUSH32 0x1E4FBDF700000000000000000000000000000000000000000000000000000000 DUP2 MSTORE PUSH1 0x4 ADD PUSH3 0xA1 SWAP2 SWAP1 PUSH3 0x3F7 JUMP JUMPDEST PUSH1 0x40 MLOAD DUP1 SWAP2 SUB SWAP1 REVERT JUMPDEST PUSH3 0xBB DUP2 PUSH3 0x17F PUSH1 0x20 SHL PUSH1 0x20 SHR JUMP JUMPDEST POP PUSH1 0x1 DUP1 DUP2 SWAP1 SSTORE POP DUP3 PUSH1 0x2 PUSH0 PUSH2 0x100 EXP DUP2 SLOAD DUP2 PUSH20 0xFFFFFFFFFFFFFFFFFFFFFFFFFFFFFFFFFFFFFFFF MUL NOT AND SWAP1 DUP4 PUSH20 0xFFFFFFFFFFFFFFFFFFFFFFFFFFFFFFFFFFFFFFFF AND MUL OR SWAP1 SSTORE POP DUP2 PUSH1 0x6 DUP2 SWAP1 SSTORE POP TIMESTAMP PUSH1 0x7 DUP2 SWAP1 SSTORE POP PUSH3 0x127 PUSH0 PUSH1 0x8 PUSH3 0x240 PUSH1 0x20 SHL SWAP1 SWAP2 SWAP1 PUSH1 0x20 SHR JUMP JUMPDEST POP PUSH3 0x141 PUSH3 0x93A80 PUSH1 0x8 PUSH3 0x240 PUSH1 0x20 SHL SWAP1 SWAP2 SWAP1 PUSH1 0x20 SHR JUMP JUMPDEST POP PUSH3 0x15B PUSH3 0x127500 PUSH1 0x8 PUSH3 0x240 PUSH1 0x20 SHL SWAP1 SWAP2 SWAP1 PUSH1 0x20 SHR JUMP JUMPDEST POP PUSH3 0x175 PUSH3 0x4F1A00 PUSH1 0x8 PUSH3 0x240 PUSH1 0x20 SHL SWAP1 SWAP2 SWAP1 PUSH1 0x20 SHR JUMP JUMPDEST POP POP POP POP PUSH3 0x412 JUMP JUMPDEST PUSH0 DUP1 PUSH0 SWAP1 SLOAD SWAP1 PUSH2 0x100 EXP SWAP1 DIV PUSH20 0xFFFFFFFFFFFFFFFFFFFFFFFFFFFFFFFFFFFFFFFF AND SWAP1 POP DUP2 PUSH0 DUP1 PUSH2 0x100 EXP DUP2 SLOAD DUP2 PUSH20 0xFFFFFFFFFFFFFFFFFFFFFFFFFFFFFFFFFFFFFFFF MUL NOT AND SWAP1 DUP4 PUSH20 0xFFFFFFFFFFFFFFFFFFFFFFFFFFFFFFFFFFFFFFFF AND MUL OR SWAP1 SSTORE POP DUP2 PUSH20 0xFFFFFFFFFFFFFFFFFFFFFFFFFFFFFFFFFFFFFFFF AND DUP2 PUSH20 0xFFFFFFFFFFFFFFFFFFFFFFFFFFFFFFFFFFFFFFFF AND PUSH32 0x8BE0079C531659141344CD1FD0A4F28419497F9722A3DAAFE3B4186F6B6457E0 PUSH1 0x40 MLOAD PUSH1 0x40 MLOAD DUP1 SWAP2 SUB SWAP1 LOG3 POP POP JUMP JUMPDEST PUSH0 PUSH3 0x257 DUP4 PUSH0 ADD DUP4 PUSH0 SHL PUSH3 0x25F PUSH1 0x20 SHL PUSH1 0x20 SHR JUMP JUMPDEST SWAP1 POP SWAP3 SWAP2 POP POP JUMP JUMPDEST PUSH0 PUSH3 0x272 DUP4 DUP4 PUSH3 0x2D0 PUSH1 0x20 SHL PUSH1 0x20 SHR JUMP JUMPDEST PUSH3 0x2C6 JUMPI DUP3 PUSH0 ADD DUP3 SWAP1 DUP1 PUSH1 0x1 DUP2 SLOAD ADD DUP1 DUP3 SSTORE DUP1 SWAP2 POP POP PUSH1 0x1 SWAP1 SUB SWAP1 PUSH0 MSTORE PUSH1 0x20 PUSH0 KECCAK256 ADD PUSH0 SWAP1 SWAP2 SWAP1 SWAP2 SWAP1 SWAP2 POP SSTORE DUP3 PUSH0 ADD DUP1 SLOAD SWAP1 POP DUP4 PUSH1 0x1 ADD PUSH0 DUP5 DUP2 MSTORE PUSH1 0x20 ADD SWAP1 DUP2 MSTORE PUSH1 0x20 ADD PUSH0 KECCAK256 DUP2 SWAP1 SSTORE POP PUSH1 0x1 SWAP1 POP PUSH3 0x2CA JUMP JUMPDEST PUSH0 SWAP1 POP JUMPDEST SWAP3 SWAP2 POP POP JUMP JUMPDEST PUSH0 DUP1 DUP4 PUSH1 0x1 ADD PUSH0 DUP5 DUP2 MSTORE PUSH1 0x20 ADD SWAP1 DUP2 MSTORE PUSH1 0x20 ADD PUSH0 KECCAK256 SLOAD EQ ISZERO SWAP1 POP SWAP3 SWAP2 POP POP JUMP JUMPDEST PUSH0 DUP1 REVERT JUMPDEST PUSH0 PUSH20 0xFFFFFFFFFFFFFFFFFFFFFFFFFFFFFFFFFFFFFFFF DUP3 AND SWAP1 POP SWAP2 SWAP1 POP JUMP JUMPDEST PUSH0 PUSH3 0x31F DUP3 PUSH3 0x2F4 JUMP JUMPDEST SWAP1 POP SWAP2 SWAP1 POP JUMP JUMPDEST PUSH3 0x331 DUP2 PUSH3 0x313 JUMP JUMPDEST DUP2 EQ PUSH3 0x33C JUMPI PUSH0 DUP1 REVERT JUMPDEST POP JUMP JUMPDEST PUSH0 DUP2 MLOAD SWAP1 POP PUSH3 0x34F DUP2 PUSH3 0x326 JUMP JUMPDEST SWAP3 SWAP2 POP POP JUMP JUMPDEST PUSH0 DUP2 SWAP1 POP SWAP2 SWAP1 POP JUMP JUMPDEST PUSH3 0x369 DUP2 PUSH3 0x355 JUMP JUMPDEST DUP2 EQ PUSH3 0x374 JUMPI PUSH0 DUP1 REVERT JUMPDEST POP JUMP JUMPDEST PUSH0 DUP2 MLOAD SWAP1 POP PUSH3 0x387 DUP2 PUSH3 0x35E JUMP JUMPDEST SWAP3 SWAP2 POP POP JUMP JUMPDEST PUSH0 DUP1 PUSH0 PUSH1 0x60 DUP5 DUP7 SUB SLT ISZERO PUSH3 0x3A7 JUMPI PUSH3 0x3A6 PUSH3 0x2F0 JUMP JUMPDEST JUMPDEST PUSH0 PUSH3 0x3B6 DUP7 DUP3 DUP8 ADD PUSH3 0x33F JUMP JUMPDEST SWAP4 POP POP PUSH1 0x20 PUSH3 0x3C9 DUP7 DUP3 DUP8 ADD PUSH3 0x377 JUMP JUMPDEST SWAP3 POP POP PUSH1 0x40 PUSH3 0x3DC DUP7 DUP3 DUP8 ADD PUSH3 0x33F JUMP JUMPDEST SWAP2 POP POP SWAP3 POP SWAP3 POP SWAP3 JUMP JUMPDEST PUSH3 0x3F1 DUP2 PUSH3 0x313 JUMP JUMPDEST DUP3 MSTORE POP POP JUMP JUMPDEST PUSH0 PUSH1 0x20 DUP3 ADD SWAP1 POP PUSH3 0x40C PUSH0 DUP4 ADD DUP5 PUSH3 0x3E6 JUMP JUMPDEST SWAP3 SWAP2 POP POP JUMP JUMPDEST PUSH2 0x10BE DUP1 PUSH3 0x420 PUSH0 CODECOPY PUSH0 RETURN INVALID PUSH1 0x80 PUSH1 0x40 MSTORE CALLVALUE DUP1 ISZERO PUSH2 0xF JUMPI PUSH0 DUP1 REVERT JUMPDEST POP PUSH1 0x4 CALLDATASIZE LT PUSH2 0xCD JUMPI PUSH0 CALLDATALOAD PUSH1 0xE0 SHR DUP1 PUSH4 0x7B0A47EE GT PUSH2 0x8A JUMPI DUP1 PUSH4 0xB88A802F GT PUSH2 0x64 JUMPI DUP1 PUSH4 0xB88A802F EQ PUSH2 0x1EB JUMPI DUP1 PUSH4 0xD82E3962 EQ PUSH2 0x1F5 JUMPI DUP1 PUSH4 0xF2FDE38B EQ PUSH2 0x225 JUMPI DUP1 PUSH4 0xF8077FAE EQ PUSH2 0x241 JUMPI PUSH2 0xCD JUMP JUMPDEST DUP1 PUSH4 0x7B0A47EE EQ PUSH2 0x191 JUMPI DUP1 PUSH4 0x817B1CD2 EQ PUSH2 0x1AF JUMPI DUP1 PUSH4 0x8DA5CB5B EQ PUSH2 0x1CD JUMPI PUSH2 0xCD JUMP JUMPDEST DUP1 PUSH4 0x1460FA87 EQ PUSH2 0xD1 JUMPI DUP1 PUSH4 0x2C42B233 EQ PUSH2 0x101 JUMPI DUP1 PUSH4 0x2E1A7D4D EQ PUSH2 0x131 JUMPI DUP1 PUSH4 0x715018A6 EQ PUSH2 0x14D JUMPI DUP1 PUSH4 0x72F702F3 EQ PUSH2 0x157 JUMPI DUP1 PUSH4 0x7B0472F0 EQ PUSH2 0x175 JUMPI JUMPDEST PUSH0 DUP1 REVERT JUMPDEST PUSH2 0xEB PUSH1 0x4 DUP1 CALLDATASIZE SUB DUP2 ADD SWAP1 PUSH2 0xE6 SWAP2 SWAP1 PUSH2 0xC66 JUMP JUMPDEST PUSH2 0x25F JUMP JUMPDEST PUSH1 0x40 MLOAD PUSH2 0xF8 SWAP2 SWAP1 PUSH2 0xCA9 JUMP JUMPDEST PUSH1 0x40 MLOAD DUP1 SWAP2 SUB SWAP1 RETURN JUMPDEST PUSH2 0x11B PUSH1 0x4 DUP1 CALLDATASIZE SUB DUP2 ADD SWAP1 PUSH2 0x116 SWAP2 SWAP1 PUSH2 0xC66 JUMP JUMPDEST PUSH2 0x274 JUMP JUMPDEST PUSH1 0x40 MLOAD PUSH2 0x128 SWAP2 SWAP1 PUSH2 0xCA9 JUMP JUMPDEST PUSH1 0x40 MLOAD DUP1 SWAP2 SUB SWAP1 RETURN JUMPDEST PUSH2 0x14B PUSH1 0x4 DUP1 CALLDATASIZE SUB DUP2 ADD SWAP1 PUSH2 0x146 SWAP2 SWAP1 PUSH2 0xCEC JUMP JUMPDEST PUSH2 0x289 JUMP JUMPDEST STOP JUMPDEST PUSH2 0x155 PUSH2 0x43D JUMP JUMPDEST STOP JUMPDEST PUSH2 0x15F PUSH2 0x450 JUMP JUMPDEST PUSH1 0x40 MLOAD PUSH2 0x16C SWAP2 SWAP1 PUSH2 0xD72 JUMP JUMPDEST PUSH1 0x40 MLOAD DUP1 SWAP2 SUB SWAP1 RETURN JUMPDEST PUSH2 0x18F PUSH1 0x4 DUP1 CALLDATASIZE SUB DUP2 ADD SWAP1 PUSH2 0x18A SWAP2 SWAP1 PUSH2 0xD8B JUMP JUMPDEST PUSH2 0x475 JUMP JUMPDEST STOP JUMPDEST PUSH2 0x199 PUSH2 0x6C3 JUMP JUMPDEST PUSH1 0x40 MLOAD PUSH2 0x1A6 SWAP2 SWAP1 PUSH2 0xCA9 JUMP JUMPDEST PUSH1 0x40 MLOAD DUP1 SWAP2 SUB SWAP1 RETURN JUMPDEST PUSH2 0x1B7 PUSH2 0x6C9 JUMP JUMPDEST PUSH1 0x40 MLOAD PUSH2 0x1C4 SWAP2 SWAP1 PUSH2 0xCA9 JUMP JUMPDEST PUSH1 0x40 MLOAD DUP1 SWAP2 SUB SWAP1 RETURN JUMPDEST PUSH2 0x1D5 PUSH2 0x6CF JUMP JUMPDEST PUSH1 0x40 MLOAD PUSH2 0x1E2 SWAP2 SWAP1 PUSH2 0xDD8 JUMP JUMPDEST PUSH1 0x40 MLOAD DUP1 SWAP2 SUB SWAP1 RETURN JUMPDEST PUSH2 0x1F3 PUSH2 0x6F6 JUMP JUMPDEST STOP JUMPDEST PUSH2 0x20F PUSH1 0x4 DUP1 CALLDATASIZE SUB DUP2 ADD SWAP1 PUSH2 0x20A SWAP2 SWAP1 PUSH2 0xC66 JUMP JUMPDEST PUSH2 0x812 JUMP JUMPDEST PUSH1 0x40 MLOAD PUSH2 0x21C SWAP2 SWAP1 PUSH2 0xCA9 JUMP JUMPDEST PUSH1 0x40 MLOAD DUP1 SWAP2 SUB SWAP1 RETURN JUMPDEST PUSH2 0x23F PUSH1 0x4 DUP1 CALLDATASIZE SUB DUP2 ADD SWAP1 PUSH2 0x23A SWAP2 SWAP1 PUSH2 0xC66 JUMP JUMPDEST PUSH2 0x8BD JUMP JUMPDEST STOP JUMPDEST PUSH2 0x249 PUSH2 0x941 JUMP JUMPDEST PUSH1 0x40 MLOAD PUSH2 0x256 SWAP2 SWAP1 PUSH2 0xCA9 JUMP JUMPDEST PUSH1 0x40 MLOAD DUP1 SWAP2 SUB SWAP1 RETURN JUMPDEST PUSH1 0x4 PUSH1 0x20 MSTORE DUP1 PUSH0 MSTORE PUSH1 0x40 PUSH0 KECCAK256 PUSH0 SWAP2 POP SWAP1 POP SLOAD DUP2 JUMP JUMPDEST PUSH1 0x5 PUSH1 0x20 MSTORE DUP1 PUSH0 MSTORE PUSH1 0x40 PUSH0 KECCAK256 PUSH0 SWAP2 POP SWAP1 POP SLOAD DUP2 JUMP JUMPDEST PUSH2 0x291 PUSH2 0x947 JUMP JUMPDEST PUSH0 DUP2 GT PUSH2 0x2D3 JUMPI PUSH1 0x40 MLOAD PUSH32 0x8C379A000000000000000000000000000000000000000000000000000000000 DUP2 MSTORE PUSH1 0x4 ADD PUSH2 0x2CA SWAP1 PUSH2 0xE4B JUMP JUMPDEST PUSH1 0x40 MLOAD DUP1 SWAP2 SUB SWAP1 REVERT JUMPDEST PUSH2 0x2DC CALLER PUSH2 0x98D JUMP JUMPDEST DUP1 PUSH1 0x4 PUSH0 CALLER PUSH20 0xFFFFFFFFFFFFFFFFFFFFFFFFFFFFFFFFFFFFFFFF AND PUSH20 0xFFFFFFFFFFFFFFFFFFFFFFFFFFFFFFFFFFFFFFFF AND DUP2 MSTORE PUSH1 0x20 ADD SWAP1 DUP2 MSTORE PUSH1 0x20 ADD PUSH0 KECCAK256 PUSH0 DUP3 DUP3 SLOAD PUSH2 0x328 SWAP2 SWAP1 PUSH2 0xE96 JUMP JUMPDEST SWAP3 POP POP DUP2 SWAP1 SSTORE POP DUP1 PUSH1 0x3 PUSH0 DUP3 DUP3 SLOAD PUSH2 0x340 SWAP2 SWAP1 PUSH2 0xE96 JUMP JUMPDEST SWAP3 POP POP DUP2 SWAP1 SSTORE POP PUSH1 0x2 PUSH0 SWAP1 SLOAD SWAP1 PUSH2 0x100 EXP SWAP1 DIV PUSH20 0xFFFFFFFFFFFFFFFFFFFFFFFFFFFFFFFFFFFFFFFF AND PUSH20 0xFFFFFFFFFFFFFFFFFFFFFFFFFFFFFFFFFFFFFFFF AND PUSH4 0xA9059CBB CALLER DUP4 PUSH1 0x40 MLOAD DUP4 PUSH4 0xFFFFFFFF AND PUSH1 0xE0 SHL DUP2 MSTORE PUSH1 0x4 ADD PUSH2 0x3A3 SWAP3 SWAP2 SWAP1 PUSH2 0xEC9 JUMP JUMPDEST PUSH1 0x20 PUSH1 0x40 MLOAD DUP1 DUP4 SUB DUP2 PUSH0 DUP8 GAS CALL ISZERO DUP1 ISZERO PUSH2 0x3BF JUMPI RETURNDATASIZE PUSH0 DUP1 RETURNDATACOPY RETURNDATASIZE PUSH0 REVERT JUMPDEST POP POP POP POP PUSH1 0x40 MLOAD RETURNDATASIZE PUSH1 0x1F NOT PUSH1 0x1F DUP3 ADD AND DUP3 ADD DUP1 PUSH1 0x40 MSTORE POP DUP2 ADD SWAP1 PUSH2 0x3E3 SWAP2 SWAP1 PUSH2 0xF25 JUMP JUMPDEST POP CALLER PUSH20 0xFFFFFFFFFFFFFFFFFFFFFFFFFFFFFFFFFFFFFFFF AND PUSH32 0x7084F5476618D8E60B11EF0D7D3F06914655ADB8793E28FF7F018D4C76D505D5 DUP3 PUSH1 0x40 MLOAD PUSH2 0x42A SWAP2 SWAP1 PUSH2 0xCA9 JUMP JUMPDEST PUSH1 0x40 MLOAD DUP1 SWAP2 SUB SWAP1 LOG2 PUSH2 0x43A PUSH2 0xA79 JUMP JUMPDEST POP JUMP JUMPDEST PUSH2 0x445 PUSH2 0xA82 JUMP JUMPDEST PUSH2 0x44E PUSH0 PUSH2 0xB09 JUMP JUMPDEST JUMP JUMPDEST PUSH1 0x2 PUSH0 SWAP1 SLOAD SWAP1 PUSH2 0x100 EXP SWAP1 DIV PUSH20 0xFFFFFFFFFFFFFFFFFFFFFFFFFFFFFFFFFFFFFFFF AND DUP2 JUMP JUMPDEST PUSH2 0x47D PUSH2 0x947 JUMP JUMPDEST PUSH0 DUP3 GT PUSH2 0x4BF JUMPI PUSH1 0x40 MLOAD PUSH32 0x8C379A000000000000000000000000000000000000000000000000000000000 DUP2 MSTORE PUSH1 0x4 ADD PUSH2 0x4B6 SWAP1 PUSH2 0xE4B JUMP JUMPDEST PUSH1 0x40 MLOAD DUP1 SWAP2 SUB SWAP1 REVERT JUMPDEST PUSH2 0x4D3 DUP2 PUSH1 0x8 PUSH2 0xBCA SWAP1 SWAP2 SWAP1 PUSH4 0xFFFFFFFF AND JUMP JUMPDEST PUSH2 0x512 JUMPI PUSH1 0x40 MLOAD PUSH32 0x8C379A000000000000000000000000000000000000000000000000000000000 DUP2 MSTORE PUSH1 0x4 ADD PUSH2 0x509 SWAP1 PUSH2 0xF9A JUMP JUMPDEST PUSH1 0x40 MLOAD DUP1 SWAP2 SUB SWAP1 REVERT JUMPDEST PUSH2 0x51B CALLER PUSH2 0x98D JUMP JUMPDEST PUSH1 0x2 PUSH0 SWAP1 SLOAD SWAP1 PUSH2 0x100 EXP SWAP1 DIV PUSH20 0xFFFFFFFFFFFFFFFFFFFFFFFFFFFFFFFFFFFFFFFF AND PUSH20 0xFFFFFFFFFFFFFFFFFFFFFFFFFFFFFFFFFFFFFFFF AND PUSH4 0x23B872DD CALLER ADDRESS DUP6 PUSH1 0x40 MLOAD DUP5 PUSH4 0xFFFFFFFF AND PUSH1 0xE0 SHL DUP2 MSTORE PUSH1 0x4 ADD PUSH2 0x579 SWAP4 SWAP3 SWAP2 SWAP1 PUSH2 0xFB8 JUMP JUMPDEST PUSH1 0x20 PUSH1 0x40 MLOAD DUP1 DUP4 SUB DUP2 PUSH0 DUP8 GAS CALL ISZERO DUP1 ISZERO PUSH2 0x595 JUMPI RETURNDATASIZE PUSH0 DUP1 RETURNDATACOPY RETURNDATASIZE PUSH0 REVERT JUMPDEST POP POP POP POP PUSH1 0x40 MLOAD RETURNDATASIZE PUSH1 0x1F NOT PUSH1 0x1F DUP3 ADD AND DUP3 ADD DUP1 PUSH1 0x40 MSTORE POP DUP2 ADD SWAP1 PUSH2 0x5B9 SWAP2 SWAP1 PUSH2 0xF25 JUMP JUMPDEST POP DUP2 PUSH1 0x4 PUSH0 CALLER PUSH20 0xFFFFFFFFFFFFFFFFFFFFFFFFFFFFFFFFFFFFFFFF AND PUSH20 0xFFFFFFFFFFFFFFFFFFFFFFFFFFFFFFFFFFFFFFFF AND DUP2 MSTORE PUSH1 0x20 ADD SWAP1 DUP2 MSTORE PUSH1 0x20 ADD PUSH0 KECCAK256 PUSH0 DUP3 DUP3 SLOAD PUSH2 0x606 SWAP2 SWAP1 PUSH2 0xFED JUMP JUMPDEST SWAP3 POP POP DUP2 SWAP1 SSTORE POP DUP2 PUSH1 0x3 PUSH0 DUP3 DUP3 SLOAD PUSH2 0x61E SWAP2 SWAP1 PUSH2 0xFED JUMP JUMPDEST SWAP3 POP POP DUP2 SWAP1 SSTORE POP TIMESTAMP PUSH1 0x5 PUSH0 CALLER PUSH20 0xFFFFFFFFFFFFFFFFFFFFFFFFFFFFFFFFFFFFFFFF AND PUSH20 0xFFFFFFFFFFFFFFFFFFFFFFFFFFFFFFFFFFFFFFFF AND DUP2 MSTORE PUSH1 0x20 ADD SWAP1 DUP2 MSTORE PUSH1 0x20 ADD PUSH0 KECCAK256 DUP2 SWAP1 SSTORE POP CALLER PUSH20 0xFFFFFFFFFFFFFFFFFFFFFFFFFFFFFFFFFFFFFFFF AND PUSH32 0x1449C6DD7851ABC30ABF37F57715F492010519147CC2652FBC38202C18A6EE90 DUP4 DUP4 PUSH1 0x40 MLOAD PUSH2 0x6AF SWAP3 SWAP2 SWAP1 PUSH2 0x1020 JUMP JUMPDEST PUSH1 0x40 MLOAD DUP1 SWAP2 SUB SWAP1 LOG2 PUSH2 0x6BF PUSH2 0xA79 JUMP JUMPDEST POP POP JUMP JUMPDEST PUSH1 0x6 SLOAD DUP2 JUMP JUMPDEST PUSH1 0x3 SLOAD DUP2 JUMP JUMPDEST PUSH0 DUP1 PUSH0 SWAP1 SLOAD SWAP1 PUSH2 0x100 EXP SWAP1 DIV PUSH20 0xFFFFFFFFFFFFFFFFFFFFFFFFFFFFFFFFFFFFFFFF AND SWAP1 POP SWAP1 JUMP JUMPDEST PUSH2 0x6FE PUSH2 0x947 JUMP JUMPDEST PUSH2 0x707 CALLER PUSH2 0x98D JUMP JUMPDEST PUSH0 PUSH2 0x711 CALLER PUSH2 0x812 JUMP JUMPDEST SWAP1 POP PUSH0 DUP2 GT ISZERO PUSH2 0x807 JUMPI PUSH1 0x2 PUSH0 SWAP1 SLOAD SWAP1 PUSH2 0x100 EXP SWAP1 DIV PUSH20 0xFFFFFFFFFFFFFFFFFFFFFFFFFFFFFFFFFFFFFFFF AND PUSH20 0xFFFFFFFFFFFFFFFFFFFFFFFFFFFFFFFFFFFFFFFF AND PUSH4 0xA9059CBB CALLER DUP4 PUSH1 0x40 MLOAD DUP4 PUSH4 0xFFFFFFFF AND PUSH1 0xE0 SHL DUP2 MSTORE PUSH1 0x4 ADD PUSH2 0x777 SWAP3 SWAP2 SWAP1 PUSH2 0xEC9 JUMP JUMPDEST PUSH1 0x20 PUSH1 0x40 MLOAD DUP1 DUP4 SUB DUP2 PUSH0 DUP8 GAS CALL ISZERO DUP1 ISZERO PUSH2 0x793 JUMPI RETURNDATASIZE PUSH0 DUP1 RETURNDATACOPY RETURNDATASIZE PUSH0 REVERT JUMPDEST POP POP POP POP PUSH1 0x40 MLOAD RETURNDATASIZE PUSH1 0x1F NOT PUSH1 0x1F DUP3 ADD AND DUP3 ADD DUP1 PUSH1 0x40 MSTORE POP DUP2 ADD SWAP1 PUSH2 0x7B7 SWAP2 SWAP1 PUSH2 0xF25 JUMP JUMPDEST POP CALLER PUSH20 0xFFFFFFFFFFFFFFFFFFFFFFFFFFFFFFFFFFFFFFFF AND PUSH32 0x106F923F993C2149D49B4255FF723ACAFA1F2D94393F561D3EDA32AE348F7241 DUP3 PUSH1 0x40 MLOAD PUSH2 0x7FE SWAP2 SWAP1 PUSH2 0xCA9 JUMP JUMPDEST PUSH1 0x40 MLOAD DUP1 SWAP2 SUB SWAP1 LOG2 JUMPDEST POP PUSH2 0x810 PUSH2 0xA79 JUMP JUMPDEST JUMP JUMPDEST PUSH0 DUP1 PUSH1 0x5 PUSH0 DUP5 PUSH20 0xFFFFFFFFFFFFFFFFFFFFFFFFFFFFFFFFFFFFFFFF AND PUSH20 0xFFFFFFFFFFFFFFFFFFFFFFFFFFFFFFFFFFFFFFFF AND DUP2 MSTORE PUSH1 0x20 ADD SWAP1 DUP2 MSTORE PUSH1 0x20 ADD PUSH0 KECCAK256 SLOAD TIMESTAMP PUSH2 0x85D SWAP2 SWAP1 PUSH2 0xE96 JUMP JUMPDEST SWAP1 POP PUSH1 0x6 SLOAD DUP2 PUSH1 0x4 PUSH0 DUP7 PUSH20 0xFFFFFFFFFFFFFFFFFFFFFFFFFFFFFFFFFFFFFFFF AND PUSH20 0xFFFFFFFFFFFFFFFFFFFFFFFFFFFFFFFFFFFFFFFF AND DUP2 MSTORE PUSH1 0x20 ADD SWAP1 DUP2 MSTORE PUSH1 0x20 ADD PUSH0 KECCAK256 SLOAD PUSH2 0x8AB SWAP2 SWAP1 PUSH2 0x1047 JUMP JUMPDEST PUSH2 0x8B5 SWAP2 SWAP1 PUSH2 0x1047 JUMP JUMPDEST SWAP2 POP POP SWAP2 SWAP1 POP JUMP JUMPDEST PUSH2 0x8C5 PUSH2 0xA82 JUMP JUMPDEST PUSH0 PUSH20 0xFFFFFFFFFFFFFFFFFFFFFFFFFFFFFFFFFFFFFFFF AND DUP2 PUSH20 0xFFFFFFFFFFFFFFFFFFFFFFFFFFFFFFFFFFFFFFFF AND SUB PUSH2 0x935 JUMPI PUSH0 PUSH1 0x40 MLOAD PUSH32 0x1E4FBDF700000000000000000000000000000000000000000000000000000000 DUP2 MSTORE PUSH1 0x4 ADD PUSH2 0x92C SWAP2 SWAP1 PUSH2 0xDD8 JUMP JUMPDEST PUSH1 0x40 MLOAD DUP1 SWAP2 SUB SWAP1 REVERT JUMPDEST PUSH2 0x93E DUP2 PUSH2 0xB09 JUMP JUMPDEST POP JUMP JUMPDEST PUSH1 0x7 SLOAD DUP2 JUMP JUMPDEST PUSH1 0x2 PUSH1 0x1 SLOAD SUB PUSH2 0x983 JUMPI PUSH1 0x40 MLOAD PUSH32 0x3EE5AEB500000000000000000000000000000000000000000000000000000000 DUP2 MSTORE PUSH1 0x4 ADD PUSH1 0x40 MLOAD DUP1 SWAP2 SUB SWAP1 REVERT JUMPDEST PUSH1 0x2 PUSH1 0x1 DUP2 SWAP1 SSTORE POP JUMP JUMPDEST PUSH1 0x7 SLOAD TIMESTAMP GT ISZERO PUSH2 0xA76 JUMPI PUSH0 PUSH1 0x7 SLOAD TIMESTAMP PUSH2 0x9A6 SWAP2 SWAP1 PUSH2 0xE96 JUMP JUMPDEST SWAP1 POP PUSH0 PUSH1 0x6 SLOAD DUP3 PUSH1 0x3 SLOAD PUSH2 0x9BA SWAP2 SWAP1 PUSH2 0x1047 JUMP JUMPDEST PUSH2 0x9C4 SWAP2 SWAP1 PUSH2 0x1047 JUMP JUMPDEST SWAP1 POP PUSH1 0x2 PUSH0 SWAP1 SLOAD SWAP1 PUSH2 0x100 EXP SWAP1 DIV PUSH20 0xFFFFFFFFFFFFFFFFFFFFFFFFFFFFFFFFFFFFFFFF AND PUSH20 0xFFFFFFFFFFFFFFFFFFFFFFFFFFFFFFFFFFFFFFFF AND PUSH4 0x23B872DD PUSH2 0xA0B PUSH2 0x6CF JUMP JUMPDEST ADDRESS DUP5 PUSH1 0x40 MLOAD DUP5 PUSH4 0xFFFFFFFF AND PUSH1 0xE0 SHL DUP2 MSTORE PUSH1 0x4 ADD PUSH2 0xA2B SWAP4 SWAP3 SWAP2 SWAP1 PUSH2 0xFB8 JUMP JUMPDEST PUSH1 0x20 PUSH1 0x40 MLOAD DUP1 DUP4 SUB DUP2 PUSH0 DUP8 GAS CALL ISZERO DUP1 ISZERO PUSH2 0xA47 JUMPI RETURNDATASIZE PUSH0 DUP1 RETURNDATACOPY RETURNDATASIZE PUSH0 REVERT JUMPDEST POP POP POP POP PUSH1 0x40 MLOAD RETURNDATASIZE PUSH1 0x1F NOT PUSH1 0x1F DUP3 ADD AND DUP3 ADD DUP1 PUSH1 0x40 MSTORE POP DUP2 ADD SWAP1 PUSH2 0xA6B SWAP2 SWAP1 PUSH2 0xF25 JUMP JUMPDEST POP TIMESTAMP PUSH1 0x7 DUP2 SWAP1 SSTORE POP POP POP JUMPDEST POP JUMP JUMPDEST PUSH1 0x1 DUP1 DUP2 SWAP1 SSTORE POP JUMP JUMPDEST PUSH2 0xA8A PUSH2 0xBE1 JUMP JUMPDEST PUSH20 0xFFFFFFFFFFFFFFFFFFFFFFFFFFFFFFFFFFFFFFFF AND PUSH2 0xAA8 PUSH2 0x6CF JUMP JUMPDEST PUSH20 0xFFFFFFFFFFFFFFFFFFFFFFFFFFFFFFFFFFFFFFFF AND EQ PUSH2 0xB07 JUMPI PUSH2 0xACB PUSH2 0xBE1 JUMP JUMPDEST PUSH1 0x40 MLOAD PUSH32 0x118CDAA700000000000000000000000000000000000000000000000000000000 DUP2 MSTORE PUSH1 0x4 ADD PUSH2 0xAFE SWAP2 SWAP1 PUSH2 0xDD8 JUMP JUMPDEST PUSH1 0x40 MLOAD DUP1 SWAP2 SUB SWAP1 REVERT JUMPDEST JUMP JUMPDEST PUSH0 DUP1 PUSH0 SWAP1 SLOAD SWAP1 PUSH2 0x100 EXP SWAP1 DIV PUSH20 0xFFFFFFFFFFFFFFFFFFFFFFFFFFFFFFFFFFFFFFFF AND SWAP1 POP DUP2 PUSH0 DUP1 PUSH2 0x100 EXP DUP2 SLOAD DUP2 PUSH20 0xFFFFFFFFFFFFFFFFFFFFFFFFFFFFFFFFFFFFFFFF MUL NOT AND SWAP1 DUP4 PUSH20 0xFFFFFFFFFFFFFFFFFFFFFFFFFFFFFFFFFFFFFFFF AND MUL OR SWAP1 SSTORE POP DUP2 PUSH20 0xFFFFFFFFFFFFFFFFFFFFFFFFFFFFFFFFFFFFFFFF AND DUP2 PUSH20 0xFFFFFFFFFFFFFFFFFFFFFFFFFFFFFFFFFFFFFFFF AND PUSH32 0x8BE0079C531659141344CD1FD0A4F28419497F9722A3DAAFE3B4186F6B6457E0 PUSH1 0x40 MLOAD PUSH1 0x40 MLOAD DUP1 SWAP2 SUB SWAP1 LOG3 POP POP JUMP JUMPDEST PUSH0 PUSH2 0xBD9 DUP4 PUSH0 ADD DUP4 PUSH0 SHL PUSH2 0xBE8 JUMP JUMPDEST SWAP1 POP SWAP3 SWAP2 POP POP JUMP JUMPDEST PUSH0 CALLER SWAP1 POP SWAP1 JUMP JUMPDEST PUSH0 DUP1 DUP4 PUSH1 0x1 ADD PUSH0 DUP5 DUP2 MSTORE PUSH1 0x20 ADD SWAP1 DUP2 MSTORE PUSH1 0x20 ADD PUSH0 KECCAK256 SLOAD EQ ISZERO SWAP1 POP SWAP3 SWAP2 POP POP JUMP JUMPDEST PUSH0 DUP1 REVERT JUMPDEST PUSH0 PUSH20 0xFFFFFFFFFFFFFFFFFFFFFFFFFFFFFFFFFFFFFFFF DUP3 AND SWAP1 POP SWAP2 SWAP1 POP JUMP JUMPDEST PUSH0 PUSH2 0xC35 DUP3 PUSH2 0xC0C JUMP JUMPDEST SWAP1 POP SWAP2 SWAP1 POP JUMP JUMPDEST PUSH2 0xC45 DUP2 PUSH2 0xC2B JUMP JUMPDEST DUP2 EQ PUSH2 0xC4F JUMPI PUSH0 DUP1 REVERT JUMPDEST POP JUMP JUMPDEST PUSH0 DUP2 CALLDATALOAD SWAP1 POP PUSH2 0xC60 DUP2 PUSH2 0xC3C JUMP JUMPDEST SWAP3 SWAP2 POP POP JUMP JUMPDEST PUSH0 PUSH1 0x20 DUP3 DUP5 SUB SLT ISZERO PUSH2 0xC7B JUMPI PUSH2 0xC7A PUSH2 0xC08 JUMP JUMPDEST JUMPDEST PUSH0 PUSH2 0xC88 DUP5 DUP3 DUP6 ADD PUSH2 0xC52 JUMP JUMPDEST SWAP2 POP POP SWAP3 SWAP2 POP POP JUMP JUMPDEST PUSH0 DUP2 SWAP1 POP SWAP2 SWAP1 POP JUMP JUMPDEST PUSH2 0xCA3 DUP2 PUSH2 0xC91 JUMP JUMPDEST DUP3 MSTORE POP POP JUMP JUMPDEST PUSH0 PUSH1 0x20 DUP3 ADD SWAP1 POP PUSH2 0xCBC PUSH0 DUP4 ADD DUP5 PUSH2 0xC9A JUMP JUMPDEST SWAP3 SWAP2 POP POP JUMP JUMPDEST PUSH2 0xCCB DUP2 PUSH2 0xC91 JUMP JUMPDEST DUP2 EQ PUSH2 0xCD5 JUMPI PUSH0 DUP1 REVERT JUMPDEST POP JUMP JUMPDEST PUSH0 DUP2 CALLDATALOAD SWAP1 POP PUSH2 0xCE6 DUP2 PUSH2 0xCC2 JUMP JUMPDEST SWAP3 SWAP2 POP POP JUMP JUMPDEST PUSH0 PUSH1 0x20 DUP3 DUP5 SUB SLT ISZERO PUSH2 0xD01 JUMPI PUSH2 0xD00 PUSH2 0xC08 JUMP JUMPDEST JUMPDEST PUSH0 PUSH2 0xD0E DUP5 DUP3 DUP6 ADD PUSH2 0xCD8 JUMP JUMPDEST SWAP2 POP POP SWAP3 SWAP2 POP POP JUMP JUMPDEST PUSH0 DUP2 SWAP1 POP SWAP2 SWAP1 POP JUMP JUMPDEST PUSH0 PUSH2 0xD3A PUSH2 0xD35 PUSH2 0xD30 DUP5 PUSH2 0xC0C JUMP JUMPDEST PUSH2 0xD17 JUMP JUMPDEST PUSH2 0xC0C JUMP JUMPDEST SWAP1 POP SWAP2 SWAP1 POP JUMP JUMPDEST PUSH0 PUSH2 0xD4B DUP3 PUSH2 0xD20 JUMP JUMPDEST SWAP1 POP SWAP2 SWAP1 POP JUMP JUMPDEST PUSH0 PUSH2 0xD5C DUP3 PUSH2 0xD41 JUMP JUMPDEST SWAP1 POP SWAP2 SWAP1 POP JUMP JUMPDEST PUSH2 0xD6C DUP2 PUSH2 0xD52 JUMP JUMPDEST DUP3 MSTORE POP POP JUMP JUMPDEST PUSH0 PUSH1 0x20 DUP3 ADD SWAP1 POP PUSH2 0xD85 PUSH0 DUP4 ADD DUP5 PUSH2 0xD63 JUMP JUMPDEST SWAP3 SWAP2 POP POP JUMP JUMPDEST PUSH0 DUP1 PUSH1 0x40 DUP4 DUP6 SUB SLT ISZERO PUSH2 0xDA1 JUMPI PUSH2 0xDA0 PUSH2 0xC08 JUMP JUMPDEST JUMPDEST PUSH0 PUSH2 0xDAE DUP6 DUP3 DUP7 ADD PUSH2 0xCD8 JUMP JUMPDEST SWAP3 POP POP PUSH1 0x20 PUSH2 0xDBF DUP6 DUP3 DUP7 ADD PUSH2 0xCD8 JUMP JUMPDEST SWAP2 POP POP SWAP3 POP SWAP3 SWAP1 POP JUMP JUMPDEST PUSH2 0xDD2 DUP2 PUSH2 0xC2B JUMP JUMPDEST DUP3 MSTORE POP POP JUMP JUMPDEST PUSH0 PUSH1 0x20 DUP3 ADD SWAP1 POP PUSH2 0xDEB PUSH0 DUP4 ADD DUP5 PUSH2 0xDC9 JUMP JUMPDEST SWAP3 SWAP2 POP POP JUMP JUMPDEST PUSH0 DUP3 DUP3 MSTORE PUSH1 0x20 DUP3 ADD SWAP1 POP SWAP3 SWAP2 POP POP JUMP JUMPDEST PUSH32 0x416D6F756E74206D7573742062652067726561746572207468616E2030000000 PUSH0 DUP3 ADD MSTORE POP JUMP JUMPDEST PUSH0 PUSH2 0xE35 PUSH1 0x1D DUP4 PUSH2 0xDF1 JUMP JUMPDEST SWAP2 POP PUSH2 0xE40 DUP3 PUSH2 0xE01 JUMP JUMPDEST PUSH1 0x20 DUP3 ADD SWAP1 POP SWAP2 SWAP1 POP JUMP JUMPDEST PUSH0 PUSH1 0x20 DUP3 ADD SWAP1 POP DUP2 DUP2 SUB PUSH0 DUP4 ADD MSTORE PUSH2 0xE62 DUP2 PUSH2 0xE29 JUMP JUMPDEST SWAP1 POP SWAP2 SWAP1 POP JUMP JUMPDEST PUSH32 0x4E487B7100000000000000000000000000000000000000000000000000000000 PUSH0 MSTORE PUSH1 0x11 PUSH1 0x4 MSTORE PUSH1 0x24 PUSH0 REVERT JUMPDEST PUSH0 PUSH2 0xEA0 DUP3 PUSH2 0xC91 JUMP JUMPDEST SWAP2 POP PUSH2 0xEAB DUP4 PUSH2 0xC91 JUMP JUMPDEST SWAP3 POP DUP3 DUP3 SUB SWAP1 POP DUP2 DUP2 GT ISZERO PUSH2 0xEC3 JUMPI PUSH2 0xEC2 PUSH2 0xE69 JUMP JUMPDEST JUMPDEST SWAP3 SWAP2 POP POP JUMP JUMPDEST PUSH0 PUSH1 0x40 DUP3 ADD SWAP1 POP PUSH2 0xEDC PUSH0 DUP4 ADD DUP6 PUSH2 0xDC9 JUMP JUMPDEST PUSH2 0xEE9 PUSH1 0x20 DUP4 ADD DUP5 PUSH2 0xC9A JUMP JUMPDEST SWAP4 SWAP3 POP POP POP JUMP JUMPDEST PUSH0 DUP2 ISZERO ISZERO SWAP1 POP SWAP2 SWAP1 POP JUMP JUMPDEST PUSH2 0xF04 DUP2 PUSH2 0xEF0 JUMP JUMPDEST DUP2 EQ PUSH2 0xF0E JUMPI PUSH0 DUP1 REVERT JUMPDEST POP JUMP JUMPDEST PUSH0 DUP2 MLOAD SWAP1 POP PUSH2 0xF1F DUP2 PUSH2 0xEFB JUMP JUMPDEST SWAP3 SWAP2 POP POP JUMP JUMPDEST PUSH0 PUSH1 0x20 DUP3 DUP5 SUB SLT ISZERO PUSH2 0xF3A JUMPI PUSH2 0xF39 PUSH2 0xC08 JUMP JUMPDEST JUMPDEST PUSH0 PUSH2 0xF47 DUP5 DUP3 DUP6 ADD PUSH2 0xF11 JUMP JUMPDEST SWAP2 POP POP SWAP3 SWAP2 POP POP JUMP JUMPDEST PUSH32 0x496E76616C6964207374616B696E6720706572696F6400000000000000000000 PUSH0 DUP3 ADD MSTORE POP JUMP JUMPDEST PUSH0 PUSH2 0xF84 PUSH1 0x16 DUP4 PUSH2 0xDF1 JUMP JUMPDEST SWAP2 POP PUSH2 0xF8F DUP3 PUSH2 0xF50 JUMP JUMPDEST PUSH1 0x20 DUP3 ADD SWAP1 POP SWAP2 SWAP1 POP JUMP JUMPDEST PUSH0 PUSH1 0x20 DUP3 ADD SWAP1 POP DUP2 DUP2 SUB PUSH0 DUP4 ADD MSTORE PUSH2 0xFB1 DUP2 PUSH2 0xF78 JUMP JUMPDEST SWAP1 POP SWAP2 SWAP1 POP JUMP JUMPDEST PUSH0 PUSH1 0x60 DUP3 ADD SWAP1 POP PUSH2 0xFCB PUSH0 DUP4 ADD DUP7 PUSH2 0xDC9 JUMP JUMPDEST PUSH2 0xFD8 PUSH1 0x20 DUP4 ADD DUP6 PUSH2 0xDC9 JUMP JUMPDEST PUSH2 0xFE5 PUSH1 0x40 DUP4 ADD DUP5 PUSH2 0xC9A JUMP JUMPDEST SWAP5 SWAP4 POP POP POP POP JUMP JUMPDEST PUSH0 PUSH2 0xFF7 DUP3 PUSH2 0xC91 JUMP JUMPDEST SWAP2 POP PUSH2 0x1002 DUP4 PUSH2 0xC91 JUMP JUMPDEST SWAP3 POP DUP3 DUP3 ADD SWAP1 POP DUP1 DUP3 GT ISZERO PUSH2 0x101A JUMPI PUSH2 0x1019 PUSH2 0xE69 JUMP JUMPDEST JUMPDEST SWAP3 SWAP2 POP POP JUMP JUMPDEST PUSH0 PUSH1 0x40 DUP3 ADD SWAP1 POP PUSH2 0x1033 PUSH0 DUP4 ADD DUP6 PUSH2 0xC9A JUMP JUMPDEST PUSH2 0x1040 PUSH1 0x20 DUP4 ADD DUP5 PUSH2 0xC9A JUMP JUMPDEST SWAP4 SWAP3 POP POP POP JUMP JUMPDEST PUSH0 PUSH2 0x1051 DUP3 PUSH2 0xC91 JUMP JUMPDEST SWAP2 POP PUSH2 0x105C DUP4 PUSH2 0xC91 JUMP JUMPDEST SWAP3 POP DUP3 DUP3 MUL PUSH2 0x106A DUP2 PUSH2 0xC91 JUMP JUMPDEST SWAP2 POP DUP3 DUP3 DIV DUP5 EQ DUP4 ISZERO OR PUSH2 0x1081 JUMPI PUSH2 0x1080 PUSH2 0xE69 JUMP JUMPDEST JUMPDEST POP SWAP3 SWAP2 POP POP JUMP INVALID LOG2 PUSH5 0x6970667358 0x22 SLT KECCAK256 0xB5 SIGNEXTEND CALLER 0x2A PUSH23 0x7A046F2A6170A2D6D0C25FE2EE8F33E7636E1EDC7BCDF0 0xD5 PUSH4 0xAA6C6473 PUSH16 0x6C634300081400330000000000000000 "
				},
				"gasEstimates": {
					"creation": {
						"codeDepositCost": "857200",
						"executionCost": "infinite",
						"totalCost": "infinite"
					},
					"external": {
						"calculateReward(address)": "infinite",
						"claimReward()": "infinite",
						"lastRewardTimestamp()": "2513",
						"lastStakeTimestamp(address)": "2825",
						"owner()": "2582",
						"renounceOwnership()": "infinite",
						"rewardRate()": "2448",
						"stake(uint256,uint256)": "infinite",
						"stakedBalances(address)": "2803",
						"stakingToken()": "infinite",
						"totalStaked()": "2470",
						"transferOwnership(address)": "infinite",
						"withdraw(uint256)": "infinite"
					},
					"internal": {
						"updateReward(address)": "infinite"
					}
				},
				"methodIdentifiers": {
					"calculateReward(address)": "d82e3962",
					"claimReward()": "b88a802f",
					"lastRewardTimestamp()": "f8077fae",
					"lastStakeTimestamp(address)": "2c42b233",
					"owner()": "8da5cb5b",
					"renounceOwnership()": "715018a6",
					"rewardRate()": "7b0a47ee",
					"stake(uint256,uint256)": "7b0472f0",
					"stakedBalances(address)": "1460fa87",
					"stakingToken()": "72f702f3",
					"totalStaked()": "817b1cd2",
					"transferOwnership(address)": "f2fde38b",
					"withdraw(uint256)": "2e1a7d4d"
				}
			},
			"storageLayout": {
				"storage": [
					{
						"astId": 8,
						"contract": "contracts/Stake.sol:StakingPool",
						"label": "_owner",
						"offset": 0,
						"slot": "0",
						"type": "t_address"
					},
					{
						"astId": 266,
						"contract": "contracts/Stake.sol:StakingPool",
						"label": "_status",
						"offset": 0,
						"slot": "1",
						"type": "t_uint256"
					},
					{
						"astId": 1126,
						"contract": "contracts/Stake.sol:StakingPool",
						"label": "stakingToken",
						"offset": 0,
						"slot": "2",
						"type": "t_contract(IERC20)225"
					},
					{
						"astId": 1128,
						"contract": "contracts/Stake.sol:StakingPool",
						"label": "totalStaked",
						"offset": 0,
						"slot": "3",
						"type": "t_uint256"
					},
					{
						"astId": 1132,
						"contract": "contracts/Stake.sol:StakingPool",
						"label": "stakedBalances",
						"offset": 0,
						"slot": "4",
						"type": "t_mapping(t_address,t_uint256)"
					},
					{
						"astId": 1136,
						"contract": "contracts/Stake.sol:StakingPool",
						"label": "lastStakeTimestamp",
						"offset": 0,
						"slot": "5",
						"type": "t_mapping(t_address,t_uint256)"
					},
					{
						"astId": 1138,
						"contract": "contracts/Stake.sol:StakingPool",
						"label": "rewardRate",
						"offset": 0,
						"slot": "6",
						"type": "t_uint256"
					},
					{
						"astId": 1140,
						"contract": "contracts/Stake.sol:StakingPool",
						"label": "lastRewardTimestamp",
						"offset": 0,
						"slot": "7",
						"type": "t_uint256"
					},
					{
						"astId": 1155,
						"contract": "contracts/Stake.sol:StakingPool",
						"label": "supportedStakingPeriods",
						"offset": 0,
						"slot": "8",
						"type": "t_struct(UintSet)974_storage"
					}
				],
				"types": {
					"t_address": {
						"encoding": "inplace",
						"label": "address",
						"numberOfBytes": "20"
					},
					"t_array(t_bytes32)dyn_storage": {
						"base": "t_bytes32",
						"encoding": "dynamic_array",
						"label": "bytes32[]",
						"numberOfBytes": "32"
					},
					"t_bytes32": {
						"encoding": "inplace",
						"label": "bytes32",
						"numberOfBytes": "32"
					},
					"t_contract(IERC20)225": {
						"encoding": "inplace",
						"label": "contract IERC20",
						"numberOfBytes": "20"
					},
					"t_mapping(t_address,t_uint256)": {
						"encoding": "mapping",
						"key": "t_address",
						"label": "mapping(address => uint256)",
						"numberOfBytes": "32",
						"value": "t_uint256"
					},
					"t_mapping(t_bytes32,t_uint256)": {
						"encoding": "mapping",
						"key": "t_bytes32",
						"label": "mapping(bytes32 => uint256)",
						"numberOfBytes": "32",
						"value": "t_uint256"
					},
					"t_struct(Set)502_storage": {
						"encoding": "inplace",
						"label": "struct EnumerableSet.Set",
						"members": [
							{
								"astId": 497,
								"contract": "contracts/Stake.sol:StakingPool",
								"label": "_values",
								"offset": 0,
								"slot": "0",
								"type": "t_array(t_bytes32)dyn_storage"
							},
							{
								"astId": 501,
								"contract": "contracts/Stake.sol:StakingPool",
								"label": "_positions",
								"offset": 0,
								"slot": "1",
								"type": "t_mapping(t_bytes32,t_uint256)"
							}
						],
						"numberOfBytes": "64"
					},
					"t_struct(UintSet)974_storage": {
						"encoding": "inplace",
						"label": "struct EnumerableSet.UintSet",
						"members": [
							{
								"astId": 973,
								"contract": "contracts/Stake.sol:StakingPool",
								"label": "_inner",
								"offset": 0,
								"slot": "0",
								"type": "t_struct(Set)502_storage"
							}
						],
						"numberOfBytes": "64"
					},
					"t_uint256": {
						"encoding": "inplace",
						"label": "uint256",
						"numberOfBytes": "32"
					}
				}
			},
			"userdoc": {
				"kind": "user",
				"methods": {},
				"version": 1
			}
		}
	}
}